:020000040800F2
:1000000088040020450100084D0100084F01000848
:1000100051010008530100085501000800000000CC
:100020000000000000000000000000005701000870
:1000300059010008000000005B0100085D01000894
:100040005F0100085F0100085F0100085F01000810
:100050005F0100085F0100085F0100085F01000800
:100060005F0100085F0100085F0100085F010008F0
:100070005F0100085F0100085F0100085F010008E0
:100080005F0100085F0100085F0100085F010008D0
:100090005F0100085F0100085F0100085F010008C0
:1000A0005F0100085F0100085F0100085F010008B0
:1000B0005F0100085F0100085F0100085F010008A0
:1000C0005F0100085F0100085F0100085F01000890
:1000D0005F0100085F0100085F0100085F01000880
:1000E0005F0100085F0100085F0100085F01000870
:1000F0005F0100085F0100085F0100085F01000860
:100100005F0100085F0100085F0100085F0100084F
:100110005F0100085F0100085F0100085F0100083F
:100120005F0100085F0100085F0100085F0100082F
:10013000DFF80CD000F0A8FB00480047011C0008C5
:10014000880400200648804706480047FEE7FEE78F
:10015000FEE7FEE7FEE7FEE7FEE7FEE7FEE7FEE777
:100160002D11000831010008F0B480EA0102D40F1B
:100170004200B2EB410F02D20246084611464A0045
:1001800042D0C30DDDB2C1F3C752AD1A202D35DA0E
:10019000C1F3160141F4000204B15242C5F1200638
:1001A00002FA06F12A411044B3EBD05F23D0C4B168
:1001B000012DA0EBC35009DCF0BC4FF0004202EA75
:1001C000C352DBB200F5000000F089B9400000F135
:1001D000807000EBC350A0F1807040EAD1704900FC
:1001E00009E0490841EAC071A0EBC35000F50000E6
:1001F000400800EBC350F0BC00F068B96142012236
:1002000002EB4101001BF6E7F0BC704781F00041B2
:10021000AAE780F00040A7E780EA010210B502F0EB
:100220000043400022D04A001FD0010E01EB1261B2
:10023000C0F35600C2F3560240F4000042F400023C
:10024000A0FB022000047F39140400D0401C50EAB7
:10025000124001D44000491EC2B20C0604EBD0107B
:10026000401C4008802A02D003E0002010BD20F08E
:100270000100002900DA0020184310BD30B480EAE4
:10028000010202F0004530F0004221F0004013D09E
:1002900090B1C30DD40DC2F31601C0F31600E41AD9
:1002A00041F4000140F400027D34914201D3641C0A
:1002B00000E04900002C02DA30BC002070474FF407
:1002C00000000023914201D3891A034340084FEAFA
:1002D0004101F7D151B1914202D14FF0004105E007
:1002E00002D24FF0010101E06FF0010103EBC450B5
:1002F000284430BC00F0EAB82DE9F04D81EA03044F
:1003000004F0004B21F0004514464FF0000A23F0A2
:10031000004150EA050220D054EA01021DD0C5F385
:100320000A570246C5F31303C1F31300C1F30A567B
:1003300040F4801543F48013A7EB0608101BD64643
:1003400008F2FD3873EB050002D308F1010801E063
:1003500092185B41B8F1000F03DA00200146BDE8B6
:10036000F08D00204FF48011064684460EE0171BE6
:1003700073EB050705D3121B63EB050306434CEA39
:10038000010C49084FEA300092185B4150EA01071E
:10039000EDD152EA030012D082EA040083EA05019B
:1003A000084305D0101BAB4106D20122002306E012
:1003B00000224FF0004302E06FF0010253101AEBED
:1003C00006004CEB085110EB0A0041EB0B01BDE8B5
:1003D000F04D00F0B2B896230022114600F07FB82D
:1003E00000F0004230F000400AD0C10D01F560710C
:1003F000C0F3160042EA0151C2084007114370479A
:1004000000200146704701F0004330B421F0004164
:1004100050EA010206D00A0DA2F56072C1F3130181
:10042000002A02DC30BC00207047440F44EAC104BB
:10043000C100E01830BC00EBC25000F047B830B546
:100440000B46014600202022012409E021FA02F592
:100450009D4205D303FA02F5491B04FA02F528442C
:10046000151EA2F10102F1DC30BD2DE9F05F054659
:10047000002092469B4688460646814640241BE063
:10048000284641464746224600F01FFA53465A4640
:10049000C01A914110D311461846224600F006FAC0
:1004A0002D1A67EB01084F4622460120002100F07B
:1004B000FDF917EB00094E41201EA4F10104DFDC19
:1004C000484631462A464346BDE8F09F0029A8BF6A
:1004D0007047401C490008BF20F00100704710B46D
:1004E000B0FA80FC00FA0CF050EA010404BF10BC22
:1004F000704749B1CCF1200421FA04F411FA0CF14F
:1005000018BF012121430843A3EB0C01CB1D4FEA87
:1005100000614FEA102042BF002010BC704700EB82
:10052000C35010440029A4BF10BC7047401C4900B0
:1005300008BF20F0010010BC704710B5141E73F105
:10054000000408DA401C41F1000192185B411A4393
:1005500001D120F0010010BD2DE9F04D92469B46DF
:1005600011B1B1FA81F202E0B0FA80F22032904685
:1005700000F09CF904460F4640EA0A0041EA0B01EC
:1005800053465A46084313D0114653EA010019D086
:10059000C8F14002504600F098F905460E46504614
:1005A0005946424600F082F9084305D0012004E094
:1005B00020463946BDE8F08D0020054346EAE07646
:1005C0002C4337430A986305E40AA0EB0800002295
:1005D000FD0A44EA47540A3002D500200146E9E703
:1005E000010510196941DDE9084500196941BDE8B7
:1005F000F04DA2E72DE9FE4F804681EA0300C00FCF
:100600000C46009021F0004123F00045B8EB0200B9
:10061000A94105D24046214690461C460B4602465B
:1006200023F00040104347D0270DC7F30A00C3F35F
:100630000A510290401A019040286BDAC3F313006C
:1006400040F4801B0098924620B10023D2EB030AAD
:1006500063EB0B0B01985946C0F14002504600F085
:1006600025F906460D4650465946019A00F03DF9D7
:1006700010EB08006141002487EA115284EAE77315
:100680001A4340D0009A62B3019A012A4FEA0752F6
:1006900015DC001B61EB02014FF0004202EA075239
:1006A000CDE90042001C41F5801132462B46FFF790
:1006B00053FF03B0BDE8F08F40462146F9E7001B29
:1006C00061EB0201001C41F5801300185B4120180A
:1006D000A2F5001747EB030140EAD570B6196D414A
:1006E00011E06D084FEA360645EAC0754FEA075239
:1006F000001B61EB0201001C41F5801149084FEA23
:1007000030000019514132462B4603B0BDE8F04F8E
:10071000FFF713BF0098012240000023D0EB020234
:1007200063EBE073009821464FEAE074B8EB0000F9
:1007300061EB0401E9E783F000435BE781F00041EE
:1007400058E72DE9FE4F81EA030404F0004421F04C
:10075000004100944FF0000B23F0004350EA0104E5
:100760005ED052EA03045BD0C3F30A54C1F30A55C6
:100770002C44A4F2F3340194A0FB0254C1F31301FE
:1007800041F48011C3F3130343F4801301FB0244CB
:1007900000FB034E840A970A44EA815447EA8357D0
:1007A000A4FB076802958D0A05FB07854FEA932C89
:1007B00004FB0C542705029D4FEA065847EA1637FA
:1007C000B5EB08056EEB070C870E920E47EA811712
:1007D00042EA8312A7FB0201B6EB0B0164EB0004B3
:1007E0002B0D43EA0C335E1844EB1C50DA4651469D
:1007F000E7FB0201C5F313044FEA0B3343EA14533A
:100800004FEA0432019C43EA0603A4F10C0402946B
:10081000009CCDE900B4FFF79FFE03B0BDE8F08F68
:1008200000200146F9E7C1F30A52C1F3130140F277
:10083000FF3341F480119A4202DA002001467047EA
:1008400040F233439A42A2F2334202DC524200F0B9
:100850003CB800F02BB8000030B5041E71F1000464
:1008600004DB4FF00044404264EB0101141E73F1BD
:10087000000405DB1C464FF00043524263EB0403C7
:10088000994208BF904230BD064C074D06E0E06833
:1008900040F0010394E8070098471034AC42F6D3C7
:1008A000FFF74AFCA81D0008C81D0008202A04DB29
:1008B000203A00FA02F1002070479140C2F1200373
:1008C00020FA03F3194390407047202A04DB203AB2
:1008D00021FA02F00021704721FA02F3D040C2F160
:1008E00020029140084319467047202A06DBCB17A7
:1008F000203A41FA02F043EAE07306E041FA02F3DB
:10090000D040C2F12002914008431946704710B50B
:100910000446204600F002F900BF204600F02CF803
:100920000028FAD1204600F009F900BF204600F067
:1009300019F80028FAD110BD21B1826842F00102F5
:10094000826003E0826822F001028260704721B178
:10095000826842F48072826003E0826822F48072CE
:1009600082607047014600208A6802F004020AB1E2
:10097000012000E000207047014600208A6802F054
:1009800008020AB1012000E00020704730B502469D
:100990000020002350680F4C20400D790C6844EA79
:1009A00005242043506090680B4C2040D1E902544C
:1009B0002C434D7944EA450420439060D06A20F4EA
:1009C00070000C7C641EE4B2234340EA0350D06202
:1009D00030BD0000FFFEF0FFFDF7F1FF10B586B05F
:1009E0000446002001908DF8080001208DF80900D0
:1009F0004FF4602003900020049001208DF8140033
:100A000001A92046FFF7C2FF06B010BDF0B50446AD
:100A10000D4600200021092D11DDE068A5F10A0630
:100A200006EB4607072606FA07F18843A5F10A06F2
:100A300006EB460603FA06F10843E0600CE0206985
:100A400005EB4507072606FA07F1884305EB45063F
:100A500003FA06F108432061072A0FDA606B561E7D
:100A600006EB86071F2606FA07F18843561E06EB9B
:100A7000860605FA06F10843606322E00D2A0FDAC4
:100A8000206BD61F06EB86071F2606FA07F1884360
:100A9000D61F06EB860605FA06F10843206310E030
:100AA000E06AA2F10D0606EB86071F2606FA07F19B
:100AB0008843A2F10D0606EB860605FA06F1084307
:100AC000E062F0BD10B5044601214FF4C06000F0B3
:100AD000A9FA4FF4404000F089FA204600F096F958
:100AE00000F056F82046FFF779FF072301220E2178
:100AF0002046FFF78BFF01212046FFF728FF01204A
:100B000000F022F801212046FFF716FF2046FFF7EC
:100B1000FEFE0121204600F006F810BD816841F07C
:100B200008018160704721B1826842F4A0028260AE
:100B300003E0826822F4A00282607047816841F07D
:100B4000040181607047000030B10749096841F431
:100B50000001054A116005E00349096821F400011C
:100B6000014A1160704700000824014010B5402080
:100B700000F00CFB002405E00449085D00F01EFBBA
:100B8000601CC4B2402CF7DB10BD00000200002046
:100B900000B58BB00121084600F034FA114800F08E
:100BA00033F8114800901148019000200290012074
:100BB0000390002004908020059040000690800063
:100BC0000790202008900002099000200A906946B2
:100BD000044800F0BFF80121024800F009F80BB00A
:100BE00000BD0000080002404C240140000000202D
:100BF00021B1026842F00102026004E002684FF68F
:100C0000FE731A400260704701684FF6FE72114091
:100C100001600021016041608160C1604B498842F0
:100C200008D14A490839496841F00F01474A083A52
:100C300051608AE045491431884208D14349083956
:100C4000496841F0F001414A083A51607DE03F496E
:100C50002831884208D13D490839496841F470611A
:100C60003A4A083A516070E038493C31884208D12C
:100C700036490839496841F47041344A083A5160AC
:100C800063E032495031884208D130490839496817
:100C900041F470212D4A083A516056E02B496431E5
:100CA000884208D129490839496841F47001274A26
:100CB000083A516049E025497831884208D12349F2
:100CC0000839496841F07061204A083A51603CE0B7
:100CD0001F49884206D1011F096841F00F01021F18
:100CE000116032E01A491431884208D11849091FAD
:100CF000096841F0F001164A121F116025E01449FD
:100D00002831884208D11249091F096841F47061ED
:100D10000F4A121F116018E00D493C31884208D17A
:100D20000B49091F096841F47041094A121F1160FB
:100D30000BE007495031884207D10549091F09686E
:100D400041F47021024A121F1160704708000240EE
:100D50000804024010B50022026847F6F0739A4377
:100D60000C6A8B6823430C6923434C6923438C69C9
:100D70002343CC6923434C6A23438C6A23431A439D
:100D80000260CB6843600B6883604B68C36010BD32
:100D900000BF772100BF432200BF531E9BB21A1E23
:100DA000FBD14B1E9BB2191EF5D1431EDBB2181EA0
:100DB000EFD1704700BF422100BF1E2200BF531E6B
:100DC000DBB21A1EFBD14B1EDBB2191EF5D1431E3E
:100DD000DBB2181EEFD1704700BF4FF47A7100BF2D
:100DE00040F2012200BF531E9BB21A1EFBD14B1EC4
:100DF0009BB2191EF4D1431EDBB2181EEDD1704711
:100E000000BF411EC9B2081EFBD1704738B5044669
:100E10000121102000F006F91020ADF8000000209C
:100E20008DF803006946024800F004F838BD000060
:100E3000001001402DE9F041024600250026002067
:100E400000230024002791F803C00CF00F0591F84F
:100E500003C00CF0100CBCF1000F03D091F802C0DD
:100E60004CEA050591F800C0BCF1000F31D01468C0
:100E700000202BE04FF0010C0CFA00F3B1F800C099
:100E80000CEA03069E4220D183004FF00F0C0CFAAF
:100E900003F7BC4305FA03FC4CEA040491F803C0D1
:100EA000BCF1280F06D14FF0010C0CFA00FCC2F87F
:100EB00014C00AE091F803C0BCF1480F05D14FF00F
:100EC000010C0CFA00FCC2F810C0401C0828D1D359
:100ED0001460B1F800C0BCF1FF0F34DD546800208D
:100EE0002EE000F1080C4FF0010808FA0CF3B1F8FD
:100EF00000C00CEA03069E4221D183004FF00F0C84
:100F00000CFA03F7BC4305FA03FC4CEA040491F81D
:100F100003C0BCF1280F05D100F1080C08FA0CF849
:100F2000C2F8148091F803C0BCF1480F07D100F15A
:100F3000080C4FF0010808FA0CF8C2F81080401CA9
:100F40000828CED35460BDE8F081000008B5012127
:100F5000042000F067F80121202000F063F8F3205E
:100F6000ADF8000003208DF8020010208DF803007A
:100F700069460648FFF75EFF4FF48070ADF8000049
:100F800069460348FFF756FF08BD00000014014002
:100F900000080140416170470161704710B50A20A7
:100FA000FFF71AFFFFF7D2FF052404E0282000F026
:100FB000EDF8601EC4B2002CF8DC012000F0E6F869
:100FC000062000F0E3F80F2000F0E0F80C2000F01D
:100FD000DDF8FFF7CBFD10BD10B5FFF7DFFF0248CE
:100FE000FFF770FD10BD0000002401400146002005
:100FF000034A506820F440400843506070470000A6
:101000000010024029B1064A52690243044B5A615A
:1010100004E0034A52698243014B5A617047000061
:101020000010024029B1064A92690243044B9A61BA
:1010300004E0034A92698243014B9A6170470000C1
:101040000010024010B500F001F810BD0CB50020F2
:10105000019000903348006840F4803031490860C6
:1010600000BF3048006800F4003000900198401C38
:101070000190009818B90198B0F5A06FF1D12948F6
:10108000006800F4003010B10120009001E0002061
:1010900000900098012843D12348006840F01000D8
:1010A000214908600846006820F0030008600846EF
:1010B000006840F0020008601A484068194948601A
:1010C0000846406848600846406840F480604860D0
:1010D0000846406820F47C1048600846406840F4A8
:1010E000E81048600846006840F08070086000BF63
:1010F0000C48006800F000700028F9D009484068EA
:1011000020F00300074948600846406840F00200AC
:10111000486000BF0348406800F00C000828F9D17F
:101120000CBD0000001002400020024010B5134822
:10113000006840F001001149086008464068104905
:1011400008400E494860084600680E4908400B49AF
:1011500008600846006820F480200860084640685F
:1011600020F4FE0048604FF41F008860FFF76AFF1C
:101170004FF000600449086010BD000000100240FC
:101180000000FFF8FFFFF6FE08ED00E010B5044692
:10119000074804700748047001210748FFF7FAFE6A
:1011A00002210548FFF7F6FE00F020F810BD000010
:1011B00081000020820000200014014010B5044688
:1011C000074804700748047001210748FFF7E4FE50
:1011D00002210548FFF7DEFE00F008F810BD000010
:1011E00081000020820000200014014010B5324828
:1011F00000684FF60F7108402F4908602F480078AB
:1012000000F0F0002D4908702B4800680978084369
:10121000294908602A4800684FF6FF6108402849BC
:1012200008600120FFF7ECFD4FF4807124480C3872
:10123000FFF7B2FE0120FFF7E3FD4FF48071204875
:101240000C38FFF7A7FE0120FFF7DAFD1A48006807
:101250004FF60F710840184908601A48007800F0EE
:101260000F0018490870084600780007000E087043
:1012700011480068097808430F4908601048006861
:101280004FF6FF6108400E4908600120FFF7B8FDE6
:101290004FF480710A480C38FFF77EFE0120FFF7FB
:1012A000AFFD4FF4807106480C38FFF773FE052040
:1012B000FFF76EFD10BD00000C14014081000020FE
:1012C0000C0801408200002070B506460D46144609
:1012D000012E05D105F17F01C8B2FFF757FF04E0E9
:1012E00005F1BF01C8B2FFF751FF03E02078FFF717
:1012F00065FF641C20780028F8D170BD0FB4084B3E
:1013000010B504A902AA039800F0DEF8044602A969
:10131000002000F070FC204610BC5DF814FB0000BB
:10132000F71B000802E008C8121F08C1002AFAD102
:1013300070477047002001E001C1121F002AFBD155
:10134000704700002DE9FF5F82B00021DDE9043025
:10135000020DDDF840B0034318D044F61050A2F25D
:10136000FF3242431514119801281FD0A5EB0B0042
:10137000401C5FEA000A4FF000064E4FDFF838913C
:10138000B046504615D5CAF1000413E01198012467
:101390004AA3012801D16FEA0B010298119AC0E912
:1013A0000031C0E9024206B0BDE8F09FCBF1000079
:1013B000DFE704460021404A491842EB0450CDE9DA
:1013C000001012E0E00707D032463B46404649464F
:1013D000FFF7B7F98046894632463B461046194624
:1013E000FFF7AFF906460F466410002CEAD1DDE99D
:1013F0000401DDE90023BAF1000F06DAFFF7A1F9D5
:1014000042464B46FFF79DF905E0FEF775FF424661
:101410004B46FEF771FF04460E460022284BFFF7AD
:101420001BFA03D84FF0FF30014607E00022254B9E
:1014300020463146FFF7DEF8FFF7F5F9102409E002
:10144000002C0ADB0A220023FFF70FF8039B30323F
:101450001A55641E50EA0102F2D1641C039AC4F1C9
:1014600011031444119A012A03D0012208430DD11B
:101470000AE0084304D000204FF0110B119072E7EE
:10148000A3EB0B056D1E0DE05B4504DD4FF0000284
:1014900005F1010504E003DA4FF00002A5F10105B2
:1014A000002AECD002981199C0E90231C0E9004548
:1014B00079E70000000014400000F03F3000000019
:1014C0000000F0430000E03F2DE9FF4F95B09B4640
:1014D0008946064600250FE2252877D100242746B5
:1014E000F84A0121059400E0044316F8013F203B2F
:1014F00001FA03F01042F7D130782A2811D06FF0AA
:101500002F033078A0F13002092A16D8059A44F04A
:10151000020402EB820203EB42021044761C0590A7
:10152000EFE759F8042B0592002A03DA504244F4FD
:101530000054059044F00204761C30782E2816D111
:1015400016F8010F44F004042A280DD06FF02F0282
:101550003078A0F13003092B09D807EB870302EBA1
:101560004303C718761CF3E759F8047B761C3078E0
:101570006C280FD006DC4C2817D068280DD06A28BC
:1015800014D104E0742810D07A280FD10DE044F46F
:1015900000140AE044F4801401E044F4401472782A
:1015A000824202D104F58014761C761C30786628BD
:1015B0000BD013DC582877D009DC002875D04528DB
:1015C000F6D04628F4D047281AD19DE118E06328C8
:1015D00035D0642879D0652812D195E1702873D070
:1015E00008DC6728F1D069286FD06E280DD06F28ED
:1015F00006D1B5E073282CD0752875D0782874D022
:101600005A46179990476D1C75E1C4F302500228A1
:1016100009D003280DD0D9F8001004280DD00D6092
:1016200009F1040967E1D9F80010EA17C1E900528D
:10163000F6E7D9F800100D80F2E70D70F0E719F821
:10164000041B8DF8001000208DF80100EA460120EF
:1016500003E059F804AB4FF0FF3061074FF0000191
:1016600002D40DE008F101018846B9420FDA804545
:10167000F8DB1AF808100029F4D108E008F101019C
:1016800088468142FADB1AF808100029F6D105983D
:101690005B46A0EB080721463846179A00F094FAFB
:1016A000284400EB080507E04DE029E10DE01AF8B9
:1016B000010B5A4617999047B8F10108F7D25B46DB
:1016C00021463846179A13E142E00A220092C4F3F9
:1016D00002524FF0000A022A08D059F804CB032A1C
:1016E0004FEAEC710AD00DE029E02AE009F1070188
:1016F00021F00702F2E802C1914609E00FFA8CFCE2
:101700004FEAEC71042A03D14FFA8CFC4FEAEC71DA
:10171000002907DA0A460021DCF1000C61EB020126
:101720002D2202E0220504D52B228DF8042001226F
:1017300003E0E20701D02022F7E7904659E00A21B2
:1017400002E010220DE010214FF0000A00910BE0A2
:1017500010224FF0000A44F004040827009203E02E
:1017600008224FF0000A0092C4F30252022A05D068
:1017700059F804CB0021032A08D009E009F1070138
:1017800021F00702F2E802C1914605E01FFA8CFC45
:10179000042A01D10CF0FF0C4FF00008220728D5D5
:1017A000702806D0009B83F0100353EA0A0305D08B
:1017B0000EE040228DF80420012208E05CEA0102DC
:1017C00006D030228DF804208DF8050002229046C4
:1017D000009B83F0080353EA0A030AD15CEA010282
:1017E00001D1620705D530228DF804204FF00108A1
:1017F0007F1E582804D034A003900EA802900DE05C
:1018000036A0F9E753466046009AFEF72EFE84465E
:101810000398825C0298401E029002705CEA01000C
:10182000F0D1029806A9081A00F1200A600702D533
:1018300024F4803400E00127574502DDA7EB0A00BD
:1018400000E0002000EB0A01009005984144401A96
:101850000590E00306D45B462146179A059800F0F0
:10186000B3F90544002706E001A85A46C05D179960
:1018700090476D1C7F1C4745F6DBE0030CD55B46AB
:101880002146179A059800F09FF9054404E030209E
:101890005A46179990476D1C0099481E00900029E0
:1018A000F5DC08E0029802995A460078491C02913A
:1018B000179990476D1CBAF10001AAF1010AF1DCF9
:1018C00065E1000009280100303132333435363704
:1018D000383961626364656600000000303132337C
:1018E000343536373839414243444546000000001C
:1018F00000F058F90544761C307800287FF4ECADF0
:1019000019B02846BDE8F08F620700D4062709F118
:10191000070222F0070CFCE80223E14603F000482E
:101920005FEA080C02D00FF2702C0DE05FEA045C55
:1019300002D50FF2682C07E05FEAC47C02D00FF2F8
:10194000602C01E0AFF2700C4FF0FF3823F0004341
:10195000CDF850C065280CD006DC452809D04628B3
:101960001DD047283DD13DE0662818D067287ED19C
:1019700038E00021112F01DB112000E0781CCDE9B7
:10198000000106A90EA8FFF7DDFCDDE90F010E9AA4
:1019900003910021009207F1010A04914DE04FF0FC
:1019A00000400097CDE9011006A90EA8FFF7CAFC78
:1019B000DDE90F0203920E9B11990022DDF80CA0C5
:1019C0000093049211B9791C00EB010AB7EB0A00ED
:1019D00004D4C0F1FF3007F1010A0490AAEB07001C
:1019E000019044E0012F00DA01270021112F01DDD1
:1019F000112000E03846CDE9000106A90EA8FFF746
:101A0000A1FCDDE90F010E9A0391002104910092DF
:101A1000BA4621070CD40399514500DA8A46BAF137
:101A2000010F05DD009AAAF10101515C302908D0AF
:101A3000B84202DA10F1040F06DA0121CDE90110F3
:101A400015E0AAF10101E9E7002805DC0499014449
:101A50000491AAEB000102E0411C514500DD8A46D9
:101A60000499401A401C01904FF00040029020075A
:101A700004D40198504501DBCDF8048000208DF896
:101A80004F0002980DF14F07B0F1004F25D02B20E9
:101A90000E9002984FF0020800280CDA40420290A3
:101AA0002D200E9007E00A210298FEF7C8FC303185
:101AB000029007F8011DB8F10001A8F10108F2DC5D
:101AC00002980028EFD1791E0E980870307800F047
:101AD000200040F0450007F8020D12A8C01B00F1DD
:101AE00007081498007800B1012000EB0A01019862
:101AF00001EBE07105984144401A401E0590E00357
:101B000006D45B462146179A059800F05DF8054417
:101B10001498007818B15A46179990476D1CE00345
:101B200024D55B462146179A059800F04DF80544E8
:101B30001CE00498002807DBDDE90301884203DD8F
:101B40000098405C179901E0179930205A46904759
:101B5000049805F10105401C04900198401E019075
:101B600004D12E205A46179990476D1CBAF10001F6
:101B7000AAF1010ADDDC05E017F8010B5A461799B6
:101B800090476D1CB8F10001A8F10108F4DC5B4638
:101B90002146179A0598ABE62D0000002B000000A7
:101BA000200000002DE9F041044600251E4617469E
:101BB000880404D405E039462020B0476D1C641E1B
:101BC000F9D52846BDE8F0812DE9F041044600250D
:101BD0001E469046C80301D5302700E02027880420
:101BE00004D505E041463846B0476D1C641EF9D562
:101BF0002846BDE8F0810A68531C0B6010707047DE
:101C000090B055480B9055480A9055480990554852
:101C10000890FFF7E1F90120FFF7B8FA52A201217D
:101C20000846FFF751FB54A201210220FFF74CFBAD
:101C300090E000240025A0464FF6FF79A24600263A
:101C400015E05148008840F6E441484340F6FF71F2
:101C500090FBF1F084B22544444500DDA0464C459C
:101C600000DAA1460120FFF7A5F8701CC6B2642E69
:101C7000E7DBA5EB0805A5EB09052846FEF7ABFB5E
:101C80008346FEF7ADFB0022404BCDE90401FEF791
:101C900033FBCDE90601FEF7B6FB82463C490898C6
:101CA000FEF7BAFA514607900998FEF7B5FA83464F
:101CB0003849FEF7E3FA514605900A98FEF7ACFA68
:101CC00051460190FEF7A8FA83463349FEF7D6FA4B
:101CD000514603900B98FEF79FFA51460090FEF78D
:101CE0009BFA83465146FEF797FA2C490190FEF77E
:101CF000C5FA02900399FEF737FA04900599FEF7AA
:101D000033FA06900799FEF72FFA07465046FEF77A
:101D100067FB02460B46CDE9060121A10CA8FFF79F
:101D2000EDFA0CAA04210120FFF7CEFA3846FEF79F
:101D300057FB02460B46CDE9060119A10CA8FFF797
:101D4000DDFA0CAA04210220FFF7BEFA0420FFF7F7
:101D500043F800BF6DE70000E4A1E7BF46D354C0DD
:101D60008734E8BFC4930340563A20202020202027
:101D7000202020206D560000543A202020202020D2
:101D80002020202027430000000000200080584031
:101D90000000C8420000204100247449286B6E4EA8
:101DA000252E336600000000C81D0008000000203A
:101DB00084000000241300084C1E0008840000204A
:101DC00004040000341300080000080F120F0A1F5B
:101DD00002020F090F090F0911001F11111F111124
:101DE0001F00110A041F041F04000E001F0A0A0A24
:101DF000130018180708080807000F0F0F0A0F1222
:101E0000071F00000E00001F000057656C636F6D18
:101E10006520746F20757365212054656C3A3133E9
:101E20003931323334353637384D44442D31202062
:101E3000033335382E303004203230313400320153
:0C1E400030370220543D31350500000011
:0400000508000131BD
:00000001FF
