:03000000020F6587
:0C0F6500787FE4F6D8FD758121020FAC06
:10116B004949435F646174613A20004E6F20436FBD
:10117B006E6E656374656421200D0A00CEC2B6C81D
:10118B003A252E3266200D0ACAAAB6C83A252E3247
:10119B006625250D0A004352432057726F6E672157
:0311AB000D0A002A
:100FF100A0641700000000000000000000000000D5
:1010010000000000000000000000000000000000DF
:1010110000000000000000000000000000000000CF
:1010210000000000000000000000000000000000BF
:1010310000000000000000000000000000000000AF
:10104100000000000000000000000000000000009F
:1010510000000000000000870F00000000000000F9
:06106100811600810E0063
:07136400C28112136BD2815C
:06136B000000000000225A
:071385007F5412136BDFFB24
:01138C00223E
:0A12C600E4FBFA1212E87F507E00EC
:1012D000AD07AC06D3ED9400EC9400400A121385E0
:0812E000ED1D70F01C80ED22F1
:10131300758920758DFD758BFDD28E759850D2AC75
:03132300D2AF2224
:08138D008F993099FDC29922ED
:03002300020003D5
:09000300C0E0C0D075D000C000BF
:0A000C00309807C29878A2E599F237
:07001600D000D0D0D0E03291
:101220007893EBF208EAF208E9F27893E2FB08E23D
:10123000FA08E2F91204EE601A7893E2FB0808E279
:10124000F92401F218E2FA3400F21204EEFF12134C
:041250008D80D72294
:0A106800788BEBF208EAF208E9F2D7
:101072007BFF7A11796B121220E4FE788EE2FB0874
:10108200E2FA08E2F98E82758300120507FFC45462
:101092000F7891F2EF540F08F2E4FD74912DF8E20B
:1010A200FFD394094006EF2437F28004E22430F2A1
:1010B20074912DF8E2FF12138D0DEDB402DD7F2045
:0D10C20012138D0EEEB407B37F0A02138DDA
:0F133800D280D28112136BC28012136BC281223A
:04135600F212137B01
:0A135A00C280D28112136BD28022F0
:0A137100C280121364C281D28022F0
:0A137B00D280121364D280C28122D6
:1011AE001211FA1211C1E4FF1211FA1211C1E4FF69
:0311BE001211FA11
:1011C100E4FF121364308009EFC3946450030F806D
:1011D100F4EFB46406E4780EF28005780E7401F23F
:0911E100C28112136B780EE2FFCB
:0111EA0022E2
:0F11EB0012135A7F0A7E001212D01213387F702F
:1011FA007E80E4FDC28112136BEE5F6004D28080B0
:10120A0002C280D28112136BEF25E0FF0DEDB40804
:06121A00E3C28102136B28
:0812A300EFF2780FF212137153
:1012AB00E4FEFD121364E4FF3080010FEE25E04FE6
:0A12BB00FEC2810DEDB408EBAF0692
:0112C5002206
:1012FE001213387F711211FA1211C11212AB12139E
:04130E007B12135AE1
:0113120022B8
:10132600E4FF1212FEEF5468FFBF08037F01227F1D
:0113360000B6
:011337002293
:1012E8001211F51211C17FAC1211FA1211C17F331C
:0612F8001211B602135AA8
:0D1126007899EBF208EAF208E9F208EDF220
:101133007FFFE4FE789CE2FDEEC39D502A7899E29E
:10114300FB08E2FA08E2F98E827583001205076F45
:10115300FF7D08EF30E70725E06431FF8004EF25CA
:07116300E0FFDDEF0E80CD7F
:01116A002262
:0A0C89007800EBF208EAF208E9F245
:100C9300E408F208F208F208F208F208F208F2088F
:100CA3001205C4000000001212C61212FEEF30E754
:100CB300177F027E001212D00BEBAE0270010A14F2
:100CC300C39464EE940040E21213387F711211FA58
:100CD3001211C11212AB78031212A37804EFF27847
:100CE300101212A77805EFF278111212A77806EF07
:100CF300F278121212A77807EFF278131212A7787C
:100D030008EFF278141213567804E2FF780AE2FB34
:100D130008E2F908E2FA08E2CBF8EB4FFFEAFEE952
:100D2300FDE8FC7808120567780A1205B87805E231
:100D3300FF780AE2FB08E2F908E2FA08E2CBF8EBF3
:100D43004FFFEAFEE9FDE8FC7808120567780A120E
:100D530005B87806E2FF780AE2FB08E2F908E2FA4E
:100D630008E2CBF8EB4FFFEAFEE9FDE8FC780A1254
:100D730005B8780AE2FC08E2FD08E2FE08E2FF7823
:100D830004120554780A1205B8780AE2FC08E2FD59
:100D930008E2FE08E2FF7800E2FB08E2FA08E2F963
:100DA30012057A780A1205C4000000007806E2FFF3
:100DB300780AE2FB08E2F908E2FA08E2CBF8EB4F23
:100DC300FFEAFEE9FDE8FC7808120567780A1205D8
:100DD300B87807E2FF780AE2FB08E2F908E2FA08CA
:100DE300E2CBF8EB4FFFEAFEE9FDE8FC78081205D9
:100DF30067780A1205B87808E2FF780AE2FB08E28E
:100E0300F908E2FA08E2CBF8EB4FFFEAFEE9FDE866
:100E1300FC780A1205B8780A08E2FD08E2FE08E247
:100E2300FFED540FFDE4FC780A1205B8780AE2FCE2
:100E330008E2FD08E2FE08E2FF7800E2FB08E2FABE
:090E430008E2F990000402059494
:0A0AA200788BEBF208EAF208E9F2A3
:100AAC00E408F208F208F208F208F208F208F20878
:100ABC001205C4000000001212C61212FEEF30E73D
:100ACC00177F017E001212D00BEBAE0270010A14DC
:100ADC00C39464EE940040E21213387F711211FA41
:100AEC001211C11212AB788E1212A3788FEFF2781A
:100AFC00101212A77890EFF278111212A77891EFDA
:100B0C00F278121212A77892EFF278131212A778D9
:100B1C0093EFF278141212A77894EFF2781512135F
:100B2C00567BFE7A00790F7D061211267894E26FBF
:100B3C0078166003020C85F2788FE2FF7895E2FB61
:100B4C0008E2F908E2FA08E2CBF8EB4FFFEAFEE91B
:100B5C00FDE8FC780812056778951205B87890E2E4
:100B6C00FF7895E2FB08E2F908E2FA08E2CBF8EB31
:100B7C004FFFEAFEE9FDE8FC78081205677895124C
:100B8C0005B87891E2FF7895E2FB08E2F908E2FA01
:100B9C0008E2CBF8EB4FFFEAFEE9FDE8FC78951292
:100BAC0005B87895E2FC08E2FD08E2FE08E2FF7861
:100BBC000412055478951205B87895E2FC08E2FD0C
:100BCC0008E2FE08E2FF788BE2FB08E2FA08E2F9A1
:100BDC0012057A78951205C4000000007891E2FFA6
:100BEC007895E2FB08E2F908E2FA08E2CBF8EB4F61
:100BFC00FFEAFEE9FDE8FC78081205677895120516
:100C0C00B87892E2FF7895E2FB08E2F908E2FA087C
:100C1C00E2CBF8EB4FFFEAFEE9FDE8FC78081205A1
:100C2C006778951205B87893E2FF7895E2FB08E2B5
:100C3C00F908E2FA08E2CBF8EB4FFFEAFEE9FDE82F
:100C4C00FC78951205B8789508E2FD08E2FE08E2FA
:100C5C00FFED540FFDE4FC78951205B87895E2FC95
:100C6C0008E2FD08E2FE08E2FF788BE2FB08E2FAFC
:0C0C7C0008E2F99000040205947401F2F3
:010C88002249
:101254001211F51211C17FA81211AE1211EB121165
:10126400C17FBE1211FA1211C17F081211B61213F6
:081274005A7F0A7E000212D02D
:0210CF00AB076D
:1010D1001211F51211C1AF031211AE12135A7F058D
:1010E1007E001212D01213387F711211FA1211C13F
:1010F1001212AB788BEF1212A7A9071213711212F9
:10110100ABAA0712137B1211EB1211C1EB44B012FF
:1011110011BDAF011211FA1211C1AF021211FA126F
:0511210011C102135A88
:0F1347007F1B1210CF7F1C1210CF7F1E0210CF02
:100E4C001213137FF47E011212D01212FEEF5418FB
:100E5C006418600A1213477F0A7E001212D07BFEC0
:100E6C007A00797B120AA2787BE2FC08E2FD08E2A8
:100E7C00FE08E2FFE41202C4E4FBFA798078441223
:100E8C000227E4FBFA79807844120227E4FBFA7912
:100E9C00C8784212011E78831205B8787FE2FC08EC
:100EAC00E2FD08E2FE08E2FFE41202C4E4FBFA7978
:100EBC00807844120227E4FBFA79807844120227E6
:100ECC00E4FBFA7948784312011EE4FBFA7948787E
:100EDC00C212002D78871205B8780EE2700B7BFFDA
:100EEC007A11797612122080667816E27042788E2A
:100EFC0074FFF2087411F2087487F27887E2FC0828
:100F0C00E2FD08E2FE08E2FF78911205B87883E270
:100F1C00FC08E2FD08E2FE08E2FF78951205B87BBA
:100F2C00FE7A0079171206907BFE7A0079178006FC
:100F3C007BFF7A1179A1121220788E74FEF208745C
:100F4C0000F208740FF27BFE7A0079171210687F9A
:090F5C00D07E071212D0020E6AC9
:10002600020337E86480F8E933E83360110460F0CE
:10003600ED33EC337009E8FCE9FDEAFEEBFF220440
:1000460060DED3EB9FEA9EE99DE8C2E78CF0C2F73B
:1000560095F0400CE8CCF8E9CDF9EACEFAEBCFFB07
:1000660012030285D0F05804700320D5B3E804705B
:10007600075002B2D502034192D5EC0460F7E4CCF6
:10008600C0E0C398F8603B94186008400DD0E0FBD0
:10009600020319E4FBFAC9FC8028E830E406E4C947
:1000A600FBE4CAFCE830E305E4C9CACBFCE8540724
:1000B6006010F8C3E913F9EA13FAEB13FBEC13FC2F
:1000C600D8F130F52FC3E49CFCEF9BFFEE9AFEEDD2
:1000D60099FDD0E0FBEF4E4D4C701222DB0302037C
:1000E6003EEC2CFCEF33FFEE33FEED33FDED30E757
:1000F600EB020319EF2BFFEE3AFEED39FDD0E0FBE4
:1001060050130BBB0003020341ED13FDEE13FEEF8C
:0801160013FFEC13FC020319B6
:10011E00EC4D6011E8497017ED33EC3304600DE4DB
:10012E00FCFFFEFD22E933E8330470F802033712B8
:10013E00030258046009E4CC2481500628500902B9
:10014E00034128400302033EC0E0EB4A7044B980ED
:10015E0006D0E0FB02032DEF4E701CBD8008EBFFB6
:10016E00EAFEE9FD80EBE98DF0A4FEE5F002020760
:10017E00E9CDF9EAFEEBFFEF89F0A4FCE5F0CE89BC
:10018E00F0A42EFFE435F0CD89F0A42DFEE435F079
:10019E008067EF4E7005BD80D780C3EF8BF0A4ACA7
:1001AE00F0EE8BF0A42CFCE435F0F8EF8AF0A42CE2
:1001BE00E5F038FCE433CB8DF0A42CFCE5F03BF8F5
:1001CE00EE8AF0A42CFCE5F038F8E433CF89F0A4E5
:1001DE002CFCE5F038CF3400CE89F0A42FFFE5F0EB
:1001EE003EFEE433C98DF0A42EFEE5F039CD8AF043
:1001FE00A42FFFE5F03EFEE43DFD33D0E0FB5007BB
:10020E000BBB000F020341EC2CFCEF33FFEE33FE71
:06021E00ED33FD0203199F
:10022400020341EC5D046005E859047003020337DE
:10023400120302580460F6EC4860F2EC7004FDFE10
:10024400FF22C860DB2481C85009C39860025006AD
:1002540002033E9850CAF582E9294B4A7005AB82E5
:1002640002032D75F0007C1A7880C3EF9BEE9AEDA3
:1002740099400DC3EF9BFFEE9AFEED99FDE842F025
:10028400DC23ACF0D0E0FFD0E0FED0E0FDAB822078
:10029400E7101BEB60BAEC2CFCEF33FFEE33FEED02
:1002A40033FD020319E803F830E705C0F075F000E8
:1002B400EF2FFFEE33FEED33FD40B830E7C280AAE6
:1002C40075F020800E75F010800575F0087D007EB5
:1002D400007F003392D530D503120546EC3340102D
:1002E400EF33FFEE33FEED33FDEC33FCD5F0ED22BE
:0E02F400E5F0247EA2D513CC92E7CDCEFF22FA
:10063400E508248EF8E2050822788B300702788ECC
:10064400E475F0011205DD0204EE2000EB7F2ED2EA
:10065400008018EF540F2490D43440D4FF30040B9E
:10066400EF24BFB41A0050032461FFE509600215AA
:1006740009050CE50C7002050B30070D788BE47549
:10068400F0011205DDEF02053402127C7403D20777
:100694008003E4C207F508788B1205EDE4F509F54B
:1006A4000BF50CE50960077F2012066F80F5750ACB
:1006B400FFC201C200C202C203C205C206C20812BE
:1006C400063DFF700D3007057F00120680AF0CAEAB
:1006D4000B22B4255FC2D5C20412063DFF24D0B458
:1006E4000A00501A75F00A780930D50508B6FF01DA
:1006F40006C6A426F620D5047002D20380D924CFDE
:10070400B41A00EF5004C2E5D20402096CD201808D
:10071400C6D20080C0D20280BCD2D580BAD20580B5
:10072400B47F2012066F2002077401B5090040F15E
:10073400120634FF12066F0206A7D208D20680956D
:10074400120634FB120634FA120634F94A4B7006C8
:1007540079637A0A7BFF20022EE509602A7E008EE7
:100764008275830012050760060EEE650A70F0C2FA
:10077400D5EBC0E0EAC0E0E9C0E0EE1209CCD0E07D
:10078400F9D0E0FAD0E0FB1204EEFF60AAEBC0E07F
:10079400EAC0E0E9C0E012066FD0E02401F9D0E03D
:1007A4003400FAD0E0FBE50A0460DCD50AD980877E
:1007B400D20280A21209AF60F7E50A7001041203A5
:1007C4004CA90A600DE50A600914F50A120A56EFED
:1007D40060F3EA30E702F404C3995077EAF4250A97
:1007E4000430E701E404F50A800D1209AF60C1EAA0
:1007F400050A250A12034CEA78A1F230E701E42540
:100804000A04D50A04200501141209CCE4C0E0123C
:100814000A5678A1E2601320E70714F21206578003
:100824002204F2D0E014C0E07F00120657E50A600B
:100834000712064E150A800B30050312064ED0E04F
:100844000206A7D0E00480C51209AF60A0E50A043F
:1008540012034C78A1EAF2E50A200502600104249F
:0C086400041209CC74FF04C0E0120A5614
:10087000120657E50A200502600312064ED0E0B5C5
:100880000AE87F4512066178A1E27F2B30E7047FFA
:100890002DF404C0E012066FD0E075F00A84C0F0B9
:1008A000120658D0E01206580206A7791080027985
:1008B00008C206C2088008D2D5790A8004790AC223
:1008C000D5E50A047002F50AE4FAFDFEFF120634CB
:1008D000FC7B08200113120634FD7B1030000A1245
:1008E0000634FE120634FF7B20EC3382D592D550BD
:1008F00013C3E43000069FFFE49EFEE42001039D45
:10090000FDE49CFCE4CBF8C201EC700CCFCECDCC66
:10091000E824F8F870F38017C3EF33FFEE33FEEDF1
:1009200033FDEC33FCEB33FB994002FB0FD8E9EBD2
:10093000300105F8D0E0C448B201C0E00AEC4D4EE9
:100940004F78207B0070C2EAB50A0040BCC0E012BC
:1009500009CED0F0D0E0200104C4C0E0C4B201C090
:10096000F0120658D0F0D5F0EB0206A71205F607F4
:10097000445308AB5807154C07114208AF4F08B74E
:100980004408B749072A4308BD5507EE46084C45B9
:1009900007B8470A835007192D071D2E07402B075C
:1009A0002123073E200A6C2A06D94800000738E5B3
:1009B0000AB4FF03750A06120634FC120634FD124F
:1009C0000634FE120634FF789A02037B790AA2D518
:1009D000200314300509B910020404B9080104A267
:1009E000D52006025001042002689202B509005089
:1009F00034C0E07F203003197F30A20272067205F6
:100A0000500F120A25C202C206C205C2087F3080FA
:100A10000F300503E9C0E012066F300503D0E0F99E
:100A2000D0E0B509CC3005177F30B9100C12066F35
:100A30007F583004077F788003B9080312066F30AF
:100A400002057F2D02066F7F202008F87F2B2006ED
:100A5000F322920280CF7F00B407005005249AF859
:100A6000E2FF22286E756C6C2900D2011206343028
:100A700001F8C201780930D50108F60206D92D50D7
:100A80004349581206342403B405004001E4900A97
:100A90007E93120660743A120660D203750904024E
:020AA00008ABA1
:10030200E9D2E7C933E833F892D5EDD2E7CD33EC41
:0703120033FC5002B2D522BA
:10031900EC30E7100FBF000C0EBE00080DBD000445
:100329000BEB6014A2D5EB13FCED92E7FD2274FFF1
:10033900FCFDFEFF22E480F8A2D574FF13FC7D804A
:03034900E480EF5E
:10034C00F920E72824F950037907E4F42402FB1878
:10035C00DBFDE224FB5014E9600DE4F218E204F238
:0F036C00B40A08E4F2D9F57401F20A22C2D522CC
:10037B00ED33EC3392D5FA602AB4FF33EDC2E77B51
:10038B00FF60067A0379A0E4227A0379A920D504C9
:10039B007A0379A4224E614E002B494E46002D491B
:1003AB004E4600E47A08F208DAFC7B00740722E878
:1003BB00C0E0ECC0E0EDC0E0EEC0E0EFC0E0EA75FD
:1003CB00F010A4CAABF075F04DA42BFBE435F0FC98
:1003DB00EA2410FAEB34C5FBEC34D9FCEDC2E7FF91
:1003EB0075F056A4F42411C5F0F434C58FF0A42A8B
:1003FB00E5F03BE43CF220E7141204AED0E0FFD072
:10040B00E0FED0E0FDD0E0FC1202278014F40412D1
:10041B0004AED0E0FFD0E0FED0E0FDD0E0FC120156
:10042B001ED0E0F8E2FAEDD2E7CD33EC332482FBB9
:10043B00E4C3CF33CFCE33CECD33CD33DBF37B071A
:10044B0075F00A846004F2081B0AE5F0F2088FF0DD
:10045B00740AA4FFACF08EF0740AA42CFEACF0501E
:10046B00010C8DF0740AA42CFDE435F0F208DBDEF0
:03047B00740722E1
:10047E003F8000004120000042C80000447A000086
:10048E00461C400047C35000497424004B18968008
:10049E004CBEBC205A0E1BCA6753C21C749DC5AEFF
:1004AE00FB60065407601C23231204DCEB543860F7
:1004BE00091204C81204D712011EECF8EDF9EEFA77
:1004CE00EFCB22EB1204D780F1543803241C900496
:1004DE007EFE93FC0EEE93FD0EEE930ECE93FF2258
:100F7100020E4CE493A3F8E493A34003F68001F23C
:100F810008DFF48029E493A3F85407240CC8C33381
:100F9100C4540F4420C8834004F456800146F6DF50
:100FA100E4800B0102040810204080900FF1E47EE0
:100FB100019360BCA3FF543F30E509541FFEE49345
:100FC100A360010ECF54C025E060A840B8E493A30C
:100FD100FAE493A3F8E493A3C8C582C8CAC583CA37
:100FE100F0A3C8C582C8CAC583CADFE9DEE780BEEF
:011067000088
:1004EE00BB010689828A83E0225002E722BBFE020C
:0904FE00E32289828A83E493223F
:10050700BB010CE58229F582E5833AF583E02250A9
:1005170006E92582F8E622BBFE06E92582F8E222F3
:0D052700E58229F582E5833AF583E493220D
:10053400BB010689828A83F0225002F722BBFE01A6
:02054400F322A0
:0E054600C3E49FFFE49EFEE49DFDE49CFC22C6
:10055400E8600FECC313FCED13FDEE13FEEF13FF85
:03056400D8F122A9
:10056700E8600FEFC333FFEE33FEED33FDEC33FCF2
:03057700D8F12296
:10057A00BB010789828A830206285005E9F8020628
:0A058A001CBBFE05E9F80205B822CB
:10059400BB010DE58229F582E5833AF5830206283D
:1005A4005007E92582F802061CBBFE07E92582F8FC
:0405B4000205B82262
:0C05B800ECF208EDF208EEF208EFF2227F
:1005C400D083D082E493F208740193F20874029306
:0905D400F208740393F27404733D
:1005DD00FAE2FB0808E2F925F0F218E2CA3AF22233
:0905ED00EBF208EAF208E9F2223F
:1005F600D083D082F8E4937012740193700DA3A394
:1006060093F8740193F5828883E4737402936860A7
:06061600EFA3A3A380DFA7
:10127C00EFB40A07740D121287740A309811A899EA
:10128C00B8130CC2983098FDA899C298B811F630D2
:07129C0099FDC299F59922AA
:0C061C00ECF608EDF608EEF608EFF6220A
:0C062800ECF0A3EDF0A3EEF0A3EFF02245
:00000001FF
