:020000040800F2
:10000000E8040020C1010008372500082F2500085A
:1000100033250008AD090008F52D00080000000098
:100020000000000000000000000000007325000830
:10003000B1090008000000007125000875250008BE
:10004000DB010008DB010008DB010008DB01000820
:10005000DB010008DB010008DB010008DB01000810
:10006000DB010008DB010008DB010008DB01000800
:10007000DB010008DB010008DB010008DB010008F0
:10008000DB010008DB010008DB010008DB010008E0
:10009000DB010008DB010008DB010008DB010008D0
:1000A000DB010008DB010008DB010008DB010008C0
:1000B000DB010008AD260008DB010008DB010008B9
:1000C000DB010008DB010008DB010008DB010008A0
:1000D000DB010008692D0008DB010008DB010008D6
:1000E000DB010008DB010008DB010008DB01000880
:1000F000DB010008DB010008DB010008DB01000870
:10010000DB010008DB010008DB010008DB0100085F
:10011000DB010008DB010008DB010008DB0100084F
:10012000DB010008DB010008DB010008DB0100083F
:10013000DB010008DB010008DB010008DB0100082F
:10014000DB010008DB010008DB010008DB0100081F
:10015000DB010008DB010008DB010008DB0100080F
:10016000DB010008DB010008DB010008DB010008FF
:10017000DB010008DB010008DB01000800000000D3
:10018000DB010008DB010008DB010008DB010008DF
:10019000DB010008DB010008DB010008DB010008CF
:1001A000DB010008DB010008DB010008DFF80CD0F0
:1001B00000F0DAFA0048004709370008E804002098
:1001C0000648804706480047FEE7FEE7FEE7FEE7F1
:1001D000FEE7FEE7FEE7FEE7FEE7FEE7492600084A
:1001E000AD0100082DE9FE4F81EA030404F000444C
:1001F00021F0004100944FF0000B23F0004350EA3F
:1002000001045ED052EA03045BD0C3F30A54C1F385
:100210000A552C44A4F2F3340194A0FB0254C1F318
:10022000130141F48011C3F3130343F4801301FB62
:10023000024400FB034E840A970A44EA815447EAC9
:100240008357A4FB076802958D0A05FB07854FEAD3
:10025000932C04FB0C542705029D4FEA065847EAED
:100260001637B5EB08056EEB070C870E920E47EAC2
:10027000811742EA8312A7FB0201B6EB0B0164EB84
:1002800000042B0D43EA0C335E1844EB1C50DA4695
:100290005146E7FB0201C5F313044FEA0B3343EA6F
:1002A00014534FEA0432019C43EA0603A4F10C0400
:1002B0000294009CCDE900B400F0C2F803B0BDE8A0
:1002C000F08F00200146F9E700F0004230F00040D6
:1002D0000AD0C10D01F56071C0F3160042EA015168
:1002E000C20840071143704700200146704701F0E3
:1002F000004330B421F0004150EA010206D00A0D5B
:10030000A2F56072C1F31301002A02DC30BC0020A8
:100310007047440F44EAC104C100E01830BC00EB50
:10032000C25000F047B830B50B46014600202022ED
:10033000012409E021FA02F59D4205D303FA02F5F2
:10034000491B04FA02F52844151EA2F10102F1DC52
:1003500030BD2DE9F05F0546002092469B46884659
:100360000646814640241BE0284641464746224631
:1003700000F01BFA53465A46C01A914110D3114659
:100380001846224600F002FA2D1A67EB01084F4684
:1003900022460120002100F0F9F917EB00094E4137
:1003A000201EA4F10104DFDC484631462A464346BC
:1003B000BDE8F09F0029A8BF7047401C490008BF56
:1003C00020F00100704710B4B0FA80FC00FA0CF085
:1003D00050EA010404BF10BC704749B1CCF12004BD
:1003E00021FA04F411FA0CF118BF0121214308434A
:1003F000A3EB0C01CB1D4FEA00614FEA102042BF76
:10040000002010BC704700EBC35010440029A4BF6B
:1004100010BC7047401C490008BF20F0010010BC10
:10042000704710B5141E73F1000408DA401C41F146
:10043000000192185B411A4301D120F0010010BD68
:100440002DE9F04D92469B4611B1B1FA81F202E0DE
:10045000B0FA80F22032904600F098F904460F4638
:1004600040EA0A0041EA0B0153465A46084313D0BA
:10047000114653EA010019D0C8F14002504600F07D
:1004800094F905460E4650465946424600F07EF91C
:10049000084305D0012004E020463946BDE8F08D30
:1004A0000020054346EAE0762C4337430A9863056B
:1004B000E40AA0EB08000022FD0A44EA47540A308F
:1004C00002D500200146E9E7010510196941DDE97F
:1004D000084500196941BDE8F04DA2E72DE9FE4F3E
:1004E000804681EA0300C00F0C46009021F00041D5
:1004F00023F00045B8EB0200A94105D24046214651
:1005000090461C460B46024623F00040104347D05D
:10051000270DC7F30A00C3F30A510290401A019055
:1005200040286BDAC3F3130040F4801B0098924616
:1005300020B10023D2EB030A63EB0B0B0198594661
:10054000C0F14002504600F021F906460D465046E3
:100550005946019A00F039F910EB08006141002476
:1005600087EA115284EAE7731A4340D0009A62B3D3
:10057000019A012A4FEA075215DC001B61EB0201C8
:100580004FF0004202EA0752CDE90042001C41F55B
:10059000801132462B46FFF753FF03B0BDE8F08FC2
:1005A00040462146F9E7001B61EB0201001C41F5C2
:1005B000801300185B412018A2F5001747EB0301D8
:1005C00040EAD570B6196D4111E06D084FEA360664
:1005D00045EAC0754FEA0752001B61EB0201001C9F
:1005E00041F5801149084FEA300000195141324667
:1005F0002B4603B0BDE8F04FFFF713BF0098012270
:1006000040000023D0EB020263EBE0730098214628
:100610004FEAE074B8EB000061EB0401E9E783F016
:1006200000435BE781F0004158E72DE9F04D81EA96
:10063000030404F0004B21F0004514464FF0000A7B
:1006400023F0004150EA050220D054EA01021DD0F7
:10065000C5F30A570246C5F31303C1F31300C1F3F0
:100660000A5640F4801543F48013A7EB0608101BCC
:10067000D64608F2FD3873EB050002D308F10108F5
:1006800001E092185B41B8F1000F03DA0020014647
:10069000BDE8F08D00204FF48011064684460EE040
:1006A000171B73EB050705D3121B63EB050306430A
:1006B0004CEA010C49084FEA300092185B4150EABD
:1006C0000107EDD152EA030012D082EA040083EA66
:1006D0000501084305D0101BAB4106D201220023BF
:1006E00006E000224FF0004302E06FF001025310D9
:1006F0001AEB06004CEB085110EB0A0041EB0B0122
:10070000BDE8F04DFFF78DBEC1F30A52C1F31301EE
:1007100040F2FF3341F480119A4202DA0020014690
:10072000704740F233439A42A2F2334202DC524213
:1007300000F03BB800F02AB830B5041E71F1000497
:1007400004DB4FF00044404264EB0101141E73F1DE
:10075000000405DB1C464FF00043524263EB0403E8
:10076000994208BF904230BD064C074D06E0E06854
:1007700040F0010394E8070098471034AC42F6D3E8
:10078000FFF718FDBC370008DC370008202A04DB1F
:10079000203A00FA02F1002070479140C2F1200394
:1007A00020FA03F3194390407047202A04DB203AD3
:1007B00021FA02F00021704721FA02F3D040C2F181
:1007C00020029140084319467047202A06DBCB17C8
:1007D000203A41FA02F043EAE07306E041FA02F3FC
:1007E000D040C2F1200291400843194670470000F2
:1007F0005A49096821F44031594AC2F80413114694
:10080000D1F8041342681143544A116001684968E1
:1008100021F480710268516001684A68016942EA06
:100820000121026851600168496821F04071026845
:10083000516001684968826811430268516001682B
:10084000896821F400610268916001688968C26862
:10085000114302689160434A816A914218D001684D
:10086000896821F070610268916001688968826A14
:100870001143026891600168896821F04051026863
:10088000916001688968C26A1143026891600BE057
:100890000168896821F07061026891600168896867
:1008A00021F04051026891600168896821F00201DD
:1008B0000268916001688A68816942EA41010268C0
:1008C0009160016AD1B10168496841F40061026830
:1008D00051600168496821F4604102685160016813
:1008E0004A68416A491E4FF4604393FAA3F3B3FA8E
:1008F00083F399400A4301684A6005E0016849684A
:1009000021F40061026851600168C96A21F4700134
:100910000268D1620168CA6A818B491E42EA0151AC
:100920000268D1620168896821F4007102689160EF
:1009300001688A68016B42EA41210268916001689E
:10094000896821F480610268916001688A68416960
:1009500042EA81210268916070470000042301404F
:10096000002001400100000F10B50D480D4908603E
:100970004FF48030486000210A488160C160016105
:10098000416181610121C161002101624162064929
:1009900081620021C162016300F0B2F910BD000064
:1009A00000200140600000200100000F00BFFEE7B2
:1009B000704700001FB50446102C75D2DFE804F024
:1009C00014202C384408505C6875818D99BDA5B100
:1009D00000940120019007200290002003906946B6
:1009E0005D4800F0BBF8A9E00094012001900720C9
:1009F0000290002003906946574800F0AFF89DE050
:100A00000094012001900720029000200390694685
:100A1000514800F0A3F891E00094012001900720D4
:100A200002900020039069464B4800F097F885E05B
:100A30000094012001900720029000200390694655
:100A4000454800F08BF879E00094012001900720E0
:100A500002900020039069463F4800F07FF86DE067
:100A60000094012001900720029000200390694625
:100A7000394800F073F861E00094012001900720EC
:100A80000290002003906946334800F067F855E073
:100A900000940120019007200290002003906946F5
:100AA0002D4800F05BF849E047E0009401200190F8
:100AB00007200290002003906946274800F04EF876
:100AC0003CE0009401200190072002900020039058
:100AD0006946214800F042F830E00094012001907E
:100AE000072002900020039069461B4800F036F86A
:100AF00024E0009401200190072002900020039040
:100B00006946154800F02AF818E000940120019089
:100B1000072002900020039069460F4800F01EF85D
:100B20000CE0009401200190072002900020039027
:100B30006946094800F012F800E000BF00BF06480F
:100B400000F0DAF90A21044800F078F9024800F0D0
:100B5000D3F880B204B010BD6000002018B5024682
:100B60000020009000BF92F83C00012801D1022033
:100B700018BD012082F83C0000BF0868092816D97A
:100B80001068C0680B780A3B03EB43040723A340BB
:100B900098431368D8600B780A3B03EB43038868DB
:100BA00098401368DB6818431368D86013E0106836
:100BB00000690B7803EB43040723A34098431368B1
:100BC00018610B7803EB43038868984013681B692E
:100BD0001843136818614868072817D21068406BDB
:100BE0000B795B1E03EB83041F23A3409843136818
:100BF0005863088880B20B795B1E03EB830398402F
:100C000013685B6B18431368586331E048680D281C
:100C100017D21068006B0B79DB1F03EB83041F23D3
:100C2000A340984313681863088880B20B79DB1FD0
:100C300003EB8303984013681B6B18431368186316
:100C400016E01068C06A0B790D3B03EB83041F2389
:100C5000A34098431368D862088880B20B790D3B93
:100C600003EB830398401368DB6A18431368D86268
:100C70001C4B1068984208D10868122805D11A4800
:100C8000006840F48000C3F80403164B10689842D3
:100C900020D1164B0868984202D00868112819D153
:100CA0001148006840F400000F4B18600F4B0868B3
:100CB00098420FD10E4800680E4BB0FBF3F000EBEA
:100CC00080004000009002E00098401E00900098D4
:100CD0000028F9D100BF002082F83C0000BF00BF0F
:100CE00046E70000002001400423014012000010EC
:100CF0000000002040420F0001460868C06C7047A9
:100D000070B5044600250CB9012070BD1549A06AD4
:100D1000884200D000BF206C30B90020606484F8A5
:100D20003C00204600F020F8206C00F0100088B94C
:100D3000206C20F4885040F0020020642046FFF729
:100D400057FD00206064206C20F0020040F001009C
:100D5000206400E0012500BF002084F83C0000BFB3
:100D60002846D2E70100000F10B586B0044600BF48
:100D7000002000902D48006840F480702B490860E6
:100D80000846006800F48070009000BF00BF00BFFC
:100D90000020009025481438006840F001002349E5
:100DA000143908600846006800F00100009000BF98
:100DB00000BF00BF002000900846006840F002001D
:100DC00008600846006800F00200009000BF00BF05
:100DD00000BF002000900846006840F00200086054
:100DE0000846006800F00200009000BF00BFFF202E
:100DF0000190032002900020039001A90C4800F00C
:100E0000F9F80320019002900020039001A90948FD
:100E100000F0F0F83F2001900320029000200390A2
:100E200001A9054800F0E6F806B010BD44380240BC
:100E300000000240000402400008024070B5044671
:100E40000D4600262068806800F4806078B1206834
:100E5000806800F4807050B1206C40F02000206465
:100E600000BF002084F83C0000BF012070BD00F0EE
:100E7000CFF9064612E0681C80B125B100F0C8F930
:100E8000801BA8420AD9206C40F00400206400BFF7
:100E9000002084F83C0000BF0320E7E720680068DA
:100EA00000F002000228E6D16FF01200216808600D
:100EB000206C40F4007020642068806800F040508E
:100EC000B8B9A069A8B92068C06A00F4700020B160
:100ED0002068806800F4806058B9206C20F480702D
:100EE0002064206C00F4805018B9206C40F00100A0
:100EF00020640020BAE7000008B5014600200090F9
:100F000000BF91F83C00012801D1022008BD01205A
:100F100081F83C0000BF0868806800F00100A0B9BB
:100F20000868806840F001000A6890602D480068F9
:100F30002D4AB0FBF2F000EB4000009002E0009878
:100F4000401E009000980028F9D10868806800F0E1
:100F50000100002844D0086C40F20162904340F444
:100F6000807008640868406800F4806028B1086CEC
:100F700020F4005040F480500864086C00F4805065
:100F800020B1486C20F00600486401E0002048646D
:100F900000BF002081F83C0000BFC01E0A6810603E
:100FA0001248006800F01F0058B90868806800F017
:100FB0004050A8B90868806840F080400A68906096
:100FC0000EE00B4A086890420AD10868806800F079
:100FD000405028B90868806840F080400A689060F6
:100FE000002093E70000002040420F00042301404E
:100FF00000200140F8B502460B46002500240020E1
:101000000021E6E0012606FA01F51E6806EA05045D
:10101000AC4273D15E68022E02D05E68122E13D1EC
:10102000CF0802F1200656F827004E07F70E0F26CC
:10103000BE40B0434F07FF0E1E69BE403043CF088D
:1010400002F1200646F8270010684F000326BE4034
:10105000B0431E7906F003064F00BE4030431060D7
:101060005E68012E08D05E68022E05D05E68112EE3
:1010700002D05E68122E13D190684F000326BE4046
:10108000B0434F00DE68BE40304390605068012698
:101090008E40B0431E79C6F300168E403043506038
:1010A000D0684F000326BE40B0434F009E68BE404C
:1010B0003043D0605E6806F08056B6F1805FA8D1FC
:1010C00000BF00260096454E366846F48046434FE2
:1010D0003E603E46366806F48046009600BF00BF7C
:1010E0003F4E8F0856F827008E07370F0F26BE4059
:1010F000B0433C4EB24202D100262EE068E03A4EA8
:10110000B24201D1012628E0384EB24201D1022676
:1011100023E0374EB24201D103261EE0354EB242E3
:1011200001D1042619E0344EB24201D1052614E063
:10113000324EB24201D106260FE0314EB24201D109
:1011400007260AE02F4EB24201D1082605E02E4EB6
:10115000B24201D1092600E00A268F073F0FBE40A8
:1011600030431F4E8F0846F82700284E3068A043B2
:101170005E6806F48036B6F5803F00D12043234EEA
:101180003060361D3068A0435E6806F40036B6F560
:10119000003F00D120431D4E361D3060361D3068A3
:1011A000A0435E6806F48016B6F5801F00D1204388
:1011B000164E08363060361D3068A0435E6806F46F
:1011C0000016B6F5001F00D12043104E0C363060DB
:1011D000491C1029FFF416AFF8BD00004438024046
:1011E00008380140000002400004024000080240AC
:1011F000000C02400010024000140240001802409F
:10120000001C02400020024000240240003C01403B
:101210000148006870470000140000200248006880
:10122000401C0149086070471400002010B50D48AB
:10123000006840F400700B4908600846006840F4FC
:10124000806008600846006840F4807008600520EF
:1012500000F068F80F2000F007F800F017F8002001
:1012600010BD0000003C024070B5044600F092F949
:101270004FF47A71B0FBF1F5284600F00FFC002224
:101280002146501E00F010F8002070BD704700BFCE
:1012900000F01F02012191404209920002F1E02278
:1012A000C2F8001100BF70472DE9F05F80460D467F
:1012B0001646002701F040F9074639462A463346CC
:1012C00001F00700C0F1070ABAF1040F02D94FF08C
:1012D000040A01E0C0F1070AD14600F1040ABAF19C
:1012E000070F02D24FF0000A01E0A0F1030AD44632
:1012F0004FF0010A0AFA09FAAAF1010A0AEA020AF7
:101300000AFA0CFA4FF0010B0BFA0CFBABF1010BD4
:101310000BEA030B4AEA0B042146404601F014F99C
:10132000BDE8F09F00BF00F00702064B19684FF6BA
:10133000FF031940044B0B4343EA0221014B1960A0
:1013400000BF70470CED00E00000FA0538B500243E
:1013500000BF002000902348006840F080502149E1
:1013600008600846006800F08050009000BF00BF91
:101370000120010491FAA1F1B1FA81F11A4A42F86F
:101380002100FFF745FF044607E0FFF741FF001B80
:10139000B0F57A7F01D9032038BD1448406800F4C5
:1013A0008030B0F5803FF0D10120410491FAA1F1E5
:1013B000B1FA81F10C4A42F82100FFF729FF0446F7
:1013C00007E0FFF725FF001BB0F57A7F01D9032066
:1013D000E2E70648406800F40030B0F5003FF0D185
:1013E0000020D9E74038024000000E420070004063
:1013F00070B504460D4600266448006800F00F00F2
:10140000A84209D261490D700846006800F00F003B
:10141000A84201D0012070BD207800F0020002280F
:1014200007D15B48006820F0F000A16808435849E4
:101430000860207800F00100002877D0606801285B
:1014400007D1534808380068C0F34040B8B90120BC
:10145000E1E76068022802D06068032807D14C48A1
:1014600008380068C0F3406048B90120D3E7484815
:1014700008380068C0F3400008B90120CBE74448B1
:10148000006820F003006168084341490860FFF7E5
:10149000BFFE06466068012810D108E0FFF7B8FEDD
:1014A000801B41F28831884201D90320B3E73848D4
:1014B000006800F00C000428F0D137E060680228D2
:1014C00010D108E0FFF7A4FE801B41F2883188426A
:1014D00001D903209FE72E48006800F00C0008287F
:1014E000F0D123E06068032810D108E0FFF790FEF8
:1014F000801B41F28831884201D903208BE72448C0
:10150000006800F00C000328F0D10FE008E0FFF7BE
:101510007FFE801B41F28831884201D903207AE79F
:101520001B48006800F00C000028F0D11748006844
:1015300000F00F00A84209D914490D700846006850
:1015400000F00F00A84201D0012064E7207800F0ED
:101550000400042807D10E48006820F4E050E16838
:1015600008430B490860207800F00800082808D1DB
:101570000748006820F46040216940EAC10004493E
:1015800008600F20FFF770FE002044E7003C024097
:101590000838024010B500F045F80949096801F023
:1015A000F001F02292FAA2F2B2FA82F2D140054A98
:1015B000515CC840044908600846006810BD00003E
:1015C00008380240683700080000002010B5FFF717
:1015D000E1FF0749096801F4E0514FF4E05292FA43
:1015E000A2F2B2FA82F2D140024A515CC84010BD68
:1015F000083802406837000810B5FFF7CBFF0749ED
:10160000096801F460414FF4604292FAA2F2B2FA22
:1016100082F2D140024A515CC84010BD08380240F5
:101620006837000870B50021002200230020274CF5
:10163000246804F00C0424B1042C04D0082C41D1FB
:1016400003E0234840E023483EE0204C241F246868
:1016500004F03F011D4C241F246804F4800484B16D
:101660001C4CB4FBF1F5194C241F246847F6C076D6
:10167000344096FAA6F6B6FA86F6F44005FB04F274
:101680000FE0134CB4FBF1F5104C241F246847F60F
:10169000C076344096FAA6F6B6FA86F6F44005FB14
:1016A00004F20A4C241F246804F440344FF44035FB
:1016B00095FAA5F5B5FA85F5EC40641C6300B2FB1C
:1016C000F3F001E0024800BF00BF70BD08380240DF
:1016D0000024F40040787D0138B5044600252078C8
:1016E00000F00100002848D0DE48006800F00C003F
:1016F00004280DD0DB48006800F00C00082811D148
:10170000D848001F006800F48000B0F5800F09D1B0
:10171000D44808380068C0F3404070B3606860BBCC
:10172000012038BD2079CF49891F0870606890B1C9
:10173000FFF76EFD054606E0FFF76AFD401B6428D3
:1017400001D90320EDE7C74808380068C0F34040DE
:101750000028F1D011E0FFF75BFD054606E0FFF73A
:1017600057FD401B642801D90320DAE7BD4808383B
:101770000068C0F340400028F1D1207800F002005A
:10178000022869D1B748006800F00C0058B1B5488C
:10179000006800F00C00082821D1B248001F006842
:1017A00000F48000D8B9AF4808380068C0F34000A2
:1017B00020B1E068012801D00120B2E7A94808382B
:1017C000006820F0F800F82292FAA2F2B2FA82F24F
:1017D000216991400843A349083908603CE0E0686A
:1017E00028B30120A0490860FFF712FD054606E076
:1017F000FFF70EFD401B022801D9032091E799480D
:1018000008380068C0F340000028F1D09548083837
:10181000006820F0F800F82292FAA2F2B2FA82F2FE
:101820002169914008438F490839086014E000207D
:101830008D490860FFF7ECFC054606E0FFF7E8FC81
:10184000401B022801D903206BE78648083800684E
:10185000C0F340000028F1D1207800F008000828EB
:101860002CD16069A8B1012080490860FFF7D0FC45
:10187000054606E0FFF7CCFC401B022801D90320F7
:101880004FE778486C300068C0F340000028F1D082
:1018900014E0002075490860FFF7BAFC054606E031
:1018A000FFF7B6FC401B022801D9032039E76D4839
:1018B0006C300068C0F340000028F1D1207800F0BF
:1018C0000400042857D100BF00200090654838303C
:1018D000006840F08050634938310860084600686D
:1018E00000F08050009000BF00BF6148006840F4E5
:1018F00080705F490860FFF78BFC054606E0FFF744
:1019000087FC401B022801D903200AE758480068D9
:1019100000F480700028F2D0207A524968310870B3
:10192000A068A0B1FFF774FC054608E0FFF770FC63
:10193000401B41F28831884201D90320F1E6494831
:1019400068300068C0F340000028EFD013E0FFF7D4
:101950005FFC054608E0FFF75BFC401B41F2883165
:10196000884201D90320DCE63E4868300068C0F3B5
:1019700040000028EFD1A069F0B33A48006800F0B9
:101980000C00082869D0A069022850D100203649EF
:101990000866FFF73DFC054606E0FFF739FC401BF3
:1019A000022801D90320BCE62E4808380068C0F39D
:1019B00040600028F1D1D4E90701084347F6C0721E
:1019C00092FAA2F2B2FA82F2616A914008430122CD
:1019D000A16AC2EB51014FF4403292FAA2F2B2FA7C
:1019E00082F2914008434FF0706292FAA2F2B2FA8A
:1019F00082F2E16A914000E031E008431949091F91
:101A00000860012018490866FFF702FC054606E059
:101A1000FFF7FEFB401B022801D9032081E6114895
:101A200008380068C0F340600028F1D017E00020BB
:101A30000D490866FFF7ECFB054606E0FFF7E8FBFB
:101A4000401B022801D903206BE6064808380068CD
:101A5000C0F340600028F1D101E0012061E60020E0
:101A60005FE600000838024000004742800E47420F
:101A700000700040042808D14FF0E021096941F0CE
:101A800004014FF0E022116107E04FF0E021096905
:101A900021F004014FF0E0221161704770B5044657
:101AA0002546681EB0F1807F01D301200FE0681E3B
:101AB0004FF0E02148610F214FF0FF3000F044FD6E
:101AC00000204FF0E021886107200861002070BDF0
:101AD0007047704710B504460CB9012010BD94F84A
:101AE000390028B9002084F83800204600F00CF8AE
:101AF000022084F83900211D206800F0F5FD012046
:101B000084F839000020E9E738B504460E4920681A
:101B1000884217D100BF002000900C48006840F0B8
:101B200002000A4908600846006800F002000090C0
:101B300000BF00BF032201211D20FFF7B5FB1D20C0
:101B4000FFF7A5FB38BD000000040040403802400C
:101B500001460868C06840F001000A68D060086863
:101B6000006840F001000A6810600020704770476C
:101B700010B5044620680069C0F34000D8B1206861
:101B8000C068C0F34000B0B16FF002002168086186
:101B9000012020762068806900F0030018B12046FB
:101BA000FFF7E5FF05E0204600F0ADF8204600F025
:101BB000ABF80020207620680069C0F38000D8B11F
:101BC0002068C068C0F38000B0B16FF004002168E5
:101BD0000861022020762068806900F4407018B106
:101BE0002046FFF7C4FF05E0204600F08CF82046B1
:101BF00000F08AF80020207620680069C0F3C00059
:101C0000D8B12068C068C0F3C000B0B16FF0080060
:101C100021680861042020762068C06900F0030074
:101C200018B12046FFF7A3FF05E0204600F06BF84F
:101C3000204600F069F80020207620680069C0F393
:101C40000010D8B12068C068C0F30010B0B16FF0C8
:101C5000100021680861082020762068C06900F41F
:101C6000407018B12046FFF782FF05E0204600F0E3
:101C70004AF8204600F048F80020207620680069E5
:101C800000F0010058B12068C06800F0010030B1D8
:101C90006FF0010021680861204600F037F82068E5
:101CA0000069C0F3C01058B12068C068C0F3C0100C
:101CB00030B16FF08000216808612046FFF708FF0F
:101CC00020680069C0F3801058B12068C068C0F374
:101CD000801030B16FF0400021680861204600F0AC
:101CE00041FA20680069C0F3401058B12068C0680C
:101CF000C0F3401030B16FF0200021680861204629
:101D0000FFF7E7FE10BD7047704700002DE9F14F67
:101D10002DED108BC6B0FE49569888427ED100202A
:101D2000FEF748FE04460120FEF744FE0546022069
:101D3000FEF740FE06460320FEF73CFE0746042061
:101D4000FEF738FE80460520FEF734FE8146062069
:101D5000FEF730FE82460720FEF72CFE8346082061
:101D6000FEF728FE45900920FEF724FE44900A2045
:101D7000FEF720FE43900B20FEF71CFE42900C2045
:101D8000FEF718FE41900D20FEF714FE40900E2045
:101D9000FEF710FE3F900F20FEF70CFE3E9000EE87
:101DA000104AB8EE400A10EE100AFEF78DFA41EC28
:101DB000190B9FEDD80B53EC102BFEF713FA41ECE7
:101DC000180BFEF794FA3D9000EE105AB8EE400A58
:101DD00010EE100AFEF778FA41EC190B9FEDCD0BCF
:101DE00053EC102BFEF7FEF941EC180BFEF77FFACF
:101DF0003C9000EE106AB8EE400A10EE100AFEF7B2
:101E000063FA41EC190B9FEDC30B53EC102BFEF75B
:101E1000E9F941EC180BFEF76AFA00E09BE13B9010
:101E200000EE107AB8EE400A10EE100AFEF74CFAF7
:101E300041EC190B9FEDB70B53EC102BFEF7D2F9C9
:101E400041EC180BFEF753FA3A9000EE108AB8EE08
:101E5000400A10EE100AFEF737FA41EC190B9FED1D
:101E6000AD0B53EC102BFEF7BDF941EC180BFEF750
:101E70003EFA399000EE109AB8EE400A10EE100AC1
:101E8000FEF722FA41EC190B9FEDA20B53EC102B3D
:101E9000FEF7A8F941EC180BFEF729FA389000EE8E
:101EA00010AAB8EE400A10EE100AFEF70DFA41EC47
:101EB000190B9FED980B53EC102BFEF793F941ECA7
:101EC000180BFEF714FA379000EE10BAB8EE400A7D
:101ED00010EE100AFEF7F8F941EC190B9FED8D0B8F
:101EE00053EC102BFEF77EF941EC180BFEF7FFF9CF
:101EF00036909DED450AB8EE400A10EE100AFEF746
:101F0000E3F941EC190B9FED830B53EC102BFEF71B
:101F100069F941EC180BFEF7EAF935909DED440A9A
:101F2000B8EE400A10EE100AFEF7CEF941EC190B9C
:101F30009FED780B53EC102BFEF754F941EC180B86
:101F4000FEF7D5F934909DED430AB8EE400A10EE45
:101F5000100AFEF7B9F941EC190B9FED6E0B53EC2B
:101F6000102BFEF73FF941EC180BFEF7C0F9339048
:101F70009DED420AB8EE400A10EE100AFEF7A4F9F1
:101F800041EC190B9FED630B53EC102BFEF72AF974
:101F900041EC180BFEF7ABF932909DED410AB8EE1B
:101FA000400A10EE100AFEF78FF941EC190B9FED75
:101FB000590B53EC102BFEF715F941EC180BFEF7FB
:101FC00096F931909DED400AB8EE400A10EE100AE5
:101FD000FEF77AF941EC190B9FED4E0B53EC102BE9
:101FE000FEF700F941EC180BFEF781F930909DEDFA
:101FF0003F0AB8EE400A10EE100AFEF765F941EC10
:10200000190B9FED440B53EC102BFEF7EBF841EC52
:10201000180BFEF76CF92F909DED3E0AB8EE400AC2
:1020200010EE100AFEF750F941EC190B9FED390B39
:1020300053EC102BFEF7D6F841EC180BFEF757F9CE
:102040002E902E98FEF740F941EC180B2F98FEF7D2
:102050003BF941EC190B3098FEF736F941EC1A0BBD
:102060003198FEF731F941EC1B0B3298FEF72CF951
:1020700041EC1C0B3398FEF727F941EC1D0B34980B
:10208000FEF722F941EC1E0B3598FEF71DF941ECE5
:102090001F0B3698FEF718F9CDE92C013798FEF79B
:1020A00013F9CDE92A013898FEF70EF9CDE9280198
:1020B0003998FEF709F9CDE926013A98FEF704F9B7
:1020C000CDE924013B98FEF7FFF8CDE922013C98C9
:1020D000FEF7FAF8CDE920013D98FEF7F5F8CDE9D5
:1020E0001E018DED1C8B8DED1A9B8DED18AB8DEDCA
:1020F00016BB8DED14CB8DED12DB8DED10EB8DED60
:102100000EFB9DED2C0B8DED0C0B9DED2A0B05E0D0
:10211000240000206666666666664A3F8DED0A0BFF
:102120009DED280B8DED080B9DED260B8DED060B1F
:102130009DED240B8DED040B9DED220B8DED020B1F
:102140009DED200B8DED000B9DED1E0B53EC102B28
:10215000034800F051FE46B0BDEC108BBDE8F88F8F
:10216000783700087047704701460022002391F835
:10217000392091F83A3042EA03007047F8B5044636
:10218000002500262068006800F001052068C0686E
:1021900000F480767DB176B100BF00200090206809
:1021A0000068009020684068009000BF00BFE06BAE
:1021B00040F00100E06320680068C0F3400520683B
:1021C000406900F001067DB176B100BF00200090AB
:1021D00020680068009020684068009000BF00BF41
:1021E000E06B40F00400E06320680068C0F3800505
:1021F0002068406900F001067DB176B100BF002083
:10220000009020680068009020684068009000BF3F
:1022100000BFE06B40F00200E06320680068C0F39C
:10222000C0052068406900F001067DB176B100BFAD
:1022300000200090206800680090206840680090AE
:1022400000BF00BFE06B40F00800E063206800685A
:10225000C0F340152068C06800F020061DB116B11B
:10226000204600F0C3FA20680068C0F3C01520685B
:10227000C06800F080061DB116B1204600F0BEFC1B
:1022800020680068C0F380152068C06800F0400630
:102290001DB116B1204600F099FAE06B38B120204C
:1022A00084F8390084F83A002046FFF75CFFF8BD57
:1022B00010B504460CB9012010BDA06900B100E0C2
:1022C00000BF94F8390028B9002084F8380020466F
:1022D00000F028F8242084F839002068C06820F431
:1022E00000502168C860204600F0D4FA20680069D8
:1022F00020F49040216808612068406920F02A009D
:10230000216848612068C06840F400502168C860B6
:102310000020E063202084F8390084F83A0000208F
:10232000CAE7000010B586B004461F4920688842FD
:1023300038D100BF002000901C48006840F0010028
:102340001A4908600846006800F00100009000BFCC
:1023500000BF00BF0020009014481430006840F017
:1023600010001249143108600846006800F010009F
:10237000009000BF00BF4FF4C060019002200290A7
:1023800001200390022004900720059001A908482D
:10239000FEF730FE2520FEF77AFF032211462520A6
:1023A000FEF782FF06B010BD001001403038024039
:1023B0000000024010B5034693F83A0020282FD1C0
:1023C00001B10AB9012010BD00BF93F838000128FF
:1023D00001D10220F7E7012083F8380000BF99629D
:1023E0009A85DA850020D863222083F83A0018689D
:1023F000C06840F480701C68E0601868406940F074
:1024000001001C68606100BF002083F8380000BF35
:102410001868C06840F020001C68E0600020D2E727
:102420000220D0E710B504460C492068884213D139
:102430004FF47A7301220A490A4800F015F800BFE8
:10244000084800680068C0F380100028F8D06FF0DA
:10245000400004490968086010BD000000100140F8
:1024600018000020A80000202DE9F04104460D4688
:102470001646984694F83900202855D105B116B96A
:102480000120BDE8F08100BF94F83800012801D197
:102490000220F6E7012084F8380000BF0020E06346
:1024A000212084F83900A684E68428E0E08C401ED0
:1024B000E084A068B0F5805F14D1434600228021FB
:1024C000204600F0CFFB08B10320DAE72F4638881A
:1024D000C0F3080021684860206908B9AD1C0EE00F
:1024E0006D1C0CE0434600228021204600F0BAFB20
:1024F00008B10320C5E715F8010B21684860E08C9E
:102500000028D3D1434600224021204600F0AAFBF8
:1025100008B10320B5E7202084F8390000BF00206F
:1025200084F8380000BFACE70220AAE7704700BF7C
:10253000FEE700BFFEE7704702480068C0F30220D4
:10254000704700000CED00E010B5002807DA0A071C
:10255000140E054A00F00F031B1FD45403E00A07B2
:10256000130E024A135410BD18ED00E000E400E021
:102570007047704710B5FEF751FE10BD10B5044608
:102580000420FFF777FA0148046010BD1C0000200A
:102590002DE9F04192B080460D4616461F460024B4
:1025A00000BF002000902648006840F08050244979
:1025B00008600846006800F08050009000BF00BF2F
:1025C00000BF002000901F48006840F440401D49B3
:1025D00008600846006800F44040009000BF00BF5B
:1025E00001200690079002200C9041050D91CDF836
:1025F00038800F951096119706A8FFF76DF80446DE
:102600000CB100BFFEE7FEF7A1FE04460CB100BF0F
:10261000FEE70F20019002200290002003904FF46B
:10262000A05004904FF480500590052101A8FEF7BA
:10263000DFFE04460CB100BFFEE712B0BDE8F0813A
:1026400040380240007000401448006840F47000B8
:10265000124908601248006840F001001049086003
:1026600000200F49083108600D4800680D490840F6
:102670000B4908600C48091D0860081F006820F419
:102680008020091F0860002005490C3108604FF0C8
:1026900000600249803908607047000088ED00E062
:1026A00000380240FFFFF6FE1030002410B502484B
:1026B000FFF75EFA10BD00002400002070B505464B
:1026C0000C460748074908600846446000218160BD
:1026D000C5600161FFF7FEF90248FFF739FA70BDE6
:1026E0000004004024000020002202682C4B984285
:1026F0000ED0B0F1804F0BD02A4B984208D02A4B15
:10270000984205D0294B984202D0294B984201D1DA
:10271000012300E000231BB122F070024B681A4332
:102720001F4B984220D0B0F1804F1DD01D4B9842D6
:102730001AD01D4B984217D01C4B984214D01C4BFA
:10274000984211D01B4B98420ED01B4B98420BD095
:102750001A4B984208D01A4B984205D0194B984210
:1027600002D0194B984201D1012300E000231BB194
:1027700022F44072CB681A4302608B68C3620B6814
:102780008362074B984202D0094B984201D1012342
:1027900000E000230BB10B69036301234361704721
:1027A000000001400004004000080040000C004010
:1027B0000004014000400140004401400048014045
:1027C00000180040001C00400020004010B50446E6
:1027D0002068C06820F040002168C860202084F88C
:1027E00039002046FFF7A2FE002010BD70B5044658
:1027F00094F83A0022284AD1A068B0F5805F13D13E
:10280000A56A206940B920684068C0F308002880A4
:10281000A06A801CA06219E020684068C0B22880CD
:10282000A06A401CA06211E0206938B920684068A5
:10283000C1B2A26A501CA062117007E02068406813
:1028400000F07F01A26A501CA0621170E08D401E52
:1028500080B2E085C8B92068C06820F020002168F7
:10286000C8602068C06820F480702168C860206853
:10287000406920F0010021684861202084F83A0076
:102880002046FFF7CFFD002070BD0020FCE70220AE
:10289000FAE700002DE9F0410446002520680569AB
:1028A00025F44055E0680543206805612068C56847
:1028B00049F20C6085432169A068084361690843B7
:1028C000E169084305432068C5602068456925F42F
:1028D0004075A069054320684561E069B0F5004F87
:1028E0007ED1C4492068884203D0C3492068884209
:1028F0005DD1FEF781FE00EBC00101EB00106168C5
:102900004900B0FBF1F06421B0FBF1F00601FEF7E5
:1029100073FE00EBC00101EB001061684900B0FBE1
:10292000F1F7FEF769FE00EBC00101EB00106168F2
:102930004900B0FBF1F06421B0FBF1F000EBC00105
:1029400001EB0010A7EB8000322101EBC0006421F5
:10295000B0FBF1F000F0F80006EB4006FEF74CFE8D
:1029600000EBC00101EB001061684900B0FBF1F71A
:10297000FEF742FE00EBC00101EB00106168490068
:10298000B0FBF1F06421B0FBF1F000EBC00101EB12
:102990000010A7EB8000322101EBC0006421B0FBE6
:1029A000F1F000F0070030442168886020E1FEF774
:1029B0000DFE00EBC00101EB001061684900B0FBA7
:1029C000F1F06421B0FBF1F00601FEF7FFFD00EB32
:1029D000C00101EB001061684900B0FBF1F700E0B5
:1029E00045E0FEF7F3FD00EBC00101EB001061686C
:1029F0004900B0FBF1F06421B0FBF1F000EBC00145
:102A000001EB0010A7EB8000322101EBC000642134
:102A1000B0FBF1F000F0F80006EB4006FEF7D6FD43
:102A200000EBC00101EB001061684900B0FBF1F759
:102A3000FEF7CCFD00EBC00101EB0010616849001E
:102A4000B0FBF1F06421B0FBF1F000EBC00101EB51
:102A50000010A7EB8000322101EBC0006421B0FB25
:102A6000F1F000F00700304421688860C0E061495F
:102A70002068884203D06049206888425CD1FEF714
:102A8000BBFD00EBC00101EB001061688900B0FBE9
:102A9000F1F6FEF7B1FD00EBC00101EB001061683B
:102AA0008900B0FBF1F06421B0FBF1F000EBC00154
:102AB00001EB0010A6EB8000322101EB0010642135
:102AC000B0FBF1F000F0F006FEF796FD00EBC00160
:102AD00001EB001061688900B0FBF1F06421B0FBEC
:102AE000F1F006EB0016FEF787FD00EBC00101EBED
:102AF000001061688900B0FBF1F7FEF77DFD00EB87
:102B0000C00101EB001061688900B0FBF1F06421A5
:102B1000B0FBF1F000EBC00101EB0010A7EB80006F
:102B2000322101EB00106421B0FBF1F000F00F0046
:102B30003044216888605BE0FEF748FD00EBC0018F
:102B400001EB001061688900B0FBF1F6FEF73EFD75
:102B500000EBC00101EB001061688900B0FBF1F0EF
:102B60006421B0FBF1F000EBC00101EB0010A6EB1B
:102B70008000322101EB00106421B0FBF1F000F085
:102B8000F006FEF723FD00EBC00101EB00106168C9
:102B90008900B0FBF1F06421B0FBF1F006EB001608
:102BA000FEF714FD00EBC00101EB00106168890025
:102BB000B0FBF1F7FEF70AFD00EBC00101EB0010DE
:102BC00061688900B0FBF1F06421B0FBF1F000EB2B
:102BD000C00101EB0010A7EB8000322101EB0010D7
:102BE0006421B0FBF1F000F00F00304421688860F0
:102BF000BDE8F0810010014000140140014691F849
:102C0000390021282CD18868B0F5805F0FD10A6A7D
:102C10001088C0F308000B685860086918B9086A82
:102C2000801C086209E0086A401C086205E00B6A23
:102C3000581C086218780B685860C88C401E80B217
:102C4000C88458B90868C06820F080000B68D86054
:102C50000868C06840F040000B68D86000207047EA
:102C60000220FCE72DE9F04104460E4617461D46BA
:102C70004FF00008FEF7CCFA804677BB2FE0681CC7
:102C800060B32DB1FEF7C4FAA0EB0800A84226D924
:102C90002068C06820F080002168C8602068C06893
:102CA00020F020002168C8602068C06820F480708F
:102CB0002168C8602068406920F0010021684861EF
:102CC000202084F8390084F83A0000BF002084F8FE
:102CD000380000BF0320BDE8F0810BE0FFE720686B
:102CE00000683040B04201D1012000E000200028FF
:102CF000C5D037E02CE0681C50B32DB1FEF788FA40
:102D0000A0EB0800A84223D92068C06820F080000A
:102D10002168C8602068C06820F020002168C86071
:102D20002068C06820F480702168C860206840690D
:102D300020F0010021684861202084F8390084F8DF
:102D40003A0000BF002084F8380000BF0320C2E72B
:102D5000206800683040B04201D1012000E000202E
:102D60000028C8D10020B6E770B500240F4D1048E8
:102D7000FFF704FA00BF03E0641CAC4200D904E092
:102D80000B48FFF7F1F92028F6D100BF002403E03B
:102D9000641CAC4200D906E0012206490448FFF752
:102DA00009FB0028F4D100BF70BD0000FFFF010047
:102DB000A80000201800002010B504460B480C495C
:102DC00008600846446000218160C1600161816142
:102DD0000C214161FFF76CFA05480068C06840F0BB
:102DE000200003490968C86010BD000000100140C0
:102DF000A800002000BFFEE70FB4054B10B503A9E3
:102E0000044A029800F0DAF810BC5DF814FB0000E8
:102E1000ED3600082000002002E008C8121F08C19B
:102E2000002AFAD170477047002001E001C1121F4B
:102E3000002AFBD1704700002DE9FF5F82B000211E
:102E4000DDE90430020DDDF840B0034318D044F64C
:102E50001050A2F2FF3242431514119801281FD0DE
:102E6000A5EB0B00401C5FEA000A4FF000064E4F36
:102E7000DFF83891B046504615D5CAF1000413E08A
:102E8000119801244AA3012801D16FEA0B0102988D
:102E9000119AC0E90031C0E9024206B0BDE8F09FD6
:102EA000CBF10000DFE704460021404A491842EB1D
:102EB0000450CDE9001012E0E00707D032463B464F
:102EC00040464946FDF78EF98046894632463B46E4
:102ED00010461946FDF786F906460F466410002C89
:102EE000EAD1DDE90401DDE90023BAF1000F06DAD9
:102EF000FDF778F942464B46FDF774F905E0FDF71A
:102F000094FB42464B46FDF790FB04460E460022DA
:102F1000284BFDF711FC03D84FF0FF30014607E0C6
:102F20000022254B20463146FDF7D8FAFDF7ECFB91
:102F3000102409E0002C0ADB0A220023FDF709FA1D
:102F4000039B30321A55641E50EA0102F2D1641C10
:102F5000039AC4F111031444119A012A03D00122E7
:102F600008430DD10AE0084304D000204FF0110BB4
:102F7000119072E7A3EB0B056D1E0DE05B4504DDC0
:102F80004FF0000205F1010504E003DA4FF0000202
:102F9000A5F10105002AECD002981199C0E902318F
:102FA000C0E9004579E70000000014400000F03F50
:102FB000300000000000F0430000E03F2DE9FF4F2B
:102FC00095B09B468946064600250FE2252877D115
:102FD00000242746F84A0121059400E0044316F82E
:102FE000013F203B01FA03F01042F7D130782A2844
:102FF00011D06FF02F033078A0F13002092A16D8D3
:10300000059A44F0020402EB820203EB42021044F0
:10301000761C0590EFE759F8042B0592002A03DA95
:10302000504244F40054059044F00204761C307879
:103030002E2816D116F8010F44F004042A280DD0CA
:103040006FF02F023078A0F13003092B09D807EB7D
:10305000870302EB4303C718761CF3E759F8047B98
:10306000761C30786C280FD006DC4C2817D06828E6
:103070000DD06A2814D104E0742810D07A280FD11A
:103080000DE044F400140AE044F4801401E044F438
:1030900040147278824202D104F58014761C761CAA
:1030A000307866280BD013DC582877D009DC00284C
:1030B00075D04528F6D04628F4D047281AD19DE18E
:1030C00018E0632835D0642879D0652812D195E1BD
:1030D000702873D008DC6728F1D069286FD06E287B
:1030E0000DD06F2806D1B5E073282CD0752875D087
:1030F000782874D05A46179990476D1C75E1C4F32F
:103100000250022809D003280DD0D9F80010042855
:103110000DD00D6009F1040967E1D9F80010EA1734
:10312000C1E90052F6E7D9F800100D80F2E70D7002
:10313000F0E719F8041B8DF8001000208DF801004D
:10314000EA46012003E059F804AB4FF0FF30610775
:103150004FF0000102D40DE008F101018846B942A8
:103160000FDA8045F8DB1AF808100029F4D108E0DE
:1031700008F1010188468142FADB1AF8081000299B
:10318000F6D105985B46A0EB080721463846179A0A
:1031900000F094FA284400EB080507E04DE029E12F
:1031A0000DE01AF8010B5A4617999047B8F101083B
:1031B000F7D25B4621463846179A13E142E00A22CD
:1031C0000092C4F302524FF0000A022A08D059F8C4
:1031D00004CB032A4FEAEC710AD00DE029E02AE083
:1031E00009F1070121F00702F2E802C1914609E066
:1031F0000FFA8CFC4FEAEC71042A03D14FFA8CFCD5
:103200004FEAEC71002907DA0A460021DCF1000CD4
:1032100061EB02012D2202E0220504D52B228DF85C
:103220000420012203E0E20701D02022F7E79046C4
:1032300059E00A2102E010220DE010214FF0000AAF
:1032400000910BE010224FF0000A44F0040408271C
:10325000009203E008224FF0000A0092C4F30252E9
:10326000022A05D059F804CB0021032A08D009E02E
:1032700009F1070121F00702F2E802C1914605E0D9
:103280001FFA8CFC042A01D10CF0FF0C4FF000084F
:10329000220728D5702806D0009B83F0100353EA3C
:1032A0000A0305D00EE040228DF80420012208E038
:1032B0005CEA010206D030228DF804208DF805006A
:1032C00002229046009B83F0080353EA0A030AD1C6
:1032D0005CEA010201D1620705D530228DF8042095
:1032E0004FF001087F1E582804D034A003900EA888
:1032F00002900DE036A0F9E753466046009AFDF7CC
:1033000028F884460398825C0298401E029002705E
:103310005CEA0100F0D1029806A9081A00F1200A1F
:10332000600702D524F4803400E00127574502DD10
:10333000A7EB0A0000E0002000EB0A0100900598CE
:103340004144401A0590E00306D45B462146179A93
:10335000059800F0B3F90544002706E001A85A4695
:10336000C05D179990476D1C7F1C4745F6DBE00355
:103370000CD55B462146179A059800F09FF9054445
:1033800004E030205A46179990476D1C0099481E5A
:1033900000900029F5DC08E0029802995A4600786E
:1033A000491C0291179990476D1CBAF10001AAF1CE
:1033B000010AF1DC65E100000928010030313233F7
:1033C0003435363738396162636465660000000061
:1033D000303132333435363738394142434445464B
:1033E0000000000000F058F90544761C30780028F1
:1033F0007FF4ECAD19B02846BDE8F08F620700D429
:10340000062709F1070222F0070CFCE80223E14637
:1034100003F000485FEA080C02D00FF2702C0DE0B8
:103420005FEA045C02D50FF2682C07E05FEAC47C17
:1034300002D00FF2602C01E0AFF2700C4FF0FF38B9
:1034400023F00043CDF850C065280CD006DC452899
:1034500009D046281DD047283DD13DE0662818D028
:1034600067287ED138E00021112F01DB112000E018
:10347000781CCDE9000106A90EA8FFF7DDFCDDE907
:103480000F010E9A03910021009207F1010A0491A5
:103490004DE04FF000400097CDE9011006A90EA8BD
:1034A000FFF7CAFCDDE90F0203920E9B119900227F
:1034B000DDF80CA00093049211B9791C00EB010A0D
:1034C000B7EB0A0004D4C0F1FF3007F1010A049001
:1034D000AAEB0700019044E0012F00DA0127002148
:1034E000112F01DD112000E03846CDE9000106A9C9
:1034F0000EA8FFF7A1FCDDE90F010E9A0391002150
:1035000004910092BA4621070CD40399514500DA80
:103510008A46BAF1010F05DD009AAAF10101515C5A
:10352000302908D0B84202DA10F1040F06DA01217E
:10353000CDE9011015E0AAF10101E9E7002805DC59
:10354000049901440491AAEB000102E0411C514599
:1035500000DD8A460499401A401C01904FF000405B
:103560000290200704D40198504501DBCDF8048077
:1035700000208DF84F0002980DF14F07B0F1004F79
:1035800025D02B200E9002984FF0020800280CDA6C
:10359000404202902D200E9007E00A210298FCF78D
:1035A000C2FE3031029007F8011DB8F10001A8F108
:1035B0000108F2DC02980028EFD1791E0E980870FD
:1035C000307800F0200040F0450007F8020D12A806
:1035D000C01B00F107081498007800B1012000EB2F
:1035E0000A01019801EBE07105984144401A401E20
:1035F0000590E00306D45B462146179A059800F033
:103600005DF805441498007818B15A461799904708
:103610006D1CE00324D55B462146179A059800F0FF
:103620004DF805441CE00498002807DBDDE90301A0
:10363000884203DD0098405C179901E0179930201B
:103640005A469047049805F10105401C04900198E2
:10365000401E019004D12E205A46179990476D1CA8
:10366000BAF10001AAF1010ADDDC05E017F8010B4F
:103670005A46179990476D1CB8F10001A8F101084E
:10368000F4DC5B462146179A0598ABE62D00000056
:103690002B000000200000002DE9F0410446002529
:1036A0001E461746880404D405E039462020B0475A
:1036B0006D1C641EF9D52846BDE8F0812DE9F04166
:1036C000044600251E469046C80301D5302700E079
:1036D0002027880404D505E041463846B0476D1CD4
:1036E000641EF9D52846BDE8F081000000BF054AF8
:1036F000126802F04002002AF9D0C2B2014B5A60AF
:103700007047000000100140002400BF00BFFDF71B
:103710008DFD082302224FF4B4711920FEF738FF03
:10372000B420FEF72BFF4FF4E130FFF745FBFDF728
:103730001BF942F2273140F2E730FEF7BFFF0FE0FE
:10374000601CC4B2142094FBF0F100FB114038B9A6
:103750000448006808B9012000E000200149086021
:10376000EEE70000848240420000000001020304F2
:103770000102030406070809252E3266252E32664B
:10378000252E3266252E3266252E3266252E32668D
:10379000252E3266252E3266252E3266252E32667D
:1037A000252E3266252E3266252E3266252E32666D
:1037B000252E3266252E326600000000DC37000818
:1037C0000000002024000000182E00080038000827
:1037D00024000020C4040000282E00080024F40067
:1037E00000000000000000000102030406070809B1
:1037F00000000000000000000000000000000000C9
:04000005080001AD41
:00000001FF
