:020000040800F2
:100000009005002001010008C1260008C326000851
:10001000C7260008CB260008CF26000800000000F5
:10002000000000000000000000000000D3260008CF
:10003000D526000800000000D7260008D9260008B1
:100040001B0100081B0100081B0100081B01000820
:100050001B0100081B0100081B0100081B01000810
:100060001B010008312100081B0100081B010008CA
:100070001B0100081B0100081B0100081B010008F0
:100080001B0100081B0100081B0100081B010008E0
:100090001B0100081B0100081B0100081B010008D0
:1000A0001B010008692300081B0100081B01000850
:1000B0001B0100081B0100087D2300081B0100082C
:1000C0001B0100081B0100081B0100081B010008A0
:1000D0001B010008E71F00081B0100081D20000885
:1000E0001B0100081B0100081B010008DFF80CD0F1
:1000F00004F08CFE0048004771260008900500209F
:100100000648804706480047FEE7FEE7FEE7FEE7B1
:10011000FEE7FEE7FEE7FEE7FEE7FEE70302000874
:10012000ED0000080CB50020019000906C480068BC
:1001300040F480306A49086000BF6948006800F4F4
:10014000003000900198401C0190009818B9019867
:10015000B0F5A06FF1D16248006800F4003010B132
:100160000120009001E0002000900098012843D178
:100170005C48006840F010005A4908600846006872
:1001800020F0030008600846006840F002000860A4
:1001900053484068524948600846406848600846ED
:1001A000406840F4806048600846406820F47C1055
:1001B00048600846406840F4E81048600846006817
:1001C00040F08070086000BF4548006800F0007093
:1001D0000028F9D04248406820F0030040494860B8
:1001E0000846406840F00200486000BF3C48406854
:1001F00000F00C000828F9D10CBD10B5FFF792FFF4
:1002000010BD10B53648006840F001003449086060
:10021000084640683449084031494860084600684B
:10022000324908402E4908600846006820F48020C2
:1002300008600846406820F4FE0048604FF41F0044
:100240008860FFF7DAFF4FF000602949086010BDB1
:1002500010B5002100200022214B5B6803F00C0147
:1002600021B1042906D0082928D107E0214B224CCE
:10027000236027E01F4B204C236023E0184B5B6872
:1002800003F47010164B5B6803F48032022303EB17
:10029000904022B9194B4343174C23600DE0104B9B
:1002A0005B6803F4003323B1144B4343124C2360C7
:1002B00003E0104B4343104C236003E00D4B0E4C06
:1002C000236000BF00BF064B5B68C3F303130C4CF5
:1002D000E15C094B1B68CB40074C236010BD00005C
:1002E00000100240002002400000FFF8FFFFF6FE71
:1002F00008ED00E000127A000000002000093D0037
:100300000400002031490143314A1160704770B543
:10031000002100230F22C47804B32D4C246804F478
:10032000E064C4F5E064210AC1F10403CA404478E2
:1003300004FA03F18478144021430901254C06781E
:10034000A155047804F01F050124AC4005786D1117
:10035000AD0005F1E025C5F8004109E0047804F09E
:100360001F050124AC401C4D0678761145F8264047
:1003700070BD1A4A0A400243154B1B1F1A60704792
:1003800039B1134A121D12680243114B1B1D1A602A
:1003900006E00F4A121D126882430D4B1B1D1A60A6
:1003A0007047042808D14FF0E021096941F00401A9
:1003B0004FF0E022116107E04FF0E021096921F0E0
:1003C00004014FF0E0221161704700000000FA05BF
:1003D0000CED00E000E400E080E100E080FFFF1FA2
:1003E000002044490860091D0860091D0860091DB6
:1003F000086041483F4914310860704700213D4979
:100400008279002A3AD00A46126803689A430B465A
:100410001A600A1D126803689A430B1D1A6002795C
:1004200011440A6803681A430A60324A08321268A3
:1004300003689A432F4B08331A601A1D1268036829
:100440009A432C4B0C331A604279102A0ED11A1F92
:10045000126803681A43274B08331A601A1D126882
:1004600003681A43234B0C331A600DE0214942798B
:1004700011440A6803681A430A6005E002791144CE
:100480000A6803689A430A6070470021016001719D
:100490000C214171002181717047164910310968A2
:1004A0000143144A10321160704701460020114A7E
:1004B000143212680A400AB1012000E0002070479F
:1004C0000C49143108607047014600200022094B96
:1004D0001B6803EA0102074B14331B680B4013B17E
:1004E0000AB1012000E00020704702491431086081
:1004F0007047000000040140FFFF0F0010B50446E4
:10050000CC48844208D10121042000F02DFB0021B9
:10051000042000F029FB46E0C748844208D10121AD
:10052000082000F021FB0021082000F01DFB3AE02C
:10053000C248844208D10121102000F015FB00219F
:10054000102000F011FB2EE0BD48844208D10121AB
:10055000202000F009FB0021202000F005FB22E014
:10056000B848844208D10121402000F0FDFA002162
:10057000402000F0F9FA16E0B348844208D1012186
:10058000802000F0F1FA0021802000F0EDFA0AE06E
:10059000AE48844207D10121801500F0E5FA002120
:1005A000A01500F0E1FA10BD10B50121084600F0D9
:1005B000DBFA0021012000F0D7FA10BD2DE9F0414F
:1005C000024600250026002000230024002791F881
:1005D00003C00CF00F0591F803C00CF0100CBCF137
:1005E000000F03D091F802C04CEA050591F800C055
:1005F000BCF1000F31D0146800202BE04FF0010C4B
:100600000CFA00F3B1F800C00CEA03069E4220D1B8
:1006100083004FF00F0C0CFA03F7BC4305FA03FC00
:100620004CEA040491F803C0BCF1280F06D14FF046
:10063000010C0CFA00FCC2F814C00AE091F803C0E7
:10064000BCF1480F05D14FF0010C0CFA00FCC2F8C8
:1006500010C0401C0828D1D31460B1F800C0BCF110
:10066000FF0F34DD546800202EE000F1080C4FF03D
:10067000010808FA0CF3B1F800C00CEA03069E4228
:1006800021D183004FF00F0C0CFA03F7BC4305FA9D
:1006900003FC4CEA040491F803C0BCF1280F05D117
:1006A00000F1080C08FA0CF8C2F8148091F803C0A5
:1006B000BCF1480F07D100F1080C4FF0010808FA0F
:1006C0000CF8C2F81080401C0828CED35460BDE856
:1006D000F0814FF6FF710180022181700421C17009
:1006E00070470246002093680B400BB1012000E0E8
:1006F000002070470146886880B27047024600209B
:10070000D3680B400BB1012000E000207047014688
:10071000C86880B2704701617047416170470AB193
:10072000016100E041617047C16070474FF4803261
:100730000A438261816182618269826970470246EF
:100740000020434B18684FF68073184040EA0210AF
:1007500008433F4B186070473E49C8617047F0B589
:100760000A46002300240021002500F00046B6F1CF
:10077000004F02D1364EF16901E0354E7168C0F389
:10078000034583B200F44016B6F5401F08D121F0AE
:1007900070612F4E766826F070662D4F7E6012E0F5
:1007A00000F48016B6F5801F06D1032606FA05F47C
:1007B000A14341F0706106E0460D360103FA06F6EA
:1007C000B14341F0706122B1460D360103FA06F6DD
:1007D000314300F00046B6F1004F02D11C4EF161EA
:1007E00001E01B4E7160F0BD30B500228B071C0F7D
:1007F0000F2303FA04F2164B08338C1053F82430FD
:100800009343134C08348D1044F8253023468C1044
:1008100053F824308C07240F00FA04F423430C4CC3
:1008200008348D1044F8253030BD0A49DC310860A9
:100830007047000000080140000C0140001001401A
:100840000014014000180140001C0140002001403C
:100850000000014000002042DF48006840F0010035
:10086000DD49086008464068DC490840DA494860CC
:1008700008460068DA490840D74908600846006819
:1008800020F4802008600846406820F4FE0048609C
:100890004FF41F0088607047CF49096821F4803108
:1008A000CD4A11601146096821F480211160B0F52C
:1008B000803F03D0B0F5802F0ED106E0C64909680D
:1008C00041F48031C44A116007E0C349096841F42A
:1008D000A021C14A116000E000BF00BF704710B501
:1008E00001460022002300204A11012A02D1BA4CFD
:1008F000236806E0022A02D1B74C236A01E0B64C15
:10090000636A01F01F02012494401C400CB10120D5
:1009100000E0002010BD38B5002000900024002524
:1009200000BF3120FFF7DBFF05460098401C009018
:100930000098B0F5A06F01D0002DF2D03120FFF764
:10094000CEFF08B1012400E00024204638BD014656
:100950000020A14A106820F0F80040EAC1001060B1
:100960007047A04908607047024600209A4B5868BB
:1009700020F47C1042EA01031843974B58607047FB
:1009800098490866704701460020934A506820F055
:1009900003000843506070478F48406800F00C0027
:1009A0007047014600208C4A506820F0F000084350
:1009B0005060704701460020874A506820F4E0608C
:1009C00008435060704701460020834A506820F475
:1009D000605040EAC1005060704729B17E4A527AA7
:1009E00002437D4B5A7204E07B4A527A82437A4B2F
:1009F0005A7270477B49D831086070470146002021
:100A0000754A506820F44040084350607047002108
:100A1000714A20321170704A82F82010012802D0E9
:100A200004280AD104E001216B4A2032117005E04C
:100A30000521694A2032117000E000BF00BF7047F5
:100A40006949086070476449096A0143624A116252
:100A50007047654944390860704730B5002100226D
:100A6000002400235C4D6D6805F00C0121B10429C0
:100A700005D0082923D105E05C4D056022E05B4DDF
:100A800005601FE0544D6D6805F47012524D6D689D
:100A900005F48034022505EB92421CB9544D5543B0
:100AA00005600BE04C4D6D6805F400351DB1504DEF
:100AB0005543056002E04D4D5543056002E04B4D46
:100AC000056000BF00BF444D6D6805F0F0010909E5
:100AD000484D6B5C0568DD4045603F4D6D6805F431
:100AE000E061090A434D6B5C4568DD4085603A4D25
:100AF0006D6805F46051C90A3E4D6B5C4568DD4088
:100B0000C560354D6D6805F44041890B3A4D6B5C0D
:100B1000C568B5FBF3F5056130BD29B12E4A5269B0
:100B200002432D4B5A6104E02B4A526982432A4BFF
:100B30005A61704729B1284A92690243264B9A614B
:100B400004E0254A92698243234B9A61704729B198
:100B5000214AD2690243204BDA6104E01E4AD2697D
:100B600082431D4BDA61704729B11B4AD2680243A8
:100B7000194BDA6004E0184AD2688243164BDA60F7
:100B8000704729B1144A12690243134B1A6104E0F9
:100B9000114A12698243104B1A6170471249403959
:100BA000086070470F49C86470470B49C8717047A7
:100BB0000948406A40F08070074948627047014622
:100BC0000020054A92680A400AB1012000E0002096
:100BD0007047014988727047001002400000FFF81A
:100BE000FFFFF6FE000042428004424200127A00FB
:100BF00000093D00140000202400002010B5044628
:100C0000FE48844208D10121C014FFF7ADFF002146
:100C1000E014FFF7A9FFC4E0B4F1804F08D101212F
:100C20000846FFF7AEFF00210120FFF7AAFFB8E05A
:100C3000F348844208D101210220FFF7A2FF0021DE
:100C40000220FFF79EFFACE0EE48844208D101216C
:100C50000420FFF796FF00210420FFF792FFA0E099
:100C6000E948844208D101210820FFF78AFF0021CA
:100C70000820FFF786FF94E0E448844208D1012170
:100C80001020FFF77EFF00211020FFF77AFF88E099
:100C9000DF48844208D101212020FFF772FF0021A4
:100CA0002020FFF76EFF7CE0DA48844208D1012162
:100CB0004014FFF759FF00216014FFF755FF70E063
:100CC000D548844209D10121C804FFF74DFF002116
:100CD0004FF40020FFF748FF63E0D048844209D179
:100CE00001210805FFF740FF00214FF48010FFF7B6
:100CF0003BFF56E0CA48844209D101214805FFF76D
:100D000033FF00214FF40010FFF72EFF49E0C548E4
:100D1000844208D101214020FFF733FF0021402009
:100D2000FFF72FFF3DE0C048844208D10121802019
:100D3000FFF727FF00218020FFF723FF31E0BB48AA
:100D4000844208D101218015FFF71BFF0021A01567
:100D5000FFF717FF25E0B648844209D101210804B6
:100D6000FFF702FF00214FF48030FFF7FDFE18E08F
:100D7000B048844209D101214804FFF7F5FE002163
:100D80004FF40030FFF7F0FE0BE0AB48844208D18F
:100D900001218804FFF7E8FE00214FF48020FFF7CF
:100DA000E3FE10BD00220288944B98420ED0994B6E
:100DB00098420BD0B0F1804F08D0914B984205D0AB
:100DC000904B984202D0904B984204D14FF68F73CB
:100DD0001A404B881A438D4B984207D08C4B98424F
:100DE00004D04FF6FF431A40CB881A4302808B8809
:100DF00083850B880385814B98420BD0854B9842A5
:100E000008D08B4B984205D08A4B984202D08A4B2F
:100E1000984201D10B7A038601238382704770B513
:100E2000002400220023058C4FF6FE763540058411
:100E3000028C8388048B4FF68F752C40B51E2C4096
:100E40000D882C43751E2A400D892A434D882A435C
:100E50006A4DA8420BD06F4DA84208D0744DA842ED
:100E600005D0744DA84202D0734DA84213D14FF65D
:100E7000F7752A404D892A434FF6FB752A408D8825
:100E80002A434FF6FF652B404FF6FF552B408D89C7
:100E90002B43CD892B4383800483CD8885860284B0
:100EA00070BD70B5002400220023058C4FF6EF764C
:100EB00035400584028C8388048B48F6FF752C40EE
:100EC0004FF6FF452C400D884FF6FF7606EA0525C4
:100ED0002C434FF6DF752A400D8906EA05152A4393
:100EE0004D8806EA05152A43444DA84202D0494DD3
:100EF000A8421DD14FF67F752A404D894FF6FF76E7
:100F000006EA05152A434FF6BF752A408D8806EA82
:100F100005152A434FF6FF352B404FF2FF752B4046
:100F20008D8906EA85052B43CD8906EA85052B4385
:100F300083800483CD880587028470BD70B500244A
:100F400000220023058C4FF6FF6635400584028C95
:100F50008388848B4FF68F752C404FF6FC752C40A0
:100F60000D882C434FF6FF552A400D894FF6FF762A
:100F700006EA05252A434D8806EA05252A431F4D22
:100F8000A84202D0234DA8421DD14FF2FF752A403E
:100F90004D894FF6FF7606EA05252A434FF6FF35C1
:100FA0002A408D8806EA05252A434EF6FF752B4018
:100FB0004DF6FF752B408D8906EA05152B43CD892B
:100FC00006EA05152B4383808483CD8885870284B8
:100FD00070BD70B5002200230024058C4EF6FF760C
:100FE00035400584038C8488828B48F6FF752A403F
:100FF0004FF6FF452A400D8820E00000002C0140FC
:101000000004004000080040000C004000100040B8
:101010000014004000340140004C014000500140E9
:101020000054014000180040001C00400020004017
:101030000040014000440140004801404FF6FF7667
:1010400006EA05252A434DF6FF752B400D8906EA71
:1010500005352B434D8806EA05352B43FA4DA8424A
:1010600002D0FA4DA84208D14BF6FF752C408D896D
:101070004FF6FF7606EA85152C4384808283CD885F
:10108000A0F84050038470BD828B4FF2FF331A40AA
:101090008283828B4FF6FF7303EA01231A43828314
:1010A0007047F0B50C461546002200210026078C3B
:1010B0004EF6FF7C07EA0C070784828B018C4FF603
:1010C000FF7707EA043640F6FF473A404FF6FF77CE
:1010D00007EA05273A434FF6FF7707EA03373A4313
:1010E000D94FB8420ED0D94FB8420BD0B0F1804F93
:1010F00008D0D74FB84205D0D64FB84202D0D64F0D
:10110000B84206D14DF6FF77394046F4805739434F
:1011100005E047F6FF57394044F48057394382834E
:101120000184F0BD828B4FF6F3731A408283828B69
:101130000A4382837047F0B50C4615460022002111
:101140000026078C4FF6FF6C07EA0C070784828B9A
:10115000018C4FF6FF7707EA04264FF60C773A40EA
:101160004FF6FF7707EA03172F433A43B64FB842CB
:101170000ED0B64FB8420BD0B0F1804F08D0B44F6C
:10118000B84205D0B34FB84202D0B34FB84206D1EF
:101190004FF6FF57394046F48077394305E04FF268
:1011A000FF57394044F48077394382830184F0BD8E
:1011B000028B4FF2FF331A400283028B4FF6FF730C
:1011C00003EA01231A4302837047F0B50C46154623
:1011D000002200210026078C4FF6EF7C07EA0C075F
:1011E0000784028B018C4FF6FF7707EA041640F65E
:1011F000FF473A404FF6FF7707EA03373A434FF687
:10120000FF7707EA05273A438F4FB8420ED08F4F3A
:10121000B8420BD0B0F1804F08D08D4FB84205D006
:101220008C4FB84202D08C4FB84206D14FF6DF77D0
:10123000394046F01007394305E04FF65F773940F3
:1012400044F01007394302830184F0BD028B4FF64E
:10125000F3731A400283028B0A4302837047F0B58E
:101260000C46154600220021068C4FF6FE773E40C4
:101270000684028B018C4FF60C7632407E1C06EA07
:1012800003162E433243704EB0420ED06F4EB04222
:101290000BD0B0F1804F08D06D4EB04205D06D4EEE
:1012A000B04202D06C4EB04206D14FF6FD763140CE
:1012B00044F00106314305E04FF6F576314044F045
:1012C0000106314302830184F0BD70B505460C462A
:1012D0005D4885420ED05D4885420BD0B5F1804F08
:1012E00008D05B48854205D05A48854202D05A480A
:1012F000854200D100E000BF208850B92389A28830
:1013000061882846FFF7ABFFE1882846FFF79EFF7C
:1013100025E0208804280AD12389A28861882846EC
:10132000FFF753FFE1882846FFF742FF17E02088C8
:1013300008280AD12389A28861882846FFF7FBFE86
:10134000E1882846FFF7EEFE09E02389A28861883C
:101350002846FFF7A6FEE1882846FFF795FE70BDF8
:101360002DE9F04105460C4600260127608808B9A2
:10137000022600E00026A088012801D1022700E013
:1013800001272088A0B92389A28861882846FFF711
:1013900066FFE1882846FFF759FF23893A46314620
:1013A0002846FFF712FFE1882846FFF701FF13E008
:1013B0002389A28861882846FFF707FFE18828462D
:1013C000FFF7F6FE23893A4631462846FFF747FFE6
:1013D000E1882846FFF73AFFBDE8F0810A884B888C
:1013E0001A438B881A43CB881A430B891A434B89BB
:1013F0001A438B891A43A0F8442070474FF6FF71B7
:10140000818000210180C1804180017270470021EC
:10141000018041808180C180018141818181C181C0
:101420007047002101804180012181800021C1801D
:10143000018170470021018041808180C18001814C
:101440004181818170470000002C0140003401403F
:101450000004004000080040000C004021B1028858
:1014600042F00102028004E002884FF6FE731A4047
:101470000280704731B1B0F8442042F40042A0F835
:10148000442005E0B0F84420C2F30E02A0F8442046
:1014900070471AB183890B43838102E083898B43B0
:1014A000838170478182704741EA0203A0F8483087
:1014B00070471AB183890B43838102E083898B4390
:1014C0008381704701894FF6F8721140018170479E
:1014D0000A46002101894FF68F731940114301819B
:1014E000704730B504460D4629462046FFF7F0FF09
:1014F000208940F00700208130BD2DE9F0410446ED
:101500000D4616461F46602D06D13B460122314648
:101510002046FFF75AFE05E03B46012231462046B1
:10152000FFF79DFE29462046FFF7D2FF208940F0B5
:1015300007002081BDE8F08130B50C46002101890B
:10154000C9B24FF6FF7505EA032515432543294324
:10155000018130BD2DE9F04105460E4617469846FB
:10156000002443463A4631462846FFF7E5FF2C89DA
:101570004FF6F870044044F007044FF68F700440B3
:1015800044F070042C81BDE8F081F0B504460D46AE
:1015900016461F463B46324629462046FFF7CCFFFB
:1015A000208940F480402081F0BD0185828270470F
:1015B0000A46002101884FF68F73194011430180BC
:1015C0007047F0B50C4615461E4600210022002348
:1015D0000189028B038C4FF6F877394021434FF68F
:1015E000FC473A4040F201173A434FF6DD773B4063
:1015F0004FF6FF7707EA06172F433B43018102832B
:101600000384F0BD0A460021018B4FF68F73194009
:101610001143018370470A460021018B48F6FF738E
:1016200019404FF6FF7303EA022319430183704701
:101630000A460021818B4FF68F7319401143818335
:1016400070470A460021818B48F6FF7319404FF618
:10165000FF7303EA022319438183704721B1028893
:1016600042F08002028004E002884FF67F731A4045
:101670000280704721B1828842F00402828004E037
:1016800082884FF6FB731A408280704721B18288AE
:1016900042F00802828004E082884FF6F7731A4015
:1016A0008280704721B1828842F00102828004E08A
:1016B00082884FF6FE731A40828070470A460021E6
:1016C000018B4FF6F77319401143018370470A46A7
:1016D0000021018B4FF2FF7319404FF6FF7303EAAD
:1016E00002231943018370470A460021818B4FF67C
:1016F000F77319401143818370470A460021818B9B
:101700004FF2FF7319404FF6FF7303EA02231943A8
:10171000818370470A460021018B4FF6FB73194005
:101720001143018370470A460021018B4FF6FF33B6
:1017300019404FF6FF7303EA0223194301837047F0
:101740000A460021818B4FF6FB73194011438183B8
:1017500070470A460021818B4FF6FF3319404FF640
:10176000FF7303EA02231943818370470A4600216D
:10177000018B4FF67F7319401143018370470A466E
:101780000021018BC1F30E014FF6FF7303EA022320
:101790001943018370470A460021818B4FF67F73FE
:1017A00019401143818370470A460021818BC1F3A0
:1017B0000E014FF6FF7303EA02231943818370473A
:1017C0000A460021018C4FF6FD7319401143018434
:1017D00070470A460021018C4FF6F77319401143F8
:1017E000018470470A460021018C4FF6DF731940CF
:1017F0004FF6FF7303EA02131943018470470A4648
:101800000021018C4FF67F7319404FF6FF7303EAF6
:1018100002131943018470470A460021018C4FF6D8
:10182000FF5319404FF6FF7303EA02231943018463
:1018300070470A460021018C4FF2FF7319404FF6A2
:10184000FF7303EA02231943018470470A4600210B
:10185000018C4DF6FF7319404FF6FF7303EA023314
:1018600019430184704730B5002301248C40A3B292
:10187000048C9C430484048C02FA01F5ADB22C4321
:10188000048430BD30B5002304248C40A3B2048C02
:101890009C430484048C02FA01F5ADB22C43048409
:1018A00030BD70B5034600200024184618300125CD
:1018B0008D40ACB21D8CA5431D8409B1082909D106
:1018C00000EB6100056825F07005056005681543AB
:1018D00005600EE00D1FC5F34E052844056825F48C
:1018E000E045056005684FF6FF7606EA02263543B7
:1018F000056070BD21B1028842F00202028004E05E
:1019000002884FF6FD731A400280704721B10288A9
:1019100042F00402028004E002884FF6FB731A4092
:101920000280704721B1828842F08002828004E008
:1019300082884FF67F731A408280704702884FF684
:10194000F7731A40028002880A4302807047828837
:101950004FF68F731A40828082880A4382807047D4
:1019600002894FF6F8731A40028102890A43028104
:10197000704702894FF67F731A40028102890A4339
:1019800002817047818470478185704781867047E6
:101990000187704781877047A0F840107047028820
:1019A0004FF6FF431A40028002880A4302807047C4
:1019B0000146888E70470146088F70470146888F20
:1019C00070470146B1F8400070470146888C704767
:1019D0000146088D704702460020138A0B400BB168
:1019E000012000E000207047CA430282704730B5F2
:1019F0000246002000230024158A05EA0103958988
:101A000005EA010413B10CB1012000E0002030BD53
:101A1000CA4302827047000010B50446FB48844266
:101A200009D101218803FFF79FF800214FF480407E
:101A3000FFF79AF832E0F648844209D101214804C0
:101A4000FFF79FF800214FF40030FFF79AF825E0E8
:101A5000F048844209D101218804FFF792F800215F
:101A60004FF48020FFF78DF818E0EB48844209D14D
:101A70000121C804FFF785F800214FF40020FFF78B
:101A800080F80BE0E548844208D101210805FFF702
:101A900078F800214FF48010FFF773F810BD2DE99E
:101AA000F04786B005460E460024A24600BFA14678
:101AB0000027B08900B100BF2F462C8A4CF6FF707A
:101AC0000440F08804432C82AC894EF6F3100440A5
:101AD000B08831890843718908430443AC81AC8ADA
:101AE0004FF6FF400440B0890443AC8201A8FEF7E2
:101AF000B4FFC648874202D1DDF810A001E0DDF84E
:101B00000CA0A88900F4004040B10AEBCA0000EB29
:101B10000A1031684900B0FBF1F807E00AEBCA008F
:101B200000EB0A1031688900B0FBF1F86420B8FBC3
:101B3000F0F004012009642101FB1089A88900F458
:101B4000004040B1322000EBC900B0FBF1F000F0E2
:101B50000700044308E0322000EB09106421B0FBC9
:101B6000F1F000F00F0004432C8106B0BDE8F087CF
:101B70004FF41651016000218180C18001810C2148
:101B8000418100218181704710B502460020108AF2
:101B90004FF2FF0318400B884C8823438C88234363
:101BA000CC8823431843108210BD0021018041805E
:101BB0008180C180704721B1828942F400528281C4
:101BC00004E082894DF6FF731A4082817047F0B5B8
:101BD0000346002400260025002040F66A17B9427B
:101BE00000D100BF1846C1F3421401F01F060127BF
:101BF00007FA06F5012C01D10C3004E0022C01D1CA
:101C0000103000E014301AB107682F43076002E07B
:101C10000768AF430760F0BD1AB1838A0B43838224
:101C200002E0838A8B4383827047028A4FF6F07307
:101C30001A400282028A0A430282704782894FF266
:101C4000FF731A40828182890A438281704721B1E1
:101C5000828942F00202828104E082894FF6FD739C
:101C60001A4082817047028A4FF6DF731A4002825F
:101C7000028A0A430282704721B1028A42F48042FA
:101C8000028204E0028A4BF6FF731A400282704718
:101C9000C1F308028280704701468888C0F30800BB
:101CA0007047818941F0010181817047028BD2B276
:101CB0000283028B42EA012202837047028B02F404
:101CC0007F420283028B0A430283704721B1828ADA
:101CD00042F02002828204E0828A4FF6DF731A40CB
:101CE0008282704721B1828A42F01002828204E02F
:101CF000828A4FF6EF731A408282704721B1828A3E
:101D000042F00802828204E0828A4FF6F7731A409A
:101D10008282704721B1828942F40042828103E0CD
:101D20008289C2F30E028281704721B1828A42F415
:101D30000062828204E0828A4FF2FF731A4082823C
:101D40007047828A4FF6FB731A408282828A0A4366
:101D50008282704721B1828A42F00202828204E0CC
:101D6000828A4FF6FD731A40828270470246002035
:101D7000B1F5007F00D100BF13880B400BB10120EB
:101D800000E00020704701F40072B2F5007F00D13E
:101D900000BFCA430280704770B50246002400238A
:101DA0000025002040F66A16B14200D100BFC1F301
:101DB000421501F01F03012606FA03F3012D02D19B
:101DC0009689334006E0022D02D1168A334001E0A5
:101DD000968A33400C12012606FA04F41688344021
:101DE00013B10CB1012000E0002070BD10B500223D
:101DF000002340F66A14A14200D100BF0A12012458
:101E00009440A3B2DC43048010BD000000380140C0
:101E10000044004000480040004C0040005000409A
:101E20004FF0E020006920F004004FF0E02108614D
:101E30000920364908700846007800EB4001C1EBE4
:101E4000C0104FF6FF7101EAC000314908807047A9
:101E5000002120F07F402D4A127842434FF0E023CA
:101E60005A6100229A6101221A6100BF4FF0E022FC
:101E7000116901F001021AB101F48032002AF5D093
:101E800000224FF0E0231A619A617047002100B9E7
:101E9000704720F07F401E4A128842434FF0E023F3
:101EA0005A6100229A6101221A6100BF4FF0E022BC
:101EB000116901F001021AB101F48032002AF5D053
:101EC00000224FF0E0231A619A6100BFE0E770B58D
:101ED0000446002600254FF4FA7094FBF0F0C6B2D9
:101EE0004FF4FA7094FBF0F100FB114085B205E06D
:101EF0004FF4FA70FFF7CAFF701EC6B2002EF7D17A
:101F000015B12846FFF7C2FF70BD00002800002071
:101F10002A00002070B504460D4600BF40213D4810
:101F2000FFF724FF0028F9D0E1B23A48FFF7B0FEEE
:101F3000204670BD10B5044600BF20213548FFF78C
:101F400015FF0028F9D03348FFF7A6FE10BD10B5E5
:101F500086B00446012144F20400FEF7EBFD4FF485
:101F60000070ADF8140018208DF8170003208DF8CC
:101F7000160005A92848FEF721FB4FF48060ADF854
:101F8000140048208DF8170005A92348FEF716FB1A
:101F900001940020ADF80800ADF80A00ADF80C007F
:101FA000ADF810000C20ADF80E0001A91948FFF79C
:101FB00076FD012240F225511648FFF708FE012167
:101FC0001448FFF7F8FD25208DF8000000208DF85B
:101FD00001008DF8020001208DF803006846FEF72D
:101FE00096F906B010BD10B540F225510948FFF72B
:101FF000D3FE68B140F225510648FFF7F7FE0548C9
:10200000FFF74AFEC4B221460248FFF741FE00BF77
:1020100010BD0000003801400008014008B540F242
:1020200025512E48FFF7B8FE40B12C48FFF734FE8B
:10203000C0B200900121684600F052FC08BD10B506
:1020400086B0044601210820FEF774FD01218804B2
:10205000FEF77DFD4FF48060ADF8100003208DF891
:10206000120018208DF8130004A91D48FEF7A6FAE7
:102070004FF40060ADF8100004208DF8130004A99F
:102080001748FEF79BFA00940020ADF80400ADF865
:102090000600ADF80800ADF80C000C20ADF80A0001
:1020A00069460E48FFF7FBFC01210C48FFF783FD52
:1020B000012240F225510948FFF789FD27208DF8BC
:1020C000140000208DF8150001208DF816008DF801
:1020D000170005A8FEF71BF906B010BD0048004028
:1020E000000C01400EB501210846FEF723FD032137
:1020F0000120FEF779FB0820019000208DF80800F0
:102100000C208DF8090001208DF80A0001A8FEF7C7
:1021100075F909208DF8000000208DF801000120DC
:102120008DF802008DF803006846FEF7F0F80EBD4A
:1021300010B50820FEF7D9F910BD000008B501213F
:102140000820FEF7F7FC4FF48050ADF80000102097
:102150008DF8030003208DF8020069460448FEF75D
:102160002DFA4FF480510248FEF7D5FA08BD000061
:10217000000C014008B501210C20FEF7DBFC012119
:102180000846FEF7D7FC01211148FEF7E8FA0121C5
:102190001048FEF7E4FA4FF4C850ADF800000320F1
:1021A0008DF8020048208DF8030069460A48FEF7C2
:1021B00005FA4FF48470ADF8000003208DF802009A
:1021C00048208DF8030069460448FEF7F7F908BD7A
:1021D000000430000002300000080140000C014003
:1021E00008B501210420FEF7A5FC01210820FEF717
:1021F000A1FCE020ADF8000010208DF803000320C2
:102200008DF8020069461048FEF7D8F90120ADF8B4
:10221000000018208DF8030003208DF802006946A5
:102220000A48FEF7CBF920210748FEF774FA40214F
:102230000548FEF770FA80210348FEF76CFA012189
:102240000248FEF768FA08BD00080140000C014092
:102250007FB505460C460121C802FEF76BFCADF8C0
:102260000850ADF804400020ADF80A00ADF80600B3
:102270008DF80C0001A94848FEF794FD0122114693
:102280004548FFF706F919208DF8000000208DF869
:10229000010003208DF8020001208DF8030068463C
:1022A000FEF735F801213C48FFF7D8F87FBD30B57F
:1022B00087B005460C4601210220FEF748FC0121AB
:1022C0000846FEF737FCADF81450ADF8104000207A
:1022D000ADF81600ADF8120004A93048FEF762FD13
:1022E0006020ADF800000120ADF802000220ADF83A
:1022F000080069462948FEF721FE08212748FFF714
:10230000F3F901212548FFF7A9F807B030BD7FB5E3
:1023100005460C4601210420FEF719FCADF80850D3
:10232000ADF804400020ADF80A00ADF8060001A9A0
:102330001B48FEF737FD012211461948FFF7A9F89F
:102340001E208DF8000000208DF8010002208DF87D
:10235000020001208DF803006846FDF7D8FF012137
:102360000F48FFF77BF87FBD10B501210A48FFF742
:102370003EFB01210848FFF737FB10BD10B50121D6
:102380000748FFF734FB08B100F00AFA01210448BE
:10239000FFF73EFB10BD0000002C01400004004090
:1023A0000008004008B501210820FEF7C3FB4FF4E8
:1023B0000070ADF8000003208DF8020010208DF8A9
:1023C000030069460448FEF7F9F84FF4007102482B
:1023D000FEF7A3F908BD0000000C014008B501217B
:1023E0001020FEF7A7FB4FF40050ADF800000320CB
:1023F0008DF8020048208DF8030069460148FEF779
:10240000DDF808BD0010014008B501210820FEF7E5
:1024100091FB01210846FEF78DFB4FF40050ADF80B
:10242000000004208DF8030069466148FEF7C6F8F5
:1024300008BD08B54FF40050ADF8000003208DF83A
:10244000020010208DF8030069465948FEF7B6F8DF
:1024500008BD10B5FFF7EDFF4FF400515448FEF7EB
:102460005CF91420FFF712FD4FF400515048FEF7BD
:1024700052F91E20FFF7ECFC10BD10B50024FFF749
:10248000C3FF04E0601CC4B20120FFF7E1FC4FF47D
:1024900000514748FEF725F9012801D1642CF1DBF2
:1024A000642C01DB012010BD002404E0601CC4B2D8
:1024B0000120FFF7CDFC4FF400513D48FEF711F924
:1024C00008B9642CF2DB642C01DB0120EBE700206F
:1024D000E9E710B5002404E0601CC4B20120FFF756
:1024E000B7FC4FF400513248FEF7FBF8012801D148
:1024F000642CF1DB002404E0601CC4B20120FFF76F
:10250000A7FC4FF400512A48FEF7EBF808B9642CF9
:10251000F2DB2820FFF79CFC4FF400512448FEF723
:10252000E0F8012800D110BD0020FCE770B50024C0
:10253000002506E06006040EFFF7CBFF0443681C8D
:10254000C5B2082DF6DB204670BD7CB505460E46AB
:10255000FFF77FFFFFF791FFF8B9002405E0FFF7D1
:10256000E5FF0DF80400601CC4B2052CF7DB9DF8F4
:1025700000009DF8011008449DF8021008449DF8E1
:10258000031008449DF80410884208D19DF800000B
:1025900030709DF80200287001E001207CBD002011
:1025A000FCE710B5FFF755FFFFF767FF10BD000010
:1025B000000C014010B541F61F410920FFF7A7FEAE
:1025C0004FF41650FFF73BFD2F480021016041609A
:1025D00001F02CFA10BD10B52C48007801280AD162
:1025E0002B492C48FFF7B1FF2A480078264908609C
:1025F00027480078486010BD10B54FF4A060FDF783
:1026000081FEFFF70DFC4FF4E130FFF7A0FCFFF770
:10261000E7FDFFF7AFFDFFF791FDFFF7C3FEFFF703
:10262000DDFEFFF7BEFFFFF7C5FF1BA002F000FCB9
:1026300010BD10B54FF480711B48FEF752F8B0B9C9
:102640000A20FFF744FC4FF480711748FEF749F861
:1026500028B9022001F000FA14A002F0E9FB00BF43
:102660004FF480711048FEF73CF80028F8D010BDF8
:10267000FFF7C2FF06E0FFF7DCFFFFF7ACFF024801
:1026800001F09BFBF7E700002C0000203C0000203D
:1026900036000020350000200D0A20B3F5CABCBB6F
:1026A000AFB3C9B9A60D0A00000801400D0A2041C8
:1026B00069724C696E6B206D6F6465200D0A0000B5
:1026C000704700BFFEE700BFFEE700BFFEE700BFA8
:1026D000FEE7704770477047704700002DE9FF5FC5
:1026E00006460D4693460027A846A9462C46AA460C
:1026F00006B125B94FF0FF3004B0BDE8F09F0027C8
:1027000044E0701CC05D11283CD2DFE800F0090AEB
:102710000B3B3B0C0D0E123B3B3B3B16202F1C0092
:1027200031E030E02FE02EE02DE001204549087037
:1027300029E000204349087025E099F8001042A0E4
:1027400002F076FB1FE043A002F072FB1BE0A179D0
:1027500062792379A068CDE90032CDE90210E378EF
:10276000A278218840A002F063FB0CE049A002F0AF
:102770005FFB4DA002F05CFB9AF800104EA002F047
:1027800057FB00E000BF00BF781CC7B23078B842EA
:10279000B7DC0020B0E74D48002101604160704780
:1027A0004B480068401C4A49086070474848006828
:1027B0007047012080F3138800BF00BF45480068C0
:1027C00000F4E06044490843001D42490860BFF33B
:1027D000408F00BF00BFFEE700B5FFF7E1FF00BD7F
:1027E00008B5002000900121684600F079F808BD86
:1027F00070B505460E4600240DB9601E70BD00245C
:102800001BE0295D3548FFF743FA00BF80213348BC
:10281000FFF7ACFA0028F9D0022C0DD3285DFF2871
:102820000AD155212D48FFF733FA00BF80212B48EC
:10283000FFF79CFA0028F9D0641CB442E1D330467B
:10284000DCE700003C000020525353492025640A75
:10285000000000005452414E53504152454E545FC7
:1028600044415441200A0000574946495F4E5450A4
:10287000203A205B25642D25642D256420253032E7
:10288000643A253032643A253032645D5B25645DFC
:10289000200A00004D4F44554C4520494E464F20DC
:1028A0002E2E2E0A00000000574946204D4F445559
:1028B0004C45202E2E2E0A006D6F64756C65547980
:1028C0007065203A205B25645D200A002C00002002
:1028D000380000200CED00E00000FA050048004040
:1028E00070B504460D46002624B9F1A002F0A0FA06
:1028F000701E70BD2A462146F54802F0A1F8064632
:10290000AE4205D0F3A002F093FA4FF0FF30F0E7AB
:102910003046EEE710B504462CB9F5A002F088FA6F
:102920004FF0FF3010BD002020606060FF2020705D
:1029300060700020F6E770B504460D462CB9F7A08C
:1029400002F076FA4FF0FF3070BD1E21F94802F018
:10295000E3F82A462146F748801C02F0C4F8F548FF
:102960003938A0F85150012180F83A10FFF71EFFC6
:10297000F0493939C1F853000020E5E72DE9F0416D
:1029800004460D460026002704B135B9EAA002F03E
:102990004FFA4FF0FF30BDE8F081FFF707FF074621
:1029A0002868216888420AD0ED480068381A41F248
:1029B0007071884203D3EBA002F03AFA01266868EE
:1029C000616888420AD0E6480068381A41F270719E
:1029D000884203D3E8A002F02BFA0126012E03D18E
:1029E000FFF7E4FEDE4908603046D4E770B50446E0
:1029F0000D4604B12DB9E5A002F01AFA4FF0FF30F0
:102A000070BD22680021012001F0F3FD287062688A
:102A10000021012001F0EDFD68700020F0E72DE9B4
:102A2000F04780460C4617461D46089E94F80090D5
:102A30000CB105B136B9E1A002F0FAF94FF0FF3060
:102A4000BDE8F087B8F1000F49D11221B9481E3016
:102A500002F062F8B9F1010F06D0B9F1020F07D008
:102A6000B9F1050F39D118E000250020306035E0BC
:102A7000B049663101F10A00FFF7B8FF48B9AD4827
:102A80003938B0F89F00A5F80100032028703060A5
:102A900002E04FF0FF30D3E720E07A1E611CA5482A
:102AA000223802F020F8781EA2493939C1F82D00E9
:102AB0001021A048393890F85720583081545838A0
:102AC00090F85700401C9B49393981F85700032082
:102AD000087000250020306000E000BF00BF00202B
:102AE000AEE72DE9F04F8DB006468B461746994666
:102AF00000200C9082468046002501ACBBF1000FFF
:102B000006D1BAA002F094F9681E0DB0BDE8F08FAE
:102B1000B9F1010F06D196F8088008F10600384493
:102B200085B201E0781D85B22B4642463946B5A0F4
:102B300002F07EF9FF2004F8010B04F8010B2812C3
:102B400004F8010B04F8015B3079401C04F8010B18
:102B5000707904F8010B002004F8010B04F8019BC4
:102B60004FF0080AB9F1010F0DD104F8018B0AF1F9
:102B7000010A01A901EB0A00424606F1090101F030
:102B8000B2FFC244444437B101A901EB0A003A46FE
:102B9000594601F0A8FF291D01A801F045FB014697
:102BA000E81C01AA1154291D01A8FFF721FE0C9071
:102BB0000C98002806DA9DA00C9902F039F96FF004
:102BC0000100A2E70020A0E7FEB505460E46174625
:102BD000002426B99BA002F02BF9601EFEBD6846BA
:102BE000FFF798FE05208DF804005248393890F818
:102BF0003110D0F83100401C4E4A393AC2F8310049
:102C0000C8B28DF805008DF80850082001F01FFBB0
:102C1000ADF802003A4631460DF1090001F063FFBC
:102C20000C21684601F000FB8DF80B000C21684672
:102C3000FFF7DEFD0446002C06DA21468BA002F0E9
:102C4000F7F86FF00100C9E70C216846FFF773FE43
:102C50002046C3E770B50446FFF7A8FD0546354991
:102C600070312046FFF78AFE012814D186A002F0B9
:102C7000DFF8304966312046FFF7B8FE28B9022256
:102C80002C4966310420FFF79FFF2A4870302168E5
:102C90000160616841608248B5FBF0F100FB1150B2
:102CA00020B980480068A84200D0FDE011E1000092
:102CB0004552523A2067697A5075744461746120B4
:102CC00062756620697320656D707479200A000052
:102CD000530100204552523A204661696C656420D8
:102CE000746F2072625772697465200A00000000D8
:102CF0004552523A2067697A50726F746F636F6CF5
:102D000048656164496E697420686561642069730F
:102D100020656D707479200A000000004552523A17
:102D2000206461746120697320656D707479200A74
:102D3000000000008D00002067697A436865636BBE
:102D40005265706F7274204572726F72202C204928
:102D50006C6C6567616C20506172616D0A000000E7
:102D60004000002076616C756574656D7020436865
:102D7000616E6765640A000076616C756568756DE3
:102D8000204368616E6765640A00000067697A44E1
:102D9000617461506F696E7473325265706F7274D2
:102DA00044617461204572726F72202C20496C6CF2
:102DB0006567616C20506172616D0A0067697A50C5
:102DC000726F746F636F6C49737375656450726F63
:102DD00063657373204572726F72202C20496C6C8E
:102DE0006567616C20506172616D0A005B455252EB
:102DF0005D202064617461204973204E756C6C20E5
:102E00000A0000006C656E203D202564202C207394
:102E10004469644C656E203D202564202C646174F7
:102E2000615F6C656E203D2025640A0075617274D7
:102E3000207772697465206572726F722025642034
:102E40000A00000067697A5265706F727444617499
:102E500061204572726F72202C20496C6C6567612D
:102E60006C20506172616D0A000000004552523AB8
:102E70002075617274207772697465206572726F53
:102E800072202564200A00006368616E6765642C07
:102E9000207265706F727420646174610A000000B2
:102EA000C027090044000020F7A001F0C1FFFC4941
:102EB0002046FFF79BFD20B90222F9490420FFF7C5
:102EC00083FEF7480A302168016061684160F54877
:102ED000056070BD2DE9FE4F80460E4617464FF047
:102EE000000B002002908146824600253446009067
:102EF000B8F1000F01D006B137B9EBA001F098FF8F
:102F00004FF0FF30BDE8FE8F404601F01DFD00F0A0
:102F1000FF0ABAF1000F02D14FF0FF30F2E74FF095
:102F200000095DE0012201A9404601F038FD834619
:102F3000BBF1000F52D0E8480078FF281FD19DF860
:102F40000400FF281BD1E548007848B9FF20207015
:102F500060700220E24908800120E049087034E0F6
:102F6000DF480088042830DDDD480088A8422CD0E6
:102F7000FF20207060700220D949088025E0D648E3
:102F80000078FF2803D19DF8040055281DD0D348B0
:102F90000078012819D19DF80400D14909886054AE
:102FA000CF480088401CCE49088008460088042885
:102FB0000BDD0094009C608801F049F9001D85B28A
:102FC000C7480088A84200D10CE09DF80400C2491F
:102FD0000870C4480078401CC249087009F1010912
:102FE000D1459FDB00BFBE480088042823DDBC48D4
:102FF0000088A8421FD1BA480188204601F014F980
:103000000290B7480088401E215C029881420FD18F
:103010002A462146304601F066FD3D800020AF493A
:103020000870AF490880AF490870AB49087069E77C
:103030006FF0010066E7012064E710B500249848AE
:103040009F3890F83A0000B910BDA7A001F0F0FE3B
:1030500093489F38B0F851103B30FFF7C9FB044646
:103060008F489F38B0F85100A04202D0A6A001F0CE
:10307000DFFEFFF79BFB8A499F39C1F8530000BF71
:10308000E2E770B50446864D643D34B9AFF2743062
:1030900001F0CEFE4FF0FF3070BD2879401C217941
:1030A000884204D11E217E48663801F035FD00209B
:1030B000F2E73EB50446002524B999A001F0B8FE18
:1030C000681E3EBD20680090606801909DF8040075
:1030D000401CC0B28DF80400052001F0B8F8ADF82E
:1030E00002000921684601F09FF88DF808000921C7
:1030F0006846FFF77DFB0546002D04DA2946AFF24E
:10310000942001F095FE2846DBE710B564489F380F
:1031100090F83A0001282CD161489F3890F8390086
:10312000022821DAFFF742FB5D499F39D1F853109D
:10313000401AC8281DD9FFF739FB044658489F3864
:1031400090F83930D0F85320214680A001F070FE6D
:10315000FFF773FF52489F3890F83900401C5049E0
:103160009F3981F8390004E01E214D48663801F08E
:10317000D3FC10BD30B59DB0044600252CB97DA010
:1031800001F056FE681E1DB030BD6846FFF7C2FB59
:1031900002208DF8040060798DF8050081A103C933
:1031A000CDE9020182A103C9CDE9040183A103C9CC
:1031B000CDE9080184A103C9CDE90601202285A13A
:1031C0000AA801F090FC20228BA10DF1520001F021
:1031D0008AFC0020CDF84A00CDF84E009DF8510041
:1031E0008DF851009DF8510040F002018DF851100A
:1031F000002001F02CF8ADF848006F2001F027F80E
:10320000ADF802007321684601F00EF88DF87200E7
:1032100073216846FFF7ECFA0546002D04DA2946CB
:10322000AFF2B83001F004FE2846ACE7FEB5044624
:103230000E46002524B979A001F0FAFD681EFEBDF6
:103240006846FFF767FB12208DF8040060798DF85F
:103250000500062000F0FBFFADF802008DF80860C5
:103260000A21684600F0E0FF8DF809000A2168464F
:10327000FFF7BEFA0546002D04DA2946AFF21440E6
:1032800001F0D6FD2846DAE7496E666F3A203630FF
:103290003053207265706F727420646174610A002B
:1032A000F30000204400002067697A50726F746F49
:1032B000636F6C4765744F6E655061636B65742016
:1032C0004572726F72202C20496C6C6567616C20AE
:1032D000506172616D0A00004C000020480000201F
:1032E0004A0000204D0000205761726E696E673AF7
:1032F0002074696D656F75742C20726573656E64DA
:103300002064617461200A004552523A207265734C
:10331000656E642064617461206572726F720A0068
:103320004552523A2067697A50726F746F636F6CBE
:10333000436F6D6D6F6E41636B20646174612069D2
:103340007320656D707479200A0000005761726EF9
:10335000696E673A67697A50726F746F636F6C5207
:103360006573656E64446174612025642025642062
:1033700025640A0067697A50726F746F636F6C47D7
:103380006574446576696365496E666F204572723F
:103390006F72202C20496C6C6567616C20506172E3
:1033A000616D0A00303030303030303400000000C1
:1033B00030303030303030320000000030333033C5
:1033C00030303030000000003033303130313030B8
:1033D0000000000031316431383631383831306521
:1033E000346634346133626162376565363931631E
:1033F0006234386200000000643661373566376237
:103400003836303734396366386661363763396148
:1034100065336338336439360000000067697A50D9
:10342000726F746F636F6C4572726F72436D64205C
:103430004572726F72202C20496C6C6567616C203C
:10344000506172616D0A000070B5044625462CB9C2
:10345000FCA001F0EDFC4FF0FF3070BDFE48A96804
:103460000160E9684160298A0181A97C8172A0F12B
:10347000B201B1F8B20000F0EAFEF749B239A1F8A2
:10348000B200D1F8BA0000F0EFFEF349B239C1F84A
:10349000BA000E21F048B23890F87B207C3081547D
:1034A0007C3890F87B00401CEB49B23981F87B00F6
:1034B000042008700020D0E710B5FFF777F9044624
:1034C00000BFFFF773F9001BB0F5167FF9D9FFF7BE
:1034D00070F910BD10B504462CB9E0A001F0A8FCAD
:1034E0004FF0FF3010BD208900F0B1FE2081E74889
:1034F0000078C0F38000217AC1F3800188425ED059
:10350000207AC0F3800000282DD0207A00F001003E
:1035100088B10021D048B23890F869206A308154CF
:103520006A3890F86900401CCB49B23981F86900CB
:10353000D7A001F07DFC207AC0F3400000283ED0E7
:103540000121C548B23890F869206A3081546A3840
:1035500090F86900401CC049B23981F86900D4A0D4
:1035600001F066FC2BE0207A00F0010088B1002118
:10357000B948B23890F869206A3081546A3890F8B6
:103580006900401CB449B23981F86900C0A001F05B
:103590004FFC207AC0F3400088B10221AE48B23817
:1035A00090F869206A3081546A3890F86900401CAC
:1035B000A949B23981F86900C4A001F039FCB348C7
:1035C0000078C0F3C000217AC1F3C001884230D036
:1035D000207AC108AD48007861F3C300AB49087098
:1035E000207AC0F3C00090B103219B48B23890F814
:1035F00069206A3081546A3890F86900401C964905
:10360000B23981F86900B8A001F012FC11E0042180
:103610009148B23890F869206A3081546A3890F83D
:103620006900401C8C49B23981F86900B6A001F0EC
:10363000FFFB96480078C0F30010217AC1F3001117
:10364000884230D0207A01099048007861F3041054
:103650008E490870207AC0F3001090B105217E4891
:10366000B23890F869206A3081546A3890F869005D
:10367000401C7949B23981F86900ABA001F0D8FB50
:1036800011E006217448B23890F869206A308154FC
:103690006A3890F86900401C6F49B23981F86900B6
:1036A000A9A001F0C5FB79480078C0F34010217A49
:1036B000C1F34011884230D0207A41097348007824
:1036C00061F3451071490870207AC0F3401090B141
:1036D00007216148B23890F869206A3081546A380D
:1036E00090F86900401C5C49B23981F869009FA0DC
:1036F00001F09EFB11E008215748B23890F869208C
:103700006A3081546A3890F86900401C5249B239D5
:1037100081F869009CA001F08BFB5C484078C0F305
:10372000C001607AC0F3C000814230D0607AC10825
:103730005648407861F3C30054494870607AC0F33A
:10374000C00090B10B214448B23890F869206A302B
:1037500081546A3890F86900401C3F49B23981F8B9
:10376000690091A001F064FB11E00C213A48B238E5
:1037700090F869206A3081546A3890F86900401CDA
:103780003549B23981F869008EA001F051FB3F48FC
:103790004078C0F30011607AC0F30010814230D04D
:1037A000607A01093948407861F30410374948705C
:1037B000607AC0F3001090B109212748B23890F820
:1037C00069206A3081546A3890F86900401C2249A7
:1037D000B23981F8690083A001F02AFB11E00A21C7
:1037E0001D48B23890F869206A3081546A3890F8E0
:1037F0006900401C1849B23981F8690080A001F0C5
:1038000017FB0D211448B23890F869206A308154B2
:103810006A3890F86900401C0F49B23981F8690094
:10382000607A00F0070081F8B100084690F8B11006
:103830007AA001F0FDFA02200749B2390870002091
:1038400050E600004552523A204E545020697320F1
:10385000656D707479200A000601002067697A504E
:10386000726F746F636F6C4D6F64756C65537461C8
:10387000747573204572726F72202C20496C6C65D0
:1038800067616C20506172616D0A00004E0000207B
:103890004F6E426F617264696E673A20536F66744F
:1038A0004150206F7220576562206D6F64650A0079
:1038B0004F6E426F617264696E673A204169724C63
:1038C000696E6B206D6F64650A0000004F6E426F79
:1038D000617264696E673A2053746174696F6E2017
:1038E0006D6F64650A000000576946692073746152
:1038F0007475733A20696E2062696E64696E672020
:103900006D6F64650A000000576946692073746131
:103910007475733A206F75742062696E64696E679E
:10392000206D6F64650A00005769466920737461F1
:103930007475733A20636F6E6E656374656420728C
:103940006F757465720A0000576946692073746167
:103950007475733A20646973636F6E6E6563746522
:103960006420726F757465720A00000057694669B9
:10397000207374617475733A20636F6E6E6563743F
:103980006564206D326D0A00576946692073746161
:103990007475733A20646973636F6E6E65637465E2
:1039A00064206D326D0A00005769466920737461A6
:1039B0007475733A2061707020636F6E6E65637406
:1039C0000A00000057694669207374617475733A80
:1039D000206E6F2061707020636F6E6E6563740A75
:1039E0000000000057694669207374617475733A6A
:1039F00020696E2074657374206D6F64650A000021
:103A000057694669207374617475733A206F7574D1
:103A10002074657374206D6F64650A0052535349B6
:103A2000206973202564200A0000000010B52C20B6
:103A3000E8490860E848C860084600F067FF18B920
:103A4000E6A001F0F5F902E0E9A001F0F1F9FF21AB
:103A5000EC4801F061F810BD30B587B00546002490
:103A6000062D7DD2DFE805F003316193C1F001A896
:103A7000FEF750FF0B208DF80800E24890F8311057
:103A8000D0F83100401CDF4AC2F83100C8B28DF8CE
:103A90000900052000F0DBFBADF80600092101A8B4
:103AA00000F0C2FB8DF80C00092101A8FEF7A0FE72
:103AB0000446002C04DA2146AFF6504001F0B8F974
:103AC000092101A8FEF737FFF0E004A8FEF722FF66
:103AD00009208DF81400CB4890F83110D0F831004F
:103AE000401CC84AC2F83100C8B28DF815008DF8E4
:103AF0001850062000F0ABFBADF812000A2104A814
:103B000000F092FB8DF819000A2104A8FEF770FE60
:103B10000446002C04DA2146AFF6B04001F088F9E3
:103B20000A2104A8FEF707FFC0E004A8FEF7F2FE92
:103B300009208DF81400B34890F83110D0F8310006
:103B4000401CB04AC2F83100C8B28DF815008DF89B
:103B50001850062000F07BFBADF812000A2100E0AF
:103B6000A0E004A800F060FB8DF819000A2104A869
:103B7000FEF73EFE0446002C04DA2146AFF6145050
:103B800001F056F90A2104A8FEF7D5FE8EE001A83F
:103B9000FEF7C0FE13208DF808009A4890F8311007
:103BA000D0F83100401C974AC2F83100C8B28DF8F5
:103BB0000900052000F04BFBADF80600092101A823
:103BC00000F032FB8DF80C00092101A8FEF710FE71
:103BD0000446002C04DA2146AFF6705001F028F9B3
:103BE000092101A8FEF7A7FE60E001A8FEF792FEFA
:103BF00015208DF80800834890F83110D0F8310076
:103C0000401C804AC2F83100C8B28DF80900052076
:103C100000F01DFBADF80600092101A800F004FB2F
:103C20008DF80C00092101A8FEF7E2FD0446002CE6
:103C300004DA2146AFF6CC5001F0FAF8092101A8C8
:103C4000FEF779FE32E0FFE701A8FEF763FE2920C8
:103C50008DF808006B4890F83110D0F83100401C06
:103C6000684AC2F83100C8B28DF80900052000F09A
:103C7000EEFAADF80600092101A800F0D5FA8DF89A
:103C80000C00092101A8FEF7B3FD0446002C04DA5C
:103C90002146AFF6286001F0CBF8092101A8FEF714
:103CA0004AFE03E058A001F0C3F800BF00BF204661
:103CB00007B030BD3EB500246846FEF72BFE172046
:103CC0008DF804004F4890F83110D0F83100401CB6
:103CD0004C4AC2F83100C8B28DF80500052000F04A
:103CE000B6FAADF802000921684600F09DFA8DF899
:103CF000080009216846FEF77BFD0446002C03DA24
:103D0000214647A001F094F809216846FEF713FE0A
:103D10003EBD3EB500246846FEF7FCFD21208DF82F
:103D20000400384890F83110D0F83100401C354A72
:103D3000C2F83100C8B28DF8050000208DF80800E7
:103D4000062000F084FAADF802000A21684600F06F
:103D50006BFA8DF809000A216846FEF749FD044612
:103D6000002C03DA21462EA001F062F80A216846F1
:103D7000FEF7E1FD3EBD70B5044625462CB930A0E6
:103D800001F056F84FF0FF3070BD412205F10801F7
:103D90001C48BE3000F0A7FE0F211A4890F88D2075
:103DA0008E3081548E3890F88D00401C154981F872
:103DB0008D00052008700020E6E72DE9F0418EB067
:103DC000054600260020029001900024804600272E
:103DD000F5BB3EE053010020630100207262437294
:103DE000656174652053756363657373200A000011
:103DF0007262437265617465204661696C64200A71
:103E000000000000540000204552523A20436667EB
:103E10004D6F6465206572726F72210A00000000A8
:103E20004552525B4E54505D3A2075617274207752
:103E300072697465206572726F72202564200A00B1
:103E40004E545020697320656D707479200A00000B
:103E500006E0ACA000F0ECFF601E0EB0BDE8F08103
:103E6000FFF753F902AAB149B148FFF733F8064604
:103E7000002E71D1AFA000F0DBFFAC4C20790F28F1
:103E80004FD00ADC0E2873D2DFE800F07216721AE7
:103E90007272433872724472453C182852D006DC64
:103EA000112847D0142846D0162861D134E02228A2
:103EB00054D02A285CD130E02046FFF75BF95FE060
:103EC000E279A179A0A000F0B3FF01A8009007F16A
:103ED0000900BDF808301A1A94480830C11903AB1C
:103EE0004046FEF79CFD40B9E37903A92046019ABC
:103EF000FEF7F7FD98A000F09BFF41E02046FFF79A
:103F0000D8F83DE02046FFF7D4F82046FFF7E2FA64
:103F100036E000BF00BF00BF00BF2046FFF7B1F88A
:103F20002EE02046FFF7C5F88EA000F081FFFFF7D6
:103F3000C3FA25E024E02046FFF7A3F88EA000F0A6
:103F400077FF1DE02046FFF79CF82046FFF77CFA3C
:103F500091A000F06DFF13E013E009E02046FFF7A9
:103F600090F82046FFF707FF91A000F061FF07E0FF
:103F700002212046FFF75AF994A000F059FF00BF34
:103F80000DE016F1020F0AD1684C01212046FFF71F
:103F90004DF994A000F04CFF6FF001005DE763481D
:103FA000401E0078062850D2DFE800F04F031323AC
:103FB0002F3F00205D49491E08700822A131A1F160
:103FC0004A00FEF78BFB12215848563000F0A4FD42
:103FD0003CE000205549491E08700122B131A1F191
:103FE0004800FEF77BFB12215048683000F094FD3A
:103FF0002CE000204D49491E08700846D0F82D20BD
:1040000017315730FEF76AFB20E000204749491E70
:1040100008700C22B231A1F13700FEF75FFB1221CC
:1040200042487A3000F078FD10E000203F49491EF8
:1040300008704122BE31A1F13100FEF74FFB412152
:104040003A488C3000F068FD00E000BF00BF284611
:10405000FEF700FE002000E72DE9F04186B006469D
:104060000F464FF000086C46B81D85B23EB963A0FC
:1040700000F0DEFE4FF0FF3006B0BDE8F081FF201B
:1040800004F8010B04F8010B281204F8010B04F8E2
:10409000015B052004F8010B2448401E90F8311004
:1040A000D0F83100401C214A521EC2F8310004F8F9
:1040B000011B002004F8010B04F8010B062004F892
:1040C000010B3A4631460DF1090000F00CFD291DA7
:1040D000684600F0A9F80146E81C0DF80010291DFB
:1040E0006846FEF785FB8046B8F1000F03DA4146CB
:1040F0004C4800F09DFE291D6846FEF71CFC002080
:10410000BAE7000047697A7769747348616E646C36
:1041100065204572726F72202C20496C6C65676156
:104120006C20506172616D0A000000005500002093
:1041300053010020476574204F6E65205061636B0A
:104140006574210A00000000666C616720257820F4
:104150002578200A0000000041636B4461746120EF
:104160003A200A007265706F72743A4D435520729E
:1041700065626F6F74210A0041636B2050524F4497
:10418000554354494F4E5F4D4F444520737563630B
:10419000657373200A00000041636B204745545F3C
:1041A0005554542073756363657373200A000000CF
:1041B00041636B204745545F4D6F64756C65207398
:1041C000756363657373200A000000004552523A1C
:1041D00020636D6420636F6465206572726F722165
:1041E0000A0000004552523A20636865636B2073F1
:1041F000756D206572726F72210A00005B45525224
:104200005D2067697A77697473506173737468723B
:104210006F75676844617461204572726F72200A1D
:10422000000000006C2E000810B502460024002398
:1042300002B109B9002010BD022303E0D05C204484
:10424000C4B25B1C481E9842F8D82046F3E701B57B
:1042500081B000200090694601AA5078087010785B
:104260004870BDF800000CBD0146080601F47F420D
:1042700040EA022001F47F0240EA122040EA116085
:10428000704710B502460024302A05DB392A03DCCA
:10429000A2F13000C3B20EE0412A05DB462A03DC5E
:1042A000A2F13700C3B206E0612A04DB662A02DC11
:1042B000A2F15700C3B2302905DB392903DCA1F193
:1042C0003000C4B20EE0412905DB462903DCA1F130
:1042D0003700C4B206E0612904DB662902DCA1F1E3
:1042E0005700C4B204EB0310C0B210BD70B5044651
:1042F00000250026204600F01AFC06460CB9681E70
:1043000070BD002505E0605D302801D00020F7E792
:104310006D1CB542F7D30120F2E72DE9F0430346C7
:1043200000BF0025002400260027012901D0022912
:104330000DD1A3F1010C4FF06408BCFBF8F4BCFBF9
:10434000F8F908FB19C501F10C06174609E04FF012
:10435000640CB3FBFCF4B3FBFCF80CFB18350E4605
:10436000174606F1010C4FF01A080CFB08FC4FF041
:104370000A08BCFBF8FC05EB950808EB94084FF025
:10438000020909FB1488C444BC44ACF101000028B4
:1043900006DB4FF0070C90FBFCF80CFB180C07E059
:1043A0004FF0070C90FBFCF80CFB180C0CF1070C01
:1043B0006046BDE8F08301460A46C81701EB9070DD
:1043C0008010A1EB800070B9642091FBF0F300FB3A
:1043D000131030B94FF4C87091FBF0F300FB1310C9
:1043E00008B9012070470020FCE710B504462046BC
:1043F000FFF7E1FF10B14FF4B77010BD40F26D1040
:10440000FBE72DE9F04190B080460E4640F2B275D0
:104410003022694901A800F066FB344604F5E14406
:1044200000BF11E02846FFF7E0FF074640F2A32057
:104430007843B4EBC01F06D340F2A3207843A4EB2B
:10444000C0146D1C00E001E0002CEBD100BFA8B24D
:10445000ADF83400002518E0BDF83400FFF7ABFFDD
:1044600008B11D20029001A850F8250040F2A321B8
:104470004843B4EBC01F07D301A850F825004843B8
:10448000A4EBC0146D1C00E001E0002CE4D100BFDF
:104490001C200290681CC0B28DF83600012506E091
:1044A0004648844202D3241A6D1C00E001E0002C2F
:1044B000F6D100BFE8B28DF837004FF46160B4FB6D
:1044C000F0F0C0B28DF838004FF46160B4FBF0F149
:1044D00000FB11403C21B0FBF1F0C0B28DF8390077
:1044E0003C20B4FBF0F100FB11408DF83A00CDF810
:1044F0003B600D98C8F800000E98C8F80400BDF89D
:104500003C00A8F808009DF83E0088F80A0010B0AA
:10451000BDE8F0812DE9F05F80460E46914600240B
:104520001CE016F814A06000401C16F800B05046BD
:1045300000F0D3FA3038C5B2092D01DDE81FC5B24D
:10454000584600F0CAFA3038C7B2092F01DDF81F0B
:10455000C7B207EB051008F80400641C4C45E0DB0B
:10456000BDE8F09FF0B5034600201EE00E5CF71793
:1045700006EB17773F1107F130050E5CF71706EBD6
:1045800017773F11A6EB07173037FCB2392D01DD45
:10459000EE1DF5B2392C01DDE61DF4B203F8105022
:1045A000012606EB40069C55401C9042DEDB0026AF
:1045B00003F81260F0BD0000CC52000880510100E9
:1045C00030B502460B460021002400250AB9481EDA
:1045D00030BD002108E0545C581A401E155C55544B
:1045E000581A401E1454491CB1EB530FF3D300204A
:1045F000EEE710B503460020541AB4FBF3F010BDEB
:1046000010B50346002002FB031010BD2DE9F04752
:1046100004460E46154600273146284600F0E0FACB
:104620008146214600F014FB804600F054FB07460B
:104630003846BDE8F0872DE9F04704460E4615469A
:104640000027284600F042FB8146214600F0CEFAC2
:104650008046314600F072FA07463846BDE8F087DA
:10466000024612B102F0070028B9082901D800203B
:1046700070470120FCE702F00700C0F10800884203
:1046800001D30020F4E70120F2E72DE9F0470546C9
:10469000884614461E464FF00009CA4600270023EC
:1046A00014B9581EBDE8F087EB0841462846FFF7CD
:1046B000D7FF07463FB9E05C05F0070106FA01F1B4
:1046C0000843E0541DE0012F1BD1F0B205F00701B3
:1046D000C1F1080140FA01F905F00700C0F1080135
:1046E000FF20084100EA060A581C205C40EA090045
:1046F000591C6054E05C05F007010AFA01F1084317
:10470000E0540020CEE72DE9F04F8FB004460F466D
:1047100090461D460026B246B146B34600200E9094
:10472000B8F1000F00D025B94FF0FF300FB0BDE851
:10473000F08F4FEAD4092A46414601A800F0D3F988
:10474000012D09D9294601A8FFF73AFFB0F1FF3F33
:1047500002D14FF0FF30E9E739462046FFF780FFEE
:104760008246BAF1000F0CD101A810F8090004F03C
:1047700007010841C7F10802FF2111410840064323
:1047800021E0BAF1010F1ED101A909F10100085C75
:1047900004F00701C1F10801791AC1F10802FF21F3
:1047A000114100EA010B01A810F8090004F007010B
:1047B00008410E9004F00700C0F108010BFA01F067
:1047C00006430E9806433046B0E72DE9F04F8FB010
:1047D00005460C4616469946189F4FF0000AD346E8
:1047E00000200E908046B9F1000F00D027B94FF09D
:1047F000FF300FB0BDE8F08F3A46494601A800F0FF
:1048000072F9012F09D9394601A8FFF7D9FEB0F195
:10481000FF3F02D14FF0FF30EBE731462046FFF774
:104820001FFF8246BAF1000F0CD101A8405D04F0D1
:1048300007010841C6F10802FF211141084040EA82
:10484000080821E0BAF1010F1ED101A9681C085C1B
:1048500004F00701C1F10801711AC1F10802FF213A
:10486000114100EA010B01A8405D04F00701084175
:104870000E9004F00700C0F108010BFA01F040EAC5
:1048800008080E9848EA00084046B2E72DE9F047CC
:1048900004460D461746089E4FF00009CA46C84612
:1048A0001BB94FF0FF30BDE8F08739462846FFF7C7
:1048B000D7FE8046B8F1000F07D1185D05F007015B
:1048C00006FA01F1084318551EE0B8F1010F1BD19B
:1048D000F0B205F00701C1F1080140FA01F905F055
:1048E0000700C0F10801FF20084100EA060A601C29
:1048F000185C40EA0900611C5854185D05F0070176
:104900000AFA01F1084318550020CCE7014611B915
:104910004FF0FF307047C8684860C8688860002062
:10492000F8E7014611B94FF0FF3070470020C8602A
:1049300048608860086000BFF7E7014611B94FF092
:10494000FF3070470868FCE700B5024612B94FF027
:10495000FF3000BD50689168884201D10020F8E71F
:1049600050689168884203D290685168401AF0E715
:104970001046FFF7E2FF51689368C91A401AE8E74A
:1049800030B5044614B94FF0FF3030BD2046FFF774
:10499000D4FF05462046FFF7D7FF281AF5E72DE993
:1049A000F04104460F461646002514B9681EBDE8BE
:1049B000F08117B94FF0FF30F9E76068A1688842CD
:1049C00014D22046FFF7C0FFB04201D9304602E0C2
:1049D0002046FFF7B9FF054661682A46384600F0D1
:1049E00082F86068284460602846E0E72046FFF7C8
:1049F000A4FF6168E268891A401AB0420AD93546B4
:104A000061682A46384600F06EF8606828446060A5
:104A10002846CCE72046FFF790FF6168E268891AD4
:104A2000451A61682A46384600F05DF8E068606023
:104A3000721B79192046FFF7B2FF05442846B6E7F6
:104A40002DE9F04104460F461546002604B11FB972
:104A50004FF0FF30BDE8F0812046FFF791FFA842FC
:104A600002D86FF00100F5E76068A16888422AD893
:104A70002046FFF762FFA168E268891A461AB5422C
:104A800013D8A0682A46394600F02DF8A0682844BB
:104A9000A0602046FFF751FFE1680844A168884202
:104AA00001D1E068A0602846D4E7A06832463946C4
:104AB00000F019F8E068A060AA1BB9192046FFF7BA
:104AC000BFFF3044C6E7A0682A46394600F00BF81D
:104AD000A0682844A0602846BCE7A0F1610119291C
:104AE00000D82038704740EA01039B0703D009E053
:104AF00008C9121F08C0042AFAD203E011F8013BCA
:104B000000F8013B521EF9D27047D2B201E000F822
:104B1000012B491EFBD270470022F6E710B5134661
:104B20000A4604461946FFF7F0FF204610BD421C16
:104B300010F8011B0029FBD1801A7047F0B480EAFD
:104B40000102D40F4200B2EB410F02D202460846E6
:104B500011464A0042D0C30DDDB2C1F3C752AD1AAF
:104B6000202D35DAC1F3160141F4000204B152429E
:104B7000C5F1200602FA06F12A411044B3EBD05FDA
:104B800023D0C4B1012DA0EBC35009DCF0BC4FF021
:104B9000004202EAC352DBB200F5000000F008B99F
:104BA000400000F1807000EBC350A0F1807040EA3B
:104BB000D170490009E0490841EAC071A0EBC35037
:104BC00000F50000400800EBC350F0BC00F0E7B86F
:104BD0006142012202EB4101001BF6E7F0BC704785
:104BE00081F00041AAE780F00040A7E780EA0102D7
:104BF00010B502F00043400022D04A001FD0010E41
:104C000001EB1261C0F35600C2F3560240F40000FB
:104C100042F40002A0FB022000047F39140400D0FB
:104C2000401C50EA124001D44000491EC2B20C069A
:104C300004EBD010401C4008802A02D003E0002082
:104C400010BD20F00100002900DA0020184310BD3B
:104C500030B480EA010202F0004530F0004221F059
:104C6000004013D090B1C30DD40DC2F31601C0F3B0
:104C70001600E41A41F4000140F400027D34914230
:104C800001D3641C00E04900002C02DA30BC002093
:104C900070474FF400000023914201D3891A034367
:104CA00040084FEA4101F7D151B1914202D14FF092
:104CB000004105E002D24FF0010101E06FF0010177
:104CC00003EBC450284430BC00F069B8962300229E
:104CD000114600F06DB820F00040C10DC0F3160081
:104CE00040F400007F2901DA00207047962903DC98
:104CF000C1F19601C84070479639884070472DE948
:104D0000F05F0546002092469B468846064681464F
:104D100040241BE0284641464746224600F02FF833
:104D200053465A46C01A914110D31146184622469E
:104D300000F016F82D1A67EB01084F4622460120B5
:104D4000002100F00DF817EB00094E41201EA4F1E0
:104D50000104DFDC484631462A464346BDE8F09F61
:104D6000202A04DB203A00FA02F10020704791402B
:104D7000C2F1200320FA03F3194390407047202A20
:104D800004DB203A21FA02F00021704721FA02F3F5
:104D9000D040C2F1200291400843194670470029D3
:104DA000A8BF7047401C490008BF20F001007047B1
:104DB00010B4B0FA80FC00FA0CF050EA010404BF11
:104DC00010BC704749B1CCF1200421FA04F411FA67
:104DD0000CF118BF012121430843A3EB0C01CB1DAB
:104DE0004FEA00614FEA102042BF002010BC70471C
:104DF00000EBC35010440029A4BF10BC7047401CF6
:104E0000490008BF20F0010010BC7047064C074D58
:104E100006E0E06840F0010394E80700984710348A
:104E2000AC42F6D3FBF766F9FC5200081C530008AD
:104E30000FB4054B10B503A9044A029800F018F806
:104E400010BC5DF814FB0000151F00085000002086
:104E500002E008C8121F08C1002AFAD17047704743
:104E6000002001E001C1121F002AFBD170470000A1
:104E70002DE9FF4F8DB00F460546002606E0252898
:104E80000BD0DDE90F1290476D1C761C28780028A6
:104E9000F5D111B03046BDE8F08F0024A246A146FE
:104EA0000122EA4900E0044315F8013F203B02FAE1
:104EB00003F00842F7D128782A2810D06FF02F028B
:104EC0002878A0F13001092914D80AEB8A0102EBF5
:104ED000410144F0020400EB010A6D1CF0E701CF30
:104EE0005FEA000A03D544F40054CAF1000A44F012
:104EF00002046D1C28782E2817D115F8010F44F0F4
:104F000004042A280ED06FF02F022878A0F1300177
:104F100009290AD809EB890102EB410100EB0109DB
:104F20006D1CF2E757F8049B6D1C28786C280FD095
:104F300006DC4C2817D068280DD06A2814D104E06C
:104F4000742810D07A280FD10DE044F400140AE040
:104F500044F4801401E044F440146978814202D1A1
:104F600004F580146D1C6D1C2A786E2A1FD00CDC91
:104F7000632A31D004DC002A8BD0582A11D19FE05B
:104F8000642A68D0692A0CD165E0732A2ED004DC2B
:104F90006F2A73D0702A04D197E0752A6FD0782ACF
:104FA0006ED01046DDE90F129047761C4CE1C4F339
:104FB0000250022806D0032809D0042801CF09D0C6
:104FC000066041E101CFF117C0E900613CE101CF8A
:104FD000068039E1067037E117F8040B8DF8000000
:104FE00000208DF80100EB46012003E057F804BBD8
:104FF0004FF0FF3061074FF0000102D40DE008F1DF
:105000000101884649450FDA8045F8DB1BF8081096
:105010000029F4D108E008F1010188468142FADB59
:105020001BF808100029F6D1DDE90F23AAEB0800D0
:105030008146214600F032F9304400EB080604E0D6
:10504000DDE90F121BF8010B9047B8F10108F7D208
:1050500021464846F3E00A21C4F302534FF0000B07
:105060000891022B04D001CFC117032B09D00AE00D
:10507000FF1D27F00707F7E8020108E02EE01DE01A
:105080001EE000B2C117042B01D140B2C1170029A4
:1050900007DA4FF0000CD0EB0C006CEB01012D2374
:1050A00002E0230504D52B238DF82430012303E0EF
:1050B000E30701D02023F7E7984656E00A210EE0E7
:1050C00010204FF0000B08900CE010214FF0000B67
:1050D00044F004044FF00809089103E008214FF060
:1050E000000B0891C4F30253022B04D001CF00211E
:1050F000032B06D006E0FF1D27F00707F7E80201A3
:1051000003E080B2042B00D1C0B24FF000082307A7
:105110002BD5702A07D0DDF820C08CF0100C5CEA8B
:105120000B0C05D00EE040238DF82430012308E05D
:1051300050EA010306D030238DF824308DF8252065
:1051400002239846DDF820C08CF0080C5CEA0B0CBA
:105150000BD150EA010301D1630706D530238DF846
:1051600024304FF00108A9F10109582A04D038A2CF
:105170000B9208AA0A920BE03AA2F9E75B46089A5A
:10518000FFF7BDFD0B9B9B5C0A9A521E0A9213709F
:1051900050EA0102F2D10A98ADEB000000F1200BB9
:1051A000600702D524F4803401E04FF00109D945AD
:1051B00002DDA9EB0B0000E0002000EB0B014144F5
:1051C0000890AAEB010AE00306D4DDE90F2321468B
:1051D000504600F063F806444FF0000908E009A9C2
:1051E00011F80900DDE90F12904709F10109761C59
:1051F000C145F4DBE0030CD5DDE90F232146504621
:1052000000F04CF8064404E0DDE90F12302090472E
:10521000761C0899481E08900029F5DC08E00A98D9
:105220000A990078491C0A91DDE90F129047761C13
:10523000BBF10001ABF1010BF1DC21465046DDE989
:105240000F2300F019F806446D1C1FE60928010021
:1052500030313233343536373839616263646566EC
:1052600000000000303132333435363738394142AE
:1052700043444546000000002DE9F0410446002566
:105280001E461746880404D405E039462020B0475E
:105290006D1C641EF9D52846BDE8F0812DE9F0416A
:1052A000044600251E469046C80301D5302700E07D
:1052B0002027880404D505E041463846B0476D1CD8
:1052C000641EF9D52846BDE8F08100001F000000EB
:1052D0001C0000001F0000001E0000001F00000056
:1052E0001E0000001F0000001F0000001E00000044
:1052F0001F0000001E0000001F0000001C530008DB
:105300000000002054000000504E000870530008B8
:10531000540000203C050000604E000800A24A0432
:105320000000000000000000010203040607080955
:10533000000000000102030401020304060708093B
:105340000204060800000000000000000000000049
:10535000000000000000000000000000000000004D
:10536000000000000000000000000000000000003D
:04000005080000ED02
:00000001FF
