:020000040800F2
:10000000F00C0020C101000811260008EF1D0008B7
:100010000D2600081D0A0008452B000800000000FE
:100020000000000000000000000000004F26000853
:10003000210A0008000000004D2600085126000893
:10004000DB010008DB010008DB010008DB01000820
:10005000DB010008DB010008DB010008DB01000810
:10006000DB010008DB010008DB010008DB01000800
:10007000DB010008DB010008DB010008DB010008F0
:10008000DB010008DB010008DB010008DB010008E0
:10009000DB010008DB010008DB010008DB010008D0
:1000A000DB010008DB010008DB010008DB010008C0
:1000B000DB010008DB010008DB010008DB010008B0
:1000C000DB010008DB010008DB010008DB010008A0
:1000D000DB010008F52A0008DB010008DB0100084D
:1000E000DB010008DB010008DB010008DB01000880
:1000F000DB010008DB010008DB010008DB01000870
:10010000DB010008DB010008DB010008DB0100085F
:10011000DB010008DB010008DB010008DB0100084F
:10012000DB010008DB010008DB010008DB0100083F
:10013000DB010008DB010008DB010008DB0100082F
:10014000DB010008DB010008DB010008DB0100081F
:10015000DB010008DB010008DB010008DB0100080F
:10016000DB010008DB010008DB010008DB010008FF
:10017000DB010008DB010008DB01000800000000D3
:10018000DB010008DB010008DB010008DB010008DF
:10019000DB010008DB010008DB010008DB010008CF
:1001A000DB010008DB010008DB010008DFF80CD0F0
:1001B00000F0FCFA0048004789340008F00C0020E9
:1001C0000648804706480047FEE7FEE7FEE7FEE7F1
:1001D000FEE7FEE7FEE7FEE7FEE7FEE71127000881
:1001E000AD0100082DE9FE4F804681EA0300C00FF3
:1001F0000C46009021F0004123F00045B8EB0200CE
:10020000A94105D24046214690461C460B4602466F
:1002100023F00040104347D0270DC7F30A00C3F373
:100220000A510290401A019040286BDAC3F3130080
:1002300040F4801B0098924620B10023D2EB030AC1
:1002400063EB0B0B01985946C0F14002504600F099
:1002500058F906460D4650465946019A00F060F995
:1002600010EB08006141002487EA115284EAE77329
:100270001A4340D0009A62B3019A012A4FEA07520A
:1002800015DC001B61EB02014FF0004202EA07524D
:10029000CDE90042001C41F5801132462B4600F0AA
:1002A00097F903B0BDE8F08F40462146F9E7001BFF
:1002B00061EB0201001C41F5801300185B4120181E
:1002C000A2F5001747EB030140EAD570B6196D415E
:1002D00011E06D084FEA360645EAC0754FEA07524D
:1002E000001B61EB0201001C41F5801149084FEA37
:1002F00030000019514132462B4603B0BDE8F04FA3
:1003000000F057B90098012240000023D0EB020210
:1003100063EBE073009821464FEAE074B8EB00000D
:1003200061EB0401E9E783F000435BE781F0004102
:1003300058E72DE9FE4F81EA030404F0004421F060
:10034000004100944FF0000B23F0004350EA0104F9
:100350005ED052EA03045BD0C3F30A54C1F30A55DA
:100360002C44A4F2F3340194A0FB0254C1F3130112
:1003700041F48011C3F3130343F4801301FB0244DF
:1003800000FB034E840A970A44EA815447EA8357E4
:10039000A4FB076802958D0A05FB07854FEA932C9D
:1003A00004FB0C542705029D4FEA065847EA16370E
:1003B000B5EB08056EEB070C870E920E47EA811726
:1003C00042EA8312A7FB0201B6EB0B0164EB0004C7
:1003D0002B0D43EA0C335E1844EB1C50DA465146B1
:1003E000E7FB0201C5F313044FEA0B3343EA14534E
:1003F0004FEA0432019C43EA0603A4F10C04029480
:10040000009CCDE900B400F0E3F803B0BDE8F08F44
:1004100000200146F9E700F0004230F000400AD029
:10042000C10D01F56071C0F3160042EA0151C20826
:1004300040071143704700200146704701F0004318
:1004400030B421F0004150EA010206D00A0DA2F5B5
:100450006072C1F31301002A02DC30BC0020704737
:10046000440F44EAC104C100E01830BC00EBC250A4
:1004700000F068B830B50B46014600202022012468
:1004800009E021FA02F59D4205D303FA02F5491B62
:1004900004FA02F52844151EA2F10102F1DC30BD78
:1004A0002DE9F05F0546002092469B4688460646A9
:1004B000814640241BE0284641464746224600F03C
:1004C00087F953465A46C01A914110D3114618462F
:1004D000224600F016F82D1A67EB01084F46224617
:1004E0000120002100F00DF817EB00094E41201EFD
:1004F000A4F10104DFDC484631462A464346BDE804
:10050000F09F202A04DB203A00FA02F10020704715
:100510009140C2F1200320FA03F319439040704741
:10052000202A06DBCB17203A41FA02F043EAE073B7
:1005300006E041FA02F3D040C2F1200291400843A4
:10054000194670470029A8BF7047401C490008BFE2
:1005500020F00100704710B4B0FA80FC00FA0CF0F3
:1005600050EA010404BF10BC704749B1CCF120042B
:1005700021FA04F411FA0CF118BF012121430843B8
:10058000A3EB0C01CB1D4FEA00614FEA102042BFE4
:10059000002010BC704700EBC35010440029A4BFDA
:1005A00010BC7047401C490008BF20F0010010BC7F
:1005B000704710B5141E73F1000408DA401C41F1B5
:1005C000000192185B411A4301D120F0010010BDD7
:1005D0002DE9F04D92469B4611B1B1FA81F202E04D
:1005E000B0FA80F220329046FFF78BFF04460F46A8
:1005F00040EA0A0041EA0B0153465A46084313D029
:10060000114653EA010019D0C8F14002504600F0EB
:10061000DFF805460E46504659464246FFF771FF41
:10062000084305D0012004E020463946BDE8F08D9E
:100630000020054346EAE0762C4337430A986305D9
:10064000E40AA0EB08000022FD0A44EA47540A30FD
:1006500002D500200146E9E7010510196941DDE9ED
:10066000084500196941BDE8F04DA2E72DE9F04DBC
:1006700081EA030404F0004B21F0004514464FF0DA
:10068000000A23F0004150EA050220D054EA01029A
:100690001DD0C5F30A570246C5F31303C1F3130077
:1006A000C1F30A5640F4801543F48013A7EB060803
:1006B000101BD64608F2FD3873EB050002D308F193
:1006C000010801E092185B41B8F1000F03DA002045
:1006D0000146BDE8F08D00204FF4801106468446A7
:1006E0000EE0171B73EB050705D3121B63EB050325
:1006F00006434CEA010C49084FEA300092185B416E
:1007000050EA0107EDD152EA030012D082EA040058
:1007100083EA0501084305D0101BAB4106D2012234
:10072000002306E000224FF0004302E06FF00102D8
:1007300053101AEB06004CEB085110EB0A0041EB8A
:100740000B01BDE8F04DFFF734BFC1F30A52C1F30E
:10075000130140F2FF3341F480119A4202DA002083
:100760000146704740F233439A42A2F2334202DC20
:10077000524200F02DB8FFF7C4BE000030B5041E91
:1007800071F1000404DB4FF00044404264EB0101CE
:10079000141E73F1000405DB1C464FF00043524267
:1007A00063EB0403994208BF904230BD064C074DED
:1007B00006E0E06840F0010394E807009847103431
:1007C000AC42F6D3FFF7F6FC287D0008487D000810
:1007D000202A04DB203A21FA02F00021704721FA96
:1007E00002F3D040C2F120029140084319467047FD
:1007F0005A49096821F44031594AC2F80413114694
:10080000D1F8041342681143544A116001684968E1
:1008100021F480710268516001684A68016942EA06
:100820000121026851600168496821F04071026845
:10083000516001684968826811430268516001682B
:10084000896821F400610268916001688968C26862
:10085000114302689160434AC16A914218D001680D
:10086000896821F070610268916001688968C26AD4
:100870001143026891600168896821F04051026863
:10088000916001688968026B1143026891600BE016
:100890000168896821F07061026891600168896867
:1008A00021F04051026891600168896821F00201DD
:1008B0000268916001688A68816942EA41010268C0
:1008C0009160416AD1B10168496841F400610268F0
:1008D00051600168496821F4604102685160016813
:1008E0004A68816A491E4FF4604393FAA3F3B3FA4E
:1008F00083F399400A4301684A6005E0016849684A
:1009000021F40061026851600168C96A21F4700134
:100910000268D1620168CA6A018C491E42EA01512B
:100920000268D1620168896821F4007102689160EF
:1009300001688A68C16942EA4121026891600168E0
:10094000896821F480610268916001688A68416960
:1009500042EA81210268916070470000042301404F
:10096000002001400100000F10B586B0044600BF12
:100970007CB900BF002000902548006840F00200CC
:10098000234908600846006800F00200009000BF9C
:1009900023E0012C0FD100BF002000901C4800680C
:1009A00040F020001A4908600846006800F0200066
:1009B000009000BF11E0022C0FD100BF002000907A
:1009C0001348006840F480701149086008460068C8
:1009D00000F48070009000BF00BF00BF0D4830F8E9
:1009E00014000190012002900390032004900A4912
:1009F00051F8240001A900F01FFA064A32F8141039
:100A0000054A52F82400012200F024FB06B010BD74
:100A100030380240107D00082400002000BFFEE7AF
:100A2000704700001FB50446009401200190072084
:100A30000290002003906946074800F027F8064816
:100A400000F096F90A21044800F050F9024800F03D
:100A5000EBF880B204B010BD3C0000202DE9F0415D
:100A600007460C460025002608E03846FFF7DAFF67
:100A70000544052002F0E1FC701CC6B2A642F4DB7E
:100A8000B5FBF4F080B2BDE8F081000018B5024675
:100A90000020009000BF92F83C00012801D1022004
:100AA00018BD012082F83C0000BF0868092816D94B
:100AB0001068C0680B780A3B03EB43040723A3408C
:100AC00098431368D8600B780A3B03EB43038868AC
:100AD00098401368DB6818431368D86013E0106807
:100AE00000690B7803EB43040723A3409843136882
:100AF00018610B7803EB43038868984013681B69FF
:100B00001843136818614868072817D21068406BAB
:100B10000B795B1E03EB83041F23A34098431368E8
:100B20005863088880B20B795B1E03EB83039840FF
:100B300013685B6B18431368586331E048680D28ED
:100B400017D21068006B0B79DB1F03EB83041F23A4
:100B5000A340984313681863088880B20B79DB1FA1
:100B600003EB8303984013681B6B184313681863E7
:100B700016E01068C06A0B790D3B03EB83041F235A
:100B8000A34098431368D862088880B20B790D3B64
:100B900003EB830398401368DB6A18431368D86239
:100BA0001C4B1068984208D10868122805D11A48D1
:100BB000006840F48000C3F80403164B10689842A4
:100BC00020D1164B0868984202D00868112819D124
:100BD0001148006840F400000F4B18600F4B086884
:100BE00098420FD10E4800680E4BB0FBF3F000EBBB
:100BF00080004000009002E00098401E00900098A5
:100C00000028F9D100BF002082F83C0000BF00BFDF
:100C100046E70000002001400423014012000010BC
:100C20000000002040420F0001460868C06C704779
:100C300010B504460CB9012010BD1049E06A884285
:100C400000D000BF94F83D0028B9002084F83C0093
:100C5000204600F015F8022084F83D002046FFF7FA
:100C6000C7FD00202064012084F83D0000BF002063
:100C700084F83C0000BF00BFDEE700000100000F69
:100C800010B586B0044600BF0020009015480068EB
:100C900040F48070134908600846006800F48070D2
:100CA000009000BF00BF00BF002000900D48143826
:100CB000006840F001000B491439086008460068DC
:100CC00000F00100009000BF00BF20200190032031
:100CD00002900020039001A9034800F0ADF806B08F
:100CE00010BD0000443802400000024070B50446C8
:100CF0000D4600262068806800F4806070B120688E
:100D0000806800F4807048B1042084F83D0000BF82
:100D1000002084F83C0000BF012070BD00F0A0F965
:100D2000064611E0681C78B125B100F099F9801BE6
:100D3000A84209D9032084F83D0000BF002084F8B0
:100D40003C0000BF0320E8E72068006800F00200D4
:100D50000228E7D194F83D00252803D1352084F8F6
:100D60003D0002E0152084F83D000020D5E700009A
:100D700008B501460020009000BF91F83C00012812
:100D800001D1022008BD012081F83C0000BF91F88C
:100D90003D00222803D1322081F83D0002E01220DC
:100DA00081F83D000868806800F00100A0B908687B
:100DB000806840F001000A6890601B4800681B4A88
:100DC000B0FBF2F000EB4000009002E00098401E03
:100DD000009000980028F9D100BF002081F83C0065
:100DE00000BF1348006800F01F0058B90868806809
:100DF00000F04050A8B90868806840F080400A6858
:100E000090600EE00B4A086890420AD1086880683A
:100E100000F0405028B90868806840F080400A68B7
:100E200090600020AEE700000000002040420F006C
:100E30000423014000200140F8B502460B4600257E
:100E4000002400200021E6E0012606FA01F51E68D4
:100E500006EA0504AC4273D15E68022E02D05E68D9
:100E6000122E13D1CF0802F1200656F827004E07A4
:100E7000F70E0F26BE40B0434F07FF0E1E69BE405F
:100E80003043CF0802F1200646F8270010684F00D3
:100E90000326BE40B0431E7906F003064F00BE4055
:100EA000304310605E68012E08D05E68022E05D0C7
:100EB0005E68112E02D05E68122E13D190684F002A
:100EC0000326BE40B0434F00DE68BE403043906012
:100ED000506801268E40B0431E79C6F300168E403E
:100EE00030435060D0684F000326BE40B0434F00EF
:100EF0009E68BE403043D0605E6806F08056B6F112
:100F0000805FA8D100BF00260096454E366846F4A3
:100F10008046434F3E603E46366806F48046009663
:100F200000BF00BF3F4E8F0856F827008E07370FCF
:100F30000F26BE40B0433C4EB24202D100262EE006
:100F400068E03A4EB24201D1012628E0384EB24262
:100F500001D1022623E0374EB24201D103261EE022
:100F6000354EB24201D1042619E0344EB24201D1CD
:100F7000052614E0324EB24201D106260FE0314E72
:100F8000B24201D107260AE02F4EB24201D1082613
:100F900005E02E4EB24201D1092600E00A268F0755
:100FA0003F0FBE4030431F4E8F0846F82700284EA3
:100FB0003068A0435E6806F48036B6F5803F00D105
:100FC0002043234E3060361D3068A0435E6806F42F
:100FD0000036B6F5003F00D120431D4E361D30606F
:100FE000361D3068A0435E6806F48016B6F5801F93
:100FF00000D12043164E08363060361D3068A043BD
:101000005E6806F40016B6F5001F00D12043104EAE
:101010000C363060491C1029FFF416AFF8BD0000F3
:1010200044380240083801400000024000040240F9
:1010300000080240000C0240001002400014024070
:1010400000180240001C0240002002400024024020
:10105000003C01400AB1816101E00B0483617047EB
:10106000014800687047000038000020024800680E
:10107000401C0149086070473800002010B50D4839
:10108000006840F400700B4908600846006840F4AE
:10109000806008600846006840F4807008600520A1
:1010A00000F06CF80F2000F007F800F017F80020AF
:1010B00010BD0000003C024070B5044600F01CFA70
:1010C0004FF47A71B0FBF1F5284600F0BBFC00222A
:1010D0002146501E00F014F8002070BD08B5002015
:1010E000009000BF08BD00BF00F01F020121914029
:1010F0004209920002F1E022C2F8001100BF7047DD
:101100002DE9F05F80460D461646002701F082FA71
:10111000074639462A46334601F00700C0F1070A60
:10112000BAF1040F02D94FF0040A01E0C0F1070A36
:10113000D14600F1040ABAF1070F02D24FF0000ABB
:1011400001E0A0F1030AD4464FF0010A0AFA09FAB5
:10115000AAF1010A0AEA020A0AFA0CFA4FF0010B94
:101160000BFA0CFBABF1010B0BEA030B4AEA0B0485
:101170002146404601F056FABDE8F09F00BF00F05E
:101180000702064B19684FF6FF031940044B0B4347
:1011900043EA0221014B196000BF70470CED00E0EB
:1011A0000000FA0538B5002400BF00200090234855
:1011B000006840F08050214908600846006800F04F
:1011C0008050009000BF00BF0120010491FAA1F1FE
:1011D000B1FA81F11A4A42F82100FFF741FF0446B3
:1011E00007E0FFF73DFF001BB0F57A7F01D9032030
:1011F00038BD1448406800F48030B0F5803FF0D12D
:101200000120410491FAA1F1B1FA81F10C4A42F8AE
:101210002100FFF725FF044607E0FFF721FF001B31
:10122000B0F57A7F01D90320E2E70648406800F470
:101230000030B0F5003FF0D10020D9E7403802403F
:1012400000000E420070004070B504460E460025B6
:10125000A748006800F00F00B0426FD2A4490E709A
:101260000846006800F00F00B04201D0012070BDB8
:10127000207800F00200022807D19E48006820F084
:10128000F000A16808439B490860207800F0010045
:1012900000283ED06068012807D1964808380068C9
:1012A000C0F34040B8B90120E1E76068022802D0ED
:1012B0006068032807D18F4808380068C0F3406091
:1012C00048B90120D3E78B4808380068C0F34000D4
:1012D00008B90120CBE78748006820F00300616867
:1012E000084384490860FFF7BBFE05466068012893
:1012F00010D108E0FFF7B4FE401B41F2883188426C
:1013000001D90320B3E77B48006800F00C000428F3
:10131000F0D1CDE06068022811D108E0FFF7A0FE0F
:10132000401B41F28831884201D903209FE7714870
:10133000006800F00C000828F0D1B9E024E06068F3
:10134000032810D108E0FFF78BFE401B41F28831E3
:10135000884201D903208AE76648006800F00C0043
:101360000328F0D1A4E008E0FFF77AFE401B41F229
:101370008831884201D9032079E75E48006800F08F
:101380000C000028F0D193E0207800F00200022841
:1013900007D15848006820F0F000A168084355497B
:1013A0000860207800F00100002877D060680128EC
:1013B00007D1504808380068C0F34040B8B9012050
:1013C00055E76068022802D06068032807D14948C1
:1013D00008380068C0F3406048B9012047E7454835
:1013E00008380068C0F3400008B901203FE74148D1
:1013F000006820F00300616808433E490860FFF779
:101400002FFE05466068012810D108E0FFF728FE8E
:10141000401B41F28831884201D9032027E7354833
:10142000006800F00C000428F0D137E06068022862
:1014300010D108E0FFF714FE401B41F288318842CA
:1014400001D9032013E72B48006800F00C0008289E
:10145000F0D123E06068032810D108E0FFF700FE18
:10146000401B41F28831884201D90320FFE6214820
:10147000006800F00C000328F0D10FE008E0FFF74F
:10148000EFFD401B41F28831884201D90320EEE68E
:101490001848006800F00C000028F0D114490E70C4
:1014A0000846006800F00F00B04201D00120DEE6DF
:1014B000207800F00400042807D10E48006820F4CA
:1014C000E050E16808430B490860207800F008000C
:1014D000082808D10748006820F46040216940EAE4
:1014E000C100044908600F20FFF7E6FD0020BEE6BA
:1014F000003C02400838024010B500F045F80949A8
:10150000096801F0F001F02292FAA2F2B2FA82F236
:10151000D140054A515CC84004490860084600684B
:1015200010BD000008380240167D000800000020B1
:1015300010B5FFF7E1FF0749096801F4E0514FF4E6
:10154000E05292FAA2F2B2FA82F2D140024A515C1F
:10155000C84010BD08380240167D000810B5FFF7DE
:10156000CBFF0749096801F460414FF4604292FAE9
:10157000A2F2B2FA82F2D140024A515CC84010BDD8
:1015800008380240167D000870B5002100220023B3
:101590000020274C246804F00C0424B1042C04D04F
:1015A000082C41D103E0234840E023483EE0204C92
:1015B000241F246804F03F011D4C241F246804F4F8
:1015C000800484B11C4CB4FBF1F5194C241F246831
:1015D00047F6C076344096FAA6F6B6FA86F6F44098
:1015E00005FB04F20FE0134CB4FBF1F5104C241F83
:1015F000246847F6C076344096FAA6F6B6FA86F620
:10160000F44005FB04F20A4C241F246804F440341F
:101610004FF4403595FAA5F5B5FA85F5EC40641C14
:101620006300B2FBF3F001E0024800BF00BF70BDF1
:10163000083802400024F40040787D0138B50446A3
:101640000025207800F00100002866D0F7480068E7
:1016500000F00C0004280DD0F448006800F00C00E5
:10166000082813D1F148001F006800F48000B0F58D
:10167000800F0BD1ED4808380068C0F340400028C7
:101680004BD06068002848D1012038BD0020E749D0
:10169000891F0870FFF7E4FC054608E0FFF7E0FC4F
:1016A000401B41F28831884201D90320EDE7DF4831
:1016B00008380068C0F340400028EFD12079DB49AA
:1016C000891F08706068A0B1FFF7CAFC054608E0F2
:1016D000FFF7C6FC401B41F28831884201D9032044
:1016E000D3E7D24808380068C0F340400028EFD064
:1016F00013E0FFF7B5FC054608E0FFF7B1FC401B1F
:1017000041F28831884201D90320BEE7C748083832
:101710000068C0F340400028EFD1207800F00200BC
:10172000022869D1C148006800F00C0058B1BF48D8
:10173000006800F00C00082821D1BC48001F006898
:1017400000F48000D8B9B94808380068C0F34000F8
:1017500020B1E068012801D0012096E7B34808389D
:10176000006820F0F800F82292FAA2F2B2FA82F2AF
:10177000216991400843AD49083908603CE0E068C0
:1017800028B30120AA490860FFF76AFC054606E075
:10179000FFF766FC401B642801D9032075E7A348C6
:1017A00008380068C0F340000028F1D09F4808388E
:1017B000006820F0F800F82292FAA2F2B2FA82F25F
:1017C00021699140084399490839086014E00020D4
:1017D00097490860FFF744FC054606E0FFF740FC28
:1017E000401B642801D903204FE79048083800685F
:1017F000C0F340000028F1D1207800F0080008284C
:101800002CD16069A8B101208A490860FFF728FC43
:10181000054606E0FFF724FC401B642801D903209D
:1018200033E782486C300068C0F340000028F1D0F4
:1018300014E000207F490860FFF712FC054606E02F
:10184000FFF70EFC401B642801D903201DE77748F1
:101850006C300068C0F340000028F1D1207800F01F
:10186000040004286FD100BF002000906F4838307A
:10187000006840F080506D493831086008460068C3
:1018800000F08050009000BF00BF6B48006840F43B
:10189000807069490860FFF7E3FB054606E0FFF743
:1018A000DFFB401B642801D90320EEE66248006894
:1018B00000F480700028F2D000205C496831087084
:1018C000FFF7CEFB054608E0FFF7CAFB401B41F2DD
:1018D0008831884201D90320D7E65448683000682F
:1018E000C0F340000028EFD1207A504968310870D9
:1018F000A068A0B1FFF7B4FB054608E0FFF7B0FB16
:10190000401B41F28831884201D90320BDE6474897
:1019100068300068C0F340000028EFD013E0FFF704
:101920009FFB054608E0FFF79BFB401B41F2883117
:10193000884201D90320A8E63C4868300068C0F31B
:1019400040000028EFD1A069F0B33848006800F0EB
:101950000C00082872D0A069022850D10020344918
:101960000866FFF77DFB054606E0FFF779FB401BA5
:10197000642801D9032088E62C4808380068C0F3A1
:1019800040600028F1D1D4E90701084347F6C0724E
:1019900092FAA2F2B2FA82F2616A914008430122FD
:1019A000A16AC2EB51014FF4403292FAA2F2B2FAAC
:1019B00082F2914008434FF0706292FAA2F2B2FABA
:1019C00082F2E16A914000E03AE008431749091FBA
:1019D0000860012016490866FFF742FB054606E04D
:1019E000FFF73EFB401B642801D903204DE60F485A
:1019F00008380068C0F340600028F1D020E00020E3
:101A00000B490866FFF72CFB054606E0FFF728FBAD
:101A1000401B642801D9032037E6044808380068D1
:101A2000C0F340600028F1D10AE007E00838024026
:101A300000004742800E474200700040012024E62B
:101A4000002022E670B504462546681EB0F1807F6E
:101A500001D301200FE0681E4FF0E02148610F2103
:101A60004FF0FF3000F0DEFD00204FF0E0218861F4
:101A700007200861002070BD7047014691F83900C9
:101A80007047F8B50446002500262068006800F07D
:101A900001052068C06800F480767DB176B100BF92
:101AA0000020009020680068009020684068009046
:101AB00000BF00BFE06B40F00100E06320680068F9
:101AC000C0F340052068406900F001067DB176B1A1
:101AD00000BF0020009020680068009020684068E7
:101AE000009000BF00BFE06B40F00400E06320689E
:101AF0000068C0F380052068406900F001067DB1F0
:101B000076B100BF00200090206800680090206837
:101B10004068009000BF00BFE06B40F00200E0634F
:101B200020680068C0F3C0052068406900F0010625
:101B30007DB176B100BF0020009020680068009061
:101B400020684068009000BF00BFE06B40F00800D4
:101B5000E06320680068C0F340152068C06800F0AA
:101B600020061DB116B1204600F01CFE206800685A
:101B7000C0F3C0152068C06800F080061DB116B122
:101B8000204600F07FFF20680068C0F380152068C1
:101B9000C06800F040061DB116B1204600F0EAFD15
:101BA000E06B28B1012084F839002046FFF764FF7C
:101BB000F8BD10B504460CB9012010BDA06900B1F4
:101BC00000E000BF94F8390028B9002084F83800FC
:101BD000204600F025F8022084F839002068C0680B
:101BE00020F400502168C860204600F039FE2068CB
:101BF000006920F49040216808612068406920F065
:101C00002A00216848612068C06840F400502168BB
:101C1000C8600020E063012084F839000020CCE790
:101C200010B586B004462A49206888424DD100BFCD
:101C3000002000902748006840F001002549086016
:101C40000846006800F00100009000BF00BF00BF20
:101C5000002000900846006840F001000860084637
:101C6000006800F00100009000BF00BF00BF00202E
:101C7000009018481430006840F0100015491431E5
:101C800008600846006800F01000009000BF00BF28
:101C90004815019002200290012003900220049038
:101CA0000720059001A90C48FFF7C6F84FF48060A3
:101CB000019001A90848FFF7BFF82520FFF713FAA4
:101CC000032211462520FFF71BFA06B010BD0000C5
:101CD00000100140303802400000024030B5034699
:101CE000002493F83940012C01D0122C37D101B1D6
:101CF0000AB9012030BD00BF93F83800012801D196
:101D00000220F7E7012083F8380000BF99629A8526
:101D1000DA850020D86393F83900122803D13220E5
:101D200083F8390002E0222083F839001868C0687F
:101D300040F480701D68E8601868406940F0010058
:101D40001D68686100BF002083F8380000BF186874
:101D5000C06840F020001D68E8600020CAE702204B
:101D6000C8E700001D4A0168914236D11C49098824
:101D700001F4004189BB1A49098801F4804171B11D
:101D8000184909780A2903D00021154A118024E056
:101D90001349098841F40041114A11801DE011499D
:101DA00009780D2906D10E49098841F480410C4A71
:101DB000118012E00B490978094A1288C2F30D021A
:101DC000094B995406490988491C054A1180114656
:101DD0000988C72901DD00211180704700100140EA
:101DE0003000002032000020E8010020704700BFD2
:101DF000FEE7000070B504460D4616462F48006801
:101E000028B132462946204600F010FB70BD2C4810
:101E1000808848F25251884214D12949888900F0BB
:101E2000E5FA201200F0D6FAE0B200F0D3FA244925
:101E3000C88900F0DBFA281200F0CCFAE8B200F012
:101E4000C9FA32E01E48808845F20841884206D12E
:101E500001231A462946204600F09AF825E0184842
:101E6000808845F2105188421FD11549888900F0B9
:101E7000BDFA201200F0AEFA11498989491C88B2D6
:101E800000F0B4FAE0B200F0A5FA0D49C88900F0FC
:101E9000ADFA281200F09EFA0949C989491C88B296
:101EA00000F0A4FAE8B200F095FA05484089054927
:101EB0000880891C0E8000BFA8E70000C801002030
:101EC000D0000020FEFF016010B50246012000E0B6
:101ED00050430B1EA1F10104E1B2F9D110BD000085
:101EE00030B504460D462948808848F25251884250
:101EF00014D12649888900F079FA201200F06AFA94
:101F0000E0B200F067FA2149C88900F06FFA2812A0
:101F100000F060FAE8B200F05DFA36E01B48808815
:101F200045F2084188420AD118498889214600F0C3
:101F300069FA1649C889294600F064FA25E0134871
:101F4000808845F2105188421FD11049888900F0DD
:101F50004DFA201200F03EFA0C498989491C88B2DA
:101F600000F044FAE0B200F035FA0849C88900F000
:101F70003DFA281200F02EFA0449C989491C88B29A
:101F800000F034FAE8B200F025FA30BDD0000020AD
:101F90002DE9FC4F04460D46904699460026B24670
:101FA0000027B3460020019000908A48808848F2BC
:101FB0005251884232D1264604EB0800401E1FFAD7
:101FC00080FA2F4605EB0900401E1FFA80FB0196A0
:101FD00000978049888900F009FA301200F0FAF978
:101FE000F0B200F0F7F94FEA2A2000F0F3F90AF016
:101FF000FF0000F0EFF97749C88900F0F7F93812CF
:1020000000F0E8F9F8B200F0E5F94FEA2B2000F013
:10201000E1F90BF0FF0000F0DDF9D5E06D488088B4
:1020200045F20841884273D16A48007A03281CD1DE
:1020300068484088401BA0EB090086B2654840888C
:10204000401B401E1FFA80FA62480088001BA0EB6C
:10205000080087B25F480088001B401E1FFA80FB03
:10206000CDF804A0CDF800B040E05A48007A04282A
:102070000ED12E4605EB0900401E1FFA80FA2746B6
:1020800004EB0800401E1FFA80FB019600972DE02C
:102090005048007A012814D14E480088001BA0EB5C
:1020A000080086B24B480088001B401E1FFA80FAC9
:1020B0002F4605EB09001FFA80FBCDF804A000971E
:1020C00014E0264604EB0800401E1FFA80FA41483F
:1020D0004088401BA0EB090087B23E484088401B67
:1020E000401E1FFA80FB0196CDF800B0314650200B
:1020F00000F088F95146512000F084F93946522009
:1021000000F080F95946532000F07CF95CE0FFE7CD
:102110003048808845F21051884255D1264604EB5C
:102120000800401E1FFA80FA2F4605EB0900401EEA
:102130001FFA80FB019600972649888900F056F91E
:10214000301200F047F923498989491C88B200F010
:102150004DF9F0B200F03EF91E498989891C88B218
:1021600000F044F94FEA2A2000F034F9194989892E
:10217000C91C88B200F03AF90AF0FF0000F02AF911
:102180001449C88900F032F9381200F023F91149D6
:10219000C989491C88B200F029F9F8B200F01AF98F
:1021A0000C49C989891C88B200F020F94FEA2B201C
:1021B00000F010F90749C989C91C88B200F016F966
:1021C0000BF0FF0000F006F9DDE90010FFF788FED4
:1021D000BDE8FC8FD00000202DE9F84F80460F4667
:1021E00016461C46BB462046E31704EB5373DB1030
:1021F00021464FEAE47C04EB5C7C4FEAEC0CA4EB58
:10220000CC0CBCF1000F02D04FF0010C01E04FF0FC
:10221000000C6344224604EBD27C4FEA6C0C03FBB7
:102220000CF3DBB20093A6F12000C6B200255EE0FD
:102230000C2C07D106EB46002F4901EB800010F86B
:1022400005901BE0102C05D12C4800EB061010F86F
:10225000059013E0182C07D106EBC600284901EBC6
:10226000800010F8059009E0202C05D1254800EBEE
:10227000C61010F8059001E0BDE8F88F4FF0000A95
:102280002FE009F0800030B11F483946026840460F
:10229000FFF7B0FD07E00A9828B91C4839460268E4
:1022A0004046FFF7A7FD4FEA49604FEA1069781CE6
:1022B00087B217484088B84200DCDDE7A7EB0B0087
:1022C000A0420AD15F4608F101001FFA80F81048C9
:1022D0000088404500DCCFE706E00AF1010000F08D
:1022E000FF0ABAF1080FCCDB00BF681CC5B200982A
:1022F00085429DDB00BFBFE7D0350008443A0008A7
:1023000034400008904D0008140000201800002000
:10231000D00000202DE9FF4F83B0064692461F46AD
:10232000DDE910480020029000254DE0781B401E9A
:10233000C1B20A20FFF7C8FDBAFBF0F00A21B0FBDA
:10234000F1F201FB1209029850BB781EA84227DD6A
:10235000B9F1000F22D108F0800078B108F0010037
:10236000A34604EBDB71491001FB0561009088B2C4
:10237000234630220499FFF72FFF0EE008F00100FA
:10238000A34604EBDB71491001FB0561009088B2A4
:10239000234620220499FFF71FFF13E0012002903B
:1023A00008F00100A34604EBDB71491001FB056155
:1023B000009088B209F13001CAB223460499FFF7B0
:1023C0000BFF00BF681CC5B2BD42AFDB07B0BDE864
:1023D000F08F000001B5BDF800000090BDF80000CE
:1023E0000149088008BD00000000026001B5BDF889
:1023F00000000090BDF800000149088008BD000001
:10240000FEFF0160024A1080921C1180704700009C
:10241000FEFF016010B50020FEF7A6FA0120FEF7CE
:10242000A3FA0220FEF7A0FA10BD000070B5634BBE
:102430005B7D042B2CD1624B9B8847F21604A34290
:1024400010D15E4B1D685B685B1A5B1E05FB0303C6
:102450005A4DED696B43594D2D7D5A4E56F8255016
:10246000EA52A9E0564B9B88B3F5004FF9D1534B84
:102470005D681B681B1A5B1E05FB03134F4DED695E
:102480006B434E4D2D7D4F4E56F82550EA5293E04A
:102490004A4B5B7D032B2ED1494B9B8847F2160498
:1024A000A34211D1454B1B681B1A5B1E434D2D687F
:1024B00005FB0133414DED696B43404D2D7D414E90
:1024C00056F82550EA5277E03D4B9B88B3F5004F14
:1024D00072D13A4B5B685B1A5B1E384D6D6805FB29
:1024E0000033364DED696B43344D2D7D354E56F836
:1024F0002550EA5260E0314B5B7D012B2ED1304BF1
:102500009B8847F21604A34215D195B22B4B1B684A
:102510005B1A5B1E294C26686468241A641E06FB3D
:102520000433264CE4696343244C247D254E56F83D
:102530002440E55240E0224B9B88B3F5004F3BD14D
:102540001E4BDB691D4D6D6805FB01056B431B4D83
:102550002D7D1C4E56F82550EA522DE0184B9B88D5
:1025600047F21604A3420DD1144BDB69134D2D68BD
:1025700005FB00156B43114D2D7D124E56F825506D
:10258000EA5219E00E4B9B88B3F5004F14D195B277
:102590000A4B5B681B1A5B1E084C66682468641A49
:1025A000641E06FB0433054CE4696343034C247D3D
:1025B000044E56F82440E55270BD0000C8010020CA
:1025C000D00000201C00002010B50D480D49086007
:1025D0004FF48030486000210A488160C160016189
:1025E00041618161012101620021416281620649EC
:1025F000C16200210163C161FEF71AFB10BD00003A
:10260000002001403C0000200100000F00BFFEE759
:102610007047000002480068C0F3022070470000C5
:102620000CED00E010B5002807DA0A07140E054A81
:1026300000F00F031B1FD45403E00A07130E024AD5
:10264000135410BD18ED00E000E400E0704770473F
:1026500010B5FEF70BFD10BD2DE9F04192B0054617
:10266000884616461F46002400BF002000902648DA
:10267000006840F08050244908600846006800F077
:102680008050009000BF00BF00BF002000901F4896
:10269000006840F440401D4908600846006800F4A6
:1026A0004040009000BF00BF01200690079002202C
:1026B0000C9041050D91CDF838800F95109611972B
:1026C00006A8FEF7BBFF04460CB100BFFEE7FEF70D
:1026D00069FD04460CB100BFFEE70F200190022007
:1026E0000290002003904FF4A05004904FF48050CB
:1026F0000590052101A8FEF7A7FD04460CB100BF17
:10270000FEE712B0BDE8F0814038024000700040A2
:102710001448006840F470001249086012480068CC
:1027200040F001001049086000200F49083108609E
:102730000D4800680D4908400B4908600C48091D08
:102740000860081F006820F48020091F086000202E
:1027500005490C3108604FF000600249803908607B
:102760007047000088ED00E000380240FFFFF6FEF1
:102770001030002410B504462068C06820F04000E6
:102780002168C86094F83900322803D1222084F8E7
:10279000390002E0012084F839002046FFF726FBCB
:1027A000002010BD70B50446002694F83960222E32
:1027B00001D0322E52D1A068B0F5805F13D1A56A46
:1027C000206940B920684068C0F308002880A06AEA
:1027D000801CA06219E020684068C0B22880A06A0E
:1027E000401CA06211E0206938B920684068C1B27D
:1027F000A26A501CA062117007E02068406800F0D7
:102800007F01A26A501CA0621170E08D401E80B250
:10281000E08508BB2068C06820F020002168C860FF
:1028200094F83900322803D1122084F839000EE0E0
:102830002068C06820F480702168C8602068406902
:1028400020F0010021684861012084F83900204609
:10285000FFF788FA002070BD0020FCE70220FAE7AD
:102860002DE9F041044600252068056925F440550E
:10287000E0680543206805612068C56849F20C607E
:1028800085432169A068084361690843E1690843F9
:1028900005432068C5602068456925F44075A06936
:1028A000054320684561E069B0F5004F72D1734976
:1028B0002068884203D072492068884234D1FEF7EC
:1028C0004DFE00EBC00101EB001061684900B0FB58
:1028D000F1F06421B0FBF1F6FEF740FE00EBC00121
:1028E00001EB001061684900B0FBF1F7FEF736FE1E
:1028F00000EBC00101EB001061684900B0FBF1F092
:102900006421B0FBF1F000EBC00101EB0010A7EB7C
:102910008000322101EB00106421B0FBF1F066F37E
:102920001F1021688860A6E0FEF702FE00EBC001E0
:1029300001EB001061684900B0FBF1F06421B0FBCD
:10294000F1F6FEF7F5FD00EBC00101EB0010616848
:102950004900B0FBF1F7FEF7EBFD00EBC00101EB26
:10296000001061684900B0FBF1F06421B0FBF1F0A8
:1029700000EBC00101EB0010A7EB8000322101EB5E
:1029800000106421B0FBF1F066F31F10216888602D
:1029900071E0FFE739492068884203D03849206850
:1029A000884234D1FEF7DAFD00EBC00101EB0010E4
:1029B00061688900B0FBF1F06421B0FBF1F6FEF72D
:1029C000CDFD00EBC00101EB001061688900B0FB98
:1029D000F1F7FEF7C3FD00EBC00101EB00106168E9
:1029E0008900B0FBF1F06421B0FBF1F000EBC00115
:1029F00001EB0010A7EB8000322101EB00106421F5
:102A0000B0FBF1F066F31F102168886033E0FEF739
:102A10008FFD00EBC00101EB001061688900B0FB85
:102A2000F1F06421B0FBF1F6FEF782FD00EBC0018E
:102A300001EB001061688900B0FBF1F7FEF778FD4B
:102A400000EBC00101EB001061688900B0FBF1F000
:102A50006421B0FBF1F000EBC00101EB0010A7EB2B
:102A60008000322101EB00106421B0FBF1F066F32D
:102A70001F1021688860BDE8F0810000001001404F
:102A80000014014010B50146002391F83930122B93
:102A900001D0322B2CD18868B0F5805F0FD10A6A43
:102AA0001088C0F308000C686060086918B9086AEB
:102AB000801C086209E0086A401C086205E00C6A94
:102AC000601C086220780C686060C88C401E80B270
:102AD000C88458B90868C06820F080000C68E060BD
:102AE0000868C06840F040000C68E060002010BD3D
:102AF0000220FCE770B500240F4D1048FEF7C1FF1F
:102B000000BF03E0641CAC4200D904E00B48FEF7B0
:102B1000B4FF0128F6D100BF002403E0641CAC42DE
:102B200000D906E0012206490448FFF7D7F800283B
:102B3000F4D100BF70BD0000FFFF0100B002002013
:102B40003200002000BFFEE70FB4054B10B503A90B
:102B5000044A029800F0DAF810BC5DF814FB00009B
:102B60006D3400083400002002E008C8121F08C1BC
:102B7000002AFAD170477047002001E001C1121FFE
:102B8000002AFBD1704700002DE9FF5F82B00021D1
:102B9000DDE90430020DDDF840B0034318D044F6FF
:102BA0001050A2F2FF3242431514119801281FD091
:102BB000A5EB0B00401C5FEA000A4FF000064E4FE9
:102BC000DFF83891B046504615D5CAF1000413E03D
:102BD000119801244AA3012801D16FEA0B01029840
:102BE000119AC0E90031C0E9024206B0BDE8F09F89
:102BF000CBF10000DFE704460021404A491842EBD0
:102C00000450CDE9001012E0E00707D032463B4601
:102C100040464946FDF78DFB8046894632463B4695
:102C200010461946FDF785FB06460F466410002C3A
:102C3000EAD1DDE90401DDE90023BAF1000F06DA8B
:102C4000FDF777FB42464B46FDF773FB05E0FDF7CA
:102C50000DFD42464B46FDF709FD04460E46002297
:102C6000284BFDF78BFD03D84FF0FF30014607E0FE
:102C70000022254B20463146FDF7B4FAFDF765FDED
:102C8000102409E0002C0ADB0A220023FDF708FCCF
:102C9000039B30321A55641E50EA0102F2D1641CC3
:102CA000039AC4F111031444119A012A03D001229A
:102CB00008430DD10AE0084304D000204FF0110B67
:102CC000119072E7A3EB0B056D1E0DE05B4504DD73
:102CD0004FF0000205F1010504E003DA4FF00002B5
:102CE000A5F10105002AECD002981199C0E9023142
:102CF000C0E9004579E70000000014400000F03F03
:102D0000300000000000F0430000E03F2DE9FF4FDD
:102D100095B09B468946064600250FE2252877D1C7
:102D200000242746F84A0121059400E0044316F8E0
:102D3000013F203B01FA03F01042F7D130782A28F6
:102D400011D06FF02F033078A0F13002092A16D885
:102D5000059A44F0020402EB820203EB42021044A3
:102D6000761C0590EFE759F8042B0592002A03DA48
:102D7000504244F40054059044F00204761C30782C
:102D80002E2816D116F8010F44F004042A280DD07D
:102D90006FF02F023078A0F13003092B09D807EB30
:102DA000870302EB4303C718761CF3E759F8047B4B
:102DB000761C30786C280FD006DC4C2817D0682899
:102DC0000DD06A2814D104E0742810D07A280FD1CD
:102DD0000DE044F400140AE044F4801401E044F4EB
:102DE00040147278824202D104F58014761C761C5D
:102DF000307866280BD013DC582877D009DC0028FF
:102E000075D04528F6D04628F4D047281AD19DE140
:102E100018E0632835D0642879D0652812D195E16F
:102E2000702873D008DC6728F1D069286FD06E282D
:102E30000DD06F2806D1B5E073282CD0752875D039
:102E4000782874D05A46179990476D1C75E1C4F3E1
:102E50000250022809D003280DD0D9F80010042808
:102E60000DD00D6009F1040967E1D9F80010EA17E7
:102E7000C1E90052F6E7D9F800100D80F2E70D70B5
:102E8000F0E719F8041B8DF8001000208DF8010000
:102E9000EA46012003E059F804AB4FF0FF30610728
:102EA0004FF0000102D40DE008F101018846B9425B
:102EB0000FDA8045F8DB1AF808100029F4D108E091
:102EC00008F1010188468142FADB1AF8081000294E
:102ED000F6D105985B46A0EB080721463846179ABD
:102EE00000F094FA284400EB080507E04DE029E1E2
:102EF0000DE01AF8010B5A4617999047B8F10108EE
:102F0000F7D25B4621463846179A13E142E00A227F
:102F10000092C4F302524FF0000A022A08D059F876
:102F200004CB032A4FEAEC710AD00DE029E02AE035
:102F300009F1070121F00702F2E802C1914609E018
:102F40000FFA8CFC4FEAEC71042A03D14FFA8CFC87
:102F50004FEAEC71002907DA0A460021DCF1000C87
:102F600061EB02012D2202E0220504D52B228DF80F
:102F70000420012203E0E20701D02022F7E7904677
:102F800059E00A2102E010220DE010214FF0000A62
:102F900000910BE010224FF0000A44F004040827CF
:102FA000009203E008224FF0000A0092C4F302529C
:102FB000022A05D059F804CB0021032A08D009E0E1
:102FC00009F1070121F00702F2E802C1914605E08C
:102FD0001FFA8CFC042A01D10CF0FF0C4FF0000802
:102FE000220728D5702806D0009B83F0100353EAEF
:102FF0000A0305D00EE040228DF80420012208E0EB
:103000005CEA010206D030228DF804208DF805001C
:1030100002229046009B83F0080353EA0A030AD178
:103020005CEA010201D1620705D530228DF8042047
:103030004FF001087F1E582804D034A003900EA83A
:1030400002900DE036A0F9E753466046009AFDF77E
:1030500027FA84460398825C0298401E0290027010
:103060005CEA0100F0D1029806A9081A00F1200AD2
:10307000600702D524F4803400E00127574502DDC3
:10308000A7EB0A0000E0002000EB0A010090059881
:103090004144401A0590E00306D45B462146179A46
:1030A000059800F0B3F90544002706E001A85A4648
:1030B000C05D179990476D1C7F1C4745F6DBE00308
:1030C0000CD55B462146179A059800F09FF90544F8
:1030D00004E030205A46179990476D1C0099481E0D
:1030E00000900029F5DC08E0029802995A46007821
:1030F000491C0291179990476D1CBAF10001AAF181
:10310000010AF1DC65E100000928010030313233A9
:103110003435363738396162636465660000000013
:1031200030313233343536373839414243444546FD
:103130000000000000F058F90544761C30780028A3
:103140007FF4ECAD19B02846BDE8F08F620700D4DB
:10315000062709F1070222F0070CFCE80223E146EA
:1031600003F000485FEA080C02D00FF2702C0DE06B
:103170005FEA045C02D50FF2682C07E05FEAC47CCA
:1031800002D00FF2602C01E0AFF2700C4FF0FF386C
:1031900023F00043CDF850C065280CD006DC45284C
:1031A00009D046281DD047283DD13DE0662818D0DB
:1031B00067287ED138E00021112F01DB112000E0CB
:1031C000781CCDE9000106A90EA8FFF7DDFCDDE9BA
:1031D0000F010E9A03910021009207F1010A049158
:1031E0004DE04FF000400097CDE9011006A90EA870
:1031F000FFF7CAFCDDE90F0203920E9B1199002232
:10320000DDF80CA00093049211B9791C00EB010ABF
:10321000B7EB0A0004D4C0F1FF3007F1010A0490B3
:10322000AAEB0700019044E0012F00DA01270021FA
:10323000112F01DD112000E03846CDE9000106A97B
:103240000EA8FFF7A1FCDDE90F010E9A0391002102
:1032500004910092BA4621070CD40399514500DA33
:103260008A46BAF1010F05DD009AAAF10101515C0D
:10327000302908D0B84202DA10F1040F06DA012131
:10328000CDE9011015E0AAF10101E9E7002805DC0C
:10329000049901440491AAEB000102E0411C51454C
:1032A00000DD8A460499401A401C01904FF000400E
:1032B0000290200704D40198504501DBCDF804802A
:1032C00000208DF84F0002980DF14F07B0F1004F2C
:1032D00025D02B200E9002984FF0020800280CDA1F
:1032E000404202902D200E9007E00A210298FDF73F
:1032F000C1F83031029007F8011DB8F10001A8F1C2
:103300000108F2DC02980028EFD1791E0E980870AF
:10331000307800F0200040F0450007F8020D12A8B8
:10332000C01B00F107081498007800B1012000EBE1
:103330000A01019801EBE07105984144401A401ED2
:103340000590E00306D45B462146179A059800F0E5
:103350005DF805441498007818B15A4617999047BB
:103360006D1CE00324D55B462146179A059800F0B2
:103370004DF805441CE00498002807DBDDE9030153
:10338000884203DD0098405C179901E017993020CE
:103390005A469047049805F10105401C0490019895
:1033A000401E019004D12E205A46179990476D1C5B
:1033B000BAF10001AAF1010ADDDC05E017F8010B02
:1033C0005A46179990476D1CB8F10001A8F1010801
:1033D000F4DC5B462146179A0598ABE62D00000009
:1033E0002B000000200000002DE9F04104460025DC
:1033F0001E461746880404D405E039462020B0470D
:103400006D1C641EF9D52846BDE8F0812DE9F04118
:10341000044600251E469046C80301D5302700E02B
:103420002027880404D505E041463846B0476D1C86
:10343000641EF9D52846BDE8F08130B50446002564
:1034400004E04FF47A7000F004F86D1CA542F8D344
:1034500030BD05E02B2100BF0A1EA1F10101FBD107
:10346000021EA0F10100F5D17047000000BF054A1F
:10347000126802F04002002AF9D0C2B2014B5A6031
:1034800070470000001001402DED068B82B0FDF763
:10349000F5FD0823022219214FF4B470FFF7DCF880
:1034A0004FF4E13000F078F8FEF7B4FFFFF78CF846
:1034B00050E064210120FDF7D1FA044600201021DC
:1034C00004232246CDE9001082218620FEF722FF48
:1034D00000EE104AB8EE400A10EE100AFCF79BFF0F
:1034E00041EC190B9FED1C0B53EC102BFCF721FF4B
:1034F00041EC180BFCF7A2FF05462846FCF78BFFB2
:1035000041EC1A0B9FED160B53EC102BFCF711FF3F
:1035100041EC190B9FED140B53EC102BFCF762FEE2
:1035200041EC180BFCF78AFF06463046FCF773FFA8
:1035300041EC180B2846FCF76EFF41EC190B8DEDA2
:10354000008B53EC192B0AA0FFF7FEFA40F2EE2095
:10355000FFF773FFADE70000177771177771E73F4B
:103560004E62105839B4C8BF3F355EBA49806A40D0
:10357000566F6C746167653D25332E33666D56203A
:103580002054656D70657261747572653D25332ECA
:103590003366430D0A00000010B5044609480A4985
:1035A00008600846446000218160C160016181615A
:1035B0000C214161FEF7FDFA012204490248FEF7A1
:1035C0008DFB10BD00100140B00200203200002031
:1035D00000000000000000000000000000000000EB
:1035E0003F400000000000000000300040003000BC
:1035F0004000000009000BC03D000BC03D00090069
:1036000018C024407FE0224031800000180024C010
:103610001B000D803240018003801C4027401C802D
:1036200007400040100060000000000000000000A3
:103630000000000000001F802040402000004020CB
:1036400020401F8000000000090006001F800600C7
:1036500009000000040004003F8004000400000092
:1036600000100060000000000000000004000400E2
:1036700004000400040000000000004000000000FE
:1036800000000000002001C00600380040000000DB
:103690001F802040204020401F800000000010407C
:1036A0003FC000400000000018C0214022402440DC
:1036B0001840000010802040244024401B8000005F
:1036C00002000D0011003FC0014000003C8024407A
:1036D00024402440238000001F80244024403440A4
:1036E000038000003000200027C0380020000000C8
:1036F0001B802440244024401B8000001C0022C06A
:10370000224022401F80000000000000084000000E
:103710000000000000000000046000000000000045
:10372000000004000A001100208040400900090048
:10373000090009000900000000004040208011003D
:103740000A00040018002000234024001800000094
:103750001F802040274029401F400000004007C034
:1037600039000F0001C0004020403FC024402440E9
:103770001B8000001F80204020402040308000003F
:1037800020403FC0204020401F80000020403FC01C
:1037900024402E4030C0000020403FC024402E0076
:1037A000300000000F0010802040224033800200D3
:1037B00020403FC0040004003FC020402040204083
:1037C0003FC02040204000000060202020203FC05B
:1037D0002000200020403FC024400B0030C020408B
:1037E00020403FC020400040004000C03FC03C009F
:1037F00003C03C003FC0000020403FC00C402300FD
:103800003FC020001F802040204020401F8000003B
:1038100020403FC024402400180000001F802140A9
:10382000214020E01FA0000020403FC0244026008F
:1038300019C0004018C024402440224031800000BC
:10384000300020403FC020403000000020003F807A
:10385000004000403F80200020003E0001C00700E3
:1038600038002000380007C03C0007C038000000C6
:10387000204039C0060039C02040000020003840F8
:1038800007C0384020000000304021C026403840AA
:1038900020C00000000000007FE040204020000029
:1038A000000070000C000380004000000000402079
:1038B00040207FE0000000000000200040002000C9
:1038C0000000000000100010001000100010001098
:1038D0000000000040000000000000000000028026
:1038E0000540054003C0004020003FC004400440A4
:1038F00003800000000003800440044006400000F4
:1039000000000380044024403FC0004000000380CA
:103910000540054003400000000004401FC0244053
:1039200024402000000002E005500550065004200D
:1039300020403FC00440040003C000400000044099
:1039400027C000400000000000100010041027E015
:103950000000000020403FC00140070004C00440B8
:10396000204020403FC000400040000007C004004D
:1039700007C0040003C00000044007C00440040066
:1039800003C00040000003800440044003800000A6
:10399000041007F00450044003800000000003807E
:1039A0000440045007F00010044007C00240040027
:1039B00004000000000006400540054004C000006F
:1039C000000004001F800440004000000400078045
:1039D0000040044007C000400400070004C001800C
:1039E00006000400060001C0070001C00600000038
:1039F000044006C0010006C0044000000410071087
:103A000004E00180060004000000044005C00640F8
:103A1000044000000000000004007BE040200000A3
:103A2000000000000000FFF0000000000000402047
:103A30007BE0040000000000400080004000200007
:103A40002000400000000000000000000000000016
:103A5000000000000000000000001FCC000C00006F
:103A60000000000000000800300060000800300086
:103A700060000000022003FC1E20022003FC1E2028
:103A80000220000000000E1811043FFF10840C7883
:103A9000000000000F0010840F3800C00778188461
:103AA0000078000000780F8410C411240E9800E400
:103AB000008400080800680070000000000000009A
:103AC0000000000000000000000007E018182004BB
:103AD00040020000000040022004181807E0000027
:103AE000000000000240024001800FF0018002400F
:103AF000024000000080008000800FF800800080FD
:103B0000008000000001000D000E00000000000019
:103B10000000000000000080008000800080008025
:103B2000008000800000000C000C0000000000007D
:103B30000000000000000006001800600180060080
:103B400018002000000007F00808100410040808FE
:103B500007F000000000080408041FFC0004000433
:103B60000000000000000E0C1014102410441184FA
:103B70000E0C000000000C1810041104110412882F
:103B80000C700000000000E00320042408241FFC47
:103B90000024000000001F981084110411041088F4
:103BA00010700000000007F0088811041104188844
:103BB0000070000000001C00100010FC13001C002E
:103BC0001000000000000E381144108410841144CD
:103BD0000E38000000000700088C104410440888CC
:103BE00007F00000000000000000030C030C0000C0
:103BF00000000000000000000001010600000000BD
:103C000000000000000000800140022004100808AD
:103C100010040000022002200220022002200220C4
:103C200002200000000010040808041002200140D7
:103C30000080000000000E001200100C106C1080BC
:103C40000F00000003E00C1813E4142417C4082824
:103C500007D000000004003C03C41C40074000E4FF
:103C6000001C000410041FFC1104110411040E8830
:103C70000070000003E00C18100410041004100879
:103C80001C10000010041FFC10041004100408088D
:103C900007F0000010041FFC1104110417C41004E5
:103CA0000818000010041FFC1104110017C01000B8
:103CB0000800000003E00C181004100410441C78E5
:103CC0000040000010041FFC10840080008010845D
:103CD0001FFC10040000100410041FFC100410044A
:103CE0000000000000030001100110011FFE100081
:103CF0001000000010041FFC110403801464181C41
:103D00001004000010041FFC100400040004000450
:103D1000000C000010041FFC1F0000FC1F001FFC13
:103D20001004000010041FFC0C04030000E0101835
:103D30001FFC100007F00808100410041004080805
:103D400007F0000010041FFC108410801080108009
:103D50000F00000007F0081810241024101C080A97
:103D600007F2000010041FFC1104110011C01130F3
:103D70000E0C000400000E1C11041084108410446A
:103D80001C3800001800100010041FFC1004100064
:103D90001800000010001FF81004000400041004B4
:103DA0001FF8100010001E0011E0001C00701380AE
:103DB0001C0010001FC0103C00E01F0000E0103C81
:103DC0001FC000001004180C163401C001C01634C6
:103DD000180C100410001C00130400FC13041C0039
:103DE000100000000804101C1064108413041C044C
:103DF000101800000000000000007FFE400240029A
:103E000040020000000030000C0003800060001C35
:103E10000003000000004002400240027FFE00005C
:103E200000000000000000002000400040004000B2
:103E3000200000000001000100010001000100015C
:103E400000010001000040004000200000000000D0
:103E500000000000000000980124014401440144D6
:103E600000FC000410001FFC00880104010400880D
:103E700000700000000000700088010401040104CB
:103E8000008800000000007000880104010411088F
:103E90001FFC0004000000F80144014401440144F7
:103EA00000C800000000010401040FFC110411040B
:103EB00011001800000000D601290129012901C9BB
:103EC0000106000010041FFC008401000100010431
:103ED00000FC000400000104190419FC00040004A3
:103EE000000000000000000300010101190119FE9B
:103EF0000000000010041FFC0024004001B4010C6D
:103F0000010400000000100410041FFC0004000461
:103F100000000000010401FC0104010001FC010497
:103F2000010000FC010401FC008401000100010407
:103F300000FC0004000000F8010401040104010475
:103F400000F80000010101FF008501040104008860
:103F500000700000000000700088010401040105E9
:103F600001FF00010104010401FC008401040100BF
:103F700001800000000000CC012401240124012460
:103F80000198000000000100010007F8010401048D
:103F900000000000010001F8000400040004010812
:103FA00001FC0004010001800170000C00100160A0
:103FB0000180010001F0010C003001C00030010C53
:103FC00001F0010000000104018C00740170018CFB
:103FD00001040000010101810171000E001801605F
:103FE0000180010000000184010C013401440184BE
:103FF000010C0000000000000000000001003EFC79
:10400000400240020000000000000000FFFF00002E
:10401000000000000000400240023EFC01000000E1
:1040200000000000000060008000800040004000B0
:104030002000200000000000000000000000000040
:104040000000000000000000000000000000000070
:104050000000000000000000000000000000000060
:10406000000000000000000F80380FFE380F80387D
:104070000000000000000000000000000000000040
:1040800000000100000600000C00003800003100B4
:10409000000600000C0000380000300000000000A6
:1040A0000000000061800067F807F980006180006F
:1040B00061800061800061800067F807F98000611D
:1040C0008000000000000000000001C0E003E0F0FC
:1040D0000630080418081FFFFE040E080787F003C7
:1040E00081E000000000000001F000060C00040464
:1040F00008060C7001F9C0000E00003BE000EC184F
:10410000070808040C180003E00000000001E000AC
:1041100007F003F818041C0804170807E1D003C0CF
:10412000E00023B0003C0800200800001000000060
:104130000000000100003100003200001C000000FF
:10414000000000000000000000000000000000006F
:10415000000000000000000000000000000000005F
:10416000000000007F0001FFC00780F00C00181065
:1041700000042000020000000000002000021000E7
:10418000040C00180780F001FFC0007F0000000051
:10419000000000000000000000000000000000001F
:1041A0004200006600006600003C0000180003FFAB
:1041B000C0001800003C00006600006600004200DD
:1041C00000000000080000080000080000080000CF
:1041D000080001FFC00008000008000008000008F7
:1041E0000000080000000000000100003100003263
:1041F00000001C00000000000000000000000000A3
:10420000000000000000000000000000080000089E
:104210000000080000080000080000080000080076
:104220000008000008000008000000000000000076
:1042300000000000380000380000380000000000D6
:10424000000000000000000000000000000000006E
:1042500000000000000600001C000070000180004B
:104260000E0000380000C0000700001C00003000F5
:1042700000000000000000007F8001FFE00380706C
:1042800006001804000804000806001803807001E6
:10429000FFE0007F8000000000000000000001003F
:1042A0000801000801000803FFF807FFF8000008F4
:1042B00000000800000800000000000000000001ED
:1042C000C03802C0580400980401180402180404FD
:1042D00018061C1803F81801E0F8000000000000A0
:1042E00000000001C0E003C0F00400080408080456
:1042F000080806180803F41801E7F00001E00000C0
:1043000000000000000000000300000D000011008C
:1043100000610000810803010807FFF80FFFF800A3
:1043200001080001080000000000000000E007FC98
:10433000D0060808061008061008061008061838E7
:10434000060FF00607C0000000000000000000009B
:104350003F8001FFE00384300208180410080410B5
:1043600008041008071810030FF00007C000000031
:1043700000000000000003C0000700000600000667
:1043800000F80607F806180006E00007000006001F
:104390000000000000000001E1E003F7F006341027
:1043A000041808041808040C08040C08061618035E
:1043B000F3F001C1E000000000000000F80003FC81
:1043C000300306380402080402080402080404103A
:1043D0000308F001FFC0007F0000000000000000A3
:1043E00000000000000000000000000070380070B5
:1043F00038007038000000000000000000000000DD
:1044000000000000000000000000000000000000AC
:10441000301A00301C000000000000000000000006
:104420000000000000000000000000080000140070
:1044300000220000410000808001004002002004B2
:10444000001008000800000000000000210000210A
:1044500000002100002100002100002100002100B7
:1044600000210000210000210000000000000000E9
:104470000000080008040010020020010040008035
:10448000800041000022000014000008000000002D
:1044900000000003C00004C0000400000800380849
:1044A0000F380808380810000C300007E00003C07F
:1044B00000000000000000003F8000FFE00380706B
:1044C000020F1006708804C088048308047F8802E5
:1044D000C09003012000FE40000008000018000109
:1044E000F8003E0801C20007020007E20000FE00DB
:1044F000001FC80001F80000380000080400080789
:10450000FFF807FFF804080804080804080804086E
:104510000806180803F41801E7F00001E0000000A5
:10452000000000003F8001FFE003807002001804DB
:10453000000804000804000804001006002007809A
:10454000C000000004000807FFF807FFF804000897
:104550000400080400080400180200100380700121
:10456000FFE0007F8000000004000807FFF807FF5D
:10457000F8040808040808040808040808043E08A9
:10458000040008060018010060000000040008078D
:10459000FFF807FFF80408080408000408000408EE
:1045A00000043E000600000600000180000000003C
:1045B000000000003F8001FFE00380700600180447
:1045C00000080402080402080203F00783F0000256
:1045D0000000020004000807FFF807FFF8040808BD
:1045E0000008000008000008000008000408080790
:1045F000FFF807FFF80400080000000000000400B6
:104600000804000804000807FFF807FFF804000882
:104610000400080400080000000000000000000082
:10462000000600000700000104000104000104006E
:104630000307FFFE07FFFC04000004000004000065
:1046400004000807FFF807FFF8040C080018000032
:104650003E0004C7800503C80600F80400380400C3
:104660001800000804000807FFF807FFF804000816
:104670000000080000080000080000080000080012
:10468000001800006000000004000807FFF8078021
:104690000807FC00007FC00003F80007C000780096
:1046A00007800807FFF807FFF80400080400080760
:1046B000FFF807000803C00000E000003800001EFB
:1046C000000007000001C00400F007FFF80400002C
:1046D000000000007F8001FFE003807006001804E6
:1046E000000804000806001803003001FFE0007F06
:1046F0008000000004000807FFF807FFF804040822
:10470000040400040400040400040400060C000374
:10471000F80001F000000000000000007F8001FFB1
:10472000E00380700600880400880400C806003C8E
:1047300003003E01FFE6007F84000000040008073C
:10474000FFF807FFF8040808040800040C00040F31
:1047500000040BC00610F003F03801E00800000868
:1047600000000001E0F803F03006301004180804DF
:104770001808040C08040C080206180207F0078148
:10478000E0000000018000060000040000040000BA
:1047900004000807FFF807FFF804000804000004FD
:1047A000000006000001800004000007FFE007FF92
:1047B000F0040018000008000008000008000008CD
:1047C00000000804001007FFE004000004000006D9
:1047D000000007E00007FE00041FE00001F80000F1
:1047E000380001E0043E0007C0000600000400009D
:1047F00004000007E00007FFC0041FF80007C0071F
:10480000F80007FF80043FF80007C004F800070025
:104810000004000000000004000806001807C0782B
:1048200005F1C8003E00001F800463E80780F80619
:1048300000180400080000000400000600000780C3
:104840000007E008047C08001FF80007F8001808BB
:1048500004E008070000060000040000000000015A
:1048600000080600380400F80403E8040F08047C7C
:104870000805F00807C008070018040060000000E1
:104880000000000000000000000000000000003FE9
:10489000FFFE200002200002200002200002200073
:1048A00002000000000000000000080000070000F7
:1048B00000C0000038000006000001C00000300009
:1048C000000E0000010000000000000000002000B9
:1048D000022000022000022000022000023FFFFE12
:1048E00000000000000000000000000000000000C8
:1048F0000000000000080000100000300000200050
:10490000003000001000000800000000000000005F
:104910000000010000010000010000010000010092
:104920000001000001000001000001000001000082
:104930000100000100000000000000000020000055
:104940002000001000001000000000000000000027
:1049500000000000000000000000000000F000194E
:10496000F8001B1800220800260800240800241064
:10497000003FF8001FF800000800001800000004C5
:10498000000007FFF80FFFF00018180010080020C3
:1049900008002008003018001FF0000FC0000000C1
:1049A0000000000007C0001FF000183000200800C1
:1049B0002008002008003C08001C100000600000D7
:1049C000000000000000000007C0001FF0003818C1
:1049D00000200800200800200804101007FFF80F2E
:1049E000FFF00000100000000000000000000007C1
:1049F000C0001FF000123000221800220800220818
:104A0000003208001E10000E200000000000000010
:104A1000200000200800200801FFF803FFF806200E
:104A200008042008042008072000030000000000FC
:104A300000000000000E000E6E001FF30031B100F8
:104A400020B10020B1003191001F13002E1E002064
:104A50000E00300000000004000807FFF80FFFF808
:104A6000001008002000002000002008003FF8008F
:104A70001FF80000080000000000000000000020F7
:104A800008002008002008063FF8063FF80000084C
:104A90000000080000080000000000000000000006
:104AA000000000000300000300200100200100209E
:104AB00003063FFE063FFC0000000000000000006F
:104AC00000000004000807FFF80FFFF8000188004D
:104AD0000300002FC00038F8002038002008000034
:104AE00008000000000000000000040008040008A6
:104AF00004000807FFF80FFFF80000080000080096
:104B00000008000000000000002008003FF8003FFF
:104B1000F8001008002000003FF8003FF8001008DF
:104B2000002000003FF8003FF800000800000000EF
:104B30002008003FF8003FF8001008001000002097
:104B400000002008003FF8001FF8000008000000E7
:104B50000000000007C0000FF0001830003008000F
:104B60002008002008003008001830000FF000076F
:104B7000C0000000000000002001003FFF003FFFD8
:104B80000010110020090020080020080030380023
:104B90001FF0000FC00000000000000007C0001F51
:104BA000F00038180020080020080020090010112B
:104BB000001FFF003FFF0000010000000020080070
:104BC0002008002008003FF8003FF8000808001007
:104BD0000800200800200000300000300000000025
:104BE000000000000000000C78001E1800330800D0
:104BF00023080021080021880021980030F00038A7
:104C000060000000000000002000002000002000E4
:104C100000FFF003FFF80020080020080020080033
:104C20000030000000000000000000002000003FF5
:104C3000F0007FF8000018000008000008002010B5
:104C4000003FF8007FF000001000000000000000AE
:104C50002000003000003C00003F800023F00000F6
:104C600078000070002380003C000030000020002D
:104C7000002000003C00003FE00023F80000E000BE
:104C80002700003E00003FE00021F80001E0003E68
:104C90000000200000000000200800200800383834
:104CA000003E680027800003C8002CF80038380058
:104CB0002018002008000000000000002000003044
:104CC00003003C01003F830023EC000070002380C0
:104CD000003C000020000020000000000000000058
:104CE00000000038080020380020F80023E8002FDA
:104CF00088003E08003808002018000070000000FE
:104D000000000000000000000000000000000000A3
:104D100008000014001FF7FC30000620000200000D
:104D20000000000000000000000000000000000083
:104D3000000000000000FFFFFF0000000000000076
:104D40000000000000000000000000000000200043
:104D5000023000061FF7FC001400000800000000ED
:104D6000000000000000000000000000000000182B
:104D70000000600000400000400000200000100023
:104D8000000800000400000400000C0000100000F7
:104D90000000000000000000000000000000000013
:104DA0000000000000000000000000000000000003
:104DB00000000000000000000000000000000000F3
:104DC00000000000000000000000000000000000E3
:104DD00000000000000000000000000000000000D3
:104DE00000000000000000000000000000000000C3
:104DF00000000000000000000000000000000000B3
:104E000000000000000000000000000000000000A2
:104E10000000000000000000000000000000000092
:104E2000000000000000000007F000C007FFE1E004
:104E300007F001E0000000C00000000000000000DA
:104E40000000000000000000000000000000000062
:104E50000000000000000000000000000000000052
:104E60000000000000000000000000000000000042
:104E70000000000000000000000000000000000032
:104E80000000000000000000000000000000000022
:104E900000000000000000000020000001C0000031
:104EA000078000001F0000001E0000001C20000002
:104EB00001C00000078000001F0000001E0000006D
:104EC0001C000000000000000000000000000000C6
:104ED00000000000000000000000000000000000D2
:104EE00000000000000000000000000000000000C2
:104EF00000000000000000000000000000000000B2
:104F000000000000000000000000000000000000A1
:104F10000000000000180C0000180C0000180FE042
:104F2000001FFC0003F80C0000180C0000180C0017
:104F300000180C0000180C0000180FE0001FFC0007
:104F400003F80C0000180C0000180C000000000012
:104F50000000000000000000000000000000000051
:104F60000000000000000000000000000000000041
:104F70000000000000000000000000000000000031
:104F80000000000000000000000000000000000021
:104F9000000000000000000000000780007807C04B
:104FA00000FC0640010E00200307002002038020C1
:104FB0000FFFFFFC0201C0200200E06001307040E2
:104FC00001F03F8000F01F00000000000000000022
:104FD00000000000000000000000000000000000D1
:104FE00000000000000000000000000000000000C1
:104FF00000000000000000000000000000000000B1
:1050000000000000000000000000000000000000A0
:1050100000FE000001FF000003018000020080602C
:10502000030181C001FF070000FE18000000E0003E
:105030000003BF00000CFFC00071806001C10020B0
:10504000030180600000FFC000003F00000000007E
:105050000000000000000000000000000000000050
:105060000000000000000000000000000000000040
:105070000000000000000000000000000000000030
:105080000000000000000000000000000000000020
:1050900000001F0000007FC000FCC0C001FF806056
:1050A0000303E0200202782002061E2003FC0740D2
:1050B00001F00380000103C000011C600001E0203A
:1050C00000010020000100400000018000000000FD
:1050D00000000000000000000000000000000000D0
:1050E00000000000000000000000000000000000C0
:1050F00000000000000000000000000000000000B0
:10510000000000000000000000000000000000009F
:1051100000000000002000001C6000001C40000097
:105120001F8000000F0000000000000000000000D1
:10513000000000000000000000000000000000006F
:10514000000000000000000000000000000000005F
:10515000000000000000000000000000000000004F
:10516000000000000000000000000000000000003F
:10517000000000000000000000000000000000002F
:10518000000000000000000000000000000000001F
:10519000000000000000000000000000000000000F
:1051A0000000000000000000000000000007F80000
:1051B000003FFF00007807C001C000E0030000309E
:1051C00004000008080000041000000200000000B5
:1051D00000000000000000000000000000000000CF
:1051E00000000000000000000000000000000000BF
:1051F00000000000000000000000000000000000AF
:10520000000000000000000000000000000000009E
:105210000000000010000002080000040400000864
:105220000300003001C000E0007807C0003FFF002D
:105230000007F8000000000000000000000000006F
:10524000000000000000000000000000000000005E
:10525000000000000000000000000000000000004E
:10526000000000000000000000000000000000003E
:10527000000000000000000000000000000000002E
:10528000000000000000000000000000000000001E
:105290000000000000000000000C1800000E3800A4
:1052A000000E3800000630000003600000614380FB
:1052B00000FFFF8000614300000360000006300033
:1052C000000E3800000E3800000C1800000000002E
:1052D00000000000000000000000000000000000CE
:1052E00000000000000000000000000000000000BE
:1052F00000000000000000000000000000000000AE
:10530000000000000000000000000000000000009D
:10531000000000000000000000008000000080008D
:10532000000080000000800000008000000080007D
:10533000007FFF000000800000008000000080006F
:1053400000008000000080000000800000000000DD
:10535000000000000000000000000000000000004D
:10536000000000000000000000000000000000003D
:10537000000000000000000000000000000000002D
:10538000000000000000000000000000000000001D
:105390000000000000000001000000E3000000E247
:1053A000000000FC00000078000000000000000089
:1053B00000000000000000000000000000000000ED
:1053C00000000000000000000000000000000000DD
:1053D00000000000000000000000000000000000CD
:1053E00000000000000000000000000000000000BD
:1053F00000000000000000000000000000000000AD
:10540000000000000000000000000000000000009C
:10541000000000000000800000008000000080000C
:10542000000080000000800000008000000080007C
:10543000000080000000800000008000000080006C
:1054400000008000000080000000800000000000DC
:10545000000000000000000000000000000000004C
:10546000000000000000000000000000000000003C
:10547000000000000000000000000000000000002C
:10548000000000000000000000000000000000001C
:105490000000000000000000000000C0000001E06B
:1054A000000001E0000000C000000000000000005B
:1054B00000000000000000000000000000000000EC
:1054C00000000000000000000000000000000000DC
:1054D00000000000000000000000000000000000CC
:1054E00000000000000000000000000000000000BC
:1054F00000000000000000000000000000000000AC
:10550000000000000000000000000000000000009B
:10551000000000000000000C00000038000000E067
:105520000000038000000E00000038000000E000D2
:1055300000038000000E00000038000000E00000C2
:10554000038000000E0000001800000000000000B2
:10555000000000000000000000000000000000004B
:10556000000000000000000000000000000000003B
:10557000000000000000000000000000000000002B
:10558000000000000000000000000000000000001B
:105590000000000000000000000FF800007FFF0086
:1055A00000F00780018000C00300006002000020BE
:1055B000020000200200002003000060018000C003
:1055C00000E00380007FFF00000FF80000000000F3
:1055D00000000000000000000000000000000000CB
:1055E00000000000000000000000000000000000BB
:1055F00000000000000000000000000000000000AB
:10560000000000000000000000000000000000009A
:1056100000000000000000000000000000800020EA
:1056200000800020008000200080006001FFFFE07B
:1056300003FFFFE0000000600000002000000020E9
:10564000000000200000000000000000000000003A
:10565000000000000000000000000000000000004A
:10566000000000000000000000000000000000003A
:10567000000000000000000000000000000000002A
:10568000000000000000000000000000000000001A
:105690000000000000000000007800E000980160B9
:1056A0000100026002000460020008600200106055
:1056B00002002060020040600300806001830060FF
:1056C00001FE00E0007C07800000000000000000F8
:1056D00000000000000000000000000000000000CA
:1056E00000000000000000000000000000000000BA
:1056F00000000000000000000000000000000000AA
:105700000000000000000000000000000000000099
:10571000000000000000000000F0078001F007C05A
:1057200001000040020000200201002002010020D0
:1057300002010020030380200186804001FCC0C0DC
:1057400000787F8000001E000000000000000000C4
:105750000000000000000000000000000000000049
:105760000000000000000000000000000000000039
:105770000000000000000000000000000000000029
:105780000000000000000000000000000000000019
:105790000000000000000800000038000000480081
:1057A0000001880000060800000C081000300810F6
:1057B0000040081001FFFFF003FFFFF003FFFFF0C0
:1057C0000000081000000810000008100000000091
:1057D00000000000000000000000000000000000C9
:1057E00000000000000000000000000000000000B9
:1057F00000000000000000000000000000000000A9
:105800000000000000000000000000000000000098
:10581000000000000000000000000780001F86401C
:1058200003E1002003020020030400200304002001
:10583000030400200304002003060040030301C00A
:105840000301FF8003007E00000000000000000054
:105850000000000000000000000000000000000048
:105860000000000000000000000000000000000038
:105870000000000000000000000000000000000028
:105880000000000000000000000000000000000018
:1058900000000000000000000007FC00003FFF00C7
:1058A0000070C380008180C00101006003020020FD
:1058B0000202002002020020020200200203004037
:1058C00001C180C000C0FF8000007E000000000019
:1058D00000000000000000000000000000000000C8
:1058E00000000000000000000000000000000000B8
:1058F00000000000000000000000000000000000A8
:105900000000000000000000000000000000000097
:10591000000000000000000000F0000003C00000D4
:105920000380000003000000030007E003003FE0E5
:105930000301C0000306000003180000036000001C
:1059400003800000030000000000000000000000D1
:105950000000000000000000000000000000000047
:105960000000000000000000000000000000000037
:105970000000000000000000000000000000000027
:105980000000000000000000000000000000000017
:105990000000000000001F0000783F8000FC60C095
:1059A000018EC040030780200203002002018020F6
:1059B000020180200201C0200301E040018670C086
:1059C00000FC3F8000781F00000000000000000085
:1059D00000000000000000000000000000000000C7
:1059E00000000000000000000000000000000000B7
:1059F00000000000000000000000000000000000A7
:105A00000000000000000000000000000000000096
:105A100000000000003F000000FF81C001C0C1C0C5
:105A2000010060200200202002002020020020202F
:105A300002002060020040C00100C18000C18F0050
:105A4000007FFE00001FF0000000000000000000CA
:105A50000000000000000000000000000000000046
:105A60000000000000000000000000000000000036
:105A70000000000000000000000000000000000026
:105A80000000000000000000000000000000000016
:105A90000000000000000000000000000000000006
:105AA0000000000000000000000300C0000781E0CB
:105AB000000781E0000300C00000000000000000BB
:105AC00000000000000000000000000000000000D6
:105AD00000000000000000000000000000000000C6
