:020000040800F2
:1000000040420020C1010008993100087F26000805
:1000100095310008650D00089D3F000800000000B4
:10002000000000000000000000000000D7310008C0
:10003000D50D000800000000D5310008E5330008A8
:10004000DB010008DB010008DB010008DB01000820
:10005000DB010008DB010008DB010008DB01000810
:10006000DB010008DB010008DB010008DB01000800
:10007000DB010008DB010008DB010008DB010008F0
:10008000DB010008DB010008DB010008DB010008E0
:10009000DB010008DB010008DB010008DB010008D0
:1000A000DB010008DB010008DB010008DB010008C0
:1000B0001D3500085935000895350008DB0100089A
:1000C000DB010008DB010008DB010008DB010008A0
:1000D000DB010008553E0008DB010008E13E000896
:1000E000DB010008DB010008DB010008DB01000880
:1000F000DB010008DB010008DB010008DB01000870
:10010000DB010008DB010008DB010008DB0100085F
:10011000DB010008DB010008DB010008DB0100084F
:10012000DB010008DB010008DB010008DB0100083F
:10013000DB010008DB010008DB010008DB0100082F
:10014000DB010008DB010008DB010008DB0100081F
:10015000DB010008DB010008DB010008DB0100080F
:10016000DB010008DB010008DB010008DB010008FF
:10017000DB010008DB010008DB01000800000000D3
:10018000DB010008DB010008DB010008DB010008DF
:10019000DB010008DB010008DB010008DB010008CF
:1001A000DB010008DB010008DB010008DFF80CD0F0
:1001B00000F046FB004800470D5000084042002078
:1001C0000648804706480047FEE7FEE7FEE7FEE7F1
:1001D000FEE7FEE7FEE7FEE7FEE7FEE7B9340008CC
:1001E000AD01000840EA01039B0703D009E008C9FC
:1001F000121F08C0042AFAD203E011F8013B00F8EC
:10020000013B521EF9D27047D2B201E000F8012B37
:10021000491EFBD270470022F6E710B513460A4686
:1002200004461946FFF7F0FF204610BD30B50546DD
:100230002A460B4612F8010B13F8014B08B1A042F5
:10024000F8D01CB1002802D06D1CF1E7284630BD63
:10025000421C10F8011B0029FBD1801A70472DE9C0
:10026000FE4F804681EA0300C00F0C46009021F04B
:10027000004123F00045B8EB0200A94105D24046F9
:10028000214690461C460B46024623F00040104390
:1002900047D0270DC7F30A00C3F30A510290401A52
:1002A000019040286BDAC3F3130040F4801B0098E0
:1002B000924620B10023D2EB030A63EB0B0B0198AB
:1002C0005946C0F14002504600F0D4F906460D46AA
:1002D00050465946019A00F0DCF910EB08006141E4
:1002E000002487EA115284EAE7731A4340D0009A47
:1002F00062B3019A012A4FEA075215DC001B61EB39
:1003000002014FF0004202EA0752CDE90042001C10
:1003100041F5801132462B4600F013FA03B0BDE8D8
:10032000F08F40462146F9E7001B61EB0201001CFB
:1003300041F5801300185B412018A2F5001747EB28
:10034000030140EAD570B6196D4111E06D084FEA1E
:10035000360645EAC0754FEA0752001B61EB020101
:10036000001C41F5801149084FEA30000019514145
:1003700032462B4603B0BDE8F04F00F0D3B90098E9
:10038000012240000023D0EB020263EBE0730098EF
:1003900021464FEAE074B8EB000061EB0401E9E7A5
:1003A00083F000435BE781F0004158E72DE9FE4F01
:1003B00081EA030404F0004421F0004100944FF06E
:1003C000000B23F0004350EA01045ED052EA03041C
:1003D0005BD0C3F30A54C1F30A552C44A4F2F3349E
:1003E0000194A0FB0254C1F3130141F48011C3F343
:1003F000130343F4801301FB024400FB034E840A01
:10040000970A44EA815447EA8357A4FB0768029598
:100410008D0A05FB07854FEA932C04FB0C54270536
:10042000029D4FEA065847EA1637B5EB08056EEB12
:10043000070C870E920E47EA811742EA8312A7FB48
:100440000201B6EB0B0164EB00042B0D43EA0C3305
:100450005E1844EB1C50DA465146E7FB0201C5F337
:1004600013044FEA0B3343EA14534FEA0432019C5E
:1004700043EA0603A4F10C040294009CCDE900B405
:1004800000F05FF903B0BDE8F08F00200146F9E706
:100490002DE9F04D81EA030404F0004B21F0004502
:1004A00014464FF0000A23F0004150EA050220D024
:1004B00054EA01021DD0C5F30A570246C5F31303DF
:1004C000C1F31300C1F30A5640F4801543F48013BE
:1004D000A7EB0608101BD64608F2FD3873EB0500A3
:1004E00002D308F1010801E092185B41B8F1000F56
:1004F00003DA00200146BDE8F08D00204FF48011A2
:10050000064684460EE0171B73EB050705D3121B46
:1005100063EB050306434CEA010C49084FEA30003F
:1005200092185B4150EA0107EDD152EA030012D064
:1005300082EA040083EA0501084305D0101BAB41A1
:1005400006D20122002306E000224FF0004302E021
:100550006FF0010253101AEB06004CEB085110EB40
:100560000A0041EB0B01BDE8F04D00F0DBB80EB521
:1005700040F2334102910021CDE900110A460B46B9
:1005800000F0DFF803B000BD00F0004230F00040A2
:100590000AD0C10D01F56071C0F3160042EA0151A5
:1005A000C20840071143704700200146704701F020
:1005B000004330B421F0004150EA010206D00A0D98
:1005C000A2F56072C1F31301002A02DC30BC0020E6
:1005D0007047440F44EAC104C100E01830BC00EB8E
:1005E000C25000F068B830B50B460146002020220A
:1005F000012409E021FA02F59D4205D303FA02F530
:10060000491B04FA02F52844151EA2F10102F1DC8F
:1006100030BD2DE9F05F0546002092469B46884696
:100620000646814640241BE028464146474622466E
:1006300000F018F953465A46C01A914110D311469A
:100640001846224600F016F82D1A67EB01084F46AF
:1006500022460120002100F00DF817EB00094E4161
:10066000201EA4F10104DFDC484631462A464346F9
:10067000BDE8F09F202A04DB203A00FA02F10020B6
:1006800070479140C2F1200320FA03F319439040D0
:100690007047202A06DBCB17203A41FA02F043EAE2
:1006A000E07306E041FA02F3D040C2F1200291402B
:1006B0000843194670470029A8BF7047401C4900ED
:1006C00008BF20F00100704710B4B0FA80FC00FAB7
:1006D0000CF050EA010404BF10BC704749B1CCF1E2
:1006E000200421FA04F411FA0CF118BF012121436E
:1006F0000843A3EB0C01CB1D4FEA00614FEA102029
:1007000042BF002010BC704700EBC35010440029CA
:10071000A4BF10BC7047401C490008BF20F0010076
:1007200010BC704710B5141E73F1000408DA401CA9
:1007300041F1000192185B411A4301D120F0010000
:1007400010BD2DE9F04D92469B4611B1B1FA81F2F0
:1007500002E0B0FA80F220329046FFF78BFF0446A9
:100760000F4640EA0A0041EA0B0153465A46084345
:1007700013D0114653EA010019D0C8F14002504687
:1007800000F070F805460E46504659464246FFF7BF
:1007900071FF084305D0012004E020463946BDE83A
:1007A000F08D0020054346EAE0762C4337430A9853
:1007B0006305E40AA0EB08000022FD0A44EA47545E
:1007C0000A3002D500200146E9E701051019694108
:1007D000DDE9084500196941BDE8F04DA2E7C1F324
:1007E0000A52C1F3130140F2FF3341F480119A42DF
:1007F00002DA00200146704740F233439A42A2F2E7
:10080000334202DC524200F02DB8FFF733BF000044
:1008100030B5041E71F1000404DB4FF00044404287
:1008200064EB0101141E73F1000405DB1C464FF05C
:100830000043524263EB0403994208BF904230BD2B
:10084000064C074D06E0E06840F0010394E807001D
:1008500098471034AC42F6D3FFF7ACFC9C7200080A
:10086000BC720008202A04DB203A21FA02F00021A1
:10087000704721FA02F3D040C2F1200291400843B0
:10088000194670475A49096821F44031594AC2F85B
:1008900004131146D1F8041342681143544A1160FD
:1008A0000168496821F480710268516001684A68F2
:1008B000016942EA0121026851600168496821F03A
:1008C000407102685160016849688268114302689A
:1008D00051600168896821F40061026891600168D3
:1008E0008968C268114302689160434A816A9142F3
:1008F00018D00168896821F0706102689160016810
:100900008968826A1143026891600168896821F0F0
:1009100040510268916001688968C26A11430268A7
:1009200091600BE00168896821F070610268916054
:100930000168896821F04051026891600168896806
:1009400021F002010268916001688A68816942EAC7
:10095000410102689160016AD1B10168496841F4BE
:100960000061026851600168496821F460410268D1
:10097000516001684A68416A491E4FF4604393FA26
:10098000A3F3B3FA83F399400A4301684A6005E090
:100990000168496821F40061026851600168C96A10
:1009A00021F470010268D1620168CA6A818B491E14
:1009B00042EA01510268D1620168896821F400713C
:1009C0000268916001688A68016B42EA412102680D
:1009D00091600168896821F4806102689160016812
:1009E0008A68416942EA812102689160704700008B
:1009F00004230140002001400100000F10B50D4804
:100A00000D4908604FF48030486000210A48816039
:100A1000C1600161416181610121C1610021016207
:100A20004162064981620021C162016300F0DEFA81
:100A300010BD000000200140840000200100000FD4
:100A400008B508208DF8000000208DF801006B46E5
:100A50000222BE21382002F0E5FB08BD70B5032458
:100A600003251AE00325282004F092FA07E00A2063
:100A700004F08EFAFFF7E4FFC82004F089FA00F0D2
:100A80001FF818B9681EC0B2051EF0D105B108E004
:100A900000F063F8C82004F07BFA601EC0B2041EA8
:100AA000E0D100BF24B1C82004F072FA002070BD6C
:100AB0000120FCE710B500F046F80446E00910BD3F
:100AC00010B500F040F80446C4F3C00010BD7CB57A
:100AD00005460426002400F048F800BF4B2004F02F
:100AE00057FAFFF7E7FF18B1701EC0B2061EF5D126
:100AF0003EB3052004F04CFA6B46062271213820E3
:100B000002F06AFB00249DF80100204304029DF8D6
:100B10000200204304029DF80300044324092C60D2
:100B200000249DF80300204304029DF804002043A4
:100B300004029DF805000443C4F313046C60002014
:100B40007CBD0120FCE708B56B46012271213820ED
:100B500002F042FB9DF8000008BD08B56B4600227C
:100B6000BA21382002F05EFB08BD08B533208DF8AD
:100B7000000000208DF801006B460222AC213820D5
:100B800002F050FB08BD000010B5A2B08022002189
:100B90002E48FFF739FB2EA22FA12C4803F064FD4D
:100BA0002A48FFF755FB3649086080220021354866
:100BB000FFF72AFB34A326A236A1324803F054FDE6
:100BC0003048FFF745FB354908608022002102A824
:100BD000FFF71AFB2CA01EA31DA231A1009002A8B2
:100BE00003F042FD02A8FFF733FB0446202035A3A3
:100BF0003D4A2146009002A804F000FD3A48FFF764
:100C000027FB3A490860802200213948FFF7FCFAA7
:100C10001DA238A1364803F027FD40F25B703F4922
:100C200008600846324902683DA003F00DFD0749FF
:100C300040A003F009FD134942A003F005FD2A4935
:100C400044A003F001FD22B010BD0000CC30002014
:100C5000443030310000000025737C736563757289
:100C6000656D6F64653D332C7369676E6D6574687F
:100C70006F643D686D6163736861317C00000000E2
:100C8000400000204C3100206131354534504C6526
:100C900046733600257326257300000044000020AB
:100CA000636C69656E744964257364657669636510
:100CB0004E616D65257370726F647563744B6579F1
:100CC00025730000626330396564396363383635F3
:100CD00039386164353535376335393961633939C8
:100CE0006139366600000000CC3100204800002049
:100CF0004C32002025732E696F742D61732D6D7138
:100D000074742E636E2D7368616E676861692E61FD
:100D10006C6979756E63732E636F6D004C000020F3
:100D2000B7FE20CEF120C6F7A3BA25733A25640D8D
:100D30000A000000BFCDBBA7B6CB4944A3BA2573B8
:100D40000D0A0000D3C320BBA720C3FBA3BA2573A1
:100D50000D0A0000C3DC20202020C2EBA3BA2573BB
:100D60000D0A000000BFFEE770B505460C4622469E
:100D7000294615480068801CFFF734FA2046E11721
:100D800004EB1161090A104A12681170E11704EBB3
:100D900011610912A4EB01210B4A12685170002164
:100DA00009480268A01C11540748006800F500704B
:100DB000054908600846006804490968884202D16C
:100DC00003480149086070BD340000203C00002049
:100DD000CC20002070472DE9F04107460C46002545
:100DE000002608E0384600F00DF80544052004F020
:100DF000CFF8701CC6B2A642F4DBB5FBF4F080B2AB
:100E0000BDE8F0811FB50446052C0BD100940120EC
:100E1000019007200290002003906946094800F0E5
:100E200013F800E000BF00BF064800F0DBF90A211C
:100E3000044800F079F9034800F0D4F880B204B017
:100E400010BD00008400002018B50246002000906C
:100E500000BF92F83C00012801D1022018BD0120FA
:100E600082F83C0000BF0868092816D91068C068DD
:100E70000B780A3B03EB43040723A3409843136812
:100E8000D8600B780A3B03EB4303886898401368EB
:100E9000DB6818431368D86013E0106800690B78AA
:100EA00003EB43040723A3409843136818610B78AE
:100EB00003EB43038868984013681B691843136861
:100EC00018614868072817D21068406B0B795B1EC1
:100ED00003EB83041F23A3409843136858630888D7
:100EE00080B20B795B1E03EB8303984013685B6B46
:100EF00018431368586331E048680D2817D210680A
:100F0000006B0B79DB1F03EB83041F23A340984383
:100F100013681863088880B20B79DB1F03EB830327
:100F2000984013681B6B18431368186316E0106829
:100F3000C06A0B790D3B03EB83041F23A340984346
:100F40001368D862088880B20B790D3B03EB8303EA
:100F500098401368DB6A18431368D8621C4B10680A
:100F6000984208D10868122805D11A48006840F450
:100F70008000C3F80403164B1068984220D1164B2A
:100F80000868984202D00868112819D111480068F1
:100F900040F400000F4B18600F4B086898420FD1C7
:100FA0000E4800680E4BB0FBF3F000EB80004000F1
:100FB000009002E00098401E009000980028F9D1AF
:100FC00000BF002082F83C0000BF00BF46E70000E1
:100FD0000020014004230140120000100000002006
:100FE00040420F0001460868C06C704770B5044667
:100FF00000250CB9012070BD1549A06A884200D0B7
:1010000000BF206C30B90020606484F83C002046AA
:1010100000F020F8206C00F0100088B9206C20F45B
:10102000885040F0020020642046FFF72BFC00208F
:101030006064206C20F0020040F00100206400E0B9
:10104000012500BF002084F83C0000BF2846D2E7FD
:101050000100000F10B586B0044600BF00200090CC
:101060002D48006840F480702B49086008460068ED
:1010700000F48070009000BF00BF00BF002000900F
:1010800025481438006840F00100234914390860ED
:101090000846006800F00100009000BF00BF00BFDC
:1010A000002000900846006840F0020008600846F2
:1010B000006800F00200009000BF00BF00BF0020E9
:1010C00000900846006840F0040008600846006888
:1010D00000F00400009000BF00BFFF20019003203B
:1010E00002900020039001A90C4800F0F9F80320B9
:1010F000019002900020039001A9094800F0F0F847
:101100003F200190032002900020039001A9054890
:1011100000F0E6F806B010BD44380240000002407E
:10112000000402400008024070B504460D46002647
:101130002068806800F4806078B12068806800F4DE
:10114000807050B1206C40F02000206400BF00206F
:1011500084F83C0000BF012070BD00F0D5F90646C0
:1011600012E0681C80B125B100F0CEF9801BA842C6
:101170000AD9206C40F00400206400BF002084F8ED
:101180003C0000BF0320E7E72068006800F0020091
:101190000228E6D16FF0120021680860206C40F44C
:1011A000007020642068806800F04050B8B9A069E1
:1011B000A8B92068C06A00F4700020B12068806877
:1011C00000F4806058B9206C20F480702064206C9A
:1011D00000F4805018B9206C40F001002064002019
:1011E000BAE7000008B501460020009000BF91F862
:1011F0003C00012801D1022008BD012081F83C00FB
:1012000000BF0868806800F00100A0B90868806825
:1012100040F001000A6890602D4800682D4AB0FB3C
:10122000F2F000EB4000009002E00098401E0090B9
:1012300000980028F9D10868806800F001000028B3
:1012400044D0086C40F20162904340F4807008641E
:101250000868406800F4806028B1086C20F40050F1
:1012600040F480500864086C00F4805020B1486C51
:1012700020F00600486401E00020486400BF002020
:1012800081F83C0000BFC01E0A6810601248006868
:1012900000F01F0058B90868806800F04050A8B9F5
:1012A0000868806840F080400A6890600EE00B4A51
:1012B000086890420AD10868806800F0405028B958
:1012C0000868806840F080400A689060002093E7DA
:1012D0000000002040420F00042301400020014094
:1012E000F8B502460B460025002400200021E6E068
:1012F000012606FA01F51E6806EA0504AC4273D120
:101300005E68022E02D05E68122E13D1CF0802F161
:10131000200656F827004E07F70E0F26BE40B043B2
:101320004F07FF0E1E69BE403043CF0802F1200672
:1013300046F8270010684F000326BE40B0431E79D0
:1013400006F003064F00BE40304310605E68012E79
:1013500008D05E68022E05D05E68112E02D05E684D
:10136000122E13D190684F000326BE40B0434F00A9
:10137000DE68BE4030439060506801268E40B04326
:101380001E79C6F300168E4030435060D0684F007F
:101390000326BE40B0434F009E68BE403043D0603D
:1013A0005E6806F08056B6F1805FA8D100BF0026C7
:1013B0000096454E366846F48046434F3E603E46B2
:1013C000366806F48046009600BF00BF3F4E8F0887
:1013D00056F827008E07370F0F26BE40B0433C4E0D
:1013E000B24202D100262EE068E03A4EB24201D16C
:1013F000012628E0384EB24201D1022623E0374EC2
:10140000B24201D103261EE0354EB24201D104267C
:1014100019E0344EB24201D1052614E0324EB242F8
:1014200001D106260FE0314EB24201D107260AE073
:101430002F4EB24201D1082605E02E4EB24201D114
:10144000092600E00A268F073F0FBE4030431F4E9B
:101450008F0846F82700284E3068A0435E6806F4DF
:101460008036B6F5803F00D12043234E3060361DD4
:101470003068A0435E6806F40036B6F5003F00D140
:1014800020431D4E361D3060361D3068A0435E6817
:1014900006F48016B6F5801F00D12043164E08369C
:1014A0003060361D3068A0435E6806F40016B6F55D
:1014B000001F00D12043104E0C363060491C10290B
:1014C000FFF416AFF8BD0000443802400838014070
:1014D000000002400004024000080240000C0240EC
:1014E000001002400014024000180240001C02409C
:1014F0000020024000240240003C01400AB181610A
:1015000001E00B04836170470148006870470000E8
:101510001400002002480068401C01490860704720
:101520001400002010B50D48006840F400700B490D
:1015300008600846006840F480600860084600685B
:1015400040F480700860052000F068F80F2000F07B
:1015500007F800F017F8002010BD0000003C024022
:1015600070B5044600F092F94FF47A71B0FBF1F5D2
:10157000284600F00FFC00222146501E00F010F813
:10158000002070BD704700BF00F01F020121914094
:101590004209920002F1E022C2F8001100BF704738
:1015A0002DE9F05F80460D461646002701F0F6FD56
:1015B000074639462A46334601F00700C0F1070ABC
:1015C000BAF1040F02D94FF0040A01E0C0F1070A92
:1015D000D14600F1040ABAF1070F02D24FF0000A17
:1015E00001E0A0F1030AD4464FF0010A0AFA09FA11
:1015F000AAF1010A0AEA020A0AFA0CFA4FF0010BF0
:101600000BFA0CFBABF1010B0BEA030B4AEA0B04E0
:101610002146404601F0CAFDBDE8F09F00BF00F042
:101620000702064B19684FF6FF031940044B0B43A2
:1016300043EA0221014B196000BF70470CED00E046
:101640000000FA0538B5002400BF002000902348B0
:10165000006840F08050214908600846006800F0AA
:101660008050009000BF00BF0120010491FAA1F159
:10167000B1FA81F11A4A42F82100FFF745FF04460A
:1016800007E0FFF741FF001BB0F57A7F01D9032087
:1016900038BD1448406800F48030B0F5803FF0D188
:1016A0000120410491FAA1F1B1FA81F10C4A42F80A
:1016B0002100FFF729FF044607E0FFF725FF001B85
:1016C000B0F57A7F01D90320E2E70648406800F4CC
:1016D0000030B0F5003FF0D10020D9E7403802409B
:1016E00000000E420070004070B504460D46002612
:1016F0006448006800F00F00A84209D261490D70EB
:101700000846006800F00F00A84201D0012070BD1B
:10171000207800F00200022807D15B48006820F022
:10172000F000A168084358490860207800F00100E3
:10173000002877D06068012807D15348083800682E
:10174000C0F34040B8B90120E1E76068022802D048
:101750006068032807D14C4808380068C0F340602F
:1017600048B90120D3E7484808380068C0F3400072
:1017700008B90120CBE74448006820F00300616805
:10178000084341490860FFF7BFFE0646606801282C
:1017900010D108E0FFF7B8FE801B41F28831884283
:1017A00001D90320B3E73848006800F00C00042892
:1017B000F0D137E06068022810D108E0FFF7A4FEFE
:1017C000801B41F28831884201D903209FE72E48CF
:1017D000006800F00C000828F0D123E060680328BE
:1017E00010D108E0FFF790FE801B41F2883188425B
:1017F00001D903208BE72448006800F00C0003287F
:10180000F0D10FE008E0FFF77FFE801B41F2883146
:10181000884201D903207AE71B48006800F00C00D9
:101820000028F0D11748006800F00F00A84209D93D
:1018300014490D700846006800F00F00A84201D05E
:10184000012064E7207800F00400042807D10E4846
:10185000006820F4E050E16808430B4908602078F4
:1018600000F00800082808D10748006820F460400C
:10187000216940EAC100044908600F20FFF770FEAB
:10188000002044E7003C02400838024010B500F058
:1018900045F80949096801F0F001F02292FAA2F234
:1018A000B2FA82F2D140054A515CC840044908604E
:1018B0000846006810BD000008380240A07100080A
:1018C0000000002010B5FFF7E1FF0749096801F4A7
:1018D000E0514FF4E05292FAA2F2B2FA82F2D14011
:1018E000024A515CC84010BD08380240A07100088F
:1018F00010B5FFF7CBFF0749096801F460414FF4C9
:10190000604292FAA2F2B2FA82F2D140024A515CEB
:10191000C84010BD08380240A071000870B5002111
:10192000002200230020274C246804F00C0424B17A
:10193000042C04D0082C41D103E0234840E0234884
:101940003EE0204C241F246804F03F011D4C241F5E
:10195000246804F4800484B11C4CB4FBF1F5194CE8
:10196000241F246847F6C076344096FAA6F6B6FAE5
:1019700086F6F44005FB04F20FE0134CB4FBF1F5DE
:10198000104C241F246847F6C076344096FAA6F619
:10199000B6FA86F6F44005FB04F20A4C241F2468CC
:1019A00004F440344FF4403595FAA5F5B5FA85F5C1
:1019B000EC40641C6300B2FBF3F001E0024800BF9E
:1019C00000BF70BD083802400024F40040787D015B
:1019D00038B504460025207800F00100002848D0E2
:1019E000DE48006800F00C0004280DD0DB480068D9
:1019F00000F00C00082811D1D848001F006800F43E
:101A00008000B0F5800F09D1D44808380068C0F3D1
:101A1000404070B3606860BB012038BD2079CF4979
:101A2000891F0870606890B1FFF76EFD054606E0FB
:101A3000FFF76AFD401B642801D90320EDE7C74882
:101A400008380068C0F340400028F1D011E0FFF7EB
:101A50005BFD054606E0FFF757FD401B642801D9F2
:101A60000320DAE7BD4808380068C0F3404000288A
:101A7000F1D1207800F00200022869D1B74800684F
:101A800000F00C0058B1B548006800F00C000828C0
:101A900021D1B248001F006800F48000D8B9AF48D7
:101AA00008380068C0F3400020B1E068012801D088
:101AB0000120B2E7A9480838006820F0F800F822B1
:101AC00092FAA2F2B2FA82F2216991400843A34944
:101AD000083908603CE0E06828B30120A0490860AC
:101AE000FFF712FD054606E0FFF70EFD401B02283A
:101AF00001D9032091E7994808380068C0F34000F5
:101B00000028F1D095480838006820F0F800F82245
:101B100092FAA2F2B2FA82F22169914008438F4907
:101B20000839086014E000208D490860FFF7ECFCDC
:101B3000054606E0FFF7E8FC401B022801D9032018
:101B40006BE7864808380068C0F340000028F1D1F0
:101B5000207800F0080008282CD16069A8B1012085
:101B600080490860FFF7D0FC054606E0FFF7CCFC93
:101B7000401B022801D903204FE778486C300068E9
:101B8000C0F340000028F1D014E00020754908603F
:101B9000FFF7BAFC054606E0FFF7B6FC401B02283B
:101BA00001D9032039E76D486C300068C0F340006C
:101BB0000028F1D1207800F00400042857D100BF9C
:101BC0000020009065483830006840F0805063493C
:101BD000383108600846006800F08050009000BF6F
:101BE00000BF6148006840F480705F490860FFF7FB
:101BF0008BFC054606E0FFF787FC401B022801D955
:101C000003200AE75848006800F480700028F2D0EA
:101C1000207A524968310870A068A0B1FFF774FCBF
:101C2000054608E0FFF770FC401B41F2883188420E
:101C300001D90320F1E6494868300068C0F340004C
:101C40000028EFD013E0FFF75FFC054608E0FFF740
:101C50005BFC401B41F28831884201D90320DCE65D
:101C60003E4868300068C0F340000028EFD1A0690A
:101C7000F0B33A48006800F00C00082869D0A06969
:101C8000022850D1002036490866FFF73DFC054682
:101C900006E0FFF739FC401B022801D90320BCE60F
:101CA0002E4808380068C0F340600028F1D1D4E91C
:101CB0000701084347F6C07292FAA2F2B2FA82F222
:101CC000616A914008430122A16AC2EB51014FF4BD
:101CD000403292FAA2F2B2FA82F2914008434FF0F7
:101CE000706292FAA2F2B2FA82F2E16A914000E0E6
:101CF00031E008431949091F0860012018490866A6
:101D0000FFF702FC054606E0FFF7FEFB401B02283A
:101D100001D9032081E6114808380068C0F340600B
:101D20000028F1D017E000200D490866FFF7ECFB12
:101D3000054606E0FFF7E8FB401B022801D9032017
:101D40006BE6064808380068C0F340600028F1D10F
:101D500001E0012061E600205FE600000838024053
:101D600000004742800E474200700040042808D11E
:101D70004FF0E021096941F004014FF0E0221161C8
:101D800007E04FF0E021096921F004014FF0E02263
:101D90001161704770B504462546681EB0F1807F1A
:101DA00001D301200FE0681E4FF0E02148610F21B0
:101DB0004FF0FF3001F0FAF900204FF0E021886188
:101DC00007200861002070BD7047704710B50446B9
:101DD0000CB9012010BD94F8390028B9002084F80E
:101DE0003800204600F00CF8022084F83900211D4C
:101DF000206801F005FC012084F839000020E9E7A3
:101E000038B504462068B0F1804F17D100BF0020DC
:101E100000902748006840F0010025490860084606
:101E2000006800F00100009000BF00BF0122022105
:101E30001C20FFF7B5FB1C20FFF7A5FB1D49206800
:101E4000884217D100BF002000901948006840F078
:101E50000200174908600846006800F00200009080
:101E600000BF00BF012202211D20FFF799FB1D20AA
:101E7000FFF789FB10492068884217D100BF002076
:101E800000900B48006840F00400094908600846CB
:101E9000006800F00400009000BF00BF0022012194
:101EA0001E20FFF77DFB1E20FFF76DFB38BD0000F5
:101EB0004038024000040040000800400146086825
:101EC000C06840F001000A68D0600868006840F00F
:101ED00001000A68106000207047704710B5044682
:101EE00020680069C0F34000D8B12068C068C0F322
:101EF0004000B0B16FF00200216808610120207637
:101F00002068806900F0030018B12046FFF7E5FF64
:101F100005E0204600F0ADF8204600F0ABF80020C8
:101F2000207620680069C0F38000D8B12068C068BE
:101F3000C0F38000B0B16FF0040021680861022096
:101F400020762068806900F4407018B12046FFF7C1
:101F5000C4FF05E0204600F08CF8204600F08AF827
:101F60000020207620680069C0F3C000D8B1206846
:101F7000C068C0F3C000B0B16FF00800216808610C
:101F8000042020762068C06900F0030018B12046C4
:101F9000FFF7A3FF05E0204600F06BF8204600F0B5
:101FA00069F80020207620680069C0F30010D8B1DD
:101FB0002068C068C0F30010B0B16FF01000216855
:101FC0000861082020762068C06900F4407018B1CC
:101FD0002046FFF782FF05E0204600F04AF8204641
:101FE00000F048F8002020762068006900F0010029
:101FF00058B12068C06800F0010030B16FF00100F6
:1020000021680861204600F037F820680069C0F3B5
:10201000C01058B12068C068C0F3C01030B16FF074
:102020008000216808612046FFF7CEFE2068006925
:10203000C0F3801058B12068C068C0F3801030B180
:102040006FF0400021680861204600F0D5F8206854
:102050000069C0F3401058B12068C068C0F3401058
:1020600030B16FF02000216808612046FFF7ADFE17
:1020700010BD70477047000010B5044654488442B4
:102080000BD10068C06800F0010030B101F02AFBFC
:102090006FF001004E49096808614E48844245D1FD
:1020A0000068C06800F0010000283FD04A4800786E
:1020B000062830D2DFE800F003060F10111400F0FC
:1020C00041FF28E042F2273144F61F6001F04CFA4C
:1020D00000F038FF1FE000BF00BF00F033FF1AE040
:1020E00000203E49087000BF3A480068006A41F28B
:1020F0001111084068B937480068006A8910084023
:1021000038B934480068006820F001003149096896
:10211000086000BF00BF00BF2F480078401C2E4958
:1021200008706FF001002B49096808612C4884424F
:102130004CD10068C06800F00100002846D0294852
:102140002949026829480068801CFEF74BF8254899
:102150000088000A25490968087022480078234948
:10216000096848702148006800F500701F49086040
:10217000084600681E490968884202D11D481B496B
:10218000086000201749086012490968486200BFCA
:1021900013480068006A41F21111084068B91048FC
:1021A0000068006A8910084038B90D480068006866
:1021B00020F001000A490968086000BF00200849B2
:1021C00009684862801E06490968086110BD000060
:1021D000CC340020083500205C0000205D00002089
:1021E0004435002064000020403600201C00002000
:1021F00024000020CC0000207047704701460022D8
:10220000002391F8392091F83A3042EA03007047F0
:10221000F8B50446002500262068006800F0010596
:102220002068C06800F480767DB176B100BF0020E0
:10223000009020680068009020684068009000BF0F
:1022400000BFE06B40F00100E06320680068C0F36D
:1022500040052068406900F001067DB176B100BFFD
:10226000002000902068006800902068406800907E
:1022700000BF00BFE06B40F00400E063206800682E
:10228000C0F380052068406900F001067DB176B199
:1022900000BF00200090206800680090206840681F
:1022A000009000BF00BFE06B40F00200E0632068D8
:1022B0000068C0F3C0052068406900F001067DB1E8
:1022C00076B100BF00200090206800680090206870
:1022D0004068009000BF00BFE06B40F00800E06382
:1022E00020680068C0F340152068C06800F0200630
:1022F0001DB116B1204601F0EFFA20680068C0F366
:10230000C0152068C06800F080061DB116B12046D7
:1023100001F0EAFC20680068C0F380152068C068FE
:1023200000F040061DB116B1204601F0C5FAE06B81
:1023300038B1202084F8390084F83A002046FFF7AD
:102340005CFFF8BD10B504460CB9012010BDA069B2
:1023500000B100E000BF94F8390028B9002084F8EB
:102360003800204600F028F8242084F8390020683E
:10237000C06820F400502168C860204601F000FBCE
:102380002068006920F49040216808612068406955
:1023900020F02A00216848612068C06840F400509D
:1023A0002168C8600020E063202084F8390084F8A8
:1023B0003A000020CAE7000010B586B004463E4946
:1023C0002068884238D100BF002000903B48006858
:1023D00040F00100394908600846006800F001003B
:1023E000009000BF00BF00BF0020009033481430B1
:1023F000006840F010003149143108600846006858
:1024000000F01000009000BF00BF4FF4C0600190CA
:1024100002200290012003900220049007200590E2
:1024200001A92748FEF75CFF2520FFF7ACF803223F
:1024300011462520FFF7B4F822492068884238D198
:1024400000BF002000901D48006840F002001B49BA
:1024500008600846006800F00200009000BF00BF5E
:1024600000BF0020009015481030006840F4802024
:102470001249103108600846006800F4802000907E
:1024800000BF00BF4FF44060019002200290012085
:102490000390022004900720059001A90A48FEF746
:1024A0001FFF2720FFF76FF8022203212720FFF7E5
:1024B00077F806B010BD000000100140303802402F
:1024C00000000240004800400004024010B50346EE
:1024D00093F83A0020282FD101B10AB9012010BD8C
:1024E00000BF93F83800012801D10220F7E701204E
:1024F00083F8380000BF99629A85DA850020D86396
:10250000222083F83A001868C06840F480701C6884
:10251000E0601868406940F001001C68606100BF1D
:10252000002083F8380000BF1868C06840F0200021
:102530001C68E0600020D2E70220D0E710B5044616
:1025400018492068884213D14FF47A730122164942
:10255000164800F031F800BF144800680068C0F366
:1025600080100028F8D06FF040001049096808601A
:102570000F492068884213D14FF47A7301220A4927
:102580000C4800F019F800BF084800680068C0F364
:1025900080100028F8D06FF04000044909680860F6
:1025A00010BD0000001001406000002080350020B8
:1025B00000440040C03500202DE9F04104460D469E
:1025C0001646984694F83900202855D105B116B919
:1025D0000120BDE8F08100BF94F83800012801D146
:1025E0000220F6E7012084F8380000BF0020E063F5
:1025F000212084F83900A684E68428E0E08C401E7F
:10260000E084A068B0F5805F14D1434600228021A9
:10261000204601F09DFB08B10320DAE72F463888F9
:10262000C0F3080021684860206908B9AD1C0EE0BD
:102630006D1C0CE0434600228021204601F088FBFF
:1026400008B10320C5E715F8010B21684860E08C4C
:102650000028D3D1434600224021204601F078FBD8
:1026600008B10320B5E7202084F8390000BF00201E
:1026700084F8380000BFACE70220AAE7704700BF2B
:10268000FEE7000010B500200F4908600F48006801
:1026900020F440600D4908600846006840F48060FE
:1026A000086000200A49C1F89402022002F07CFC74
:1026B000012005490860022002F076FC0020044950
:1026C000C1F8900210BD000090824342001C0240FD
:1026D0000080434200B587B000BF00200190104841
:1026E000006840F080000E4908600846006800F06D
:1026F0008000019000BF00BF3020029001200390B5
:1027000004900220059002A90648FEF7E9FD012089
:10271000054908600549C1F8900207B000BD0000F6
:1027200030380240001C0240948243420080434201
:1027300010B500200F4908600F48006820F4406081
:102740000D4908600846006840F480600860012078
:102750000A49C1F89402022002F026FC0120054932
:102760000860022002F020FC00200449C1F8900219
:1027700010BD000090824342001C02400080434292
:1027800070B5054600241648006820F440601449DE
:102790000860084600680860002616E0002011491D
:1027A0000860022002F000FC01200F49C1F89002ED
:1027B0006006040E0B487C38006808B1601CC4B287
:1027C000012002F0F1FB701CC6B2082EE6DB15B941
:1027D000FFF7AEFF01E0FFF755FF204670BD000098
:1027E000001C0240908243420080434270B5044680
:1027F0001548006820F440601349086008460068E6
:1028000040F480600860002010490860002517E04F
:10281000E0090E49091D08606006040E022002F05E
:10282000C3FB01200A49C1F89002022002F0BCFB60
:10283000002006490860022002F0B6FB681CC5B201
:10284000082DE5DB70BD0000001C02409082434271
:102850000080434210B50F48006820F440600D49E5
:1028600008600846006840F48060086001200A495A
:1028700008600A49C1F89002042002F095FB00208C
:1028800005490860042002F08FFB00200349C1F8CD
:10289000900210BD001C02409482434200804342DB
:1028A00010B50F48006820F440600D4908600846E4
:1028B000006840F48060086000200A4908600A4906
:1028C000C1F89402042002F06FFB01200549086062
:1028D000042002F069FB01200349C1F8940210BDF5
:1028E000001C0240908243420080434210B5002405
:1028F0001348006820F440601149086008460068E9
:10290000086001200F49086002F04EFB01200E49CB
:10291000C1F8900202F048FB07E0601CC4B2FA2C38
:1029200003DDFFF7BDFF012010BD064880380068B9
:102930000028F2D10349091F086000BFF4E7000036
:10294000001C0240948243420080434200B587B09D
:1029500000BF002001903048006840F001002E497F
:1029600008600846006800F00100019000BF00BF49
:1029700000BF002001900846006840F00400086095
:102980000846006800F00400019000BF00BF00BFCF
:10299000002001900846006840F08000086008466A
:1029A000006800F08000019000BF00BF00BF002061
:1029B00001900846006840F0800008600846006802
:1029C00000F08000019000BF00BF012002900020B5
:1029D0000390022004900320059002A90F48FEF7FF
:1029E0007FFC4FF4005002900020039001200490DF
:1029F0000320059002A90A48FEF772FC0820029005
:102A000002A90848FEF76CFC0420029002A90548C0
:102A1000FEF766FC07B000BD3038024000000240FF
:102A200000080240001C024000B587B000BF002033
:102A300001901048006840F002000E490860084606
:102A4000006800F00200019000BF00BF0320029068
:102A50000120039004900320059002A90648FEF788
:102A60003FFC0120054908600549C1F8800207B014
:102A700000BD000030380240000402408482404221
:102A80000080404213481449086008460068134912
:102A90000860134813490860134814490860084641
:102AA0000068134908601348134908601348144923
:102AB0000860084600681349086013481349086015
:102AC000002013490870134908701349087013490E
:102AD00008707047CC0000201C000020200000205F
:102AE000CC0E002024000020CC1000202800002064
:102AF0002C000020CC1E002030000020CC20002024
:102B00003400002038000020CC2E00203C000020A3
:102B10005D0000205F0000205E0000205C000020BF
:102B200010B52A4800682A490968884240D02848D8
:102B3000006826490860084600682649884204D192
:102B400001F500602149086023E02048016822481F
:102B5000814204D100F500601C49086019E01B485F
:102B600001681E48814204D100F5006017490860E1
:102B70000FE016480068A0F5007014490860084688
:102B80000068A0F50070086008460068A0F50070B5
:102B900008600F4804680D4800680D49086000F09F
:102BA0003FF800210EA000F051FA0948046005E04A
:102BB00000F036F800210AA000F048FA002015497C
:102BC0000870154908701549087010BD2C000020C8
:102BD00028000020CC100020CC120020CC140020B3
:102BE0002F7379732F6131354534504C65467336F8
:102BF0002F443030312F7468696E672F7365727699
:102C00006963652F70726F70657274792F73657464
:102C1000000000005F0000205E0000205C0000203B
:102C200070B501207A4908600A207A4908607A481C
:102C30000068001D794909680844801C78490968C2
:102C400008447849086073480068096844181020EF
:102C50007549087000BF2046E11704EB5161C911A6
:102C6000A4EBC115E11704EB5161CC11002C01DD7F
:102C700045F080056C48664A1268855464480068CF
:102C8000401C63490860002CE5DC0021664A60486E
:102C90000068115404215E480068401C11544D2105
:102CA0005B480068801C1154512159480068C01CC1
:102CB0001154542156480068001D115454480068AE
:102CC000401D1154042152480068801D1154C22136
:102CD0004F480068C01D115400214D48006808305D
:102CE000115464214A480068093011544A4908685F
:102CF000C11700EB1161C1F307224B4B444909682E
:102D00000A315A5444490868C11700EB116109128D
:102D1000A0EB0121CAB23E4909680B315A541A4648
:102D20003B4909680C3150183B490A683F49FDF797
:102D300059FA3A490868C11700EB1161C1F307223B
:102D4000334909680C31344B1B681944364B5A54CB
:102D500032490868C11700EB11610912A0EB01218B
:102D6000CAB22B4909680D312B4B1B6819442E4BF5
:102D70005A54274909680E31274A126811441A46E5
:102D8000881826490A682A49FDF72CFA2449086858
:102D9000C11700EB1161C1F307221D4909680E310B
:102DA0001D4B1B6819441D4B1B6819441E4B5A547C
:102DB0001B490868C11700EB11610912A0EB012142
:102DC000CAB2134909680F31134B1B681944134BDE
:102DD0001B681944144B5A540D49096810310E4AA6
:102DE000126811440D4A126811441A4688180C4999
:102DF0000A681049FDF7F6F905480068054A1268A7
:102E00001044084A12688118074800F023FD70BD7D
:102E1000500000205400002040000020440000200A
:102E20004800002058000020CC320020CC30002088
:102E30004C310020CC3100202DE9F04FADF5057D5F
:102E4000804698F8011098F8000001EB002084906B
:102E500008F1020700208146054606468346012404
:102E60004FF0010A00BF0BF1010B00BF281917F842
:102E7000009009F07F0000FB0A664FEACA1A641C42
:102E800009F080000028F1D13019054431198498E7
:102E9000401A84900124A246002684980028E2D19A
:102EA000594621A001F0D0FB00200546064600BF90
:102EB00000BF809030E000BF281917F8009009F09B
:102EC0007F0000FB0A664FEACA1A641C09F0800002
:102ED0000028F1D1601C2844395C6019385C01EB92
:102EE0000020801C83908398301A8290291983983F
:102EF00008448190819839186846829AFDF772F9E2
:102F000068468299FDF730FF301905440124A24636
:102F100000268098401C809080985845CBDB0DF5AA
:102F2000057DBDE8F08F0000B1BEB4CEBDD3CAD5DB
:102F3000C1CB2564B8F6CDC6CBCDCAFDBEDD0D0A2A
:102F40000000000010B5C02004490870002048703F
:102F50000221024800F07EFC10BD0000CC320020AF
:102F60002DE9F0470546884616460120334908609A
:102F70002846FDF76DF9801C31490860314806602C
:102F8000084600682F490968441830202E49087007
:102F900000BF2046E11704EB5161C911A4EBC11732
:102FA000E11704EB5161CC11002C01DD47F08007E3
:102FB0002548224A1268875420480068401C1F494F
:102FC0000860002CE5DC2846FDF742F9C0F3072134
:102FD0001D4A1A48006811542846FDF739F9C1B254
:102FE000194A16480068401C11542846FDF730F96C
:102FF0008146154A11490968891C50184A462946D4
:10300000FDF7F0F82846FDF723F90C490968891CFB
:1030100008440D4900EB0109324641464846FDF798
:10302000E1F806480068064A12681044054A12682A
:103030008118054800F00EFCBDE8F0875000002024
:103040005400002058000020CC32002070B5044607
:103050000D4602201F4908601F4908602046FDF701
:10306000F7F8C01C1D49086082201D4908701A48E5
:1030700000781A4909780844194948700020887076
:103080000120C8702046FDF7E3F8000A14490871D2
:103090002046FDF7DDF8124948712046FDF7D8F8C3
:1030A0000646324621460E48801DFDF79BF8204615
:1030B000FDF7CEF8801D0A490D5406480068064AFF
:1030C00012681044054A12688118054800F0C2FBD6
:1030D00070BD000050000020540000205800002067
:1030E000CC32002010B586B000BF002000902548EB
:1030F000006840F00200234908600846006800F0BC
:103100000200009000BF00BF00BF002000900846F2
:10311000006840F0080008600846006800F00800F9
:10312000009000BF00BF58200190012002900020B5
:1031300003900320049001A91348FEF7D1F84FF43F
:103140000060019001200290002003900320049071
:1031500001A90E48FEF7C4F800224FF400610B48A5
:10316000FEF7CCF9002408E0094830F8240081B2C9
:1031700001220548FEF7C2F9641C032CF4DB06B0FB
:1031800010BD00003038024000040240000C024034
:10319000B071000800BFFEE77047000002480068F9
:1031A000C0F30220704700000CED00E010B50028CD
:1031B00007DA0A07140E054A00F00F031B1FD45448
:1031C00003E00A07130E024A135410BD18ED00E085
:1031D00000E400E0704770472DE9F04106460F46D5
:1031E00014461D46FFF736FB012101EB4601C8B22C
:1031F000FFF7FCFAFFF77AFB0DE0012C04D1002069
:10320000FFF7BEFA287003E00120FFF7B9FA287033
:10321000601EC4B26D1C002CEFD1FFF741FB0020F3
:10322000BDE8F0812DE9F04105460E461746984667
:10323000FFF710FB002141EA4501C8B2FFF7D6FABB
:10324000FFF754FB20B1FFF72BFB0120BDE8F08115
:103250003046FFF7CBFAFFF749FB00240CE018F8E3
:103260000400FFF7C3FAFFF741FB18B1FFF718FBA3
:103270000120EBE7601CC4B2BC42F0DBFFF710FB9F
:103280000020E3E710B52DED088B04466068FDF7DC
:103290006EF941EC1A0B9FED3E0B53EC102BFDF732
:1032A00085F841EC190B9FED3C0B53EC102BFDF70F
:1032B000EFF841EC180BFDF77AF9E060A068FDF734
:1032C00056F941EC1B0B9FED360B53EC102BFDF721
:1032D0006DF841EC1A0B9FED300B53EC102BFDF702
:1032E000D7F841EC190B9FED300B53EC102BFDF789
:1032F00057F841EC180BFDF75AF9206194ED030AD9
:1033000010EE101A0846FDF73FF941EC180B53EC8C
:10331000182B27A001F098F994ED040A10EE101A6A
:103320000846FDF731F941EC180B53EC182B25A09A
:1033300001F08AF927A001F087F994ED030AB5EEB0
:10334000C00AF1EE10FA1FDB94ED030ADFED220A4A
:10335000B4EEE00AF1EE10FA16D894ED040ADFEDAF
:103360001F0AB4EEE00AF1EE10FA0DDB94ED040A48
:10337000DFED1B0AB4EEE00AF1EE10FA04D80020EB
:103380006070BDEC088B10BD0120607000BFF8E7D5
:103390000000000000005940000000000000304123
:1033A00000000000000069400000000000004940EB
:1033B00048756D69646974793A252E316625250D45
:1033C0000A00000054656D70657261747572653A2B
:1033D000252E31660D0A00000000C842000020C200
:1033E0000000AA4210B5FEF795F810BD10B50446CE
:1033F0000420FEF7BBFC0148046010BD68000020FB
:103400002DE9F04192B080460D4616461F46002435
:1034100000BF002000902648006840F080502449FA
:1034200008600846006800F08050009000BF00BFB0
:1034300000BF002000901F48006840F440401D4934
:1034400008600846006800F44040009000BF00BFDC
:1034500001200690079002200C9041050D91CDF8B7
:1034600038800F951096119706A8FEF7B1FA04461A
:103470000CB100BFFEE7FEF7E5F804460CB100BF53
:10348000FEE70F20019002200290002003904FF4ED
:10349000A05004904FF480500590052101A8FEF73C
:1034A00023F904460CB100BFFEE712B0BDE8F0817D
:1034B00040380240007000401448006840F470003A
:1034C000124908601248006840F001001049086085
:1034D00000200F49083108600D4800680D49084078
:1034E0000B4908600C48091D0860081F006820F49B
:1034F0008020091F0860002005490C3108604FF04A
:1035000000600249803908607047000088ED00E0E3
:1035100000380240FFFFF6FE1030002410B50248CC
:10352000FEF7DCFC10BD0000CC34002070B5054671
:103530000C464FF08040074908600846446000216F
:103540008160C5600161FEF741FC0248FEF7B6FCF0
:1035500070BD0000CC34002010B50248FEF7BEFC60
:1035600010BD00000835002070B505460C46074820
:10357000074908600846446000218160C560016118
:10358000FEF724FC0248FEF799FC70BD00040040E1
:103590000835002010B50248FEF7A0FC10BD000061
:1035A0004435002070B505460C46134813490860A1
:1035B0000846446000218160C5600161FEF706FC99
:1035C0000E48FEF77BFC00BF0C480068006A41F221
:1035D0001111084068B909480068006A891008405C
:1035E00038B906480068006820F0010003490968FE
:1035F000086000BF70BD0000000800404435002096
:10360000002202682C4B98420ED0B0F1804F0BD0B4
:103610002A4B984208D02A4B984205D0294B984211
:1036200002D0294B984201D1012300E000231BB1B5
:1036300022F070024B681A431F4B984220D0B0F121
:10364000804F1DD01D4B98421AD01D4B984217D069
:103650001C4B984214D01C4B984211D01B4B9842E3
:103660000ED01B4B98420BD01A4B984208D01A4BE5
:10367000984205D0194B984202D0194B984201D17B
:10368000012300E000231BB122F44072CB681A43EF
:1036900002608B68C3620B688362074B984202D05A
:1036A000094B984201D1012300E000230BB10B69C3
:1036B00003630123436170470000014000040040A0
:1036C00000080040000C00400004014000400140A0
:1036D000004401400048014000180040001C004028
:1036E0000020004010B52DED0A8BD0B000204E9088
:1036F0004F909FED410A8DED4D0A9FED3F0A8DEDF4
:103700004C0A01F0FFFEC8210520FDF764FB00EE26
:10371000100AB8EE400A8DED440A9DED440A10EE01
:10372000101A0846FCF730FF41EC1A0B9FED330BE3
:1037300053EC102BFCF73AFE41EC190B9FED310BCB
:1037400053EC102BFCF732FE41EC180B53EC182B0A
:103750002EA000F079FF3148007840B12F48001DBD
:10376000FDF7B5F92D4948700846FFF78BFD9DED33
:10377000440A10EE101A0846FCF706FF41EC1C0B39
:103780009FED1E0B53EC102BFCF710FE41EC1B0BB6
:103790009FED1C0B53EC102BFCF708FE41EC180BB3
:1037A0001E4890ED040A10EE101A0846FCF7ECFED5
:1037B00041EC190B194890ED030A10EE101A084657
:1037C000FCF7E2FE41EC1A0B8DED028B8DED009BB8
:1037D00053EC1A2B124904A800F046FF04A8FCF78A
:1037E00037FD0446224604A90EA0FFF7B9FB50B0EE
:1037F000BDEC0A8B10BD0000000000006666666626
:1038000066664A3F0000000000002440566F6C745A
:103810006167653D25332E33665600007000002039
:10382000107200082F7379732F6131354534504C75
:10383000654673362F443030312F7468696E672FB8
:103840006576656E742F70726F70657274792F7003
:103850006F73740070B505460C462246294613481E
:103860000068801CFCF7BEFC2046E11704EB1161E8
:10387000090A0E4A12681170E11704EB116109126E
:10388000A4EB0121094A126851700848006800F54C
:1038900000700649086008460068054909688842C2
:1038A00002D104480149086070BD000028000020D2
:1038B00030000020CC10002010B504462068C068FD
:1038C00020F040002168C860202084F8390020469C
:1038D000FEF7D4FE002010BD70B5044694F83A00FF
:1038E00022284AD1A068B0F5805F13D1A56A20696B
:1038F00040B920684068C0F308002880A06A801C96
:10390000A06219E020684068C0B22880A06A401C0C
:10391000A06211E0206938B920684068C1B2A26A8B
:10392000501CA062117007E02068406800F07F0121
:10393000A26A501CA0621170E08D401E80B2E0852A
:10394000C8B92068C06820F020002168C8602068DD
:10395000C06820F480702168C8602068406920F049
:10396000010021684861202084F83A002046FEF7D3
:10397000E5FD002070BD0020FCE70220FAE7000012
:103980002DE9F041044600252068056925F44055DD
:10399000E0680543206805612068C56849F20C604D
:1039A00085432169A068084361690843E1690843C8
:1039B00005432068C5602068456925F44075A06905
:1039C000054320684561E069B0F5004F7ED1C449E8
:1039D0002068884203D0C349206888425DD1FDF742
:1039E00087FF00EBC00101EB001061684900B0FBEC
:1039F000F1F06421B0FBF1F00601FDF779FF00EB77
:103A0000C00101EB001061684900B0FBF1F7FDF760
:103A10006FFF00EBC00101EB001061684900B0FBD3
:103A2000F1F06421B0FBF1F000EBC00101EB0010FC
:103A3000A7EB8000322101EBC0006421B0FBF1F064
:103A400000F0F80006EB4006FDF752FF00EBC00166
:103A500001EB001061684900B0FBF1F7FDF748FF8A
:103A600000EBC00101EB001061684900B0FBF1F010
:103A70006421B0FBF1F000EBC00101EB0010A7EBFB
:103A80008000322101EBC0006421B0FBF1F000F0B6
:103A9000070030442168886020E1FDF713FF00EB48
:103AA000C00101EB001061684900B0FBF1F0642136
:103AB000B0FBF1F00601FDF705FF00EBC00101EBE3
:103AC000001061684900B0FBF1F700E045E0FDF748
:103AD000F9FE00EBC00101EB001061684900B0FB8A
:103AE000F1F06421B0FBF1F000EBC00101EB00103C
:103AF000A7EB8000322101EBC0006421B0FBF1F0A4
:103B000000F0F80006EB4006FDF7DCFE00EBC0011C
:103B100001EB001061684900B0FBF1F7FDF7D2FE40
:103B200000EBC00101EB001061684900B0FBF1F04F
:103B30006421B0FBF1F000EBC00101EB0010A7EB3A
:103B40008000322101EBC0006421B0FBF1F000F0F5
:103B50000700304421688860C0E0614920688842DD
:103B600003D06049206888425CD1FDF7C1FE00EBBC
:103B7000C00101EB001061688900B0FBF1F6FDF7B0
:103B8000B7FE00EBC00101EB001061688900B0FBDB
:103B9000F1F06421B0FBF1F000EBC00101EB00108B
:103BA000A6EB8000322101EB00106421B0FBF1F0A4
:103BB00000F0F006FDF79CFE00EBC00101EB0010E9
:103BC00061688900B0FBF1F06421B0FBF1F006EB15
:103BD0000016FDF78DFE00EBC00101EB00106168DF
:103BE0008900B0FBF1F7FDF783FE00EBC00101EBAC
:103BF000001061688900B0FBF1F06421B0FBF1F0C6
:103C000000EBC00101EB0010A7EB8000322101EBBB
:103C100000106421B0FBF1F000F00F003044216887
:103C200088605BE0FDF74EFE00EBC00101EB001089
:103C300061688900B0FBF1F6FDF744FE00EBC001BE
:103C400001EB001061688900B0FBF1F06421B0FB6A
:103C5000F1F000EBC00101EB0010A6EB8000322177
:103C600001EB00106421B0FBF1F000F0F006FDF76D
:103C700029FE00EBC00101EB001061688900B0FB78
:103C8000F1F06421B0FBF1F006EB0016FDF71AFE2F
:103C900000EBC00101EB001061688900B0FBF1F797
:103CA000FDF710FE00EBC00101EB00106168890018
:103CB000B0FBF1F06421B0FBF1F000EBC00101EBCF
:103CC0000010A7EB8000322101EB00106421B0FB53
:103CD000F1F000F00F00304421688860BDE8F08109
:103CE0000010014000140140014691F839002128DC
:103CF0002CD18868B0F5805F0FD10A6A1088C0F3B4
:103D000008000B685860086918B9086A801C0862C6
:103D100009E0086A401C086205E00B6A581C08624A
:103D200018780B685860C88C401E80B2C88458B997
:103D30000868C06820F080000B68D8600868C06818
:103D400040F040000B68D860002070470220FCE77C
:103D50002DE9F04104460E4617461D464FF0000877
:103D6000FDF7D2FB804677BB2FE0681C60B32DB116
:103D7000FDF7CAFBA0EB0800A84226D92068C0685E
:103D800020F080002168C8602068C06820F0200012
:103D90002168C8602068C06820F480702168C8600D
:103DA0002068406920F0010021684861202084F8E3
:103DB000390084F83A0000BF002084F8380000BFC2
:103DC0000320BDE8F0810BE0FFE720680068304089
:103DD000B04201D1012000E000200028C5D037E02A
:103DE0002CE0681C50B32DB1FDF78EFBA0EB080052
:103DF000A84223D92068C06820F080002168C860EC
:103E00002068C06820F020002168C8602068C06871
:103E100020F480702168C8602068406920F00100AB
:103E200021684861202084F8390084F83A0000BFF6
:103E3000002084F8380000BF0320C2E72068006833
:103E40003040B04201D1012000E000200028C8D15C
:103E50000020B6E770B500240F4D1048FEF7D8F9E2
:103E600000BF03E0641CAC4200D904E00B48FEF73D
:103E7000C5F92028F6D100BF002403E0641CAC4241
:103E800000D906E0012206490448FEF71FFB00287E
:103E9000F4D100BF70BD0000FFFF0100803500209D
:103EA0006000002010B504460B480C490860084625
:103EB000446000218160C160016181610C21416128
:103EC000FEF740FA05480068C06840F0200003494A
:103ED0000968C86010BD0000001001408035002056
:103EE00019480068C06800F0200060B317480078E7
:103EF00070B91748006830B3154800681549164A6C
:103F00001268885414480068401C134908601AE07D
:103F10000F4800680F49104A126888540E4800681C
:103F200040B90E480068006840F001000B4909687C
:103F3000086003E0002009490968486206480068F3
:103F4000401C054908607047003600205D000020D5
:103F50000448004040360020640000204435002022
:103F600010B504460B480C4908600846446000211F
:103F70008160C160016181610C214161FEF7E2F95C
:103F800005480068C06840F0200003490968C8601F
:103F900010BD0000004800400036002000BFFEE7D2
:103FA00010B541A000F050FB322000F087FA20B19C
:103FB00041A000F049FB012010BD45A000F044FBEA
:103FC00046A000F041FB322149A000F0D7FA20B111
:103FD0004AA000F039FB0220EEE74FA000F034FBCE
:103FE0005248007800281FD151A000F02DFB32214B
:103FF00054A000F0C3FA20B156A000F025FB032026
:10400000DAE75CA000F020FB5FA000F01DFB1E20A3
:1040100000F002FA20B161A000F016FB0420CBE70B
:1040200065A000F011FB0EE068A000F00DFB1E2063
:1040300000F0DEFA20B159A000F006FB0720BBE734
:104040005DA000F001FB66A000F0FEFA322168A03E
:1040500000F094FA20B16AA000F0F6FA0820ABE76D
:104060006EA000F0F1FA71A000F0EEFA322174A017
:1040700000F084FA20B175A000F0E6FA09209BE771
:104080007AA000F0E1FA7EA000F0DEFA642000F0F1
:1040900019F920B17FA000F0D7FA0A208CE784A09C
:1040A00000F0D2FA002087E7D7BCB1B8B8B4CEBBD5
:1040B000C4A3BFE90D0A0000B8B4CEBBCAA7B0DCE8
:1040C000A3ACD7BCB1B8D6D8C6F40D0A0000000026
:1040D000B8B4CEBBB3C9B9A60D0A0000D7BCB1B8FD
:1040E000C9E8D6C3535441C4A3CABD0D0A00000099
:1040F00041542B43574D4F44453D3100C9E8D6C389
:10410000535441C4A3CABDCAA7B0DCA3ACD7BCB149
:10411000B8D6D8C6F40D0A00C9E8D6C3535441C472
:10412000A3CABDB3C9B9A60D0A000000180000203B
:10413000D7BCB1B8C8A1CFFBD7D4B6AFC1ACBDD343
:104140000D0A000041542B43574155544F434F4EE5
:104150004E3D3000C8A1CFFBD7D4B6AFC1ACBDD364
:10416000CAA7B0DCA3ACD7BCB1B8D6D8C6F40D0A88
:1041700000000000C8A1CFFBD7D4B6AFC1ACBDD3FF
:10418000B3C9B9A60D0A0000D7BCB1B8C1ACBDD344
:10419000C2B7D3C9C6F70D0A00000000C1ACBDD339
:1041A000C2B7D3C9C6F7CAA7B0DCA3ACD7BCB1B8F5
:1041B000D6D8C6F40D0A0000C1ACBDD3C2B7D3C96E
:1041C000C6F7B3C9B9A60D0A00000000B5C8B4FD12
:1041D000C1ACBDD3C2B7D3C9C6F70D0A00000000F9
:1041E000D7BCB1B8C9E8D6C3CDB8B4AB0D0A00008E
:1041F00041542B4349504D4F44453D310000000090
:10420000C9E8D6C3CDB8B4ABCAA7B0DCA3ACD7BCA1
:10421000B1B8D6D8C6F40D0A00000000C9E8D6C36C
:10422000CDB8B4ABB3C9B9A60D0A0000D7BCB1B8BC
:10423000B9D8B1D5B6E0C2B7C1ACBDD30D0A000044
:1042400041542B4349504D55583D3000B9D8B1D554
:10425000B6E0C2B7C1ACBDD3CAA7B0DCA3ACD7BC73
:10426000B1B8D6D8C6F40D0A00000000B9D8B1D54F
:10427000B6E0C2B7C1ACBDD3B3C9B9A60D0A000040
:10428000D7BCB1B8C1ACBDD3B7FECEF1C6F70D0AED
:1042900000000000C1ACBDD3B7FECEF1C6F7CAA77F
:1042A000B0DCA3ACD7BCB1B8D6D8C6F40D0A0000B8
:1042B000C1ACBDD3B7FECEF1C6F7B3C9B9A60D0ADE
:1042C0000000000010B5044600202E4908604FF49D
:1042D00080612D48FBF79FFF2C482D4902682DA0D7
:1042E00001F052F91AE0642000F052FE30A1264895
:1042F000FBF79CFF00B115E02FA12348FBF796FFC9
:1043000008B1012010BD2EA11F48FBF78FFF08B197
:104310000220F7E721462FA000F096F9201EA4F115
:104320000104E0D100BF2CA000F08EF9002C01DCCC
:104330000320E7E729A000F087F900201149086071
:104340004FF480611048FBF766FF2CA001F01CF9C8
:104350000CE0642000F01CFE2CA10B48FBF766FF6C
:1043600000B107E021461BA000F06EF9201EA4F169
:104370000104EED100BF002C01DC0420C2E70020C4
:10438000C0E7000064000020403600204C00002000
:104390004C32002041542B43495053544152543D18
:1043A00022544350222C222573222C25640D0A000E
:1043B000434F4E4E45435400434C4F534544000039
:1043C000414C524541445920434F4E4E454354457C
:1043D00044000000256420000D0A0000C1ACBDD3DC
:1043E000B7FECEF1C6F7B3C9B9A6A3ACD7BCB1B876
:1043F000BDF8C8EBCDB8B4AB0D0A000041542B4357
:10440000495053454E440D0A000000000D0A4F4B21
:104410000D0A0D0A3E00000010B5044600201449A4
:1044200008604FF480611348FBF7F5FE12A215A156
:1044300015A001F0A9F80DE04FF47A7000F0A8FD86
:1044400017A10C48FBF7F2FE00B107E0214619A0C6
:1044500000F0FAF8201EA4F10104EDD100BF16A06F
:1044600000F0F2F8002C01DC012010BD0020FCE778
:1044700064000020403600203171617A30706C6D2C
:10448000000000006D69000041542B43574A415021
:104490003D222573222C222573220D0A00000000E4
:1044A0005749464920474F542049500D0A0D0A4F9D
:1044B0004B000000256420000D0A000010B50446E2
:1044C0000020134908604FF4FA7000F061FD0120EC
:1044D0001049C1F8AC020CE0642000F059FD0EA1B7
:1044E0000F48FBF7A3FE00B107E021460DA000F046
:1044F000ABF8201EA4F10104EED100BF0AA000F029
:10450000A3F8002C01DC012010BD0020FCE7000016
:10451000AC024442000044427265616479000000CC
:1045200040360020256420000D0A000000B587B049
:1045300000BF002001900E48006840F480700C49D4
:1045400008600846006800F48070019000BF00BF5A
:10455000C81402900120039004900320059002A942
:104560000448FCF7BDFE01200349086007B000BD08
:104570003038024000200240AC02444270B505468B
:104580000C460020134908604FF480611248FBF785
:1045900042FE294611A000F0F7FF0CE0642000F075
:1045A000F7FC10A10C48FBF741FE00B107E02146E3
:1045B0000DA000F049F8201EA4F10104EED100BFC7
:1045C0000AA000F041F8002C01DC012070BD0020A1
:1045D000FCE70000640000204036002025730D0A2F
:1045E000000000004F4B0000256420000D0A000071
:1045F00010B504460DE04FF47A7000F0C9FC0CA130
:104600000E48FBF713FE00B107E021460CA000F0B6
:104610001BF8201EA4F10104EDD100BF09A000F099
:1046200013F8002C01DC012010BD0020FCE7000085
:104630005749464920474F542049500040360020F2
:10464000256420000D0A00000FB4054B10B503A926
:10465000044A029800F000F910BC5DF814FB000059
:10466000F14F00086C0000200FB4084B10B504A9EE
:1046700002AA039800F0F0F8044602A9002000F016
:1046800082FC204610BC5DF814FB0000874F000838
:1046900037B514460846064B6A46214600F0DCF85A
:1046A00004466946002000F06EFC20463EBD000036
:1046B000874F000802E008C8121F08C1002AFAD17B
:1046C00070477047002001E001C1121F002AFBD192
:1046D000704700002DE9FF5F82B00021DDE9043062
:1046E000020DDDF840B0034318D044F61050A2F29A
:1046F000FF3242431514119801281FD0A5EB0B007F
:10470000401C5FEA000A4FF000064E4FDFF8389178
:10471000B046504615D5CAF1000413E011980124A3
:104720004AA3012801D16FEA0B010298119AC0E94E
:104730000031C0E9024206B0BDE8F09FCBF10000B5
:10474000DFE704460021404A491842EB0450CDE916
:10475000001012E0E00707D032463B46404649468B
:10476000FBF724FE8046894632463B4610461946F2
:10477000FBF71CFE06460F466410002CEAD1DDE96B
:104780000401DDE90023BAF1000F06DAFBF70EFEA3
:1047900042464B46FBF70AFE05E0FBF779FE424630
:1047A0004B46FBF775FE04460E460022284BFCF7ED
:1047B0002FF803D84FF0FF30014607E00022254BC9
:1047C00020463146FBF74BFDFCF709F8102409E0C1
:1047D000002C0ADB0A220023FBF71BFF039B30326D
:1047E0001A55641E50EA0102F2D1641C039AC4F106
:1047F00011031444119A012A03D0012208430DD158
:104800000AE0084304D000204FF0110B119072E72A
:10481000A3EB0B056D1E0DE05B4504DD4FF00002C0
:1048200005F1010504E003DA4FF00002A5F10105EE
:10483000002AECD002981199C0E90231C0E9004584
:1048400079E70000000014400000F03F3000000055
:104850000000F0430000E03F2DE9FF4F95B09B467C
:104860008946064600250FE2252877D100242746F1
:10487000F84A0121059400E0044316F8013F203B6B
:1048800001FA03F01042F7D130782A2811D06FF0E6
:104890002F033078A0F13002092A16D8059A44F087
:1048A000020402EB820203EB42021044761C0590E4
:1048B000EFE759F8042B0592002A03DA504244F43A
:1048C0000054059044F00204761C30782E2816D14E
:1048D00016F8010F44F004042A280DD06FF02F02BF
:1048E0003078A0F13003092B09D807EB870302EBDE
:1048F0004303C718761CF3E759F8047B761C30781D
:104900006C280FD006DC4C2817D068280DD06A28F8
:1049100014D104E0742810D07A280FD10DE044F4AB
:1049200000140AE044F4801401E044F44014727866
:10493000824202D104F58014761C761C30786628F9
:104940000BD013DC582877D009DC002875D0452817
:10495000F6D04628F4D047281AD19DE118E0632804
:1049600035D0642879D0652812D195E1702873D0AC
:1049700008DC6728F1D069286FD06E280DD06F2829
:1049800006D1B5E073282CD0752875D0782874D05E
:104990005A46179990476D1C75E1C4F302500228DE
:1049A00009D003280DD0D9F8001004280DD00D60CF
:1049B00009F1040967E1D9F80010EA17C1E90052CA
:1049C000F6E7D9F800100D80F2E70D70F0E719F85E
:1049D000041B8DF8001000208DF80100EA4601202C
:1049E00003E059F804AB4FF0FF3061074FF00001CE
:1049F00002D40DE008F101018846B9420FDA804582
:104A0000F8DB1AF808100029F4D108E008F10101D8
:104A100088468142FADB1AF808100029F6D1059879
:104A20005B46A0EB080721463846179A00F094FA37
:104A3000284400EB080507E04DE029E10DE01AF8F5
:104A4000010B5A4617999047B8F10108F7D25B4617
:104A500021463846179A13E142E00A220092C4F335
:104A600002524FF0000A022A08D059F804CB032A58
:104A70004FEAEC710AD00DE029E02AE009F10701C4
:104A800021F00702F2E802C1914609E00FFA8CFC1E
:104A90004FEAEC71042A03D14FFA8CFC4FEAEC7117
:104AA000002907DA0A460021DCF1000C61EB020163
:104AB0002D2202E0220504D52B228DF804200122AC
:104AC00003E0E20701D02022F7E7904659E00A21EF
:104AD00002E010220DE010214FF0000A00910BE0DF
:104AE00010224FF0000A44F004040827009203E06B
:104AF00008224FF0000A0092C4F30252022A05D0A5
:104B000059F804CB0021032A08D009E009F1070174
:104B100021F00702F2E802C1914605E01FFA8CFC81
:104B2000042A01D10CF0FF0C4FF00008220728D511
:104B3000702806D0009B83F0100353EA0A0305D0C7
:104B40000EE040228DF80420012208E05CEA010218
:104B500006D030228DF804208DF805000222904600
:104B6000009B83F0080353EA0A030AD15CEA0102BE
:104B700001D1620705D530228DF804204FF00108DD
:104B80007F1E582804D034A003900EA802900DE098
:104B900036A0F9E753466046009AFBF73AFD844693
:104BA0000398825C0298401E029002705CEA010049
:104BB000F0D1029806A9081A00F1200A600702D570
:104BC00024F4803400E00127574502DDA7EB0A00FA
:104BD00000E0002000EB0A01009005984144401AD3
:104BE0000590E00306D45B462146179A059800F02D
:104BF000B3F90544002706E001A85A46C05D17999D
:104C000090476D1C7F1C4745F6DBE0030CD55B46E7
:104C10002146179A059800F09FF9054404E03020DA
:104C20005A46179990476D1C0099481E009000291C
:104C3000F5DC08E0029802995A460078491C029176
:104C4000179990476D1CBAF10001AAF1010AF1DC35
:104C500065E1000009280100303132333435363740
:104C600038396162636465660000000030313233B8
:104C70003435363738394142434445460000000058
:104C800000F058F90544761C307800287FF4ECAD2C
:104C900019B02846BDE8F08F620700D4062709F155
:104CA000070222F0070CFCE80223E14603F000486B
:104CB0005FEA080C02D00FF2702C0DE05FEA045C92
:104CC00002D50FF2682C07E05FEAC47C02D00FF235
:104CD000602C01E0AFF2700C4FF0FF3823F000437E
:104CE000CDF850C065280CD006DC452809D04628F0
:104CF0001DD047283DD13DE0662818D067287ED1D9
:104D000038E00021112F01DB112000E0781CCDE9F3
:104D1000000106A90EA8FFF7DDFCDDE90F010E9AE0
:104D200003910021009207F1010A04914DE04FF038
:104D300000400097CDE9011006A90EA8FFF7CAFCB4
:104D4000DDE90F0203920E9B11990022DDF80CA001
:104D50000093049211B9791C00EB010AB7EB0A0029
:104D600004D4C0F1FF3007F1010A0490AAEB070058
:104D7000019044E0012F00DA01270021112F01DD0D
:104D8000112000E03846CDE9000106A90EA8FFF782
:104D9000A1FCDDE90F010E9A03910021049100921C
:104DA000BA4621070CD40399514500DA8A46BAF174
:104DB000010F05DD009AAAF10101515C302908D0EC
:104DC000B84202DA10F1040F06DA0121CDE9011030
:104DD00015E0AAF10101E9E7002805DC0499014486
:104DE0000491AAEB000102E0411C514500DD8A4616
:104DF0000499401A401C01904FF000400290200797
:104E000004D40198504501DBCDF8048000208DF8D2
:104E10004F0002980DF14F07B0F1004F25D02B2025
:104E20000E9002984FF0020800280CDA40420290DF
:104E30002D200E9007E00A210298FBF7D4FB3031B9
:104E4000029007F8011DB8F10001A8F10108F2DC99
:104E500002980028EFD1791E0E980870307800F083
:104E6000200040F0450007F8020D12A8C01B00F119
:104E700007081498007800B1012000EB0A0101989E
:104E800001EBE07105984144401A401E0590E00393
:104E900006D45B462146179A059800F05DF8054454
:104EA0001498007818B15A46179990476D1CE00382
:104EB00024D55B462146179A059800F04DF8054425
:104EC0001CE00498002807DBDDE90301884203DDCC
:104ED0000098405C179901E0179930205A46904796
:104EE000049805F10105401C04900198401E0190B2
:104EF00004D12E205A46179990476D1CBAF1000133
:104F0000AAF1010ADDDC05E017F8010B5A461799F2
:104F100090476D1CB8F10001A8F10108F4DC5B4674
:104F20002146179A0598ABE62D0000002B000000E3
:104F3000200000002DE9F041044600251E461746DA
:104F4000880404D405E039462020B0476D1C641E57
:104F5000F9D52846BDE8F0812DE9F0410446002549
:104F60001E469046C80301D5302700E0202788045C
:104F700004D505E041463846B0476D1C641EF9D59E
:104F80002846BDE8F0810A68531C0B60107070471A
:104F900030B50446002504E04FF47A7000F004F8C0
:104FA0006D1CA542F8D330BD70B5034600224FF00A
:104FB000E02675690D4E366803FB06F44FF0E026D7
:104FC000B16910E04FF0E026B06988420BD088420A
:104FD00002D20E1A324402E02E1A0E443244014626
:104FE000A24200D300E0EDE700BF70BD68000020E2
:104FF00000BF054A126802F04002002AF9D0C2B28E
:10500000014B5A607047000000100140FCF78AFA1B
:10501000082302224FF4B4711920FEF7F1F9B420ED
:10502000FEF7E4F9FEF75EF8FDF790FC4FF4E1308F
:10503000FEF738FF4FF4E130FEF792FFFDF7F4FC86
:10504000FBF7DCFC42F227316320FEF7ABFAFFF7F7
:105050006DFAFDF717FDFBF797FDFDF73BFBFBF73F
:10506000FDFC08B9012000E00020A94908704EE1CC
:10507000A8480078012872D1A7480068A7490968A4
:1050800088422AD0A4480068807810280CD0A24812
:1050900000688078822803D1A1480078012803D0D5
:1050A000A0480078012818D19B48006881789EA00C
:1050B000FFF7CAFA9848006800F046FA9648006878
:1050C00000F5007094490860084600689A4909682C
:1050D000884202D1994890490860994800689949E6
:1050E0000968884271D098A0FFF7AEFA944800682A
:1050F000807820283CD192480068407906282FD239
:10510000DFE800F0030A11181F2692A0FFF79CFAAF
:105110000120834908702AE093A0FFF795FA002048
:105120007C49087023E09BA0FFF78EFA00207949A4
:1051300008701CE0A3A0FFF787FA002075490870EB
:1051400015E0AAA0FFF780FA0020724908700EE06F
:10515000B1A0FFF779FA00206E49087007E08AE0F5
:10516000B5A0FFF771FA00206A49087000BF57E048
:10517000734800688078902828D171480068807949
:1051800010B1012819D100E000BFB4A0FFF75CFA0C
:105190000120644908700020B34908704AF6C771BD
:1051A0004EF65F20FEF7E0F94AF6C77141F287300C
:1051B000FEF7BCF9FEF796FA06E0ACA0FFF744FA5A
:1051C00000205449087000BF2AE038E05C480068BD
:1051D0008078D02818D1ABA0FFF736FAA248007823
:1051E000012803D10020A049087019E09E480078EA
:1051F000012815DD00209C4908704AF6C7714EF65B
:105200005F20FEF7B1F90BE04D4800688078302848
:1052100006D1A0A0FFF718FA49480068FDF70CFE78
:105220004748006800F50070454908600846006876
:105230009D490968884202D19C48414908609C48C0
:1052400000689C490968884261D099480168891CB6
:1052500099A0FFF7F9F99648006800F500709449A5
:105260000860084600689749096888424FD1964807
:105270008F4908604BE095A0FFF7E6F900BF98481A
:105280000068006A41F21111084068B9944800684A
:10529000006A8910084038B991480068006820F019
:1052A00001008F490968086000BF00BF8D48006891
:1052B000006A41F21111084068B98A480068006A22
:1052C0008910084038B987480068006820F001005C
:1052D00084490968086000BF0020834908604FF4D2
:1052E00080618248FAF797FFFEF75AFE78B980A0EE
:1052F000FFF7AAF901200749087000207A490860E1
:105300004FF480617948FAF786FFFDF709FCAFE6B4
:10531000700000205D0000202C00002028000020EC
:105320005E0000205F000020B7A2CBCDCAFDBEDD2D
:105330003A307825780D0A0030000020CC1000208B
:10534000200000201C000020BDD3CAD5B5BDCAFD79
:10535000BEDD3A00434F4E4E454354B1A8CEC4B3D0
:10536000C9B9A60D0A000000C1ACBDD3D2D1BEDCC4
:10537000BEF8A3ACB2BBD6A7B3D6B5C4D0ADD2E904
:10538000B0E6B1BEA3ACD7BCB1B8D6D8C6F40D0A4E
:1053900000000000C1ACBDD3D2D1BEDCBEF8A3ACCE
:1053A000B2BBBACFB8F1B5C4BFCDBBA7B6CBB1EADB
:1053B000CAB6B7FBA3ACD7BCB1B8D6D8C6F40D0AF1
:1053C00000000000C1ACBDD3D2D1BEDCBEF8A3AC9E
:1053D000B7FECEF1B6CBB2BBBFC9D3C3A3ACD7BC6B
:1053E000B1B8D6D8C6F40D0A00000000C1ACBDD3D8
:1053F000D2D1BEDCBEF8A3ACCEDED0A7B5C4D3C339
:10540000BBA7C3FBBBF2C3DCC2EBA3ACD7BCB1B838
:10541000D6D8C6F40D0A0000C1ACBDD3D2D1BEDCD3
:10542000BEF8A3ACCEB4CADAC8A8A3ACD7BCB1B896
:10543000D6D8C6F40D0A0000C1ACBDD3D2D1BEDCB3
:10544000BEF8A3ACCEB4D6AAD7B4CCACA3ACD7BC70
:10545000B1B8D6D8C6F40D0A00000000B6A9D4C46D
:10546000B3C9B9A60D0A00005C000020B6A9D4C4D7
:10547000CAA7B0DCA3ACD7BCB1B8D6D8C6F40D0A65
:105480000000000050494E47B1A8CEC4BBD8B8B404
:105490000D0A0000B7FECEF1C6F7B5C8BCB630CDD8
:1054A000C6CBCD0D0A00000024000020CC00002057
:1054B0003800002034000020C3FCC1EE3A25730DF3
:1054C0000A0000003C000020CC200020D0E8D2AA36
:1054D000C1ACBDD3B7FECEF1C6F70D0A0000000087
:1054E00044350020083500206400002040360020AC
:1054F000BDA8C1A2544350C1ACBDD3B3C9B9A60D18
:105500000A00000070B50546002415E00120A04007
:10551000284040B10A4830F8240081B201220948ED
:10552000FBF7ECFF07E0064830F8240081B20022C8
:105530000448FBF7E3FF641C032CE7DB70BD0000AD
:10554000B07100080004024000BF0E4A126802F069
:105550004002002AF9D001210CE04A1C825C094B70
:105560001B1D1A6000BF074A126802F04002002AA1
:10557000F9D0491C4378027803EB02228A42ECDA24
:1055800070470000004800400FB438B505A80090EF
:105590001248009A0499FFF77BF8002000900F480A
:1055A000FAF756FE054600BF0D48006800F04000BF
:1055B0000028F9D000240CE00848005D0849091DC6
:1055C000086000BF0648006800F040000028F9D0DD
:1055D000641CAC42F0D338BC5DF814FB403A0020A8
:1055E00000480040014601F00F010A2902DA01F1EA
:1055F000300001E001F1570040B270472DE9F0435F
:10560000BDB00646884615461F46DDF810910EB11E
:1056100005B117B93DB0BDE8F083B9F1400F00DD29
:10562000F8E7402116A8FAF7F6FD402106A8FAF798
:10563000F2FD4A46394616A8FAF7D4FD4A463946DD
:1056400006A8FAF7CFFD00240CE016A8005D80F054
:10565000360016A9085506A8005D80F05C0006A972
:105660000855641C402CF0DB26A800F0AFF826A8F3
:1056700001F042FD402216A926A801F053FD424642
:10568000314626A801F04EFD01A926A800F02AF80F
:1056900026A800F09BF826A801F02EFD402206A9BE
:1056A00026A801F03FFD142201A926A801F03AFD29
:1056B00001A926A800F016F800240FE001A9095D51
:1056C0000811FFF78FFF05F8140001A9085DFFF727
:1056D00089FF012101EB44016854641C142CEDDBAB
:1056E00000BF97E72DE9FC4704460D462068400FB0
:1056F000616840EAC1062068C700300E8DF80000DE
:10570000300C8DF80100300A8DF80200F0B28DF8EF
:105710000300380E8DF80400380C8DF80500380AA7
:105720008DF80600F8B28DF80700207800F03F08E9
:10573000B8F1380F02D2C8F1380001E0C8F17800A2
:1057400081464A462049204601F0ECFC0822694681
:10575000204601F0E7FCA068000E2870A068000C4D
:1057600068702089000AA870207AE870E068000E4E
:105770002871E068000C6871A089000AA871207B7C
:10578000E8712069000E28722069000C6872208A76
:10579000000AA872207CE8726069000E28736069B4
:1057A000000C6873A08A000AA873207DE873A069C2
:1057B000000E2874A069000C6874208B000AA8747D
:1057C000207EE874BDE8FC87D071000810B504465F
:1057D0005C212046FAF71FFD10BD00002DE9F043C3
:1057E00090B007460E4696F800C04FEA0C6C96F84B
:1057F00001804CEA084C96F802804CEA082C96F896
:1058000003804CEA080CCDF800C096F804C04FEABB
:105810000C6C96F805804CEA084C96F806804CEA29
:10582000082C96F807804CEA080CCDF804C096F8CE
:1058300008C04FEA0C6C96F809804CEA084C96F8C0
:105840000A804CEA082C96F80B804CEA080CCDF83C
:1058500008C096F80CC04FEA0C6C96F80D804CEA24
:10586000084C96F80E804CEA082C96F80F804CEA0B
:10587000080CCDF80CC096F810C04FEA0C6C96F8E6
:1058800011804CEA084C96F812804CEA082C96F8E5
:1058900013804CEA080CCDF810C096F814C04FEAFB
:1058A0000C6C96F815804CEA084C96F816804CEA79
:1058B000082C96F817804CEA080CCDF814C096F81E
:1058C00018C04FEA0C6C96F819804CEA084C96F810
:1058D0001A804CEA082C96F81B804CEA080CCDF88C
:1058E00018C096F81CC04FEA0C6C96F81D804CEA64
:1058F000084C96F81E804CEA082C96F81F804CEA5B
:10590000080CCDF81CC096F820C04FEA0C6C96F835
:1059100021804CEA084C96F822804CEA082C96F834
:1059200023804CEA080CCDF820C096F824C04FEA3A
:105930000C6C96F825804CEA084C96F826804CEAC8
:10594000082C96F827804CEA080CCDF824C096F86D
:1059500028C04FEA0C6C96F829804CEA084C96F85F
:105960002A804CEA082C96F82B804CEA080CCDF8DB
:1059700028C096F82CC04FEA0C6C96F82D804CEAA3
:10598000084C96F82E804CEA082C96F82F804CEAAA
:10599000080CCDF82CC096F830C04FEA0C6C96F885
:1059A00031804CEA084C96F832804CEA082C96F884
:1059B00033804CEA080CCDF830C096F834C04FEA7A
:1059C0000C6C96F835804CEA084C96F836804CEA18
:1059D000082C96F837804CEA080CCDF834C096F8BD
:1059E00038C04FEA0C6C96F839804CEA084C96F8AF
:1059F0003A804CEA082C96F83B804CEA080CCDF82B
:105A000038C096F83CC04FEA0C6C96F83D804CEAE2
:105A1000084C96F83E804CEA082C96F83F804CEAF9
:105A2000080CCDF83CC0B868F9683A697B69BC6974
:105A30004FEA401C4CEAD06882EA030C0CEA010CE5
:105A40008CEA030CC444DFF8F88FC444DDF800800E
:105A5000C44464444FEA817C4CEA91014FEA441CFF
:105A60004CEAD46881EA020C0CEA000C8CEA020CC5
:105A7000C444DFF8CC8FC444DDF80480C4446344DC
:105A80004FEA807C4CEA90004FEA431C4CEAD36812
:105A900080EA010C0CEA040C8CEA010CC444DFF827
:105AA000A08FC444DDF80880C44462444FEA847C7B
:105AB0004CEA94044FEA421C4CEAD26884EA000C97
:105AC0000CEA030C8CEA000CC444DFF8748FC44465
:105AD000DDF80C80C44461444FEA837C4CEA9303B4
