:020000040800F2
:1000000038040020F9030008010400080304000874
:1000100005040008070400080904000800000000A7
:100020000000000000000000000000000B040008B9
:100030000D040008000000000F040008110400086F
:100040001304000813040008130400081304000834
:100050001304000813040008130400081304000824
:100060001304000813040008130400081304000814
:100070001304000813040008130400081304000804
:1000800013040008130400081304000813040008F4
:1000900013040008130400081304000813040008E4
:1000A00013040008130400081304000813040008D4
:1000B00013040008130400081304000813040008C4
:1000C00013040008130400081304000813040008B4
:1000D00013040008130400081304000813040008A4
:1000E000130400081304000813040008DFF80CD000
:1000F00001F02AF9004800473902000838040020BE
:100100004FF000010846474A126842F48032454BDE
:100110001A6000BF434A126802F4003001F1010185
:1001200010B9B1F5A06FF5D13E4A126812F4003F44
:1001300002D04FF0010001E04FF00000012842D151
:10014000394A126842F01002374B1A601A46126898
:1001500022F003021A601A46126842F002021A6084
:10016000304A52682F4B5A601A4652685A601A46F3
:10017000526842F480625A601A46526822F47C1235
:100180005A601A46526842F4E8125A601A461268D7
:1001900042F080721A6000BF224A126812F0007F9B
:1001A000FAD0204A526822F003021E4B5A601A46C7
:1001B000526842F002025A6000BF1A4A526802F0C6
:1001C0000C02082AF9D1704710B5FFF799FF10BD4E
:1001D00010B51448006840F0010012490860084654
:1001E0004068124900EA01000E494860084600686C
:1001F0000F4900EA01000B4908600846006820F436
:10020000802008600846406820F4FE0048604FF4F3
:100210001F008860FFF7D8FF4FF0006005490860B5
:1002200010BD000000100240002002400000FFF856
:10023000FFFFF6FE08ED00E000F012F84FF4165054
:1002400000F082F800F054FB09E000F055FB4FF499
:100250007A7000F040F84FF47A7000F03CF8F4E760
:1002600010B56FF0040000F019F92E4800682E490F
:10027000B0FBF1F02D490870084600784FF47A7110
:1002800000FB01F02A49088010BD0146274A127878
:1002900001FB02F24FF0E0235A614FF000029A6135
:1002A0001A46126942F001021A6100BF4FF0E022C3
:1002B000106910F0010F02D010F4803FF6D04FF01B
:1002C000E022126922F001024FF0E0231A614FF0A0
:1002D00000029A6170470146154A128801FB02F23A
:1002E0004FF0E0235A614FF000029A611A461269FA
:1002F00042F001021A6100BF4FF0E022106910F0D5
:10030000010F02D010F4803FF6D04FF0E0221269C6
:1003100022F001024FF0E0231A614FF000029A61CF
:10032000704700000000002000127A001400002036
:100330001600002000BF2D4A128812F0400FFAD09C
:10034000C2B22B4B1A80704710B586B004464FF0EE
:10035000010144F2040000F093FA244800F04CF943
:100360004FF40070ADF814004FF003008DF8160044
:100370004FF018008DF8170005A91E4800F0A8F8E6
:100380004FF48060ADF814004FF004008DF81700B2
:1003900005A9184800F09CF84FF025008DF80000E2
:1003A0004FF003008DF801008DF802004FF00100BE
:1003B0008DF80300684600F031F801944FF000001A
:1003C000ADF80800ADF80A00ADF80C00ADF810006B
:1003D0004FF00C00ADF80E0001A9044800F04FF9F1
:1003E0000121024800F0C8F906B010BD00380140F4
:1003F000043801400008014006488047064800478D
:10040000FEE7FEE7FEE7FEE7FEE7FEE7FEE7FEE7C4
:10041000FEE7FEE7D1010008ED00000870B54FF0DF
:1004200000010B464FF00F02C4784CB3254C2468F2
:1004300004F4E064C4F5E0644FEA1421C1F104035C
:1004400022FA01F2447804FA03F1847804EA0204FF
:1004500044EA01014FEA01111B4C0678A1550478CA
:1004600004F01F054FF0010404FA05F405784FEA83
:1004700065154FF0E02606EB8505C5F800410CE058
:10048000047804F01F054FF0010404FA05F40F4D41
:1004900006784FEA661645F8264070BD042808D154
:1004A0004FF0E021096941F004014FF0E0221161B1
:1004B00007E04FF0E021096921F004014FF0E0224C
:1004C000116170470CED00E000E400E080E100E025
:1004D0002DE9F04102464FF000052E46284603461E
:1004E0000446074691F803C00CF00F0591F803C0CD
:1004F0001CF0100F03D091F802C04CEA0505B1F8CA
:1005000000C01CF0FF0F35D014684FF000002EE043
:100510004FF0010C0CFA00F3B1F800C00CEA03062E
:100520009E4222D14FEA80034FF00F0C0CFA03F7E2
:1005300024EA070405FA03FC4CEA040491F803C01A
:10054000BCF1280F06D14FF0010C0CFA00FCC2F8E8
:1005500014C00AE091F803C0BCF1480F05D14FF078
:10056000010C0CFA00FCC2F810C000F101000828D0
:10057000CED31460B1F800C0BCF1FF0F38DD546871
:100580004FF0000031E000F1080C4FF0010808FACC
:100590000CF3B1F800C00CEA03069E4223D14FEAE7
:1005A00080034FF00F0C0CFA03F724EA070405FA56
:1005B00003FC4CEA040491F803C0BCF1280F05D1F8
:1005C00000F1080C08FA0CF8C2F8148091F803C086
:1005D000BCF1480F07D100F1080C4FF0010808FAF0
:1005E0000CF8C2F8108000F101000828CBD3546049
:1005F000BDE8F0810161704710B50446654884424A
:1006000009D10121880300F04AF900214FF480400C
:1006100000F045F932E06048844209D101214804E4
:1006200000F04CF900214FF4003000F047F925E0CC
:100630005A48844209D10121880400F03FF9002181
:100640004FF4802000F03AF918E05548844209D16F
:100650000121C80400F032F900214FF4002000F01D
:100660002DF90BE04F48844208D10121080500F024
:1006700025F900214FF4801000F020F910BD2DE97C
:10068000F04786B005460E464FF00004A24600BF74
:10069000A1462746B08900B100BF2F462C8A4CF6F0
:1006A000FF7004EA0004F08840EA04042C82AC895C
:1006B0004EF6F31004EA0004B088318940EA0100E4
:1006C000718940EA010040EA0404AC81AC8A4FF62B
:1006D000FF4004EA0004B08940EA0404AC8201A8A7
:1006E00000F062F82B48874202D1DDF810A001E04B
:1006F000DDF80CA0A88910F4004F09D00AEBCA005D
:1007000000EB0A1031684FEA4101B0FBF1F808E054
:100710000AEBCA0000EB0A1031684FEA8101B0FB16
:10072000F1F84FF06400B8FBF0F04FEA00144FEA24
:1007300014104FF0640101FB1089A88910F4004FD8
:100740000AD04FF0320000EBC900B0FBF1F000F02E
:10075000070040EA04040BE04FF0320000EB091000
:100760004FF06401B0FBF1F000F00F0040EA040428
:100770002C8106B0BDE8F08721B1828942F4005295
:10078000828105E082894DF6FF7302EA03028281CD
:10079000704700000038014000440040004800401D
:1007A000004C00400050004030B54FF000010A46B8
:1007B0000C460B46494D6D6805F00C0121B104292A
:1007C00005D0082927D105E0454D056026E0444DB8
:1007D000056023E0414D6D6805F470123F4D6D6872
:1007E00005F480344FF0020505EB924224B93D4DEB
:1007F00002FB05F505600DE0384D6D6815F4003F0E
:1008000004D0384D02FB05F5056003E0344D02FBD2
:1008100005F5056002E0324D056000BF00BF2F4DB9
:100820006D6805F0F0014FEA11112F4D6B5C056802
:1008300025FA03F54560294D6D6805F4E0614FEA3E
:100840001121294D6B5C456825FA03F58560234D20
:100850006D6805F460514FEAD121234D6B5C45680A
:1008600025FA03F5C5601D4D6D6805F440414FEA5A
:1008700091311E4D6B5CC568B5FBF3F5056130BD6C
:1008800031B1164A926942EA0002144B9A6105E0BE
:10089000124A926922EA0002104B9A61704731B104
:1008A0000E4AD26842EA00020C4BDA6005E00B4ABD
:1008B000D26822EA0002094BDA60704731B1074A78
:1008C000126942EA0002054B1A6105E0034A126907
:1008D00022EA0002014B1A6170470000001002403A
:1008E00000127A0000093D001800002028000020B6
:1008F00010B500F013F910BD2DE9FC4700F029F9FF
:10090000B82000F0F9F900F06EF900287ED1064613
:1009100000F0F2F909E0701C80B20646B0F5FA7FEB
:1009200003DB5AA000F0B4FD03E000F05CF90028FE
:10093000F1D100BF4FF0000600F00BF9B92000F034
:10094000DBF909E0701C80B20646B0F5FA7F03DBE4
:1009500052A000F09DFD03E000F045F90028F1D120
:1009600000BF012000F004FA07464FF0010000F03C
:10097000FFF980464FF0010000F0FAF905464FF00C
:10098000010000F0F5F904464FF0000000F0F0F926
:10099000814600F003F907EB08002844204400F0EA
:1009A000FF0AD14569D107EB870108EB410000F050
:1009B00069FA3E49086014F0800F0BD004F07F0103
:1009C00005EB850201EB4201484200F05BFA384931
:1009D000086007E005EB850104EB410000F052FAE6
:1009E0003349086033493148006800F075FA02D293
:1009F00030482E49086030492C48006800F062FAFF
:100A000002D22D48294908602C4900E039E02848E5
:100A1000006800F061FA02D2284825490860284998
:100A20002348006800F04EFA02D2254820490860A9
:100A300024491F48006800F0E5F91D490860214974
:100A40001A48006800F0DEF9184908601848006884
:100A500000F021FA02460B46CDE900011AA000F091
:100A600017FD1248006800F016FA02460B46CDE961
:100A700000011BA000F00CFD06E01FA000F008FD27
:100A800002E021A000F004FDBDE8FC8741636B207B
:100A90004572726F72203221210D0A0041636B2072
:100AA0004572726F72203321210D0A003000002040
:100AB0002C00002000806D440000484300001644D4
:100AC000000048C3000020410D0ACEC2B6C8CEAA1D
:100AD0003A2020252E31662020A1E60D0A000000D4
:100AE000CAAAB6C8CEAA3A2020252E3166202025D3
:100AF0002552480D0A000000435243204572726F90
:100B0000722021210D0A000053656E736F7220451B
:100B100072726F722021210D0A00000008B50121B8
:100B20000820FFF7ADFE4FF4C040ADF800004FF0D5
:100B300014008DF803004FF003008DF802006946A1
:100B4000AA48FFF7C5FC4FF4C041A848FFF752FD83
:100B500008BD10B5A648006820F07060A449086080
:100B60000846006840F0407008604FF00100A1495D
:100B70000860A149C1F8B4014FF00E00FFF785FBF2
:100B80004FF000009B4908604FF00E00FFF77DFB1F
:100B90004FF000009849C1F8B40110BD10B5944859
:100BA000006820F07060924908600846006840F0D4
:100BB000407008604FF00000904908608E49C1F80D
:100BC000B8014FF00E00FFF760FB4FF001008B49BA
:100BD00008604FF00E00FFF758FB4FF00100864908
:100BE000C1F8B80110BD10B54FF00004204683498C
:100BF00008604FF001008049C1F8B8017C480068E6
:100C000020F070607A4908600846006840F0006093
:100C100008604FF00E00FFF738FB4FF001007749F6
:100C200008604FF00E00FFF730FB0BE004F101000D
:100C3000C4B2FA2C03DDFFF7B1FF012010BD012083
:100C4000FFF723FB6E4800680028EFD16B4908606E
:100C50004FF00A00FFF719FB0020EFE710B54FF047
:100C60000000664908606248006820F070606049D2
:100C700008600846006840F0407008604FF00000CF
:100C80005D49C1F8B8014FF00F00FFF7FEFA4FF0D1
:100C900001005A4908604FF00F00FFF7F6FA4FF0D5
:100CA00000005549C1F8B40110BD10B54FF0000067
:100CB000524908604E48006820F070604C49086056
:100CC0000846006840F0407008604FF001004A4953
:100CD000C1F8B8014FF00F00FFF7D7FA4FF001004D
:100CE000464908604FF00F00FFF7CFFA4FF00000C1
:100CF0004149C1F8B40110BD70B504463C480068D4
:100D000020F070603A4908600846006840F0407082
:100D100008604FF0000039490860054621E04FF0B7
:100D2000000036490860E00904D04FF00100314965
:100D3000086003E04FF000002E4908604FEA44606D
:100D40004FEA10644FF00F00FFF79FFA4FF00100D9
:100D50002A4908604FF00F00FFF797FA05F10100EC
:100D6000C5B2082DDBDB4FF000002449086070BDE0
:100D700070B505464FF000041D48006820F0706013
:100D80001B4908600846006840F0006008604FF0AA
:100D900000061DE04FF00000184908604FF03200D7
:100DA000FFF773FA4FF001001349C1F8B4014FF097
:100DB0003200FFF76AFA4FEA44604FEA10641048C5
:100DC000006810B104F10100C4B206F10100C6B21E
:100DD000082EDFDB4FF000000849086015B9FFF767
:100DE00064FF01E0FFF73AFF204670BD000C0140B0
:100DF000040C0140B881214200802142B48121428B
:100E00003881214280EA010202F0004330B430F020
:100E1000004221F0004015D0A0B1C0F3C755C2F385
:100E2000C754C2F31601C0F31600651B41F400015C
:100E300040F400007D35814201D36D1C00E0490083
:100E4000002D02DA30BC002070474FF4000200246D
:100E5000814201D3091A144352084FEA4101F7D1E4
:100E600051B1814202D14FF0004105E002D24FF072
:100E7000010101E06FF0010104EBC55030BC1844E2
:100E800000F07BB8C10F80EAE0700844CA079623DF
:100E9000002100F07BB800F0004230F000400DD09F
:100EA000C10D01F5607142EA01510022C0F3160044
:100EB000520742EAD0024007114370470020014622
:100EC00070470000002801DBC0F10040002901DB71
:100ED000C1F1004181427047002801DBC0F10040B0
:100EE000002901DBC1F100418842704730B50B4653
:100EF000014600202022012409E021FA02F59D424A
:100F000005D303FA02F5491B04FA02F52844151E1D
:100F1000A2F10102F1DC30BD2DE9F05F05460020B1
:100F200092469B4688460646814640241BE028465A
:100F300041464746224600F028FA52465B46801A50
:100F4000994110D310461946224600F00FFA2D1A87
:100F500067EB01084F4622460120002100F006FA07
:100F600017EB00094E41201EA4F10104DFDC4846C6
:100F700031462A464346BDE8F09F0029A8BF704786
:100F8000401C490008BF20F00100704710B4B0FABF
:100F900080FC00FA0CF050EA010404BF10BC70475A
:100FA00049B1CCF1200421FA04F411FA0CF118BF74
:100FB000012121430843A3EB0C01CB1D0106000ACC
:100FC000002BBEBF002010BC704700EBC350104484
:100FD0000029A4BF10BC7047401C490008BF20F086
:100FE000010010BC70472DE9FE4F074681EA03005F
:100FF000C00F0E46019021F0004123F00044B81AC2
:10100000A14105D23846314617461E460B460246D8
:1010100023F00040104304D13846314603B0BDE808
:10102000F08F350DC5F30A00C3F30A510290401A40
:101030000090402867DAC3F3130040F4801B019846
:10104000924620B10023D2EB030A63EB0B0B00980E
:101050005946C0F14002504600F088F980460C46DF
:1010600050465946009A00F0A0F9C0197141EF1797
:1010700085EA11533B433FD0019A4AB3009A012AB3
:1010800011DC0022801A4FF0004361EB055103EAA6
:1010900005538018CDE9002341F5801142462346CF
:1010A00000F0A2F9BAE72E050025401B61EB06010E
:1010B000401941F58012001852412818A6F5001376
:1010C00043EB020140EAD47018EB0808644113E0D6
:1010D00064084FEA38084FF0000244EAC0744FEA4F
:1010E0000553801A61EB0301801841F5801149080E
:1010F0004FEA3000801859414246234603B0BDE80C
:10110000F04F00F064B90198012240000023D0EBB9
:10111000020263EBE07301984FEAE074381A66EB61
:101120000401EBE783F000435DE781F000415AE7FB
:101130002DE9FE4F81EA030421F0004504F000444C
:1011400023F000414FF0000A009450EA050302D05A
:1011500052EA010304D10020014603B0BDE8F08F3C
:10116000C1F30A53C5F30A541C44A0FB02B3C5F3F0
:10117000130545F4801CC1F3130141F480180CFBE6
:10118000023300FB083EA4F2F334810A930A41EAD9
:101190008C5143EA88530194A1FB03474FEA9C25F5
:1011A00005FB03734FEA982601FB06373D0526052C
:1011B00045EA1435BBEB06016EEB0503850E920E76
:1011C00045EA8C1542EA8812A5FB0206261E67EB4B
:1011D00000070C0D44EA0334A61947EB1350C1F382
:1011E00013044FF000031946E5FB02014FEA0333F5
:1011F00043EA14534FEA0432019C43EA0603A4F184
:101200000C040294009CCDE900A400F0EDF8A4E7E2
:101210002DE9F04D81EA030404F0004B21F0004772
:1012200014464FF0000A23F0004150EA070220D094
:1012300054EA01021DD0C1F30A550246C1F313005E
:10124000C7F30A56C7F3130340F4801143F4801325
:10125000A6EB0508101BD64608F2FD3873EB01001B
:1012600002D308F1010801E092185B41B8F1000FC8
:1012700003DA00200146BDE8F08D00204FF4801510
:10128000064607460EE0B2EB040C73EB010C04D3E8
:10129000121B064363EB01032F436D084FEA300036
:1012A00092185B4150EA050CEDD152EA030012D0CE
:1012B00082EA040083EA0105284303D100224FF0AB
:1012C000004308E0101B8B4102D20122002302E000
:1012D0006FF0010253101AEB060047EB085110EBB8
:1012E0000A0041EB0B01BDE8F04D00F070B8C1F30E
:1012F0000A52C1F3130140F2FF3341F480119A42C4
:1013000002DA00200146704740F233439A42A2F2CB
:10131000334202DC524200F038B800F027B8000037
:1013200030B5002904DB4FF00044404264EB01017A
:10133000002B04DB4FF00044524264EB030399425C
:1013400008BF904230BD0000064C074D06E0E06843
:1013500040F0010394E8070098471034AC42F6D3FC
:10136000FEF7C8FE781D0008981D0008202A04DB3F
:10137000203A00FA02F1002070479140C2F12003A8
:1013800020FA03F3194390407047202A04DB203AE7
:1013900021FA02F00021704721FA02F3D040C2F195
:1013A00020029140084319467047202A06DBCB17DC
:1013B000203A41FA02F043EAE07306E041FA02F310
:1013C000D040C2F12002914008431946704710B541
:1013D000002B08DA401C41F1000192185B411A43CE
:1013E00001D120F0010010BD2DE9FF4D934611B150
:1013F000B1FA81F202E0B0FA80F220329246FFF7B1
:10140000B5FF039A0746884640EA0B0011435B4646
:10141000084304D13846414604B0BDE8F08D11467A
:1014200053EA010016D0CAF140025846FFF7ADFF5B
:1014300004460D464FF00106584652460399FFF701
:1014400095FF084300D10026344345EAE67527435B
:1014500045EA08080E984FF00005A0EB0A014FEA94
:10146000D7200A314FEA47532A4640EA48504FEA0C
:10147000D82402D500200146CEE7281844EB0151BC
:10148000DDE90C45001904B06941BDE8F04D9EE767
:101490000FB4054B10B503A9044A029800F0C2F836
:1014A00010BC5DF814FB0000350300083400002078
:1014B00002E008C8121F08C1002AFAD1704770471D
:1014C000002001E001C1121F002AFBD1704700007B
:1014D0002DE9FF5FDDE90210020DDDF838B00143B0
:1014E0000FD10F9801244AA3012807D000980F9A22
:1014F000C0E90031C0E90242BDE8FF9F6FEA0B017D
:10150000F4E7A2F2FF3244F61050424315140F984C
:1015100001280FD0A5EB0B00401CB0F1000A4FF0E2
:1015200000043C4EDFF8F090A046CAF1000717DB3C
:10153000074615E0CBF10000EFE7F80707D0224699
:10154000334640464946FFF7F3FD8046894622462A
:10155000334610461946FFF7EBFD04460E467F1052
:10156000002FEAD1DDE90201BAF1000F42464B46F5
:1015700002DAFFF7DDFD01E0FFF74AFE04460E4602
:101580000022264BFFF7CCFE03D84FF0FF30014678
:1015900007E00022224B20463146FFF724FDFFF7EB
:1015A000A6FE102409E0002C0ADB0A220023FFF724
:1015B000B3FC019B30321A55641E50EA0102F2D18D
:1015C000641C019AC4F1110314440F9A012A07D034
:1015D0000122084301D15B450DDD00226D1C0DE0A9
:1015E000084303D1A3EB0B056D1E09E000204FF06B
:1015F000110B0F908BE701DA00226D1E002A86D0B6
:1016000000980F99C0E90231C0E9004574E7000075
:1016100030000000000024400000F03F0000F043D4
:101620000000E03F2DE9FF4F95B006469B468946F6
:10163000002521E2252801D01799A6E00024F949C8
:101640002746761C4FF0010A05943278203A0AFAB0
:1016500002F0084202D00443761CF6E730782A28CC
:1016600011D06FF02F023078A0F13001092916D87F
:10167000059944F0020401EB810102EB41010844A9
:10168000761C0590EFE759F8041B0591002903DA51
:10169000484244F40054059044F00204761C30782B
:1016A0002E2816D116F8010F44F004042A280DD074
:1016B0006FF02F013078A0F13002092A09D807EB2A
:1016C000870201EB42028718761CF3E759F8047B86
:1016D000761C30786C280FD006DC4C2817D0682890
:1016E0000DD06A2814D104E0742810D07A280FD1C4
:1016F0000DE044F400140AE044F4801401E044F4E2
:1017000040147178814202D1761C04F58014761C55
:1017100096F800C0BCF1660F10D01ADCBCF1580F6F
:1017200070D00CDCBCF1000F6DD0BCF1450FF3D0D4
:10173000BCF1460FF0D0BCF1470F24D1A4E1BCF1BD
:10174000630F40D0BCF1640F74D0BCF1650F1AD1A7
:101750009AE1BCF1700F6ED00CDCBCF1670FEDD0DC
:10176000BCF1690F75D0BCF16E0F12D0BCF16F0FD8
:1017700009D1B3E0BCF1730F2FD0BCF1750F76D057
:10178000BCF1780F74D0179960465A4690476D1C8B
:1017900070E1C4F30250022809D003280DD0D9F813
:1017A000001004280DD00D6009F1040962E1D9F898
:1017B0000010EA17C1E90052F6E7D9F800100D80D1
:1017C000F2E70D70F0E759F8041B8DF800100020C7
:1017D0008DF80100EA46012003E059F804AB4FF010
:1017E000FF3061074FF0000102D40FE008F1010162
:1017F0008846B94211DA8045F8DB1AF8081000294A
:10180000F4D10AE05DE03BE108F101018846814244
:10181000FADB1AF808100029F6D105985B46A0EB10
:10182000080721463846179A00F08FFA284400EB43
:10183000080506E00DE049E01AF8010B5A46179931
:101840009047B8F10108F7D25B4621463846179A0F
:101850000DE10A20C4F302524FF0000A0090022A60
:1018600007D059F8040BC117032A0AD00BE024E073
:1018700025E009F1070020F00702F2E80201914695
:1018800005E000B2C117042A01D140B2C1170029F6
:1018900006DA0A460021404261EB02012D2202E0F5
:1018A000220504D52B228DF80420012203E0E20753
:1018B00001D02022F7E7904654E00A200FE01020E4
:1018C0000DE010214FF0000A00910BE010214FF0C5
:1018D000000A44F004040827009103E008204FF0B8
:1018E000000A0090C4F30252022A05D059F8040BF2
:1018F0000021032A08D009E009F1070020F00702BF
:10190000F2E80201914605E080B20021042A01D1EB
:10191000C0B200214FF00008220723D5BCF1700FA0
:1019200029D0009B83F0100353EA0A0309D150EA3F
:10193000010206D030228DF804208DF805C0022265
:101940009046009B83F0080353EA0A030AD150EA49
:10195000010201D1620705D530228DF804204FF035
:1019600001087F1E30A2BCF1580F00D033A20392B1
:101970000EAA02920FE040228DF804200122DFE738
:101980005346009AFFF7C8FA039B9B5C029AA2F1A8
:1019900001020292137050EA0102F1D1029806A9E5
:1019A000A1EB000000F1200A600702D524F4803486
:1019B00000E0012700205146574501DDA7EB01005B
:1019C00000EB0A01009005984144A0EB010005904E
:1019D000E00306D45B462146179A059800F0B5F956
:1019E0000544002706E001A85A46C05D17999047B4
:1019F0006D1C7F1C4745F6DBE0030CD55B4621469A
:101A0000179A059800F0A1F9054404E030205A46E1
:101A1000179990476D1C0099481E00900029F5DC2D
:101A20001FE00000092801003031323334353637E9
:101A300038394142434445460000000030313233DA
:101A400034353637383961626364656600000000FA
:101A5000029802995A460078491C029117999047BA
:101A60006D1CBAF10001AAF1010AF1DC4EE100F0AF
:101A700059F9054406F10106307800287FF4DAAD03
:101A800019B02846BDE8F08F600700D4062709F199
:101A9000070020F00700F0E80228814608F0004324
:101AA0009DA0190007D19DA0210504D49CA0E107A9
:101AB00001D1AFF27C0028F000431490BCF1650F17
:101AC00011D009DCBCF1450F0DD0BCF1460F1FD081
:101AD000BCF1470F3FD13FE0BCF1660F18D0BCF11D
:101AE000670F7FD138E000211120112F00DA781C18
:101AF000CDE9000106A90EA8FFF7EAFCDDE90F0118
:101B00000E9A03910021009207F1010A04914DE021
:101B10004FF000400097CDE901A006A90EA8FFF7FD
:101B2000D7FCDDE91020DDE90E3103920022DDF85B
:101B30000CA00093049218B907F1010001EB000A10
:101B4000B7EB0A0004D4C0F1FF3007F1010A04909A
:101B5000AAEB0700019045E0012F00DA01270021E0
:101B60001120112F00DC3846CDE9000106A90EA88E
:101B7000FFF7AEFCDDE90F010E9A039100210491FD
:101B80000092BA4621070CD40399B94200DA8A467A
:101B9000BAF1010F05DD009AAAF10101515C30296B
:101BA00008D0B84202DA10F1040F06DA0121CDE9BB
:101BB000011017E0AAF10101E9E7002805DC04990A
:101BC00001440491AAEB000102E0411C514500DDF3
:101BD0008A460499A0EB010000F1010001904FF04A
:101BE00000400290200705D40198504502DB4FF0D9
:101BF000FF30019000208DF84F0002980DF14F0743
:101C0000B0F1004F25D02B200E9002984FF0020823
:101C100000280CDA404202902D200E9007E00A21A5
:101C20000298FFF763F93031029007F8011DB8F10F
:101C30000001A8F10108F2DC02980028EFD1791E1A
:101C40000E980870307800F0200040F0450007F84A
:101C5000020D12A8A0EB070000F107081498007805
:101C600000B1012000EB0A01019801EBE071059839
:101C70004144A0EB0100A0F101000590E00306D46F
:101C80005B462146179A059800F05FF805441498C2
:101C9000007820B15A461799904705F10105E003F5
:101CA00023D55B462146179A059800F04EF8054467
:101CB0001BE00498002807DBDDE90301884203DD0F
:101CC0000098405C179901E0179930205A469047D8
:101CD00004986D1C401C04900198401E019004D192
:101CE0002E205A46179990476D1CBAF10001AAF1AF
:101CF000010ADEDC05E017F8010B5A4617999047F8
:101D00006D1CB8F10001A8F10108F4DC5B46214626
:101D1000179A0598ABE600002D0000002B0000008C
:101D2000200000002DE9F0410446002517461E461C
:101D3000880405D406E039462020B04705F10105A6
:101D4000641EF8D52846BDE8F0812DE9F04104462F
:101D50000025302790461E46C80300D4202788045B
:101D600005D506E041463846B04705F10105641E39
:101D7000F8D52846BDE8F081981D00080000002035
:101D800038000000B0140008D01D00083800002002
:101D900000040000C014000800A24A040000000073
:101DA000000000000102030406070809000000000B
:101DB00000000000010203040102030406070809F1
:101DC00002040608000000000000000000000000FF
:04000005080000ED02
:00000001FF
