:020000040800F2
:10000000A8040020213300085D0A00085F0A0008E8
:10001000630A0008670A00086B0A00080000000075
:100020000000000000000000000000006F0A00084F
:10003000710A000800000000730A0008750A000831
:100040003B3300083B3300083B3300083B330008D8
:100050003B3300083B3300083B3300083B330008C8
:100060003B3300083B3300083B3300083B330008B8
:100070003B3300083B3300083B3300083B330008A8
:100080003B3300083B3300083B3300083B33000898
:10009000770A00083B3300083B330008A509000835
:1000A0003B3300083B3300083B3300083B33000878
:1000B0003B3300083B3300083B3300083B33000868
:1000C0003B3300083B3300083B3300083B33000858
:1000D0003B3300083B3300083B3300083B33000848
:1000E0003B3300083B3300087B0A00083B33000821
:1000F0003B3300083B3300083B3300083B33000828
:100100003B3300083B3300083B3300083B33000817
:100110003B3300083B3300083B3300083B33000807
:100120003B3300083B3300083B3300083B330008F7
:10013000DFF80CD003F0BEFC004800474501000882
:10014000A8040020A4B000F0CEF9002001F022FAAB
:100150008221002000F03CFC002000F01BFB4EA0A0
:1001600000234FF6E0720A210090084601F06FFD6F
:1001700051A000231F22322100900A2001F067FDC8
:1001800055A000231F225A2100900A2001F05FFD94
:1001900080E0002000F07BFB1290129820F00040DD
:1001A0000A90129810F0004F11D00A9803F0B1FA9B
:1001B0000646504903F01EF905464FF0964103F0FC
:1001C0004FF904464B4903F00FF9029018E00A98E2
:1001D00003F09FFA8346474903F00CF981464FF03C
:1001E000964103F03DF9804603F09CFA06464FF035
:1001F0003332414B03F015FA044603F0A6FA02909D
:100200003EA000231F228C210090BE2001F01FFD84
:100210003AA000231F228C210090AA2001F017FD94
:10022000029803F07FFA044622460B4636A11AA82C
:1002300003F062FC1AA800234FF4784232210090A8
:100240009B2001F004FD029803F06CFA8046304ACE
:10025000304B03F0ECF906462F4A304B03F040F9DF
:10026000044603F072FA8246504603F05BFA0446F5
:1002700022460B462AA11AA803F03EFC1AA8002326
:100280004FF478425A2100909B2001F0E0FC3C2082
:1002900000F0AEF87DE7000053544D3332204C4D52
:1002A0005437302054656D706572617475726520C5
:1002B000546573743A000000414443204368302081
:1002C000566F6C746167653A202020202020202022
:1002D00020206D56000000002020202054656D7005
:1002E000657261747572653A2020202020202020DC
:1002F0002020430000409C453333C33F2020202072
:100300002020202020000000252E33660000000061
:100310004E62105839B4C8BF3F355EBA49806A4052
:10032000252E326600000000704700BF411EC9B292
:100330000800FBD17047002100BF082100BF4A1E02
:10034000D2B21100FBD1421ED2B21000F5D17047DB
:10035000002100BF0D2100BF4A1ED2B21100FBD107
:10036000421ED2B21000F5D1704700BF072100BF76
:100370000B2200BF531E9BB21A00FBD14B1E9BB237
:100380001900F5D1431EDBB21800EFD1704700BF52
:10039000422100BF1E2200BF531EDBB21A00FBD158
:1003A0004B1EDBB21900F5D1431EDBB21800EFD1B2
:1003B0007047652000BF582100BF4A1E92B211004D
:1003C000FBD1421E92B21000F5D1704700BF7721D9
:1003D00000BF432200BF531E9BB21A00FBD14B1E2D
:1003E0009BB21900F5D1431EDBB21800EFD1704764
:1003F00000BF40F2712100BF3F2200BF531E9BB2DD
:100400001A00FBD14B1E9BB21900F5D1431EDBB283
:100410001800EED1704700BF4FF47A7100BF40F270
:10042000012200BF531E9BB21A00FBD14B1E9BB290
:100430001900F4D1431EDBB21800EDD1704700E083
:10044000401E0028FCD1704708B50121112002F0A0
:1004500017FC4FF43450ADF8000010208DF8030065
:1004600003208DF802006946244802F057F94FF442
:100470008050ADF8000004208DF8030003208DF8B3
:10048000020069461D4802F049F94FF40070ADF8CA
:10049000000028208DF8030003208DF80200694633
:1004A000164802F03BF94FF40051144802F0E3F90A
:1004B0000120FFF78BFF4FF40051104802F0D9F9EB
:1004C0006420FFF783FF4FF400610C4802F0D1F97C
:1004D0004FF48071094802F0CEF94FF4806107486B
:1004E00002F0C7F908BD10B5FFF7AEFF00F0FFFD41
:1004F00000F0C4FA6420FFF77BFF10BD001001403C
:1005000070B50446FA20FFF710FFFA20FFF70DFF41
:10051000002521E014F0800F05D04FF48061FD48E4
:1005200002F0A7F904E04FF48061FA4802F0A3F961
:100530004FF48071F74802F09CF9FA20FFF7F5FEBE
:100540006006040E4FF48071F24802F094F9FA202C
:10055000FFF7EBFE681CC5B2082DDBDB70BD70B584
:100560000024FA20FFF7E1FEFA20FFF7DEFE002567
:100570001CE04FF48071E74802F07BF9FA20FFF7A6
:10058000D4FE6006040E4FF48071E24802F073F965
:100590004FF48051DF4802F052F9012801D1601C6C
:1005A000C4B2FA20FFF7C1FE681CC5B2082DE0DB1B
:1005B000204670BD70B504460D464FF40061D54825
:1005C00002F059F944F05000FFF79AFF0020FFF7BE
:1005D00097FF2846FFF794FF4FF40061CD4802F0E3
:1005E00048F970BD70B504464FF40061C94802F087
:1005F00042F944F01000FFF783FF0020FFF780FF6F
:100600000120FFF798FEFFF7AAFF05464FF40061AF
:10061000C04802F02EF9284670BD10B504464FF4CC
:100620000061BC4802F027F92046FFF769FF4FF44C
:100630000061B84802F01DF910BD38B5002407E08C
:100640004FF40071B34802F0FAF800B903E0641CFB
:10065000B1488442F4D300BFAF48844207D3AFA06F
:1006600000231F220A210090282001F0F0FA38BD53
:1006700010B5FFF7E2FF0020FFF7B4FF044620119A
:1006800010BD10B50446072C00DD10BD082040EA5F
:100690000410C1B20120FFF78DFF00BFF5E710B5D0
:1006A000044624B901210846FFF784FF13E0012C1A
:1006B00004D123210120FFF77DFF0CE0022C04D19F
:1006C00045210120FFF776FF05E0032C03D16721C8
:1006D0000120FFF76FFF10BD08B54FF400618D4892
:1006E00002F0C9F80120FFF70BFF0120FFF723FEFE
:1006F00000208DF80300FFF732FF8DF80200FFF7AE
:100700002EFF8DF80100FFF72AFF8DF800004FF44F
:100710000061804802F0ADF8009808BD70B504464D
:1007200000BF4FF400717B4802F089F80028F8D030
:1007300000BF4FF40071774802F081F80028F8D12B
:100740002046FFF79EFF0520FFF7F5FDFC20FFF791
:1007500064FF0520FFF7EFFD0020FFF75EFF192083
:10076000FFF7E9FDFFF7B8FF054600BF4FF4007142
:10077000684802F064F80028F8D000BF4FF4007118
:10078000644802F05CF80028F8D1FFF7A5FF0546A1
:10079000284670BD3EB50446684804700021684A8A
:1007A0001170002005E00021664A42F82010411C2B
:1007B000C8B20828F7DB0121084602F061FA0921D6
:1007C000022002F0BFF84FF40070019000208DF875
:1007D00008000C208DF8090001208DF80A0001A8FE
:1007E00001F0B0FB17208DF8000003208DF8010008
:1007F0008DF8020001208DF80300684601F02BFB04
:100800003EBD0EB50121084602F03AFA0921022048
:1008100002F098F84FF40070019000208DF8080065
:100820000C208DF8090001208DF80A0001A801F0C4
:1008300089FB17208DF8000003208DF801008DF84A
:10084000020001208DF80300684601F004FB0EBD94
:100850000EB54FF40070019000208DF808000C20B8
:100860008DF8090000208DF80A0001A801F06AFB4C
:1008700017208DF8000003208DF801008DF802008C
:1008800000208DF80300684601F0E5FA0EBD70B552
:100890000446072C01DD002070BDFFF7D9FF294871
:1008A00050F82450FFF7ADFF2846F5E710B5234870
:1008B000007868BB22480078FFF7E3FEFA20FFF7D4
:1008C00034FDFC20FFF7A9FEFA20FFF72EFD0020E3
:1008D000FFF7A3FEFA20FFF728FD1948007820B99A
:1008E000FFF7FAFE1749C86107E0FFF7F5FE144964
:1008F0000978491E134A42F8210011480078401C2B
:10090000C0B20F49087008284BDB0020087048E08F
:100910001AE0000000100140005A620241445331C5
:100920003235365F5761697444524459282920543E
:10093000696D65204F7574202E2E2E000100002059
:10094000000000207800002041480078FFF7A7FE53
:100950000520FFF7F0FCFC20FFF75FFE0520FFF706
:10096000EAFC0020FFF759FE1920FFF7E4FC3848A5
:10097000007820B9FFF7B0FE3649C86007E0FFF7FE
:10098000ABFE33490978491E324A42F8210030480B
:100990000078401CC0B22E490870042801DB0020FA
:1009A000087010BD10B54FF4007001F031FB48B174
:1009B0004FF4007001F03DFBFFF778FF4FF400703B
:1009C00001F037FB10BD10B50520FFF7B4FC10BDDA
:1009D00038B504460D46FFF73BFFFFF7F4FFFE2056
:1009E000FFF71BFEF4210020FFF7E4FDF020FFF7E6
:1009F00014FEFFF722FE04208DF8000008208DF879
:100A000001008DF802408DF803500102124801F0F8
:100A100032FF5020FFF774FD0320FFF771FD9DF8B2
:100A20000000FFF76DFD9DF80100FFF769FD9DF8DF
:100A30000200FFF765FD9DF80300FFF761FD4FF42D
:100A40000061054801F015FF3220FFF774FC38BD46
:100A5000000000207800002000100140704700BF17
:100A6000FEE700BFFEE700BFFEE700BFFEE77047FE
:100A700070477047704770477047704700B585B042
:100A8000012144F2040002F0FBF84FF40070ADF8CD
:100A9000100003208DF8120018208DF8130004A90F
:100AA000754801F03BFE4FF48060ADF81000042063
:100AB0008DF8130004A9704801F030FE4FF4E130C6
:100AC00000900020ADF80400ADF80600ADF8080075
:100AD0000C20ADF80A000020ADF80C00694667480C
:100AE00002F079F90121654802F001FA05B000BD74
:100AF00070B504460D46E1B2604802F065FA00BFE9
:100B00005E48008810F0800FFAD0204670BDF0B526
:100B100003460D461646002729460A2E03D000201C
:100B200008702846F0BD33B9302001F8010B0020D1
:100B300008702846F6E7002B03DA2D2001F8010B98
:100B40005B4242F210720DE093FBF2F404B937B14C
:100B500004F1300001F8010B04FB123301270A20D5
:100B600092FBF0F2002AEFDC002008702846D9E75B
:100B70000FB470B586B006460CA8019073E00B98D0
:100B800000785C281CD10B98401C0B9000786E28D4
:100B900009D072280FD10D21304602F015FA0B98BA
:100BA000401C0B900BE00A21304602F00DFA0B9826
:100BB000401C0B9003E00B98401C0B9000BF4BE0D7
:100BC0000B980078252840D10B98401C0B9000789A
:100BD000642818D0732833D1019810C801900BE015
:100BE0002178304602F0F0F900BF4021304602F093
:100BF00059FA0028F9D0641C20780028F0D10B980D
:100C0000401C0B9020E0019820C801900A2202A904
:100C10002846FFF77CFF02AC0BE02178304602F05B
:100C2000D3F900BF4021304602F03CFA0028F9D049
:100C3000641C20780028F0D10B98401C0B9003E036
:100C40000B98401C0B9000BF06E00B9810F8011B9E
:100C50000B90304602F0B8F900BF4021304602F058
:100C600021FA0028F9D00B980078002887D106B027
:100C700070BC5DF814FB0000000801400038014022
:100C800008B50121602001F0FBFF4CF6B370ADF810
:100C9000000003208DF8020018208DF8030069463B
:100CA000F74801F03BFD4FF68070ADF800000320DF
:100CB0008DF8020018208DF803006946F14801F014
:100CC0002DFD4FF44050ADF8000003208DF80200D8
:100CD00010208DF803006946E94801F01FFD4FF42C
:100CE0000051E74801F0C5FD08BD00B597B00121EE
:100CF000080201F0B8FF0121084601F0C1FF0220FF
:100D0000019000200290052003900020049005909F
:100D100006904FF08050079000200890099008201E
:100D20000A9010200B9000200C900E900F901090C5
:100D30004FF480501190002012901390149001A84D
:100D40001590169008A801F0CCF90121002001F0BF
:100D500029FB17B000BDCC4908807047CA49891CDF
:100D600008807047C849891C08807047C648801CA5
:100D700000887047C44A1080921C11807047014659
:100D8000C1480180801C00887047C0484089BE4926
:100D900008807047BD490871032826D14FF4A0711F
:100DA000BA4A1180F021518011460989A1F5054206
:100DB000523A09D12C21B54A51812A2191812B2106
:100DC000D1816021D18088E0B0490989A1F5A8428C
:100DD000083AF8D12221AD4A518120219181212167
:100DE000D18141F20801D18077E0042826D14FF467
:100DF000A071A64A1180F021518011460989A1F500
:100E00000542523A09D12C21A04A51812A219181CF
:100E10002B21D181A021D1805FE09C490989A1F5D6
:100E2000A842083A59D12221984A51812021918122
:100E30002121D18141F23801D1804EE0012826D113
:100E4000F021924A11804FF4A07151801146098916
:100E5000A1F50542523A09D12C218C4A51812A210F
:100E600091812B21D181C021D18036E08749098928
:100E7000A1F5A842083A30D12221844A518120218B
:100E800091812121D1814FF48151D18025E0F02140
:100E90007E4A11804FF4A071518011460989A1F555
:100EA0000542523A09D12C21784A51812A21918157
:100EB0002B21D1810021D1800FE074490989A1F54E
:100EC000A842083A09D12221704A518120219181FA
:100ED0002121D18141F21001D18070476C4A10600C
:100EE0006C4A1160704710B503460C46674800898C
:100EF000A0F50541523915D164498989C8B2FFF777
:100F00002AFF1812FFF72AFFD8B2FFF727FF5F4921
:100F1000C989C8B2FFF71FFF2012FFF71FFFE0B219
:100F2000FFF71CFF59480089A0F5A84108390BD1EB
:100F300056498989C8B21946FFF71CFF5349C98928
:100F4000C8B22146FFF716FF10BD2DE9FC5F04462D
:100F50000D46904699460026B2460027B34600202B
:100F60000190009049480089A0F50541523934D1DB
:100F7000264604EB0900401E1FFA80FA2F4605EBB7
:100F80000800401E1FFA80FB019600973F4989899F
:100F9000C8B2FFF7E0FE3012FFF7E0FEF0B2FFF755
:100FA000DDFE4FEA2A20FFF7D9FE0AF0FF00FFF727
:100FB000D5FE3649C989C8B2FFF7CDFE3812FFF712
:100FC000CDFEF8B2FFF7CAFE4FEA2B20FFF7C6FEB0
:100FD0000BF0FF00FFF7C2FE83E02C480089A0F56C
:100FE000A84108397DD12948007903281CD1274818
:100FF0004088401BA0EB080086B224484088401B74
:10100000401E1FFA80FA21480088001BA0EB09004F
:1010100087B21E480088001B401E1FFA80FBCDF8D7
:1010200004A0CDF800B04CE01848007904280ED197
:101030002E4605EB0800401E1FFA80FA274604EBF7
:101040000900401E1FFA80FB0196009739E00F4807
:101050000079012820D10D480088001BA0EB090071
:1010600086B20A480088001B401E1FFA80FA2F46ED
:1010700005EB08001FFA80FBCDF804A0009720E0E4
:101080000014014000180140FEFF0160980000209C
:10109000480000204C000020264604EB0900401EBA
:1010A0001FFA80FAFE484088401BA0EB080087B278
:1010B000FB484088401B401E1FFA80FB0196CDF87C
:1010C00000B031465020FFF755FE51465120FFF742
:1010D00051FE39465220FFF74DFE59465320FFF787
:1010E00049FEDDE90010FFF7FEFEBDE8FC9F10B5EC
:1010F000FFF7C6FDFFF7F9FD0A20FFF767F94FF488
:101100008051E84801F0B7FB0A20FFF75FF94FF480
:101110008051E44801F0ADFB0A20FFF757F90420A5
:10112000FFF72DFEFFF722FEDD490881FFF71EFEC7
:10113000DB490881084600894FF6FF7101EA00206B
:10114000D7490881FFF712FED54909890843D449D8
:10115000088108460089A0F50541523904D00020D5
:10116000FFF70DFECE490881CD480089A0F5054165
:1011700052397CD11120FFF7EEFD7820FFF726F9D8
:101180003620FFF7E8FD0020FFF7E8FD3A20FFF7E3
:10119000E2FD0520FFF7E2FDB220FFF7DCFD0C20A9
:1011A000FFF7DCFD0C20FFF7D9FD0020FFF7D6FD8F
:1011B0003320FFF7D3FD3320FFF7D0FDB720FFF733
:1011C000CAFD3520FFF7CAFDBB20FFF7C4FD28206C
:1011D000FFF7C4FDC020FFF7BEFD2C20FFF7BEFDCA
:1011E000C220FFF7B8FD0120FFF7B8FDC320FFF7CD
:1011F000B2FD0B20FFF7B2FDC420FFF7ACFD2020AD
:10120000FFF7ACFDC620FFF7A6FD0F20FFF7A6FDF8
:10121000D020FFF7A0FDA420FFF7A0FDA120FFF73D
:101220009DFDE020FFF797FDD020FFF797FD0120FF
:10123000FFF794FD0820FFF791FD0F20FFF78EFDCB
:101240001120FFF78BFD2A20FFF788FD3620FFF7DE
:1012500085FD5520FFF782FD4420FFF77FFD3A20F2
:10126000FFF77CFD0B20FFF779FD062000E04CE046
:10127000FFF774FD1120FFF771FD2020FFF76EFDD1
:10128000E120FFF768FDD020FFF768FD0220FFF79F
:1012900065FD0720FFF762FD0A20FFF75FFD0B20C9
:1012A000FFF75CFD1820FFF759FD3420FFF756FDCE
:1012B0004320FFF753FD4A20FFF750FD2B20FFF797
:1012C0004DFD1B20FFF74AFD1C20FFF747FD2220A4
:1012D000FFF744FD1F20FFF741FD2920FFF73BFDED
:1012E0002C20FFF738FD0320FFF754FD3620FFF7D1
:1012F00032FD6B49C888FFF731FD69480388428891
:1013000000210846FFF721FE28E165480089A0F585
:10131000A8410839F8D14FF480710120FFF72AFD68
:101320004FF4E0610220FFF725FD41F23001032078
:10133000FFF720FD00210420FFF71CFD40F20221F1
:101340000820FFF717FD00210920FFF713FD0021FA
:101350000A20FFF70FFD00210C20FFF70BFD0021F5
:101360000D20FFF707FD00210F20FFF703FD0021EF
:101370001020FFF7FFFC00211120FFF7FBFC0021EC
:101380001220FFF7F7FC00211320FFF7F3FCC82021
:10139000FFF71CF807211120FFF7ECFC3220FFF7C4
:1013A00015F841F2B0211020FFF7E4FC3220FFF7DE
:1013B0000DF840F2BD111220FFF7DCFC3220FFF7E0
:1013C00005F84FF4A0511320FFF7D4FC0E2129207B
:1013D000FFF7D0FC3220FEF7F9FF00212020FFF7B5
:1013E000C9FC40F23F112120FFF7C4FC40F60D314B
:1013F0003020FFF7BFFC41F623113120FFF7BAFC84
:1014000041F626413220FFF7B5FC42F21C61332041
:10141000FFF7B0FC42F219413420FFF7ABFC40F675
:101420000B513520FFF7A6FC41F206013620FFF7ED
:10143000A1FC4FF4C2613720FFF79CFC40F206711B
:101440003820FFF797FC4FF441713920FFF792FCE9
:1014500040F605613A20FFF78DFC40F601613B2024
:10146000FFF788FC4FF487713C20FFF783FC40F2C4
:101470000E513D20FFF77EFC40F203413E20FFF776
:1014800079FC40F207613F20FFF774FC00215020F7
:10149000FFF770FCEF215120FFF76CFC002103E007
:1014A00098000020001401405220FFF763FC40F236
:1014B0003F115320FFF75EFC4FF427416020FFF7F8
:1014C00059FC01216120FFF755FC00216A20FFF73C
:1014D00051FC00218020FFF74DFC00218120FFF707
:1014E00049FC00218220FFF745FC00218320FFF703
:1014F00041FC00218420FFF73DFC00218520FFF7FF
:1015000039FC10219020FFF735FC00219220FFF7D5
:1015100031FC03219320FFF72DFC4FF488719520B7
:10152000FFF728FC00219720FFF724FC00219820DA
:10153000FFF720FC0320FFF72DFCFD48C1880320A6
:10154000FFF718FC4FF489710720FFF713FCF848E8
:101550000388428800210846FFF7F7FCF549F64862
:10156000FFF7BCFC4FF40051F44801F084F910BDC2
:10157000F34A1080F34A11807047F14A12880280C2
:10158000F04A12880A807047ED4908807047ED499B
:101590000880704770B504460025E54803884288F6
:1015A00000210846FFF7D1FCFFF7EFFB00BF02E088
:1015B000E54804806D1CDE480088DD4949884843C1
:1015C000A842F5D870BD2DE9F04707468846164673
:1015D00000250024DD4800688088C01DC0F3C709CD
:1015E000DA4800688388D9480068C288414638468E
:1015F000FFF7ABFCFFF7C9FB00BF1CE0002414E0C1
:1016000005FB09F000EBD400305C04F007028021F8
:101610001141084204D1CB480088FFF7A3FB03E047
:10162000C7480088FFF79EFB641CC8480068808894
:10163000A042E5D86D1CC5480068C088A842DDD826
:10164000BB480388428800210846FFF77EFCBDE8BE
:10165000F0872DE9F04105460E461446A4F120011D
:10166000BA4A1268D2885143B84A12689288D01D8B
:10167000C21700EB5272D210B44B1B681B6801FBFF
:1016800002373A4631462846FFF79DFFBDE8F08114
:1016900030B50246AE4800680489002120E0AC481D
:1016A0000068006801EB811510F815001578A84254
:1016B00014D1A7480068006801EB811500EB4500D4
:1016C00040785578A84209D1A1480068006801EB2C
:1016D000811500EB4500831C184630BD481C81B2C3
:1016E000A142DCDB0020F8E72DE9F04707468846F9
:1016F000154600260024964800688088C01DC0F367
:10170000C70993480068838891480068C2884146A9
:101710003846FFF71AFCFFF738FB00BF28E000242B
:101720001FE0C5B106FB09F101EBE401695CE217BA
:1017300004EB5272D210A4EBC20380221A41114270
:1017400004D180480088FFF70DFB08E07C48008842
:10175000FFF708FB03E07B480088FFF703FB601CF2
:1017600084B27B4800688088A042DADC701C86B2B4
:1017700077480068C088B042D1DC6D480388428851
:1017800000210846FFF7E1FBBDE8F0872DE9F041B5
:1017900005460E46144600272046FFF779FF074608
:1017A0003A4631462846FFF79FFFBDE8F0812DE914
:1017B000F04106460F4614463546B84629E05C48D7
:1017C0000088624909688988401AA8421ADB207893
:1017D00080280BDA227841462846FFF73AFF5B481B
:1017E00000688088284485B2641C12E02246414685
:1017F0002846FFF7CBFF564800688088284485B20A
:10180000A41C06E0002551480068C08840441FFA27
:1018100080F820780028D2D1BDE8F08110B54FF4CF
:10182000A073F022591EEF20FFF78FFB41F2180141
:101830000320FFF79FFA10BD2DE9F04106460F4641
:10184000144600252346012239463046FFF77DFB2A
:10185000FFF79BFA00BF04E039480088FFF782FADF
:101860006D1CA542F8D332480388428800210846FF
:10187000FFF76BFBBDE8F0812DE9F04106460F460E
:10188000144600252346012239463046FFF75DFB0A
:10189000FFF77BFA00BF10E00320B5FBF0F100FB7F
:1018A0001150022804D127480088FFF75BFA03E0B3
:1018B00023480088FFF756FA6D1CA542ECD31C485C
:1018C0000388428800210846FFF73FFBBDE8F0810E
:1018D0002DE9F04106460F46144600250123224615
:1018E00039463046FFF731FBFFF74FFA00BF04E0FF
:1018F00013480088FFF736FA6D1CA542F8D30C4850
:101900000388428800210846FFF71FFBBDE8F081ED
:101910002DE9F04106460F461546002401232A46CC
:1019200039463046FFF711FBFFF72FFA00BF22E0E0
:10193000980000202C00002014000020001401401A
:101940004400002046000020000002604800002003
:101950004C0000200320B4FBF0F100FB11400228F2
:1019600004D1FD480088FFF7FDF903E0FB4800883B
:10197000FFF7F8F9641CAC42ECD3F94803884288BD
:1019800000210846FFF7E1FABDE8F0812DE9F041BA
:1019900005460E4617461C46224631462846FFF7A6
:1019A0004BFFF019401E81B222462846FFF744FF44
:1019B0003A4631462846FFF78BFF2919491E88B25F
:1019C0003A463146FFF784FFBDE8F0812DE9F04744
:1019D0008046894616461F46DDF820A000240025D3
:1019E0003B46324649464046FFF7AFFAFFF7CDF98E
:1019F00000BF14E000250FE01AF804000121A940FF
:101A0000084204D1D4480088FFF7ACF903E0D3487A
:101A10000088FFF7A7F96D1C082DEDD3641C06FBA9
:101A200007F0B4EBE00FE5D3CD48038842880021EE
:101A30000846FFF78AFABDE8F0872DE9F0478046AF
:101A4000894615461E46089F002433462A464946C5
:101A50004046FFF77AFAFFF798F900BF0BE017F856
:101A60001410012202EB4402BA5C01EB022188B29D
:101A7000FFF778F9641C05FB06F0A042EFD8B848E0
:101A80000388428800210846FFF75FFABDE8F08727
:101A90002DE9F0410746884614461D4600262B4690
:101AA000224641463846FFF750FAFFF76EF900BF6D
:101AB00004E0A9480088FFF755F9761C04FB05F0FF
:101AC000B042F6D8A6480388428800210846FFF7AE
:101AD0003CFABDE8F08110B5A1480089A0F50541A8
:101AE000523938D000211020FFF744F9002111208D
:101AF000FFF740F900211220FFF73CF900211320E5
:101B0000FFF738F9C820FEF761FC41F2B0711020F0
:101B1000FFF730F940F237111120FFF72BF932208F
:101B2000FEF754FC40F239111220FFF723F932205E
:101B3000FEF74CFC4FF4E8511320FFF71BF913217B
:101B40002920FFF717F93220FEF740FC40F273110D
:101B50000720FFF70FF910BD00B581480089A0F5F7
:101B60000541523903D12920FFF7F5F804E040F28E
:101B700073110720FFF7FEF800BD00B57848008913
:101B8000A0F50541523903D12820FFF7E4F803E01E
:101B900000210720FFF7EEF800BD70B504460D46A2
:101BA000002C0BDB6E480088401EA04206DB002D97
:101BB00004DB6B484088401EA84200DA70BDA9B221
:101BC000A0B20122FFF738FE00BFF7E72DE9F04190
:101BD00004460D4616462746A84661480089A0F5EA
:101BE000A841083928D15E48007903280BD15C4808
:101BF0004088401B401E87B259480088001B401E89
:101C00001FFA80F818E056480079042802D12F46C0
:101C1000A04611E052480079012806D150480088BA
:101C2000001B401E87B2A84606E027464C48408865
:101C3000401B401E1FFA80F841463846FFF753F913
:101C4000FFF7A3F83046FFF78DF8BDE8F0812DE9E6
:101C5000F04106460F4614461D46DDF81880294619
:101C60002046FFF785FC424639463046FFF79FFD88
:101C7000BDE8F0812DE9F04106460F4614461D46A9
:101C8000DDF8188029462046FFF772FC35493648B2
:101C9000FFF724F9424639463046FFF788FD3349BD
:101CA0003148FFF71BF9BDE8F0812DE9FC410446FE
:101CB0000D4616461F46DDF8208042462CA101A89D
:101CC00001F01AFF01A83B46324629460090204603
:101CD000FFF7BDFFBDE8FC812DE9FE4304460D463C
:101CE00016461F46DDF82880424622A101A801F0D1
:101CF00003FF01A83B463246294600902046FFF7E5
:101D0000A6FFBDE8FE832DE9FF4105460E461746B6
:101D100098460A9C2246002317A101A801F0ECFE78
:101D200001A843463A46314600902846FFF78FFF08
:101D3000BDE8FF812DE9F04105460E4617461C46D9
:101D4000054801882046FFF713FC3A4631462846ED
:101D5000FFF772FDBDE8F08146000020440000203E
:101D60009800002038000020140000202C000020E3
:101D700025336400253564002531306C6C64000027
:101D80002DE9F04105460E4617461C46DDF8188041
:101D900041462046FFF7ECFB3A4631462846FFF71E
:101DA0006BFDBDE8F0812DE9F04105460E46174672
:101DB0001C46244801882046FFF7DAFB3A463146A4
:101DC0002846FFF785FDBDE8F0812DE9F041054685
:101DD0000E4617461C46DDF8188041462046FFF7A0
:101DE000C7FB3A4631462846FFF792FDBDE8F08131
:101DF0002DE9F04104460D4616461F46DDF81880D1
:101E0000104801884046FFF7B3FB3B46324629465F
:101E10002046FFF7BBFDBDE8F0812DE9F041044607
:101E20000D4616461F46DDF81880414606480088D4
:101E3000FFF79EFB3B46324629462046FFF728FE29
:101E4000BDE8F081460000204400002031490143F4
:101E5000314A1160704770B5002100230F22C47809
:101E60000CB32D4C246804F4E064C4F5E064210A4A
:101E7000C1F10403CA40447804FA03F184781440A1
:101E800021430901254C0678A155047804F01F056B
:101E90000124AC4005786D114FF0E02606EB850576
:101EA000C5F8004109E0047804F01F050124AC40A6
:101EB0001B4D0678761145F8264070BD194A0A4038
:101EC0000243154B1B1F1A60704739B1124A121D8D
:101ED00012680243104B1B1D1A6006E00E4A121DC9
:101EE000126882430C4B1B1D1A607047042808D1EE
:101EF0004FF0E021096941F004014FF0E022116147
:101F000007E04FF0E021096921F004014FF0E022E1
:101F1000116170470000FA050CED00E000E400E0FC
:101F200080E100E080FFFF1F002044490860091D98
:101F30000860091D0860091D086041483F491431C7
:101F40000860704700213D498279002A3AD00A464C
:101F5000126803689A430B461A600A1D12680368E8
:101F60009A430B1D1A60027911440A6803681A43E8
:101F70000A60324A0832126803689A432F4B0833CA
:101F80001A601A1D126803689A432C4B0C331A60AE
:101F90004279102A0ED11A1F126803681A43274B80
:101FA00008331A601A1D126803681A43234B0C3356
:101FB0001A600DE02149427911440A6803681A4306
:101FC0000A6005E0027911440A6803689A430A60CE
:101FD00070470021016001710C2141710021817164
:101FE00070471649103109680143144A10321160D4
:101FF000704701460020114A143212680A4201D08B
:10200000012000E0002070470C491431086070473F
:10201000014600200022094B1B6803EA0102074B1E
:1020200014331B680B4202D00AB1012000E00020EB
:1020300070470249143108607047000000040140F5
:10204000FFFF0F0030B943F2DB014FF0204242F8AE
:10205000201005E043F2D2014FF0204242F8201058
:102060006FF07042411C4FF0204343F8212011468D
:102070001A4602EB8002C2F80411704710280AD1F8
:1020800018214FF020421166402151664FF0FC317B
:102090009166D16610E01821F84A11604FF04001B6
:1020A0004FF02042C2F884104FF0FC31F44A116026
:1020B0004FF02042C2F88C1070471820F149086098
:1020C0004FF000004FF02041C1F8A4004FF0FC3069
:1020D000ED49086001F10401086001F104010860A4
:1020E0007047D0E901121143C268114302691143DC
:1020F0004269114382691143C2691143026A114363
:10210000426A1143826A1143C26A1143026B11434E
:102110004FF02043026843F822108168082908D153
:102120001A46016852F8211041F04001026843F854
:102130002210416B0968426B526841EA0211426BFE
:10214000926841EA0221426B928941EA0241426B64
:10215000128A41EA0251426B127D41EA0261426BEE
:10216000926911430268521C4FF0204343F8221039
:10217000C16AB1F5804F1AD1816B0968826B5268D0
:1021800041EA0211826B926841EA0221826B128A53
:1021900041EA0251826B127D41EA0261826B9269CF
:1021A0001143026803EB8202C2F8041108E06FF0E9
:1021B00070414FF02043026803EB8202C2F8041121
:1021C000704730B5002100220023446844F0080421
:1021D00085682C43C5682C4305692C43456944EA4E
:1021E0004524856944EA4531C4692468C5696D6838
:1021F00044EA0524C5692D8944EA0544C5692D7B57
:1022000044EA0562046A2468056A6D6844EA0524A4
:10221000056A2D8944EA0544056A2D7B44EA056375
:102220000468102C05D14FF020442166A266E366B5
:1022300007E0924C21604FF02044C4F88820934C72
:10224000236030BD016841F01001426841EA42213B
:10225000826841EA42318B4A1160C1680968C268EC
:10226000526841EA0221C268128941EA0241C26809
:10227000127B41EA0261844A1160016909680269BE
:10228000526841EA02210269128941EA0241026967
:10229000127B41EA02617E4A116041690968426924
:1022A000526841EA02214269128941EA02414269C7
:1022B000127B41EA02614FF02042C2F8B010704731
:1022C000002101600221416000218160C160016143
:1022D00041618161C16101624FF4805141624900F5
:1022E00081620021C16201630F21426B1160426B68
:1022F0005160FF21426B91600F21426BD160426BB4
:102300001161426B51610021426B91610F21826B1F
:102310001160826B5160FF21826B91600F21826B93
:10232000D160826B1161826B51610021826B91617E
:10233000704710210160002141608160C16001612E
:1023400041618161FC21C2691160C2695160C26949
:102350009160C269D160026A1160026A5160026ACA
:102360009160026AD1607047002101604160816024
:10237000FC21C2681160C2685160C2689160C26885
:10238000D16002691160026951600269916002695D
:10239000D16042691160426951604269916042694D
:1023A000D160704751B14FF0204252F8202042F0E6
:1023B00001024FF0204343F8202009E04FF0204273
:1023C00052F82020334B1A404FF0204343F820208E
:1023D000704799B1102808D14FF02042126E42F098
:1023E00004024FF020431A661DE0244A126842F0AE
:1023F00004024FF02043C3F8802014E0102809D1D4
:102400004FF02042126E234BDB1E1A404FF0204348
:102410001A6608E0194A12681F4B02EA03024FF0DD
:102420002043C3F88020704740B11649096841F045
:1024300004014FF02042C2F8A01008E011490968D9
:10244000154A01EA02014FF02042C2F8A01070477D
:1024500099B1102808D14FF02042126E42F040028C
:102460004FF020431A662DE0044A126842F0400201
:102470004FF02043C3F8802024E00FE0800000A04C
:10248000880000A0A00000A0A80000A08C0000A070
:10249000AC0000A0FEFF0F00FBFF0F00102808D1CA
:1024A0004FF02042126E684B1A404FF020431A66DC
:1024B00008E0664A1268644B02EA03024FF02043C8
:1024C000C3F88020704701460020102903D14FF047
:1024D0002042506F01E05E4A1068704710B5F2B1BB
:1024E000102807D14FF020435B6E0B434FF0204480
:1024F000636632E0B0F5807F08D1564B1B6843EA33
:1025000001034FF02044C4F8843026E0524B1B688E
:1025100043EA01034FF02044C4F8A4301DE0102822
:1025200007D14FF020435B6E8B434FF0204463662E
:1025300013E0B0F5807F08D1464B1B6823EA010306
:102540004FF02044C4F8843007E0434B1B6823EA73
:1025500001034FF02044C4F8A43010BD10B502466A
:1025600000200023102A03D14FF02044636E07E0BF
:10257000B2F5807F02D1374C236801E0364C2368E6
:102580000B4201D0012000E0002010BD102807D12F
:102590004FF02042526E8A434FF020435A6613E0B8
:1025A000B0F5807F08D12B4A126822EA01024FF071
:1025B0002043C3F8842007E0274A126822EA010278
:1025C0004FF02043C3F8A420704770B502460020A6
:1025D000002300240025102A03D14FF02046736EFB
:1025E00007E0B2F5807F02D11A4E336801E01A4E3F
:1025F000336803EA010403EAD10514B10DB10120E7
:1026000000E0002070BD102808D14FF02042526E2B
:1026100022EAD1024FF020435A6613E0B0F5807FE2
:1026200008D10C4A126822EAD1024FF02043C3F8C5
:10263000842007E0084A126822EAD1024FF02043C2
:10264000C3F8A42070470000BFFF0F00800000A067
:10265000940000A0840000A0A40000A010B50446CF
:10266000CA48844208D10121042000F023FB002144
:10267000042000F01FFB46E0C548844208D1012138
:10268000082000F017FB0021082000F013FB3AE0BF
:10269000C048844208D10121102000F00BFB00212A
:1026A000102000F007FB2EE0BB48844208D1012136
:1026B000202000F0FFFA0021202000F0FBFA22E0A9
:1026C000B648844208D10121402000F0F3FA0021ED
:1026D000402000F0EFFA16E0B148844208D1012111
:1026E000802000F0E7FA0021802000F0E3FA0AE001
:1026F000AC48844207D10121801500F0DBFA0021AB
:10270000A01500F0D7FA10BD10B50121084600F061
:10271000D1FA0021012000F0CDFA10BD2DE9F041E1
:10272000024600250026002000230024002791F8FF
:1027300003C00CF00F0591F803C01CF0100F03D07C
:1027400091F802C04CEA050591F800C0BCF1000FF9
:1027500031D0146800202BE04FF0010C0CFA00F38C
:10276000B1F800C00CEA03069E4220D183004FF06E
:102770000F0C0CFA03F7BC4305FA03FC4CEA040403
:1027800091F803C0BCF1280F06D14FF0010C0CFAF0
:1027900000FCC2F814C00AE091F803C0BCF1480F75
:1027A00005D14FF0010C0CFA00FCC2F810C0401C1F
:1027B0000828D1D31460B1F800C0BCF1FF0F34DD9C
:1027C000546800202EE000F1080C4FF0010808FAD0
:1027D0000CF3B1F800C00CEA03069E4221D183003D
:1027E0004FF00F0C0CFA03F7BC4305FA03FC4CEA5C
:1027F000040491F803C0BCF1280F05D100F1080CC6
:1028000008FA0CF8C2F8148091F803C0BCF1480F24
:1028100007D100F1080C4FF0010808FA0CF8C2F8D3
:102820001080401C0828CED35460BDE8F0814FF6DC
:10283000FF710180022181700421C170704702463E
:10284000002093680B4201D0012000E00020704777
:102850000146886880B2704702460020D3680B4268
:1028600001D0012000E0002070470146C86880B216
:10287000704701617047416170470AB1016100E032
:1028800041617047C16070474FF480320A438261F2
:102890008161826182698269704702460020424BF1
:1028A00018684FF68073184040EA021008433E4B08
:1028B000186070473D49C8617047F0B50A4600236B
:1028C00000240021002500F00046B6F1004F02D19F
:1028D000354EF16901E0344E7168C0F3034583B2AF
:1028E00000F44016B6F5401F08D121F070612E4E5D
:1028F000766826F070662C4F7E6012E000F4801639
:10290000B6F5801F06D1032606FA05F4A14341F06F
:10291000706106E0460D360103FA06F6B14341F058
:10292000706122B1460D360103FA06F6314300F01C
:102930000046B6F1004F02D11B4EF16101E01A4E84
:102940007160F0BD30B500228B071C0F0F2303FA16
:1029500004F2154B08338C1053F824309343124C77
:1029600008348D1044F8253023468C1053F8243059
:102970008C07240F00FA04F423430B4C08348D1009
:1029800044F8253030BD0A4908607047000801400E
:10299000000C0140001001400014014000180140EB
:1029A000001C0140002001400000014000002042C6
:1029B000DC002042DB48006840F00100D949086093
:1029C00008464068D8490840D6494860084600682B
:1029D000D6490840D34908600846006820F48020A2
:1029E00008600846406820F4FE0048604FF41F006D
:1029F00088607047CB49096821F48031C94A116069
:102A00001146096821F480211160B0F5803F03D0A0
:102A1000B0F5802F0ED106E0C249096841F480313B
:102A2000C04A116007E0BF49096841F4A021BD4ACE
:102A3000116000E000BF00BF704710B501460022E2
:102A4000002300204A11012A02D1B64C236806E077
:102A5000022A02D1B34C236A01E0B24C636A01F04E
:102A60001F02012494401C4201D0012000E00020FC
:102A700010BD70B500240025002600BF3120FFF7EF
:102A8000DCFF0646641CB4F5A06F01D0002EF5D023
:102A90003120FFF7D2FF08B1012500E000252846CC
:102AA00070BD014600209F4A106820F0F80040EAFF
:102AB000C100106070479E490860704702460020C0
:102AC000984B586820F47C1042EA01031843954B58
:102AD0005860704796490866704701460020914A41
:102AE000506820F003000843506070478D484068EC
:102AF00000F00C007047014600208A4A506820F020
:102B0000F00008435060704701460020854A506835
:102B100020F4E06008435060704701460020814A7D
:102B2000506820F4605040EAC1005060704729B1FD
:102B30007C4A527A02437B4B5A7204E0794A527AB9
:102B40008243784B5A7270477A4908607047014651
:102B50000020744A506820F4404008435060704799
:102B60000021754A11706F4A82F82010012802D0A6
:102B7000042808D103E001216F4A117004E0052107
:102B80006D4A117000E000BF00BF70476B490860DC
:102B900070476449096A0143624A11627047674994
:102BA00044390860704730B500210022002400231A
:102BB0005C4D6D6805F00C0121B1042905D0082990
:102BC00023D105E05E4D056022E05D4D05601FE00C
:102BD000544D6D6805F47012524D6D6805F48034E3
:102BE000022505EB92421CB9564D554305600BE09A
:102BF0004C4D6D6815F4003F03D0524D55430560B0
:102C000002E04F4D5543056002E04D4D056000BFA9
:102C100000BF444D6D6805F0F00109094A4D6B5C39
:102C20000568DD4045603F4D6D6805F4E061090AC7
:102C3000454D6B5C4568DD4085603A4D6D6805F437
:102C40006051C90A404D6B5C4568DD40C560354D3B
:102C50006D6805F44041890B3C4D6B5CC568B5FB64
:102C6000F3F5056130BD29B12E4A526902432D4B5F
:102C70005A6104E02B4A526982432A4B5A617047D9
:102C800029B1284A92690243264B9A6104E0254AF9
:102C900092698243234B9A61704729B1214AD269D4
:102CA0000243204BDA6104E01E4AD26982431D4B85
:102CB000DA61704729B11B4AD2680243194BDA60C6
:102CC00004E0184AD2688243164BDA60704729B193
:102CD000144A12690243134B1A6104E0114A126943
:102CE0008243104B1A61704714494039086070479D
:102CF0000F49C86470470B49C87170470948406A5A
:102D000040F0807007494862704701460020054A3C
:102D100092680A4201D0012000E00020704701497A
:102D200088727047001002400000FFF8FFFFF6FEB7
:102D300000004242D8004242201002408004424239
:102D400000127A0000093D005000002060000020C1
:102D500010B50446FB48844209D101218803FFF7DE
:102D6000A9FF00214FF48040FFF7A4FF32E0F648AE
:102D7000844209D101214804FFF7A9FF00214FF443
:102D80000030FFF7A4FF25E0F048844209D101217B
:102D90008804FFF79CFF00214FF48020FFF797FF86
:102DA00018E0EB48844209D10121C804FFF78FFFE6
:102DB00000214FF40020FFF78AFF0BE0E548844232
:102DC00008D101210805FFF782FF00214FF4801090
:102DD000FFF77DFF10BD2DE9F04786B005460E4692
:102DE0000024A24600BFA1460027B08900B100BF61
:102DF0002F462C8A4CF6FF700440F08804432C8246
:102E0000AC894EF6F3100440B088318908437189CB
:102E100008430443AC81AC8A4FF6FF400440B089BC
:102E20000443AC8201A8FFF7BEFEC648874202D128
:102E3000DDF810A001E0DDF80CA0A88910F4004F27
:102E400008D00AEBCA0000EB0A1031684900B0FB59
:102E5000F1F807E00AEBCA0000EB0A1031688900BC
:102E6000B0FBF1F86420B8FBF0F004012009642104
:102E700001FB1089A88910F4004F08D0322000EB24
:102E8000C900B0FBF1F000F00700044308E0322075
:102E900000EB09106421B0FBF1F000F00F000443D7
:102EA0002C8106B0BDE8F0874FF416510160002177
:102EB0008180C18001810C21418100218181704785
:102EC00010B502460020108A4FF2FF0318400B880D
:102ED0004C8823438C882343CC8823431843108297
:102EE00010BD0021018041808180C180704721B1E7
:102EF000828942F40052828104E082894DF6FF7398
:102F00001A4082817047F0B5034600240026002550
:102F10000020A1F510676A3F00D100BF1846C1F339
:102F2000421401F01F06012707FA06F5012C01D112
:102F30000C3004E0022C01D1103000E014301AB142
:102F400007682F43076002E00768AF430760F0BDE2
:102F50001AB1838A0B43838202E0838A8B43838284
:102F60007047028A4FF6F0731A400282028A0A43BF
:102F70000282704782894FF2FF731A4082818289F0
:102F80000A438281704721B1828942F00202828124
:102F900004E082894FF6FD731A4082817047028AED
:102FA0004FF6DF731A400282028A0A430282704798
:102FB00021B1028A42F48042028204E0028A4BF686
:102FC000FF731A4002827047C1F308028280704783
:102FD00001468888C0F308007047818941F00101EB
:102FE00081817047028BD2B20283028B42EA0122B6
:102FF00002837047028B02F47F420283028B0A43F2
:103000000283704721B1828A42F02002828204E06A
:10301000828A4FF6DF731A408282704721B1828A1A
:1030200042F01002828204E0828A4FF6EF731A4067
:103030008282704721B1828A42F00802828204E0D3
:10304000828A4FF6F7731A408282704721B18289D3
:1030500042F40042828103E08289C2F30E0282813F
:10306000704721B1828A42F40062828204E0828A3F
:103070004FF2FF731A4082827047828A4FF6FB73C9
:103080001A408282828A0A438282704721B1828AF0
:1030900042F00202828204E0828A4FF6FD731A40F7
:1030A0008282704702460020B1F5007F00D100BF48
:1030B00013880B4201D0012000E00020704701F48A
:1030C0000072B2F5007F00D100BFCA430280704792
:1030D00070B502460024002300250020A1F51066EB
:1030E0006A3E00D100BFC1F3421501F01F03012663
:1030F00006FA03F3012D02D19689334006E0022D32
:1031000002D1168A334001E0968A33400C12012620
:1031100006FA04F41688344013B10CB1012000E023
:10312000002070BD10B500220023A1F510646A3C98
:1031300000D100BF0A1201249440A3B2DC430480F2
:1031400010BD00000038014000440040004800402D
:10315000004C00400050004000210020674A1268E7
:1031600042F48032654B1A6000BF644A126802F470
:103170000030491C10B9B1F5A06FF6D15F4A126852
:1031800012F4003F01D0012000E00020012842D1CC
:103190005B4A126842F01002594B1A601A461268D4
:1031A00022F003021A601A46126842F002021A6004
:1031B000524A5268514B5A601A4652685A601A462F
:1031C000526842F480625A601A46526822F47C12B5
:1031D0005A601A46526842F4E8125A601A46126857
:1031E00042F080721A6000BF444A126812F0007FF9
:1031F000FAD0424A526822F00302404B5A601A4603
:10320000526842F002025A6000BF3C4A526802F023
:103210000C02082AF9D1704710B5FFF79DFF10BDC9
:1032200010B53648006840F001003449086008468F
:1032300040683449084031494860084600683249CE
:1032400008402E4908600846006820F48020086085
:103250000846406820F4FE0048604FF41F00886074
:10326000FFF7DAFF4FF000602849086010BD10B585
:10327000002100200022214B5B6803F00C0121B1EA
:10328000042906D0082928D107E0214B214C2360CE
:1032900027E01F4B1F4C236023E0184B5B6803F4AF
:1032A0007010164B5B6803F48032022303EB9040EE
:1032B00022B9194B4343174C23600DE00F4B5B6859
:1032C00013F4003F04D0144B4343124C236003E03B
:1032D0000F4B43430F4C236003E00D4B0D4C236019
:1032E00000BF00BF054B5B68C3F303130B4CE15CED
:1032F000084B1B68CB40074C236010BD00100240F8
:10330000002002400000FFF8FFFFF6FE08ED00E09D
:1033100000127A006400002000093D0068000020CF
:103320000648804706480047FEE7FEE7FEE7FEE75F
:10333000FEE7FEE7FEE7FEE7FEE7FEE721320008D4
:1033400031010008F0B480EA0102D40F4200B2EB70
:10335000410F02D20246084611464A0042D0C30D30
:10336000DDB2C1F3C752AD1A202D35DAC1F3160113
:1033700041F4000204B15242C5F1200602FA06F1FE
:103380002A411044B3EBD05F23D0C4B1012DA0EB90
:10339000C35009DCF0BC4FF0004202EAC35200F512
:1033A0000000DBB200F05EBA400000F1807000EB7C
:1033B000C350A0F1807040EAD170490009E049088B
:1033C00041EAC071A0EBC35000F50000400800EBDB
:1033D000C350F0BC00F03DBA6142012202EB410152
:1033E000001BF6E7F0BC704781F00041AAE780F0CF
:1033F0000040A7E780EA010210B502F00043400058
:1034000026D04A0023D04FEA106101EB1261C0F3CD
:103410005600C2F3560240F4000042F40002A0FB42
:103420000220A1F17F014FEA0040140401D000F115
:10343000010050EA124001D44000491EC2B20C06FD
:1034400004EBD010401C4008802A02D003E000208A
:1034500010BD20F00100002900DA0020184310BD43
:1034600030B480EA010202F0004530F0004221F061
:10347000004015D0A0B1C0F3C753C2F3C754C2F384
:103480001601C0F31600E41A41F4000140F40002F2
:103490007D34914201D3641C00E04900002C02DA23
:1034A00030BC002070474FF400000023914201D34C
:1034B000891A034340084FEA4101F7D151B19142C3
:1034C00002D14FF0004105E002D24FF0010101E0CE
:1034D0006FF0010103EBC450284430BC00F0B9B9CF
:1034E0002DE9FE4F804681EA0300C00F0C46009094
:1034F00021F0004123F00045B8EB0200A94105D2BC
:103500004046214690461C460B46024623F00040AA
:10351000104304D14046214603B0BDE8F08F270D8B
:10352000C7F30A00C3F30A510290401A01904028E1
:1035300066DAC3F3130040F4801B0098924620B172
:103540000023D2EB030A63EB0B0B01985946C0F141
:103550004002504600F05CF906460D46504659467A
:10356000019A00F064F910EB08006141002487EA39
:10357000115284EAE7731A433BD0009A3AB3019A96
:10358000012A4FEA075210DC001B61EB02014FF0E9
:10359000004202EA0752CDE90042001C41F58011C9
:1035A00032462B4600F098F9B6E7001B61EB0201AA
:1035B000001C41F5801300185B412018A2F500178C
:1035C00047EB030140EAD570B6196D4111E06D0873
:1035D0004FEA360645EAC0754FEA0752001B61EB19
:1035E0000201001C41F5801149084FEA3000001922
:1035F000514132462B4603B0BDE8F04F00F05FB9B1
:103600000098012240000023D0EB020263EBE0733C
:10361000009821464FEAE074B8EB000061EB04012A
:10362000E9E783F000435BE781F0004158E72DE9CB
:10363000FE4F81EA030404F0004421F000410094AD
:103640004FF0000B23F0004350EA010402D052EA8D
:10365000030404D10020014603B0BDE8F08FC3F39A
:103660000A54C1F30A552C44A4F2F3340194A0FB8C
:103670000254C1F3130141F48011C3F3130343F463
:10368000801301FB024400FB034E840A970A44EABC
:10369000815447EA8357A4FB076802958D0A05FB0E
:1036A00007854FEA932C04FB0C542705029D4FEA33
:1036B000065847EA1637B5EB08056EEB070C870E80
:1036C000920E47EA811742EA8312A7FB0201B6EB8A
:1036D0000B0164EB00042B0D43EA0C335E1844EB42
:1036E0001C50DA465146E7FB0201C5F313044FEACA
:1036F0000B3343EA14534FEA0432019C43EA0603B6
:10370000A4F10C040294009CCDE900B400F0E4F8AC
:10371000A2E7C10F80EAE0700844CA07962300219F
:1037200000F0A0B800F0004230F000400AD0C10D17
:1037300001F56071C0F3160042EA0151C20840076A
:103740001143704700200146704701F0004330B438
:1037500021F0004150EA010206D00A0DA2F5607284
:10376000C1F31301002A02DC30BC00207047440F73
:1037700044EAC104C100E01830BC00EBC25000F0C4
:1037800068B830B50B46014600202022012409E02C
:1037900021FA02F59D4205D303FA02F5491B04FA0A
:1037A00002F52844151EA2F10102F1DC30BD2DE91D
:1037B000F05F0546002092469B46884606468146B5
:1037C00040241BE0284641464746224600F084F943
:1037D00053465A46C01A914110D311461846224604
:1037E00000F016F82D1A67EB01084F46224601201B
:1037F000002100F00DF817EB00094E41201EA4F146
:103800000104DFDC484631462A464346BDE8F09FC6
:10381000202A04DB203A00FA02F100207047914090
:10382000C2F1200320FA03F3194390407047202A85
:1038300006DBCB17203A41FA02F043EAE07306E0D8
:1038400041FA02F3D040C2F12002914008431946E8
:1038500070470029A8BF7047401C490008BF20F0EE
:103860000100704710B4B0FA80FC00FA0CF050EA86
:10387000010404BF10BC704749B1CCF1200421FA07
:1038800004F411FA0CF118BF012121430843A3EB02
:103890000C01CB1D0106000A002BBEBF002010BC8E
:1038A000704700EBC35010440029A4BF10BC704700
:1038B000401C490008BF20F0010010BC704710B543
:1038C000002B08DA401C41F1000192185B411A43B9
:1038D00001D120F0010010BD2DE9F04D92469B462C
:1038E00011B1B1FA81F202E0B0FA80F220329046D2
:1038F000FFF78EFF04460F4640EA0A0041EA0B013B
:1039000053465A46084303D120463946BDE8F08D58
:10391000114653EA010015D0C8F14002504600F0AC
:10392000DBF805460E46504659464246FFF770FF03
:10393000084301D0012000E00020054346EAE0767C
:103940002C4337430A984FEA4453A0EB08004FEA50
:10395000D4240A304FF0000244EA47544FEAD725F6
:1039600002D500200146D1E7010510196941DDE9C2
:10397000084500196941BDE8F04DA0E72DE9F04D7B
:1039800081EA030404F0004B21F0004514464FF097
:10399000000A23F0004150EA050220D054EA010257
:1039A0001DD0C5F30A570246C5F31303C1F3130034
:1039B000C1F30A5640F4801543F48013A7EB0608C0
:1039C000101BD64608F2FD3873EB050002D308F150
:1039D000010801E092185B41B8F1000F03DA002002
:1039E0000146BDE8F08D00204FF480110646844664
:1039F0000EE0171B73EB050705D3121B63EB0503E2
:103A000006434CEA010C49084FEA300092185B412A
:103A100050EA0107EDD152EA030012D082EA040015
:103A200083EA0501084303D100224FF0004308E078
:103A3000101BAB4102D20122002302E06FF0010211
:103A400053101AEB06004CEB085110EB0A0041EB47
:103A50000B01BDE8F04DFFF732BFC1F30A52C1F3CD
:103A6000130140F2FF3341F480119A4202DA002040
:103A70000146704740F233439A42A2F2334202DCDD
:103A8000524200F029B8FFF7C3BE000030B500294C
:103A900004DB4FF00044404264EB0101002B04DBE7
:103AA0004FF00044524264EB0303994208BF904236
:103AB00030BD0000064C074D06E0E06840F0010311
:103AC00094E8070098471034AC42F6D3FCF734FB77
:103AD0007C8300089C830008202A04DB203A21FA1A
:103AE00002F00021704721FA02F3D040C2F1200217
:103AF00091400843194670470FB4084B10B504A90C
:103B000002AA039800F0CAF8044602A9002000F0B7
:103B100068FC204610BC5DF814FB0000E34300087D
:103B200002E008C8121F08C1002AFAD17047704786
:103B3000002001E001C1121F002AFBD170470000E4
:103B40002DE9FF5FDDE90220010DDDF838B0024309
:103B500010D10F9801244CA2012808D00021009810
:103B60000F9BC0E90021C0E90243BDE8FF9F6FEA57
:103B70000B01F4E7A1F2FF3144F6105041430D145C
:103B80000F9801280ED0A5EB0B00401C4FF000044D
:103B90003E4EDFF8FC90B0F1000AA04605DACAF10B
:103BA000000717E0CBF10000F0E7074612E0F80746
:103BB00007D02246334640464946FFF738FD804647
:103BC00089462246334610461946FFF730FD044623
:103BD0000E467F10002FEAD1DDE90201BAF1000F95
:103BE00042464B4602DAFFF722FD01E0FFF7C6FE30
:103BF00004460E460022274BFFF748FF03D84FF03C
:103C0000FF30014607E00022234B20463146FFF7F4
:103C100067FCFFF722FF102409E0002C0ADB0A22D0
:103C20000023FFF7C4FD019B30321A55641E50EA91
:103C30000102F2D1641C019AC4F1110314440F9AD9
:103C4000012A09D00122084301D15B450FDD4FF065
:103C5000000205F101050DE0084303D1A3EB0B05BC
:103C60006D1E09E000204FF0110B0F9088E701DA7C
:103C700000226D1E002A83D000980F99C0E90231FE
:103C8000C0E9004571E7000030000000000024405A
:103C90000000F03F0000F0430000E03F2DE9FF4F3F
:103CA00095B09B4689460646002512E2252878D124
:103CB0000024761CF94A2746012105943378203BDD
:103CC00001FA03F0104202D00443761CF6E7307884
:103CD0002A2811D06FF02F033078A0F13002092A82
:103CE00016D8059A44F0020402EB820203EB42026A
:103CF0001044761C0590EFE759F8042B0592002A32
:103D000003DA504244F40054059044F00204761C57
:103D100030782E2816D116F8010F44F004042A2812
:103D20000DD06FF02F023078A0F13003092B09D8A5
:103D300007EB870302EB4303C718761CF3E759F838
:103D4000047B761C30786C280FD006DC4C2817D00A
:103D500068280DD06A2814D104E0742810D07A287D
:103D60000FD10DE044F400140AE044F4801401E0A3
:103D700044F440147278824202D1761C04F5801417
:103D8000761C307866280BD013DC582877D009DCF5
:103D9000002875D04528F6D04628F4D047281AD1F7
:103DA0009FE118E0632835D0642879D0652812D1C6
:103DB00097E1702873D008DC6728F1D069286FD0AC
:103DC0006E280DD06F2806D1B5E073282CD0752849
:103DD00075D0782874D05A46179990476D1C76E1B3
:103DE000C4F30250022809D003280DD0D9F80010DE
:103DF00004280DD00D6009F1040968E1D9F800101C
:103E0000EA17C1E90052F6E7D9F800100D80F2E791
:103E10000D70F0E719F8041B8DF8001000208DF8E4
:103E20000100EA46012003E059F804AB4FF0FF30EF
:103E300061074FF0000102D40DE008F1010188464E
:103E4000B9420FDA8045F8DB1AF808100029F4D1DE
:103E500008E008F1010188468142FADB1AF80810EF
:103E60000029F6D105985B46A0EB080721463846A5
:103E7000179A00F09EFA284400EB080507E04DE091
:103E80002BE10DE01AF8010B5A4617999047B8F14B
:103E90000108F7D25B4621463846179A14E142E002
:103EA0000A220092C4F302524FF0000A022A08D0FC
:103EB00059F804CB032A4FEAEC710AD00DE029E04F
:103EC0002AE009F1070121F00702F2E802C1914658
:103ED00009E00FFA8CFC4FEAEC71042A03D14FFA87
:103EE0008CFC4FEAEC71002907DA0A460021DCF16C
:103EF000000C61EB02012D2202E0220504D52B22E9
:103F00008DF80420012203E0E20701D02022F7E728
:103F1000904653E00A2102E010220DE010214FF0FC
:103F2000000A00910BE010224FF0000A44F0040454
:103F30000827009203E008224FF0000A0092C4F321
:103F40000252022A05D059F804CB0021032A08D0D6
:103F500009E009F1070121F00702F2E802C19146E8
:103F600005E01FFA8CFC042A01D10CF0FF0C4FF085
:103F70000008220722D5702827D0009B83F0100369
:103F800053EA0A0309D15CEA010206D030228DF817
:103F900004208DF8050002229046009B83F0080360
:103FA00053EA0A030AD15CEA010201D1620705D58E
:103FB00030228DF804204FF001087F1E582809D0C8
:103FC00037A003900EA8029013E040228DF8042041
:103FD0000122E1E737A0F4E753466046009AFFF775
:103FE000E6FB84460398825C0298A0F101000290EF
:103FF00002705CEA0100EFD1029806A9A1EB000073
:1040000000F1200A600702D524F4803400E0012783
:10401000574502DDA7EB0A0000E0002000EB0A0193
:10402000009005984144A0EB01000590E00306D400
:104030005B462146179A059800F0BBF90544002716
:1040400006E001A85A46C05D179990476D1C7F1C79
:104050004745F6DBE0030CD55B462146179A0598E9
:1040600000F0A7F9054404E030205A46179990471C
:104070006D1C0099481E00900029F5DC08E00298AC
:1040800002995A460078491C0291179990476D1C75
:10409000BAF10001AAF1010AF1DC6BE10928010083
:1040A00030313233343536373839616263646566AE
:1040B0000000000030313233343536373839414270
:1040C000434445460000000000F060F9054406F155
:1040D0000106307800287FF4E9AD19B02846BDE824
:1040E000F08F620700D4062709F1070222F0070CBF
:1040F000FCE80223E14603F000485FEA080C02D026
:104100000FF27C2C0DE05FEA045C02D50FF2742CF8
:1041100007E05FEAC47C02D00FF26C2C01E0AFF242
:10412000700C4FF0FF3823F00043CDF850C06528E5
:104130000CD006DC452809D046281DD047283ED1A2
:104140003EE0662818D0672839D139E00021112FC8
:1041500001DB112000E0781CCDE9000106A90EA8C2
:10416000FFF7EEFCDDE90F010E9A039100210092AA
:1041700007F1010A04914EE04FF000400097CDE9AD
:10418000011006A90EA8FFF7DBFCDDE90F02039280
:104190000E9B11990022DDF80CA00093049219B92E
:1041A00007F1010100EB010AB7EB0A0004D4C0F1EA
:1041B000FF3007F1010A0490AAEB0700019046E0E6
:1041C000012F00DA01270021112F01DD112000E06D
:1041D0003846CDE9000106A90EA8FFF7B1FCDDE9DC
:1041E0000F010E9A0391002104910092BA46210713
:1041F0000CD40399514500DA8A46BAF1010F05DD66
:10420000009AAAF10101515C302908D0B84202DAC3
:1042100010F1040F06DA0121CDE9011017E0AAF12F
:104220000101E9E7002805DC049901440491AAEBA7
:10423000000102E0411C514500DD8A460499A0EBD3
:10424000010000F1010001904FF0004002902007B2
:1042500004D40198504501DBCDF8048000208DF88E
:104260004F0002980DF14F07B0F1004F25D02B20E1
:104270000E9002984FF0020800280CDA404202909B
:104280002D200E9007E00A210298FFF77AFA3031CC
:10429000029007F8011DB8F10001A8F10108F2DC55
:1042A00002980028EFD1791E0E980870307800F03F
:1042B000200040F0450007F8020D12A8A0EB07000F
:1042C00000F107081498007800B1012000EB0A0102
:1042D000019801EBE07105984144A0EB0100A0F1C9
:1042E00001000590E00306D45B462146179A059825
:1042F00000F05FF805441498007820B15A461799E9
:10430000904705F10105E00323D55B462146179A46
:10431000059800F04EF805441BE00498002807DBE0
:104320000399814204DD04990098405C179901E0EB
:10433000179930205A46904704986D1C401C0490F1
:104340000198401E019004D12E205A46179990479B
:104350006D1CBAF10001AAF1010ADEDC05E017F8D4
:10436000010B5A46179990476D1CB8F10001A8F14E
:104370000108F4DC5B462146179A0598A4E6000084
:104380002D0000002B000000200000002DE9F0416E
:10439000044600251E461746880405D406E0394623
:1043A0002020B04705F10105641EF8D52846BDE878
:1043B000F0812DE9F041044600251E469046C803D1
:1043C00001D5302700E02027880405D506E04146C6
:1043D0003846B04705F10105641EF8D52846BDE80A
:1043E000F0810A68531C0B601070704700000000D9
:1043F000000000002020202000200000505000007D
:10440000000000002850F850F850A0002030603024
:10441000106020002020186010100000003820607C
:1044200050780000202020000000000010202020F4
:10443000202010004020202020204000207020500C
:1044400000000000002020F82020000000000000F4
:10445000102020000000007000000000000000009C
:1044600000200000102020204040800020505050AC
:10447000502000006020202020F800002050202044
:104480004070000020501020106000001030507864
:104490001038000070406010502000003040605024
:1044A000506000007050102020200000205020504C
:1044B00050200000305050301060000000002000FC
:1044C000002000000000100010200000001020C09C
:1044D0002010000000700070000000000040201854
:1044E0002040000020501020002000003048485894
:1044F000484038006020507088D80000F04870486C
:1045000048F000007050404040300000F0484848FB
:1045100048F00000F848604048F80000F848604063
:1045200040E000007040405850300000E8487848B3
:1045300048E8000070202020207000003810105043
:1045400050200000D850607050D80000E04040403B
:1045500048F80000D8D8D8A888D80000D86868588B
:1045600058E800003048484848300000F04848709B
:1045700040E000003048484848301800F048487093
:1045800048E800007050201050700000F8A820206B
:1045900020700000D848484848300000D88848506B
:1045A00050300000D888A8A8A8500000D85020207B
:1045B00050D80000D8885020207000007848102083
:1045C000487800003020202020203000804040200B
:1045D000202010006020202020206000202050009B
:1045E0000000000000000000000000F820100000A3
:1045F000000000000000301070780000C0407048DB
:1046000048F0000000007040407000001808384872
:10461000483800000000707040300000102070200A
:10462000207000000000384848380830C04070480A
:1046300048E800002000602020700000200070107A
:1046400010101070C040587050D80000602020201A
:10465000207000000000D0A8A8A800000000F048CA
:1046600048C8000000003048483000000000F04812
:10467000487040E0000038484838081800007820AA
:104680002070000000003020106000000040F0406A
:10469000483000000000D848483800000000C848F2
:1046A000303000000000D8A8A850000000004830BA
:1046B000304800000000D8505020206000007850A2
:1046C00028780000102020602020100020202020CA
:1046D0002020200040202030202040000000002822
:1046E000500000000000000000000000000000007A
:1046F000001010101010000010000000006C48485E
:104700000000000000000000001414287C287C2811
:104710005050000000103840403848701010000021
:10472000002050200C700814080000000000001841
:104730002020544834000000001010101000000029
:1047400000000000000808101010101010080800E9
:1047500000202010101010101020200000107C10DD
:1047600028280000000000000000101010FE1010AB
:1047700010000000000000000000001810302000B1
:1047800000000000007C00000000000000000000AD
:104790000000003030000000000404080810102061
:1047A00020400000003844444444444438000000A1
:1047B00000301010101010107C000000003844046D
:1047C000081020447C00000000384404180404440D
:1047D00038000000000C141424447E040E00000075
:1047E000003C20203804044438000000001C204015
:1047F0007844444438000000007C44040808081051
:10480000100000000038444438444444380000009C
:1048100000384444443C04087000000000000030AC
:1048200030000030300000000000001818000018B0
:104830003020000000000C10608060100C000000B0
:10484000000000007C007C00000000000000C02090
:1048500018041820C00000000000182404081000EC
:10486000300000003844444C54544C40443800005C
:104870000030102828287C44EE00000000F8444452
:1048800078444444F8000000003C44404040404428
:104890003800000000F0484444444448F000000060
:1048A00000FC445070504044FC000000007E222870
:1048B0003828202070000000003C4440404E444412
:1048C0003800000000EE44447C444444EE00000004
:1048D000007C1010101010107C000000003C080834
:1048E000084848483000000000EE444850704844F2
:1048F000E600000000702020202024247C0000001E
:1049000000EE6C6C54544444EE00000000EE64640D
:104910005454544CEC000000003844444444444493
:104920003800000000782424243820207000000083
:104930000038444444444444381C000000F84444D3
:1049400044784844E200000000344C4038040464D9
:104950005800000000FE92101010101038000000E7
:1049600000EE4444444444443800000000EE444413
:10497000282828101000000000EE444454545454D9
:104980002800000000C6442810102844C60000007B
:1049900000EE44282810101038000000007C440865
:1049A000101020447C00000000382020202020200F
:1049B00020203800004020202010100808080000A7
:1049C00000380808080808080808380000101028EF
:1049D0004400000000000000000000000000000093
:1049E000000000FE001008000000000000000000B1
:1049F00000000038443C44443E00000000C04058E1
:104A000064444444F80000000000003C444040443A
:104A100038000000000C04344C4444443E000000C4
:104A200000000038447C40403C000000001C207C1A
:104A3000202020207C000000000000364C4444442C
:104A40003C04380000C0405864444444EE00000078
:104A500000100070101010107C0000000010007892
:104A6000080808080808700000C0405C48705048FA
:104A7000DC00000000301010101010107C0000004E
:104A8000000000E854545454FE000000000000D818
:104A900064444444EE0000000000003844444444B0
:104AA00038000000000000D8644444447840E0002E
:104AB000000000364C4444443C040E000000006CEE
:104AC000302020207C0000000000003C44380444DA
:104AD000780000000000207C202020221C00000024
:104AE000000000CC4444444C36000000000000EEBE
:104AF0004444282810000000000000EE44545454A0
:104B000028000000000000CC48303048CC000000F5
:104B1000000000EE44242818101078000000007CEB
:104B2000481020447C0000000008101010102010D5
:104B300010100800001010101010101010100000BD
:104B400000201010101008101010200000000000AD
:104B500000245800000000000000000000000000D9
:104B600000000000000000000000001010101010F5
:104B70001010000018180000001236244800000031
:104B80000000000000000000000000242424FE4873
:104B90004848FE484848000000001038545450303F
:104BA000181414545438101000000044A4A8A8A8E5
:104BB000541A2A2A2A44000000000030484848506D
:104BC0006EA494888976000000606020C000000018
:104BD000000000000000000000020408081010108F
:104BE00010101008080402000040201010080808E7
:104BF0000808081010204000000000001010D638EF
:104C000038D6101000000000000000001010101036
:104C1000FE10101010000000000000000000000056
:104C200000000000606020C00000000000000000E4
:104C30007F000000000000000000000000000000F5
:104C4000000000006060000000000102020404088F
:104C5000081010202040400000000018244242426A
:104C60004242424224180000000000107010101050
:104C700010101010107C00000000003C4242420462
:104C800004081020427E00000000003C424204184C
:104C90000402024244380000000000040C142424E2
:104CA00044447E04041E00000000007E4040405842
:104CB00064020242443800000000001C24404058B6
:104CC00064424242241800000000007E4444080868
:104CD00010101010101000000000003C424242244E
:104CE00018244242423C0000000000182442424284
:104CF000261A0202243800000000000000001818E4
:104D00000000000018180000000000000000001063
:104D10000000000000101020000000020408102015
:104D20004020100804020000000000000000FE0007
:104D30000000FE00000000000000004020100804F9
:104D400002040810204000000000003C42426202C1
:104D5000040808001818000000000038445AAAAAE5
:104D6000AAAAB442443800000000001010182828F5
:104D7000243C444242E70000000000F844444478E8
:104D80004442424244F800000000003E424280801B
:104D90008080804244380000000000F844424242D3
:104DA0004242424244F80000000000FC4248487879
:104DB0004848404242FC0000000000FC424848785D
:104DC0004848404040E000000000003C44448080EF
:104DD000808E844444380000000000E74242424292
:104DE0007E42424242E700000000007C101010109A
:104DF00010101010107C00000000003E0808080889
:104E000008080808080888F0000000EE44485070C0
:104E10005048484444EE0000000000E0404040405C
:104E20004040404042FE0000000000EE6C6C6C6CA4
:104E30005454545454D60000000000C762625252C9
:104E40004A4A4A4646E20000000000384482828214
:104E50008282828244380000000000FC42424242CA
:104E60007C40404040E000000000003844828282E4
:104E70008282B2CA4C380600000000FC4242427CEA
:104E80004848444442E300000000003E42424020C3
:104E900018040242427C0000000000FE9210101034
:104EA0001010101010380000000000E7424242428B
:104EB00042424242423C0000000000E74242442499
:104EC0002428281810100000000000D69292929218
:104ED000AAAA6C4444440000000000E742242418BD
:104EE0001818242442E70000000000EE444428285B
:104EF00010101010103800000000007E8404080814
:104F00001020204242FC0000001E10101010101053
:104F10001010101010101E00000040402020101033
:104F200010080804040402020078080808080808A9
:104F30000808080808087800001C2200000000008B
:104F40000000000000000000000000000000000061
:104F500000000000000000FF00606020C0000000B2
:104F60000000000000000000000000000000003C05
:104F7000421E2242423F0000000000C04040405814
:104F80006442424264580000000000000000001C1F
:104F900022404040221C0000000000060202021EC7
:104FA00022424242261B0000000000000000003C9C
:104FB000427E4040423C00000000000F1110107E75
:104FC00010101010107C0000000000000000003ED7
:104FD000444438403C42423C000000C04040405CF9
:104FE0006242424242E700000000003030000070A0
:104FF00010101010107C00000000000C0C00001CB1
:105000000404040404044478000000C04040404EFE
:105010004850684844EE0000000000701010101066
:1050200010101010107C000000000000000000FEB6
:105030004949494949ED000000000000000000DC3A
:105040006242424242E70000000000000000003CD3
:1050500042424242423C000000000000000000D8F2
:1050600064424242447840E0000000000000001E1C
:1050700022424242221E020700000000000000EE11
:105080003220202020F80000000000000000003E38
:1050900042403C02427C0000000000000010107CF6
:1050A00010101010100C000000000000000000C6DE
:1050B00042424242463B000000000000000000E780
:1050C000422424281010000000000000000000D737
:1050D0009292AAAA44440000000000000000006E62
:1050E000241818182476000000000000000000E7D3
:1050F00042242428181010E0000000000000007E68
:1051000044081010227E0000000304040404040874
:105110000404040404040300080808080808080834
:105120000808080808080808006010101010100887
:105130001010101010106000304C430000000000F0
:10514000000000000000000000000000000000005F
:10515000000000000000000000000000000000004F
:10516000000000000000000000000000000000003F
:1051700000000700070007000700070007000700FE
:10518000020002000000000007000700000000000D
:105190000000000000000000000000001CE01CE017
:1051A0001CE008400840084000000000000000002B
:1051B00000000000000000000000000000000000EF
:1051C0000CC00CC00CC00CC00CC03FF03FF00CC0B9
:1051D0000CC03FF03FF00CC00CC00CC00CC00CC0A9
:1051E00000000000000000000300030007E00FE0E3
:1051F000186018001F000FC000E0186018601FC082
:105200001F800300030003000000000000000000F6
:1052100000001C002200220022001C6001E00F8020
:105220003C0031C002200220022001C0000000002A
:10523000000000000000000000000000000003E08B
:105240000FE00C000C0006000F301FF019E018C032
:105250001FF007B000000000000000000000000088
:1052600000000000038003800380010001000100B2
:10527000000000000000000000000000000000002E
:105280000000000000000000000000C000C001801D
:1052900001800180030003000300030003000300FA
:1052A00001800180018000C000C0000000000000FB
:1052B00000000C000C0006000600060003000300BE
:1052C00003000300030003000600060006000C00B4
:1052D0000C000000000000000000030003000300B9
:1052E0001B601FE0078007800FC00CC0000000009B
:1052F00000000000000000000000000000000000AE
:1053000000000000000003000300030003003FF062
:105310003FF0030003000300030000000000000052
:10532000000000000000000000000000000000007D
:1053300000000000000000000000000000000380EA
:105340000300030006000600040000000000000047
:1053500000000000000000000000000000003FE02E
:105360003FE000000000000000000000000000001E
:10537000000000000000000000000000000000002D
:10538000000000000000000000000000000003809A
:105390000380038000000000000000000000000007
:1053A0000060006000C000C000C0018001800300F8
:1053B0000300060006000C000C000C00180018008A
:1053C000000000000000000000000F801FC018C097
:1053D000306030603060306030603060306018C005
:1053E0001FC00F800000000000000000000000004F
:1053F000000003001F001F00030003000300030060
:1054000003000300030003001FE01FE00000000092
:10541000000000000000000000000F801FC038E006
:105420003060006000C00180030006000C0018001E
:105430003FE03FE00000000000000000000000002E
:1054400000000F803FC030E0006000E007C007C0F0
:1054500000E00060006060E07FC03F80000000006E
:105460000000000000000000000001C003C003C0F5
:1054700006C00CC00CC018C030C03FE03FE000C008
:1054800003E003E000000000000000000000000056
:1054900000001FC01FC0180018001F801FC018E0A8
:1054A00000600060006030E03FC01F80000000002E
:1054B0000000000000000000000003E00FE01E00FC
:1054C0001800380037803FC038E03060306018E0A6
:1054D0001FC0078000000000000000000000000066
:1054E00000003FE03FE03060006000C000C000C04E
:1054F0000180018001800300030003000000000020
:10550000000000000000000000000F801FC038E015
:10551000306038E01FC01FC038E03060306038E0D5
:105520001FC00F800000000000000000000000000D
:1055300000000F001FC038C03060306038E01FE04E
:105540000F6000E000C003C03F803E00000000008C
:10555000000000000000000000000000000000004B
:10556000000003800380038000000000000003802F
:105570000380038000000000000000000000000025
:105580000000000000000000000001C001C001C0D8
:105590000000000000000380030006000600040075
:1055A00000000000000000000000000000000030CB
:1055B00000F003C007001C0078001C00070003C0B7
:1055C00000F00030000000000000000000000000BB
:1055D000000000000000000000007FF07FF00000ED
:1055E00000007FF07FF000000000000000000000DD
:1055F000000000000000000000000000000030007B
:105600003C000F00038000E0007800E003800F0002
:105610003C0030000000000000000000000000001E
:10562000000000000F801FC018601860006001C0FB
:1056300003800300000000000700070000000000D6
:105640000000000000000000000003800C80084003
:105650001040104011C012401240124011C0100002
:105660000800084007800000000000000000000063
:10567000000000001F801F80038006C006C00CC011
:105680000C601FE01FE03030787878780000000070
:105690000000000000000000000000003F803FC04C
:1056A0001860186018E01FC01FE01870183018301C
:1056B0003FF03FE00000000000000000000000009C
:1056C0000000000007B00FF01C70383030003000D0
:1056D0003000300038301C700FE007C000000000C0
:1056E0000000000000000000000000007F807FC07C
:1056F00030E030703030303030303030307030E0CA
:105700007FC07F800000000000000000000000005B
:10571000000000003FF03FF01830183019801F8063
:105720001F801980183018303FF03FF00000000053
:105730000000000000000000000000003FF03FF00B
:105740001830183019801F801F8019801800180029
:105750003F003F00000000000000000000000000CB
:105760000000000007B01FF018703030300030002B
:1057700031F831F8303018301FF007C00000000059
:105780000000000000000000000000003CF03CF0C1
:105790001860186018601FE01FE01860186018603B
:1057A0003CF03CF0000000000000000000000000A1
:1057B000000000001FE01FE00300030003000300DF
:1057C00003000300030003001FE01FE000000000CF
:1057D00000000000000000000000000003F803F8D3
:1057E000006000600060006030603060306030E079
:1057F0003FC00F800000000000000000000000001B
:10580000000000003EF83EF818E019801B001F0061
:105810001D8018C018C018603E783E380000000097
:105820000000000000000000000000003F003F00FA
:105830000C000C000C000C000C000C300C300C3078
:105840003FF03FF0000000000000000000000000FA
:10585000000000007878787838703CF034B037B0C9
:1058600037B03330333030307CF87CF80000000043
:1058700000000000000000000000000039F03DF0D2
:105880001C601E601E601B601B6019E019E018E0C0
:105890003EE03E600000000000000000000000004C
:1058A0000000000007800FC01CE03870303030303E
:1058B0003030303038701CE00FC00780000000002E
:1058C0000000000000000000000000003FC03FE0BA
:1058D00018701830183018701FE01FC0180018001A
:1058E0003F003F000000000000000000000000003A
:1058F0000000000007800FC01CE0387030303030EE
:105900003030303038701CE00FC0078007B00FF027
:105910000CE0000000000000000000003FC03FE07D
:105920001870183018701FE01FC018E01860187049
:105930003E383E180000000000000000000000009B
:10594000000000000FB01FF03870303038001F80AA
:1059500007E00070303038703FE037C000000000D2
:105960000000000000000000000000003FF03FF0D9
:1059700033303330333003000300030003000300EF
:105980000FC00FC000000000000000000000000079
:10599000000000003CF03CF01860186018601860CF
:1059A0001860186018601CE00FC00780000000003D
:1059B00000000000000000000000000078F078F017
:1059C0003060306018C018C00D800D800D80070059
:1059D00007000700000000000000000000000000B9
:1059E000000000007C7C7C7C30183398339833981E
:1059F00036D816D01C701C701C70183000000000C7
:105A000000000000000000000000000078F078F0C6
:105A1000306018C00D80070007000D8018C030608E
:105A200078F078F0000000000000000000000000A6
:105A3000000000003CF03CF018600CC007800780BC
:105A400003000300030003000FC00FC000000000AC
:105A50000000000000000000000000001FE01FE048
:105A6000186018C001800300030006000C60186075
:105A70001FE01FE000000000000000000000000028
:105A8000000003C003C00300030003000300030081
:105A9000030003000300030003000300030003C02E
:105AA00003C0000000000000180018000C000C00EB
:105AB0000C0006000600030003000180018000C006
:105AC00000C000C000600060000000000000000096
:105AD00000000F000F000300030003000300030099
