:020000040800F2
:10000000A8090020C52400082503000827030008CC
:100010002B0300082F030008330300080000000032
:10002000000000000000000000000000370300088E
:1000300039030008000000003B0300083D030008EE
:10004000DF240008DF240008DF240008DF24000884
:10005000DF240008DF240008DF240008DF24000874
:10006000DF240008DF240008DF240008DF24000864
:10007000DF240008DF240008DF240008DF24000854
:10008000DF240008DF240008DF240008DF24000844
:10009000DF240008DF240008DF240008DF24000834
:1000A000DF240008DF240008DF240008DF24000824
:1000B000DF240008DF240008DF240008DF24000814
:1000C000DF240008DF240008DF240008DF24000804
:1000D000DF240008AD280008F7280008412900089F
:1000E000DF240008DF240008DF240008DF240008E4
:1000F000DF240008DF240008DF240008DF240008D4
:10010000DF240008DF240008DF240008DF240008C3
:10011000DF240008DF240008DF240008DF240008B3
:10012000DF240008DF240008DF240008DF240008A3
:1001300000F002F800F03FF80AA090E8000C8244BA
:100140008344AAF10107DA4501D100F034F8AFF297
:10015000090EBAE80F0013F0010F18BFFB1A43F0A5
:1001600001031847C82F0000E82F0000103A24BFF1
:1001700078C878C1FAD8520724BF30C830C144BF0C
:1001800004680C607047000000230024002500264E
:10019000103A28BF78C1FBD8520728BF30C148BFEA
:1001A0000B607047642902F02584002070471FB55A
:1001B0001FBD10B510BD02F0E5FC1146FFF7F7FFBB
:1001C00000F008F802F003FD03B4FFF7F2FF03BCF0
:1001D00002F044FA1CB5002602F0D0F902F038FA19
:1001E00002F090F900F09AFC4FF4E13002F061FA6D
:1001F00000F0F8F900F054FC064646B906E02AA0E3
:1002000002F0B8FB4FF4967002F0F5F9F7E749E019
:1002100004E000F045FC1E2002F0EDF900F0E8FBE0
:100220000028F6D0684600F0F0FB4FF47A71009891
:100230004843040DC8210198484300EB8000C0F3F7
:1002400055204FF4FA71C1EB90251DA002F092FBEE
:1002500023A002F08FFB0A2095FBF0F100FB115761
:1002600095FBF0F83A46414624A002F083FB0A20B1
:1002700094FBF0F100FB114794FBF0F83A4641463D
:1002800022A002F077FB25A002F074FB4FF49670D9
:1002900002F0B1F92248006808B9012000E000200E
:1002A0001F490860B4E700004148543230B4ABB88D
:1002B000D0C6F7B3F5CABCBBAFB4EDCEF30A0000AD
:1002C0002A2A2A2A2A2A2A2A2A2A2A2A2A2A2A2A8E
:1002D0002A2A2A2A2A2A2A2A2A2A2A0A0000000046
:1002E0004148543230CEC2CAAAB6C8B4ABB8D0C6A0
:1002F000F7B2E2CAD4CAFDBEDD3A0A00CEC2B6C821
:100300003A2025642E256420A1E60A00CAAAB6C8B0
:100310003A2025642E25642025250A000A000000C5
:100320008C812142704700BFFEE700BFFEE700BF9F
:10033000FEE700BFFEE77047704770477047000058
:1003400010B501F0E9FC012001F06BFD00BF212098
:1003500001F025FD0028FAD0102001F065F80220F8
:1003600001F04EF8002001F07CFD002001F08BFD33
:100370004FF4806001F07EFD4FF46011002001F029
:1003800053FD012001F05CFD00BF392001F007FDA5
:100390000028FAD0022001F056FD00BF01F05CFDFC
:1003A0000828FBD101211D2001F024FE10BD0CB551
:1003B0000020019000906C48006840F480306A4949
:1003C000086000BF6848006800F4003000900198A1
:1003D000401C0190009818B90198B0F5A06FF1D1B8
:1003E0006148006800F4003010B10120009001E085
:1003F000002000900098012843D15C48006840F03C
:1004000010005A4908600846006820F003000860A0
:100410000846006840F002000860534840685249AE
:1004200048600846406848600846406840F480607C
:1004300048600846406820F47C10486008464068E0
:1004400040F4E81048600846006840F0807008609A
:1004500000BF4548006800F000700028F9D042480D
:10046000406820F00300404948600846406840F07A
:100470000200486000BF3C48406800F00C000828BB
:10048000F9D10CBD10B5FFF792FF10BD10B536487D
:10049000006840F00100344908600846406834496B
:1004A00008403149486008460068324908402E49F2
:1004B00008600846006820F480200860084640680C
:1004C00020F4FE0048604FF41F008860FFF7DAFF59
:1004D0004FF000602849086010BD10B500210020D1
:1004E0000022214B5B6803F00C0121B1042906D0E6
:1004F000082928D107E0214B214C236027E01F4B1E
:100500001F4C236023E0184B5B6803F47010164BFC
:100510005B6803F48032022303EB904022B9194B4D
:100520004343174C23600DE00F4B5B6803F400332B
:1005300023B1144B4343124C236003E00F4B43435E
:100540000F4C236003E00D4B0D4C236000BF00BF38
:10055000054B5B68C3F303130B4CE15C084B1B6852
:10056000CB40074C236010BD001002400020024029
:100570000000FFF8FFFFF6FE08ED00E000127A0031
:100580000000002000093D000400002000BF411EC3
:10059000081EFCD17047F84908807047F64800886B
:1005A000704708B50121102001F024FD4FF4407080
:1005B000ADF8000003208DF8020014208DF8030030
:1005C0006946EE4801F05AFA4FF48071EB4801F0A9
:1005D00002FB4FF40071E94801F0FDFAE848FFF72B
:1005E000D5FF08BD10B50520FFF7D5FFFFF7D9FFF0
:1005F00010BD10B54FF40071E04801F0ECFA0A208C
:10060000FFF7C4FF4FF48071DC4801F0E4FA0A20E0
:10061000FFF7BCFF4FF40071D84801F0C2FA08B9E7
:10062000012010BD4FF40071D44801F0D6FA0A2021
:10063000FFF7ACFF4FF48071D04801F0CEFA0A20EA
:10064000FFF7A4FF4FF40071CC4801F0AAFA08B1FB
:100650000220E6E70020E4E710B54FF40071C74838
:1006600001F0BBFA0A20FFF791FF4FF48071C348F5
:1006700001F0B1FA0A20FFF789FF4FF40071BF487B
:1006800001F0A9FA0A20FFF781FF10BD10B54FF461
:100690000071BA4801F0A1FA0A20FFF777FF4FF482
:1006A0008071B64801F097FA0A20FFF76FFF4FF408
:1006B0008071B24801F091FA0A20FFF767FF10BD80
:1006C00010B54FF40071AD4801F085FA0A20FFF72C
:1006D0005DFF4FF48071A94801F07DFA0A20FFF711
:1006E00055FF4FF48071A54801F077FA0A20FFF713
:1006F0004DFF10BD10B500244FF400719F4801F06C
:100700006AFA0A20FFF742FF4FF480719B4801F01C
:1007100062FA0A20FFF73AFF07E0601CC4B2FA2C25
:1007200003DDFFF799FF022010BD4FF400719348DD
:1007300001F037FA0028F0D14FF480718F4801F0B2
:100740004CFA0020F0E770B504464FF480718B48F6
:1007500001F043FA002524E004F0800028B14FF4B2
:100760000071864801F037FA04E04FF400718348C5
:1007700001F033FA6006040E0A20FFF707FF4FF47A
:1007800080717E4801F027FA0A20FFF7FFFE4FF440
:1007900080717A4801F021FA0A20FFF7F7FE681C01
:1007A000C5B2082DD8DBFFF7A5FF70BD70B54FF4BB
:1007B0000071724801F00FFA4FF480716F4801F038
:1007C0000CFA002400251BE04FF480716B4801F007
:1007D00002FA0A20FFF7DAFE6006040E4FF40071F9
:1007E000664801F0DEF908B144F001044FF480716D
:1007F000624801F0F2F90A20FFF7C8FE681CC5B292
:10080000082DE1DBFFF75CFF204670BD70B54FF4AB
:1008100000715A4801F0DFF94FF48071574801F038
:10082000DCF9002400251BE04FF48071534801F0EF
:10083000D2F90A20FFF7AAFE6006040E4FF40071F9
:100840004E4801F0AEF908B144F001044FF4807154
:100850004A4801F0C2F90A20FFF798FE681CC5B2A9
:10086000082DE1DBFFF712FF204670BD2DE9F047B0
:1008700006460F46904699460025FFF7BAFE00212E
:1008800041EA4601C8B2FFF75EFF054615B12846AA
:10089000BDE8F0873846FFF756FF05460DB12846FC
:1008A000F6E7002409E019F80400FFF74CFF0546BD
:1008B0000DB12846ECE7601CC4B24445F3DBFFF7FA
:1008C000CBFE0020E4E72DE9F041074688461446B8
:1008D0001D46FFF78EFE002141EA4701C8B2FFF72F
:1008E00032FF064616B13046BDE8F0814046FFF7BC
:1008F0002AFF06460EB13046F6E7FFF77AFE0121E1
:1009000001EB4701C8B2FFF71EFF06460EB13046A5
:10091000EAE70BE0012C03D1FFF748FF287002E063
:10092000FFF774FF28706D1C601EC4B2002CF1D15B
:10093000FFF792FE0020D7E72DE9F04707468846EB
:10094000144699464FF0000A0025FFF727FE064699
:1009500000BF0025E2B24B4641463846FFF786FF0E
:1009600005469DB196B15046411C01F0FF0A04288E
:1009700008DD2846BDE8F08714000020000C014087
:10098000A0860100304601F036FEE2E72846F1E796
:100990002DE9F04707468846144699464FF0000A6D
:1009A0000025FFF7FBFD064600BF0025E2B24B46DF
:1009B00041463846FFF787FF05466DB166B15046A0
:1009C000411C01F0FF0A042802DD2846BDE8F0873B
:1009D000304601F010FEE8E72846F7E708B56B4619
:1009E000012200213820FFF7D3FF9DF8000008BD49
:1009F00010B50024FFF7F2FF044604F06800082851
:100A000001D1012010BD0020FCE770B586B005467D
:100A10000024002633208DF8000000208DF801000E
:100A20006B460222AC213820FFF786FF502001F0F0
:100A3000E2FD00BF08E0012001F0DDFD3046711C41
:100A40008EB2642800DB05E0FFF7C8FF00F08000ED
:100A50008028F0D000BF03AB072200213820FFF729
:100A600097FF00249DF80D00204304029DF80E001E
:100A7000204304029DF80F00044324092C60002445
:100A80009DF80F00204304029DF81000204304024B
:100A90009DF811000443C4F313046C6006B070BDEC
:100AA0000EB5282001F0A7FD08208DF800000020D9
:100AB0008DF801006B460222BE213820FFF73CFF73
:100AC0004FF4FA7001F097FD0020134908701DE003
:100AD0006B460022BA213820FFF72EFFC82001F014
:100AE0008AFD6B460222BE213820FFF725FF0A4807
:100AF0000078401C08490870084600780A2801DB85
:100B000000200EBD4FF4FA7001F075FDFFF770FF85
:100B10000028DDD00120F4E71600002000B591B0D8
:100B20000121084601F059FA01214FF4027001F049
:100B300061FA0120ADF8400000208DF8430010A9B3
:100B4000474800F09BFF474800F030FB46480090C4
:100B5000464801900020029001200390002004905C
:100B600005904FF480700690800007902020089038
:100B70000002099000200A9069463A4800F0B8FB4C
:100B80000121384800F0DFFB00200B908DF8300089
:100B900001208DF831004FF460200D9000200E9060
:100BA00001208DF83C000BA92F484C3800F0FDF8CF
:100BB0004FF4404001F082F90523012208212A4820
:100BC0004C3800F08AF9012127484C3800F024F90C
:100BD000012125484C3800F014F923484C3800F026
:100BE00032F900BF20484C3800F032F90028F9D122
:100BF0001D484C3800F036F900BF1B484C3800F057
:100C000036F90028F9D1012117484C3800F039F99C
:100C100011B000BD2DE9F047022000F0AFFB10B18C
:100C2000022000F0BFFB11480088114908800846E7
:100C3000008802F063F906464FF066320D4B02F071
:100C400071F9044600220C4B02F000F8804601F0D6
:100C5000CBFF0A49086008460068BDE8F08700003D
:100C6000000C0140080002404C2401401800002004
:100C70002200002066660A400000B04024000020E8
:100C800031490143314A1160704770B5002100239A
:100C90000F22C47804B32D4C246804F4E064C4F536
:100CA000E064210AC1F10403CA40447804FA03F164
:100CB0008478144021430901254C0678A155047815
:100CC00004F01F050124AC4005786D11AD0005F15D
:100CD000E025C5F8004109E0047804F01F0501246F
:100CE000AC401C4D0678761145F8264070BD1A4A76
:100CF0000A400243154B1B1F1A60704739B1134A53
:100D0000121D12680243114B1B1D1A6006E00F4AA8
:100D1000121D126882430D4B1B1D1A607047042878
:100D200008D14FF0E021096941F004014FF0E022C1
:100D3000116107E04FF0E021096921F004014FF053
:100D4000E0221161704700000000FA050CED00E0A0
:100D500000E400E080E100E080FFFF1F10B50446E2
:100D6000FA48844208D10121401501F05DF90021C3
:100D7000601501F059F917E0F548844208D10121C6
:100D8000001501F051F90021201501F04DF90BE09B
:100D9000F048844208D10121C80301F045F900213F
:100DA0004FF4004001F040F910BD30B5024600207C
:100DB00000235068E84C20400D790C6844EA052473
:100DC000204350609068E54C2040D1E902542C4308
:100DD0004D7944EA450420439060D06A20F47000C5
:100DE0000C7C641EE4B2234340EA0350D06230BD61
:100DF00000210160017141718160C16001210174B4
:100E0000704721B1826842F00102826003E082688B
:100E100022F001028260704721B1826842F4807240
:100E2000826003E0826822F480728260704710B5AD
:100E30000023CBB21AB144681C43446002E044680A
:100E40009C43446010BD816841F008018160704797
:100E5000014600208A6802F008020AB1012000E081
:100E600000207047816841F00401816070470146AD
:100E700000208A6802F004020AB1012000E000208C
:100E8000704721B1826842F4A002826003E0826868
:100E900022F4A00282607047014600208A6802F4B2
:100EA00080020AB1012000E00020704710B50A4618
:100EB00000210023416821F46041531E41EA43317F
:100EC000416010BD21B1426842F40062426003E01B
:100ED000426822F4006242607047F0B504460D4655
:100EE00000200021092D11DDE068A5F10A0606EBBE
:100EF0004607072606FA07F18843A5F10A0606EB1E
:100F0000460603FA06F10843E0600CE0206905EBB1
:100F10004507072606FA07F1884305EB450603FA5D
:100F200006F108432061072A0FDA606B561E06EBB4
:100F300086071F2606FA07F18843561E06EB86062B
:100F400005FA06F10843606322E00D2A0FDA206BF0
:100F5000D61F06EB86071F2606FA07F18843D61F21
:100F600006EB860605FA06F10843206310E0E06A06
:100F7000A2F10D0606EB86071F2606FA07F1884345
:100F8000A2F10D0606EB860605FA06F10843E062BB
:100F9000F0BD21B1826842F48012826003E0826871
:100FA00022F48012826070470146C86C80B270479C
:100FB00066484C300068704721B1426842F4806254
:100FC000426003E0426822F480624260704721B1CF
:100FD000426842F48052426003E0426822F4805248
:100FE000426070470A460021816821F4E0411143C4
:100FF0008160704721B1826842F40042826003E060
:10100000826822F400428260704721B1826842F413
:101010000212826003E0826822F40212826070474A
:10102000014600208A6802F400120AB1012000E0A3
:1010300000207047F0B50446154600200022002627
:10104000092911DDE068A1F10A0707EB470C072722
:1010500007FA0CF29043A1F10A0707EB470703FADE
:1010600007F21043E0600CE0206901EB410C072718
:1010700007FA0CF2904301EB410703FA07F2104321
:101080002061A06BC0F30156EF1C06F1010CA7EB29
:101090000C0707EB870C1F2707FA0CF29043EF1C95
:1010A00006F1010CA7EB0C0707EB870701FA07F223
:1010B0001043A063F0BD10B50A4600210023816BE8
:1010C00021F44011531E41EA0351816310BD08B55C
:1010D000002300930090009B0B440093009B1A6038
:1010E00008BD08B5024600200090009201F12800DA
:1010F000009B184400900098006880B208BD0A4622
:1011000000214168164B194011434160704741620C
:10111000826270470A460021416821F01F01114395
:101120004160704740B109490831096841F4000144
:10113000064A0832116007E004490831096821F4C1
:101140000001024A0832116070470000002401408B
:1011500000280140003C0140FFFEF0FFFDF7F1FFD9
:10116000FFFD3FFF0246002013680B400BB101203A
:1011700000E000207047CA430260704770B5024625
:101180000020002300240B125568CEB205EA0604A5
:1011900015681D4015B10CB1012000E0002070BDA4
:1011A00000220A12D34303607047000001684FF623
:1011B000FE72114001600021016041608160C160E8
:1011C0008D49884208D18C490839496841F00F019E
:1011D000894A083A51608AE087491431884208D127
:1011E00085490839496841F0F001834A083A51605D
:1011F0007DE081492831884208D17F490839496812
:1012000041F470617C4A083A516070E07A493C319F
:10121000884208D178490839496841F47041764AD2
:10122000083A516063E074495031884208D17249EC
:101230000839496841F470216F4A083A516056E014
:101240006D496431884208D16B490839496841F4D5
:101250007001694A083A516049E06749783188422B
:1012600008D165490839496841F07061624A083A15
:1012700051603CE06149884206D1011F096841F094
:101280000F01021F116032E05C491431884208D11D
:101290005A49091F096841F0F001584A121F1160AC
:1012A00025E056492831884208D15449091F096868
:1012B00041F47061514A121F116018E04F493C31EE
:1012C000884208D14D49091F096841F470414B4AD1
:1012D000121F11600BE049495031884207D147493C
:1012E000091F096841F47021444A121F11607047B8
:1012F00010B50022026847F6F0739A430C6A8B68B7
:1013000023430C6923434C6923438C692343CC69F1
:1013100023434C6A23438C6A23431A430260CB68FD
:1013200043600B6883604B68C36010BD002101609F
:1013300041608160C160016141618161C16101629F
:1013400041628162704721B1026842F0010202608D
:1013500004E002684FF6FE731A40026070471AB14B
:1013600003680B43036002E003688B43036070472C
:10137000416070470146486880B2704701460020CE
:10138000002201F080531BB11C4B083B1A6802E09D
:10139000194B083B1A6802EA01030BB1012000E077
:1013A0000020704700F0805119B11449091F0860EE
:1013B00002E01149083948607047014600200022C8
:1013C00001F080531BB10D4B083B1A6802E00A4B39
:1013D000083B1A6802EA01030BB1012000E000207B
:1013E000704700F0805119B10449091F086002E0FC
:1013F000014908394860704708000240080402406B
:1014000001460020FE4A106800F0380008431060D2
:101410007047FB49096821F00801F94A116011463B
:101420000968014311607047F549096821F010010E
:10143000F34A116011460968014311607047F14891
:10144000EF494860F04848607047EE48EC49486012
:10145000ED4848607047EA48006940F08000E8497C
:1014600008617047E648006940F08000E44908617F
:1014700070470420E249C96801F0010109B1012067
:101480000EE0DF49C96801F0040109B1022007E05C
:10149000DB49C96801F0100109B1032000E0042014
:1014A000704700B502460423FFF7E3FF034603E05D
:1014B000FFF7DFFF0346521E012B01D1002AF7D1AF
:1014C00002B90523184600BD30B5044604254FF483
:1014D0003020FFF7E6FF0546042D17D1C848006904
:1014E00040F00200C649086108464461006940F0C6
:1014F000400008614FF43020FFF7D3FF0546C04895
:10150000006941F6FD710840BD490861284630BDBB
:1015100010B504244FF43020FFF7C3FF0446042C19
:1015200016D1B748006940F00400B5490861084683
:10153000006940F0400008614FF43020FFF7B1FF30
:101540000446AF48006941F6FB710840AC490861A8
:10155000204610BD00B502460423FFF78AFF03466C
:1015600003E0FFF786FF0346521E012B01D1002A3C
:10157000F7D102B90523184600BD10B504244FF475
:101580003020FFF7E7FF0446042C16D19C48006981
:1015900040F004009A4908610846006940F04000A4
:1015A00008614FF43020FFF7D5FF044694480069E6
:1015B00041F6FB71084092490861204610BD0020A9
:1015C0008F49C96901F0020109B1012000E0002042
:1015D000704730B5A5250424FFF7F1FF00B10025C1
:1015E0004FF43020FFF75DFF0446042C3AD18548C4
:1015F00083498860844888600846006940F020007C
:1016000008610846006940F0400008614FF430204E
:10161000FFF747FF0446042C1BD17948006941F6C7
:10162000DF710840764908610846006940F0100003
:10163000086176480580E002FFF733FF0446052C79
:1016400010D06F48006941F6EF7108406C4908619D
:1016500008E0052C06D06A48006941F6EF710840A1
:1016600067490861204630BD78B506460C4604251A
:1016700000200090E802FFF714FF0546042D24D156
:101680005F48006940F001005D4908613480E8026C
:10169000FFF707FF0546042D10D1B01C0090200C69
:1016A00000990880E802FFF7FCFE054654480069EF
:1016B00041F6FE7108405249086106E05048006951
:1016C00041F6FE7108404E490861284678BD70B564
:1016D00004460D460426F002FFF7E3FE0646042EFC
:1016E00011D14748006940F0010045490861258053
:1016F000F002FFF7D6FE06464148006941F6FE714A
:1017000008403F490861304670BD70B505460E4639
:101710000424E002FFF7C5FE0446042C17D1394823
:1017200037498860384888600846006940F01000F2
:1017300008612E80E002FFF7B4FE0446052C06D0B7
:101740002F48006941F6EF7108402D490861204695
:1017500070BD2DE9F04304464FF6FF763746B0469C
:10176000B1460425E443E6B2C4F30727C4F30748AF
:101770004FEA1469E802FFF794FE0546042D49D1AB
:1017800020481F498860204888600846006940F06A
:1017900010000861FF2E06D01C4808300680E802C1
:1017A000FFF77FFE0546042D08D1FF2F06D017480E
:1017B0000A300780E802FFF774FE0546042D0AD1BF
:1017C000B8F1FF0F07D011480C30A0F80080E802F4
:1017D000FFF767FE0546042D0AD1B9F1FF0F07D0C8
:1017E0000A480E30A0F80090E802FFF75AFE0546BE
:1017F000052D0FD00248006941F6EF71084007E05F
:101800000020024023016745AB89EFCD00F8FF1FA0
:10181000664908612846BDE8F08330B505460424D2
:101820004FF43020FFF73DFE0446042C41D16048C0
:101830005E4988605F4888600846006940F0200083
:1018400008610846006940F0400008614FF430200C
:10185000FFF727FE0446042C22D15448006941F6C4
:10186000DF710840514908610846006940F01000E6
:1018700008611DB100205049088002E0A5204E49B2
:1018800008804FF43020FFF70CFE0446052C10D0E2
:101890004648006941F6EF7108404449086108E094
:1018A000052C06D04148006941F6DF7108403F49E8
:1018B0000861204630BDF0B505460E4617460424A3
:1018C0003B483A4988603B488860E002FFF7E9FD01
:1018D0000446042C19D13548006940F01000334902
:1018E000086147F0F800304328433349891C0880D9
:1018F000E002FFF7D6FD0446052C06D02B48006910
:1019000041F6EF710840294908612046F0BD27489B
:10191000C069800870472548006A70470020234945
:10192000096801F0200109B1012000E000207047A2
:1019300029B11E4A126902431C4B1A6104E01B4A7A
:1019400012698243194B1A61704701460020012930
:1019500008D1164AD26902F001020AB1012008E05A
:10196000002006E0114AD2680A400AB1012000E0D6
:10197000002070470D49C860704704200B49C968B2
:1019800001F0010109B101200EE00849C96801F028
:10199000040109B1022007E00449C96801F01001FF
:1019A00009B1032000E0042070470000002002403D
:1019B00023016745AB89EFCD00F8FF1F10B5044642
:1019C000CC48844208D10121042000F02DFB0021E5
:1019D000042000F029FB46E0C748844208D10121D9
:1019E000082000F021FB0021082000F01DFB3AE058
:1019F000C248844208D10121102000F015FB0021CB
:101A0000102000F011FB2EE0BD48844208D10121D6
:101A1000202000F009FB0021202000F005FB22E03F
:101A2000B848844208D10121402000F0FDFA00218D
:101A3000402000F0F9FA16E0B348844208D10121B1
:101A4000802000F0F1FA0021802000F0EDFA0AE099
:101A5000AE48844207D10121801500F0E5FA00214B
:101A6000A01500F0E1FA10BD10B50121084600F004
:101A7000DBFA0021012000F0D7FA10BD2DE9F0417A
:101A8000024600250026002000230024002791F8AC
:101A900003C00CF00F0591F803C00CF0100CBCF162
:101AA000000F03D091F802C04CEA050591F800C080
:101AB000BCF1000F31D0146800202BE04FF0010C76
:101AC0000CFA00F3B1F800C00CEA03069E4220D1E4
:101AD00083004FF00F0C0CFA03F7BC4305FA03FC2C
:101AE0004CEA040491F803C0BCF1280F06D14FF072
:101AF000010C0CFA00FCC2F814C00AE091F803C013
:101B0000BCF1480F05D14FF0010C0CFA00FCC2F8F3
:101B100010C0401C0828D1D31460B1F800C0BCF13B
:101B2000FF0F34DD546800202EE000F1080C4FF068
:101B3000010808FA0CF3B1F800C00CEA03069E4253
:101B400021D183004FF00F0C0CFA03F7BC4305FAC8
:101B500003FC4CEA040491F803C0BCF1280F05D142
:101B600000F1080C08FA0CF8C2F8148091F803C0D0
:101B7000BCF1480F07D100F1080C4FF0010808FA3A
:101B80000CF8C2F81080401C0828CED35460BDE881
:101B9000F0814FF6FF710180022181700421C17034
:101BA00070470246002093680B400BB1012000E013
:101BB000002070470146886880B2704702460020C6
:101BC000D3680B400BB1012000E0002070470146B4
:101BD000C86880B2704701617047416170470AB1BF
:101BE000016100E041617047C16070474FF480328D
:101BF0000A4382618161826182698269704702461B
:101C00000020434B18684FF68073184040EA0210DA
:101C100008433F4B186070473E49C8617047F0B5B4
:101C20000A46002300240021002500F00046B6F1FA
:101C3000004F02D1364EF16901E0354E7168C0F3B4
:101C4000034583B200F44016B6F5401F08D121F0D9
:101C500070612F4E766826F070662D4F7E6012E020
:101C600000F48016B6F5801F06D1032606FA05F4A7
:101C7000A14341F0706106E0460D360103FA06F615
:101C8000B14341F0706122B1460D360103FA06F608
:101C9000314300F00046B6F1004F02D11C4EF16115
:101CA00001E01B4E7160F0BD30B500228B071C0FA8
:101CB0000F2303FA04F2164B08338C1053F8243028
:101CC0009343134C08348D1044F8253023468C1070
:101CD00053F824308C07240F00FA04F423430C4CEF
:101CE00008348D1044F8253030BD0A49DC310860D5
:101CF0007047000000080140000C01400010014046
:101D00000014014000180140001C01400020014067
:101D10000000014000002042DF48006840F0010060
:101D2000DD49086008464068DC490840DA494860F7
:101D300008460068DA490840D74908600846006844
:101D400020F4802008600846406820F4FE004860C7
:101D50004FF41F0088607047CF49096821F4803133
:101D6000CD4A11601146096821F480211160B0F557
:101D7000803F03D0B0F5802F0ED106E0C649096838
:101D800041F48031C44A116007E0C349096841F455
:101D9000A021C14A116000E000BF00BF704710B52C
:101DA00001460022002300204A11012A02D1BA4C28
:101DB000236806E0022A02D1B74C236A01E0B64C40
:101DC000636A01F01F02012494401C400CB1012001
:101DD00000E0002010BD38B5002000900024002550
:101DE00000BF3120FFF7DBFF05460098401C009044
:101DF0000098B0F5A06F01D0002DF2D03120FFF790
:101E0000CEFF08B1012400E00024204638BD014681
:101E10000020A14A106820F0F80040EAC1001060DC
:101E20007047A04908607047024600209A4B5868E6
:101E300020F47C1042EA01031843974B5860704726
:101E400098490866704701460020934A506820F080
:101E500003000843506070478F48406800F00C0052
:101E60007047014600208C4A506820F0F00008437B
:101E70005060704701460020874A506820F4E060B7
:101E800008435060704701460020834A506820F4A0
:101E9000605040EAC1005060704729B17E4A527AD2
:101EA00002437D4B5A7204E07B4A527A82437A4B5A
:101EB0005A7270477B49D83108607047014600204C
:101EC000754A506820F44040084350607047002134
:101ED000714A20321170704A82F82010012802D015
:101EE00004280AD104E001216B4A2032117005E078
:101EF0000521694A2032117000E000BF00BF704721
:101F00006949086070476449096A0143624A11627D
:101F10007047654944390860704730B50021002298
:101F2000002400235C4D6D6805F00C0121B10429EB
:101F300005D0082923D105E05C4D056022E05B4D0A
:101F400005601FE0544D6D6805F47012524D6D68C8
:101F500005F48034022505EB92421CB9544D5543DB
:101F600005600BE04C4D6D6805F400351DB1504D1A
:101F70005543056002E04D4D5543056002E04B4D71
:101F8000056000BF00BF444D6D6805F0F001090910
:101F9000484D6B5C0568DD4045603F4D6D6805F45C
:101FA000E061090A434D6B5C4568DD4085603A4D50
:101FB0006D6805F46051C90A3E4D6B5C4568DD40B3
:101FC000C560354D6D6805F44041890B3A4D6B5C39
:101FD000C568B5FBF3F5056130BD29B12E4A5269DC
:101FE00002432D4B5A6104E02B4A526982432A4B2B
:101FF0005A61704729B1284A92690243264B9A6177
:1020000004E0254A92698243234B9A61704729B1C3
:10201000214AD2690243204BDA6104E01E4AD269A8
:1020200082431D4BDA61704729B11B4AD2680243D3
:10203000194BDA6004E0184AD2688243164BDA6022
:10204000704729B1144A12690243134B1A6104E024
:10205000114A12698243104B1A6170471249403984
:10206000086070470F49C86470470B49C8717047D2
:102070000948406A40F0807007494862704701464D
:102080000020054A92680A400AB1012000E00020C1
:102090007047014988727047001002400000FFF845
:1020A000FFFFF6FE000042428004424200127A0026
:1020B00000093D00280000203800002010B504462B
:1020C000FB48844209D101218803FFF7ADFF0021BD
:1020D0004FF48040FFF7A8FF32E0F648844209D170
:1020E00001214804FFF7ADFF00214FF40030FFF756
:1020F000A8FF25E0F048844209D101218804FFF7B8
:10210000A0FF00214FF48020FFF79BFF18E0EB4871
:10211000844209D10121C804FFF793FF00214FF445
:102120000020FFF78EFF0BE0E548844208D1012133
:102130000805FFF786FF00214FF48010FFF781FFAD
:1021400010BD2DE9F04786B005460E460024A24694
:1021500000BFA1460027B08900B100BF2F462C8ADE
:102160004CF6FF700440F08804432C82AC894EF694
:10217000F3100440B088318908437189084304434F
:10218000AC81AC8A4FF6FF400440B0890443AC8276
:1021900001A8FFF7C2FEC648874202D1DDF810A0B1
:1021A00001E0DDF80CA0A88900F4004040B10AEB82
:1021B000CA0000EB0A1031684900B0FBF1F807E0F3
:1021C0000AEBCA0000EB0A1031688900B0FBF1F895
:1021D0006420B8FBF0F004012009642101FB1089A0
:1021E000A88900F4004040B1322000EBC900B0FBE8
:1021F000F1F000F00700044308E0322000EB091082
:102200006421B0FBF1F000F00F0004432C8106B014
:10221000BDE8F0874FF41651016000218180C18034
:1022200001810C21418100218181704710B5024656
:102230000020108A4FF2FF0318400B884C8823437C
:102240008C882343CC8823431843108210BD00217F
:10225000018041808180C180704721B1828942F430
:102260000052828104E082894DF6FF731A40828118
:102270007047F0B50346002400260025002040F6F4
:102280006A17B94200D100BF1846C1F3421401F0E9
:102290001F06012707FA06F5012C01D10C3004E0D6
:1022A000022C01D1103000E014301AB107682F431E
:1022B000076002E00768AF430760F0BD1AB1838A88
:1022C0000B43838202E0838A8B4383827047028AB6
:1022D0004FF6F0731A400282028A0A430282704764
:1022E00082894FF2FF731A40828182890A43828178
:1022F000704721B1828942F00202828104E0828922
:102300004FF6FD731A4082817047028A4FF6DF73E1
:102310001A400282028A0A430282704721B1028A6D
:1023200042F48042028204E0028A4BF6FF731A40B4
:1023300002827047C1F30802828070470146888894
:10234000C0F308007047818941F001018181704725
:10235000028BD2B20283028B42EA012202837047CF
:10236000028B02F47F420283028B0A43028370478E
:1023700021B1828A42F02002828204E0828A4FF6F2
:10238000DF731A408282704721B1828A42F01002C4
:10239000828204E0828A4FF6EF731A40828270478D
:1023A00021B1828A42F00802828204E0828A4FF6DA
:1023B000F7731A408282704721B1828942F4004249
:1023C000828103E08289C2F30E028281704721B1CB
:1023D000828A42F40062828204E0828A4FF2FF73B2
:1023E0001A4082827047828A4FF6FB731A408282BB
:1023F000828A0A438282704721B1828A42F00202B5
:10240000828204E0828A4FF6FD731A40828270470E
:1024100002460020B1F5007F00D100BF13880B40B9
:102420000BB1012000E00020704701F40072B2F50A
:10243000007F00D100BFCA430280704770B50246DA
:10244000002400230025002040F66A16B14200D186
:1024500000BFC1F3421501F01F03012606FA03F382
:10246000012D02D19689334006E0022D02D1168A51
:10247000334001E0968A33400C12012606FA04F438
:102480001688344013B10CB1012000E0002070BD6B
:1024900010B50022002340F66A14A14200D100BF0B
:1024A0000A1201249440A3B2DC43048010BD000052
:1024B000003801400044004000480040004C00400B
:1024C000005000400948804709480047FEE7FEE702
:1024D000FEE7FEE7FEE7FEE7FEE7FEE7FEE7FEE7D4
:1024E00004480549054A064B704700008D04000862
:1024F00031010008A8030020A8090020A805002039
:10250000A805002008B501210920FFF773FD01216E
:102510001548FFF784FB1820ADF8000010208DF857
:10252000030003208DF8020069461048FFF7A6FA61
:1025300000200F49086001200E49C1F88C0108BD38
:1025400008B501210420FFF755FD4FF40040ADF818
:10255000000010208DF8030003208DF8020069466A
:102560000548FFF78BFA08BD00023000000C01405F
:1025700090812142008021420008014010B56FF097
:102580000400FEF7CCFB2E4800682E49B0FBF1F0AA
:102590002D4908700846007800EB4001C1EBC010DF
:1025A0004FF6FF7101EAC0002849088010BD0146BE
:1025B000254A12784A434FF0E0235A6100229A617B
:1025C0001A46126942F001021A6100BF4FF0E02280
:1025D000106900F001021AB100F48032002AF5D02F
:1025E0004FF0E022126922F001024FF0E0231A615D
:1025F00000229A6170470146144A12884A434FF0FC
:10260000E0235A6100229A611A46126942F00102DF
:102610001A6100BF4FF0E022106900F001021AB108
:1026200000F48032002AF5D04FF0E022126922F047
:1026300001024FF0E0231A6100229A617047000006
:102640000000002000127A003C0000203E00002024
:1026500010B54FF4A060FEF713FB10BD014600BF9C
:10266000704700BFB74A128802F04002002AF9D032
:10267000C2B2B44B1B1D1A80704710B5044600BF90
:102680008021B048FFF7C4FE0028F9D02146AD48AC
:10269000FFF750FE10BD10B5044600BF8021AA48C8
:1026A000FFF7B6FE0028F9D02146A748FFF742FE03
:1026B00010BD10B586B00446012144F20400FFF7B6
:1026C00099FCA048FFF7FAFC4FF40070ADF8140035
:1026D00003208DF8160018208DF8170005A99B48D7
:1026E000FFF7CCF94FF48060ADF8140048208DF866
:1026F000170005A99548FFF7C1F925208DF80000BE
:1027000003208DF801008DF8020001208DF80300F0
:102710006846FEF7BAFA01940020ADF80800ADF85B
:102720000A00ADF80C00ADF810000C20ADF80E005A
:1027300001A98448FFF705FD012240F224418148A8
:10274000FFF797FD012240F225517E48FFF791FDEA
:1027500001217C48FFF781FD06B010BD10B586B0A1
:10276000044601210420FFF745FC01214804FFF73E
:102770004EFC7548FFF7A2FC0420ADF814000320BE
:102780008DF8160018208DF8170005A96F48FFF77F
:1027900075F90820ADF8140004208DF8170005A97C
:1027A0006A48FFF76BF926208DF8000000208DF8AD
:1027B000010001208DF802008DF803006846FEF745
:1027C00064FA01940020ADF80800ADF80A00ADF8F5
:1027D0000C00ADF810000C20ADF80E0001A95A480D
:1027E000FFF7AFFC012240F225515748FFF741FDAA
:1027F000012240F224415448FFF73BFD0121524899
:10280000FFF72BFD06B010BD10B586B004460121C0
:102810000820FFF7EFFB01218804FFF7F8FB4C4885
:10282000FFF74CFC4FF48060ADF8140003208DF8E6
:10283000160018208DF8170005A94648FFF71EF965
:102840004FF40060ADF8140004208DF8170005A9BE
:102850004048FFF713F927208DF8000000208DF87D
:10286000010001208DF802008DF803006846FEF794
:102870000CFA01940020ADF80800ADF80A00ADF89C
:102880000C00ADF810000C20ADF80E0001A9304886
:10289000FFF757FC012240F225512D48FFF7E9FCD4
:1028A00001212B48FFF7D9FC06B010BD10B540F24E
:1028B00025512448FFF7C2FD78B12248FFF73EFDBD
:1028C000C4B22048FFF73AFDC1B22348027800782D
:1028D000401C214B18702148815440F22441194872
:1028E000FFF7ACFD30B11748FFF728FDC4B2012057
:1028F0001B49087010BD10B540F225511248FFF772
:102900009DFD78B11048FFF719FDC1B21548026866
:102910000068401C134B1860134881540A48FFF7A5
:102920000DFDC4B240F224410748FFF787FD30B1E6
:102930000548FFF703FDC4B201200C49087010BD23
:10294000704700000038014000440040000801408A
:1029500000480040000C01404C00002044020020D0
:1029600040000020480000205000002041000020CE
:10297000704700000FB4044910B503AA029800F094
:10298000D3F810BC5DF814FB440000202DE9F041A1
:102990000E460446002020622046E168884730B396
:1029A000252805D0D4E901219047206A401CF2E790
:1029B000E168204600278847050018D0A5F14100AE
:1029C000192802D820354FF40067324629462046A0
:1029D0002760FDF7E7FB40B1012804D0F61D26F083
:1029E00007060836D8E7361DD6E72846DAE7206A14
:1029F000BDE8F0812DE9F0410646002410687529F4
:102A0000314616A510D0AFF30080002802DA40420C
:102A100013A507E031688A0701D512A502E049072E
:102A200004D511A5012401E0AFF3008000210A22A2
:102A300006F1240709E0B0FBF2FCB0FBF2F302FB65
:102A40001C00303078541846491C0028F3D1234626
:102A50002A463046BDE8F04100F00CB80000000006
:102A60002D0000002B000000200000007047704780
:102A7000704770472DE9F0470D4699469246044647
:102A800000F124080168880604D5E06921F01001EE
:102A9000216000E00120A84201DD471B00E0002783
:102AA000A1697A1902EB0900081AA0612078C00612
:102AB00002D42046AFF30080002608E0D4E90121CB
:102AC0001AF806009047206A401C761C20624E458A
:102AD000F4DB2078C0060AD52046AFF3008006E07C
:102AE000D4E9012130209047206A401C2062381E22
:102AF000A7F10107F4DC07E0D4E9012118F805008B
:102B00009047206A401C2062281EA5F10105F3DCD5
:102B10002046AFF300802078000602D50220BDE8F1
:102B2000F0870120FBE70000074B70B50D467B44A2
:102B300000F011F80446284600F020F810B14FF0DC
:102B4000FF3070BD204670BD31FBFFFF01694A1C9C
:102B500002610878704700B58FB0CDE901310021DE
:102B6000059105497944CDE9031011466846FFF700
:102B70000DFF0FB000BD0000E5FFFFFF007B00F080
:102B800080007047754600F02BF8AE460500694698
:102B9000534620F00700854618B020B5FFF7A0FC8B
:102BA000BDE820404FF000064FF000074FF000084E
:102BB0004FF0000B21F00701AC46ACE8C009ACE8CF
:102BC000C009ACE8C009ACE8C0098D46704710B533
:102BD0000446AFF300802046BDE81040FDF7F4BA8C
:102BE000004870474403002021F00042A2F16052E7
:102BF000B2F5801F01F0004328BFD2F17F6C0BD9E2
:102C00005FEA001C43EAC20242EB507018BF7047F3
:102C100028BF20F001007047B2F5801FBCBF1846E6
:102C200070474FEA410C1CF5001F02D2084600F025
:102C300077BA70B500F020FA00000089FFF7F6BF00
:102C40004FF00040A0F58000704700002DE9C04122
:102C500030B4DFF8A0C23CEA111418BF3CEA1314E8
:102C600000F0EC8081EA03051CEA111444EAD574F3
:102C700018BF1CEA131500F0C780A4EB05044FF041
:102C8000004545EAC12145EAC32341EA505143EAE0
:102C9000525304F17F74994204F500344FEAC02086
:102CA0004FEAC22208BF904200F09C804FEA1365B1
:102CB0000FF24016765D4FEA134506FB05F7C7F1A4
:102CC000807706FB07F74FEAD737A7FB0368764202
:102CD000C8F58038A7FB06CE38BFA8F1010807FB6E
:102CE00008E64FF0000EA6FB028CE6FB03CEDCF1FB
:102CF000000CCEF1004E38BFAEF1010EA6FB0C5811
:102D00004FF000074FF00005E6FB0E87A1FB08C659
:102D1000A0FB07CE16EB0E0645F10005E1FB0765AB
:102D200015F1E04E7EBFA4F580345FEA46066D41A2
:102D300016F1800745F100054FEA17274FEA0666AE
:102D400047EA0567A6F1DE46B6F1805F4FEA152532
:102D50001FD9384624F0010C05EBC471BCF1FE6F9D
:102D600001EB0C1102D8F0BCBDE8008124425CBF2D
:102D700001F5801E9EEAC47F02D4F0BCBDE800814C
:102D8000244238D4F0BCA1F1C041BDE8004100F0BC
:102D9000C1B94FEAD22242EA43524FEAD323A7FBFA
:102DA00002864FEAD02040EA415007FB03661EEA44
:102DB0000E0F4FEAD12105FB026658BFA6EB005665
:102DC000B6EB00564FEA520E4EEAC37E18EB0E0EDB
:102DD00056EB530EBDD518EB02085E417F1C55F132
:102DE0000005B6E74FF480154FF000074FF00006DE
:102DF0004FF00008ADE7F0BC4FF0000001F1C0411A
:102E000001F00041BDE8008111EA0C1F0CEA131526
:102E100000D00CE013EA0C1F00F025804FF00000FA
:102E2000F0BC81EA030101F00041BDE80081F0BC83
:102E3000BDE8004181EA030100F06CB9F0BCBDE8D7
:102E4000004170B500F018F9097EFC3E00F007B8AB
:102E500081EA03014FF0000001F00041704781EA70
:102E6000030100F057B9F0BCBDE800414FF000008D
:102E700021497047FFFDFBF9F7F5F4F2F0EEEDEBB9
:102E8000E9E8E6E4E3E1E0DEDDDBDAD8D7D5D4D368
:102E9000D1D0CFCDCCCBCAC8C7C6C5C4C2C1C0BFB4
:102EA000BEBDBCBBBAB9B8B7B6B5B4B3B2B1B0AFBA
:102EB000AEADACABAAA9A8A8A7A6A5A4A3A3A2A19E
:102EC000A09F9F9E9D9C9C9B9A9999989797969559
:102ED00095949393929191908F8F8E8E8D8C8C8BF5
:102EE0008B8A89898888878786858584848383827D
:102EF000828181800000FF070000F87FB0FA80F334
:102F000010FA03F10AD0C3F11D0303F580634FEA01
:102F100041504FEA035202EBD12170474FF00000BD
:102F200070470000DFF848C170B51CEA111E1EBFD3
:102F30001CEA13159EEA0C0F95EA0C0F00F06F8047
:102F400081EA030423EA4C134EEAD47E21EA4C11B1
:102F500041F4801143F48013AE44A1FB024CA0FB6A
:102F60000365AEF17F7E361955EB0C05A1FB034CD2
:102F70004CF10003A0FB021C16EB0C06654153F15B
:102F80000003094218BF46F0010613F4007F0BD17D
:102F90004FEA03314FEA0530340341EA155140EA64
:102FA00016506FF003020AE04FEAC3214FEAC52032
:102FB000F40241EA555140EA56506FF0020202EB2A
:102FC0002E4201EB025585EACE710AD05FEA440C2D
:102FD00018BF24F0004450F1000041F1000120EA44
:102FE000D47040F2FE7C624500D270BDA84214BF8E
:102FF0004FF080444FF04044002E08BF0024BEF143
:10300000806FA8BFA1F1C041BDE8704080F282800E
:103010004FF0000001F1C04101F0004170479EEA0D
:103020000C0F0CEA131518BF95EA0C0F06D04FF0E1
:10303000000081EA030E0EF0004170BD00F01CF8A4
:103040008900013E00F007B800F009B84FEA430CD0
:103050005FEA5C5C08D081EA030100F05BB84FEAEC
:10306000410C5FEA5C5CF6D14FF00000014970470B
:103070000000FF070000F87F0EF1020E2EF0030E95
:103080005EF8046B364205D4012A43EB030515F5BF
:10309000001F12D8012841EB010C1CF5001F0CD8B1
:1030A0000ED14FEAD17C15F5001F0CEB4C0C0CF146
:1030B000020C08BF4CEBD37C04E04FF0080C01E09D
:1030C0004FEAD37C0CEB4C0526FA05F606F0070612
:1030D000B6F1040C06D20EEB860CBDE870404CF045
:1030E000010C6047DFE80CF0090B02024FF00041D1
:1030F0004FF00000A1F5002170BD194610460128CF
:1031000051EB010418BFD4F5001484BF002001F076
:10311000004170BD0808A0F500114FEA3101704769
:10312000FF2141EAD050C005704700004C31000833
:1031300000000020500000006C0100089C310008D5
:1031400050000020580900008801000800A24A042D
:103150000000000000000000010203040607080947
:103160003700000000000000000000000000000028
:10317000000000000000000001020304010203043B
:10318000060708090204060800000000000000000D
:0C31900000000000000000000000000033
:0400000508000131BD
:00000001FF
