:020000040800F2
:10000000D00D0020C1010008551E0008AB1C0008DF
:10001000511E0008B1040008692700080000000014
:10002000000000000000000000000000931E000817
:10003000B504000800000000911E0008951E00088D
:10004000DB010008DB010008DB010008DB01000820
:10005000DB010008DB010008DB010008DB01000810
:10006000DB010008DB010008DB010008DB01000800
:10007000DB010008DB010008DB010008DB010008F0
:10008000DB010008DB010008DB010008DB010008E0
:10009000DB010008DB010008DB010008DB010008D0
:1000A000DB010008DB010008DB010008DB010008C0
:1000B000B91F0008C91F000805200008DB0100085F
:1000C000DB010008DB010008DB010008DB010008A0
:1000D000DB010008B5260008DB0100084127000805
:1000E000DB010008DB010008DB010008DB01000880
:1000F000DB010008DB010008DB010008DB01000870
:10010000DB010008DB010008DB010008DB0100085F
:10011000DB010008DB010008DB010008DB0100084F
:10012000DB010008DB010008DB010008DB0100083F
:10013000DB010008DB010008DB010008DB0100082F
:10014000DB010008DB010008DB010008DB0100081F
:10015000DB010008DB010008DB010008DB0100080F
:10016000DB010008DB010008DB010008DB010008FF
:10017000DB010008DB010008DB01000800000000D3
:10018000DB010008DB010008DB010008DB010008DF
:10019000DB010008DB010008DB010008DB010008CF
:1001A000DB010008DB010008DB010008DFF80CD0F0
:1001B00000F06EF800480047FD480008D00D002010
:1001C0000648804706480047FEE7FEE7FEE7FEE7F1
:1001D000FEE7FEE7FEE7FEE7FEE7FEE7551F000845
:1001E000AD01000840EA01039B0703D009E008C9FC
:1001F000121F08C0042AFAD203E011F8013B00F8EC
:10020000013B521EF9D27047D2B201E000F8012B37
:10021000491EFBD270470022F6E710B513460A4686
:1002200004461946FFF7F0FF204610BD2DE9F05FA8
:100230000546002092469B46884606468146402455
:100240001BE0284641464746224600F042F8534606
:100250005A46C01A914110D311461846224600F062
:1002600029F82D1A67EB01084F462246012000218C
:1002700000F020F817EB00094E41201EA4F1010404
:10028000DFDC484631462A464346BDE8F09F000081
:10029000064C074D06E0E06840F0010394E80700D3
:1002A00098471034AC42F6D3FFF784FF604E000845
:1002B000804E0008202A04DB203A00FA02F10020D8
:1002C00070479140C2F1200320FA03F31943904094
:1002D0007047202A04DB203A21FA02F000217047FF
:1002E00021FA02F3D040C2F120029140084319469E
:1002F000704700005A49096821F44031594AC2F850
:1003000004131146D1F8041342681143544A116092
:100310000168496821F480710268516001684A6887
:10032000016942EA0121026851600168496821F0CF
:10033000407102685160016849688268114302682F
:1003400051600168896821F4006102689160016868
:100350008968C268114302689160434A816A914288
:1003600018D00168896821F07061026891600168A5
:100370008968826A1143026891600168896821F086
:1003800040510268916001688968C26A114302683D
:1003900091600BE00168896821F0706102689160EA
:1003A0000168896821F0405102689160016889689C
:1003B00021F002010268916001688A68816942EA5D
:1003C000410102689160016AD1B10168496841F454
:1003D0000061026851600168496821F46041026867
:1003E000516001684A68416A491E4FF4604393FABC
:1003F000A3F3B3FA83F399400A4301684A6005E026
:100400000168496821F40061026851600168C96AA5
:1004100021F470010268D1620168CA6A818B491EA9
:1004200042EA01510268D1620168896821F40071D1
:100430000268916001688A68016B42EA41210268A2
:1004400091600168896821F48061026891600168A7
:100450008A68416942EA8121026891607047000020
:1004600004230140002001400100000F10B50D4899
:100470000D4908604FF48030486000210A488160CF
:10048000C1600161416181610121C161002101629D
:100490004162064981620021C162016300F0D2F924
:1004A00010BD000000200140F40000200100000FFA
:1004B00000BFFEE7704700001FB50446102C75D240
:1004C000DFE804F00814202C3844505C6875818DF6
:1004D00099A5B1BD00940120019007200290002051
:1004E00003906946634800F0DBF8B5E00094012012
:1004F0000190072002900020039069465D4800F0BB
:10050000CFF8A9E00094012001900720029000207C
:1005100003906946574800F0C3F89DE0009401201D
:10052000019007200290002003906946514800F096
:10053000B7F891E00094012001900720029000207C
:10054000039069464B4800F0ABF885E00094012029
:10055000019007200290002003906946454800F072
:100560009FF879E00094012001900720029000207C
:10057000039069463F4800F093F86DE00094012035
:10058000019007200290002003906946394800F04E
:1005900087F861E00094012001900720029000207C
:1005A00003906946334800F07BF855E053E000942F
:1005B00001200190072002900020039069462D48F9
:1005C00000F06EF848E000940120019007200290AE
:1005D000002003906946274800F062F83CE0009450
:1005E00001200190072002900020039069462148D5
:1005F00000F056F830E000940120019007200290AE
:100600000020039069461B4800F04AF824E000945B
:1006100001200190072002900020039069461548B0
:1006200000F03EF818E000940120019007200290AD
:100630000020039069460F4800F032F80CE0009467
:10064000012001900720029000200390694609488C
:1006500000F026F800E000BF00BF064800F0EEF909
:100660000A21044800F08CF9024800F0E7F880B253
:1006700004B010BDF400002010B542F2273109206B
:1006800001F0AAFC4FF4165004F0F4FA4FF4107184
:100690000248FFF7C0FD03F0BBFF10BDBC01002006
:1006A00018B502460020009000BF92F83C000128D7
:1006B00001D1022018BD012082F83C0000BF08686B
:1006C000092816D91068C0680B780A3B03EB43046D
:1006D0000723A34098431368D8600B780A3B03EBC9
:1006E0004303886898401368DB6818431368D86030
:1006F00013E0106800690B7803EB43040723A34061
:100700009843136818610B7803EB4303886898409B
:1007100013681B691843136818614868072817D2C3
:100720001068406B0B795B1E03EB83041F23A3400F
:10073000984313685863088880B20B795B1E03EBFB
:100740008303984013685B6B18431368586331E068
:1007500048680D2817D21068006B0B79DB1F03EB7C
:1007600083041F23A340984313681863088880B24A
:100770000B79DB1F03EB8303984013681B6B184353
:100780001368186316E01068C06A0B790D3B03EB21
:1007900083041F23A34098431368D862088880B25B
:1007A0000B790D3B03EB830398401368DB6A184316
:1007B0001368D8621C4B1068984208D10868122848
:1007C00005D11A48006840F48000C3F80403164BB2
:1007D0001068984220D1164B0868984202D00868E9
:1007E000112819D11148006840F400000F4B18601F
:1007F0000F4B086898420FD10E4800680E4BB0FBB3
:10080000F3F000EB80004000009002E00098401EF2
:10081000009000980028F9D100BF002082F83C0029
:1008200000BF00BF46E70000002001400423014054
:10083000120000100400002040420F00014608682A
:10084000C06C704770B5044600250CB9012070BD1E
:100850001549A06A884200D000BF206C30B9002042
:10086000606484F83C00204600F020F8206C00F022
:10087000100088B9206C20F4885040F002002064F9
:100880002046FFF737FD00206064206C20F0020056
:1008900040F00100206400E0012500BF002084F842
:1008A0003C0000BF2846D2E70100000F10B586B01B
:1008B000044600BF002000902D48006840F480707E
:1008C0002B4908600846006800F48070009000BF63
:1008D00000BF00BF0020009025481438006840F099
:1008E00001002349143908600846006800F001003F
:1008F000009000BF00BF00BF0020009008460068C5
:1009000040F0020008600846006800F00200009015
:1009100000BF00BF00BF002000900846006840F004
:10092000020008600846006800F00200009000BF66
:1009300000BFFF200190032002900020039001A936
:100940000C4800F0F9F80320019002900020039079
:1009500001A9094800F0F0F83F200190032002901F
:100960000020039001A9054800F0E6F806B010BD8C
:1009700044380240000002400004024000080240E7
:1009800070B504460D4600262068806800F480603B
:1009900078B12068806800F4807050B1206C40F01D
:1009A0002000206400BF002084F83C0000BF01202C
:1009B00070BD00F0DDF9064612E0681C80B125B17B
:1009C00000F0D6F9801BA8420AD9206C40F0040040
:1009D000206400BF002084F83C0000BF0320E7E74C
:1009E0002068006800F002000228E6D16FF01200D3
:1009F00021680860206C40F40070206420688068E2
:100A000000F04050B8B9A069A8B92068C06A00F4E5
:100A1000700020B12068806800F4806058B9206CB4
:100A200020F480702064206C00F4805018B9206C91
:100A300040F0010020640020BAE7000008B501463C
:100A40000020009000BF91F83C00012801D1022055
:100A500008BD012081F83C0000BF0868806800F0F4
:100A60000100A0B90868806840F001000A68906041
:100A70002D4800682D4AB0FBF2F000EB40000090DA
:100A800002E00098401E009000980028F9D1086804
:100A9000806800F00100002844D0086C40F2016238
:100AA000904340F4807008640868406800F48060F7
:100AB00028B1086C20F4005040F480500864086CA1
:100AC00000F4805020B1486C20F00600486401E03A
:100AD0000020486400BF002081F83C0000BFC01E19
:100AE0000A6810601248006800F01F0058B90868D2
:100AF000806800F04050A8B90868806840F08040E5
:100B00000A6890600EE00B4A086890420AD10868B3
:100B1000806800F0405028B90868806840F0804044
:100B20000A689060002093E70400002040420F0014
:100B30000423014000200140F8B502460B46002581
:100B4000002400200021E6E0012606FA01F51E68D7
:100B500006EA0504AC4273D15E68022E02D05E68DC
:100B6000122E13D1CF0802F1200656F827004E07A7
:100B7000F70E0F26BE40B0434F07FF0E1E69BE4062
:100B80003043CF0802F1200646F8270010684F00D6
:100B90000326BE40B0431E7906F003064F00BE4058
:100BA000304310605E68012E08D05E68022E05D0CA
:100BB0005E68112E02D05E68122E13D190684F002D
:100BC0000326BE40B0434F00DE68BE403043906015
:100BD000506801268E40B0431E79C6F300168E4041
:100BE00030435060D0684F000326BE40B0434F00F2
:100BF0009E68BE403043D0605E6806F08056B6F115
:100C0000805FA8D100BF00260096454E366846F4A6
:100C10008046434F3E603E46366806F48046009666
:100C200000BF00BF3F4E8F0856F827008E07370FD2
:100C30000F26BE40B0433C4EB24202D100262EE009
:100C400068E03A4EB24201D1012628E0384EB24265
:100C500001D1022623E0374EB24201D103261EE025
:100C6000354EB24201D1042619E0344EB24201D1D0
:100C7000052614E0324EB24201D106260FE0314E75
:100C8000B24201D107260AE02F4EB24201D1082616
:100C900005E02E4EB24201D1092600E00A268F0758
:100CA0003F0FBE4030431F4E8F0846F82700284EA6
:100CB0003068A0435E6806F48036B6F5803F00D108
:100CC0002043234E3060361D3068A0435E6806F432
:100CD0000036B6F5003F00D120431D4E361D306072
:100CE000361D3068A0435E6806F48016B6F5801F96
:100CF00000D12043164E08363060361D3068A043C0
:100D00005E6806F40016B6F5001F00D12043104EB1
:100D10000C363060491C1029FFF416AFF8BD0000F6
:100D200044380240083801400000024000040240FC
:100D300000080240000C0240001002400014024073
:100D400000180240001C0240002002400024024023
:100D5000003C0140024613690B400BB1012000E04A
:100D6000002070470AB1816101E00B048361704784
:100D70000148006870470000180000200248006821
:100D8000401C0149086070471800002010B50D484C
:100D9000006840F400700B4908600846006840F4A1
:100DA000806008600846006840F480700860052094
:100DB00000F068F80F2000F007F800F017F80020A6
:100DC00010BD0000003C024070B5044600F092F9EE
:100DD0004FF47A71B0FBF1F5284600F00FFC0022C9
:100DE0002146501E00F010F8002070BD704700BF73
:100DF00000F01F02012191404209920002F1E0221D
:100E0000C2F8001100BF70472DE9F05F80460D4623
:100E10001646002701F020F8074639462A46334691
:100E200001F00700C0F1070ABAF1040F02D94FF030
:100E3000040A01E0C0F1070AD14600F1040ABAF140
:100E4000070F02D24FF0000A01E0A0F1030AD446D6
:100E50004FF0010A0AFA09FAAAF1010A0AEA020A9B
:100E60000AFA0CFA4FF0010B0BFA0CFBABF1010B79
:100E70000BEA030B4AEA0B042146404600F0F4FF5C
:100E8000BDE8F09F00BF00F00702064B19684FF65F
:100E9000FF031940044B0B4343EA0221014B196045
:100EA00000BF70470CED00E00000FA0538B50024E3
:100EB00000BF002000902348006840F08050214986
:100EC00008600846006800F08050009000BF00BF36
:100ED0000120010491FAA1F1B1FA81F11A4A42F814
:100EE0002100FFF745FF044607E0FFF741FF001B25
:100EF000B0F57A7F01D9032038BD1448406800F46A
:100F00008030B0F5803FF0D10120410491FAA1F189
:100F1000B1FA81F10C4A42F82100FFF729FF04469B
:100F200007E0FFF725FF001BB0F57A7F01D903200A
:100F3000E2E70648406800F40030B0F5003FF0D129
:100F40000020D9E74038024000000E420070004007
:100F500070B504460D4600266448006800F00F0096
:100F6000A84209D261490D700846006800F00F00E0
:100F7000A84201D0012070BD207800F002000228B4
:100F800007D15B48006820F0F000A1680843584989
:100F90000860207800F00100002877D06068012800
:100FA00007D1534808380068C0F34040B8B9012061
:100FB000E1E76068022802D06068032807D14C4846
:100FC00008380068C0F3406048B90120D3E74848BA
:100FD00008380068C0F3400008B90120CBE7444856
:100FE000006820F003006168084341490860FFF78A
:100FF000BFFE06466068012810D108E0FFF7B8FE82
:10100000801B41F28831884201D90320B3E7384878
:10101000006800F00C000428F0D137E06068022876
:1010200010D108E0FFF7A4FE801B41F2883188420E
:1010300001D903209FE72E48006800F00C00082823
:10104000F0D123E06068032810D108E0FFF790FE9C
:10105000801B41F28831884201D903208BE7244864
:10106000006800F00C000328F0D10FE008E0FFF763
:101070007FFE801B41F28831884201D903207AE744
:101080001B48006800F00C000028F0D117480068E9
:1010900000F00F00A84209D914490D7008460068F5
:1010A00000F00F00A84201D0012064E7207800F092
:1010B0000400042807D10E48006820F4E050E168DD
:1010C00008430B490860207800F00800082808D180
:1010D0000748006820F46040216940EAC1000449E3
:1010E00008600F20FFF770FE002044E7003C02403C
:1010F0000838024010B500F045F80949096801F0C8
:10110000F001F02292FAA2F2B2FA82F2D140054A3C
:10111000515CC840044908600846006810BD0000E2
:1011200008380240304E00080400002010B5FFF7D8
:10113000E1FF0749096801F4E0514FF4E05292FAE7
:10114000A2F2B2FA82F2D140024A515CC84010BD0C
:1011500008380240304E000810B5FFF7CBFF0749B2
:10116000096801F460414FF4604292FAA2F2B2FAC7
:1011700082F2D140024A515CC84010BD083802409A
:10118000304E000870B50021002200230020274CBB
:10119000246804F00C0424B1042C04D0082C41D1A0
:1011A00003E0234840E023483EE0204C241F24680D
:1011B00004F03F011D4C241F246804F4800484B112
:1011C0001C4CB4FBF1F5194C241F246847F6C0767B
:1011D000344096FAA6F6B6FA86F6F44005FB04F219
:1011E0000FE0134CB4FBF1F5104C241F246847F6B4
:1011F000C076344096FAA6F6B6FA86F6F44005FBB9
:1012000004F20A4C241F246804F440344FF440359F
:1012100095FAA5F5B5FA85F5EC40641C6300B2FBC0
:10122000F3F001E0024800BF00BF70BD0838024083
:101230000024F40040787D0138B50446002520786C
:1012400000F00100002848D0DE48006800F00C00E3
:1012500004280DD0DB48006800F00C00082811D1EC
:10126000D848001F006800F48000B0F5800F09D155
:10127000D44808380068C0F3404070B3606860BB71
:10128000012038BD2079CF49891F0870606890B16E
:10129000FFF76EFD054606E0FFF76AFD401B642878
:1012A00001D90320EDE7C74808380068C0F3404083
:1012B0000028F1D011E0FFF75BFD054606E0FFF7DF
:1012C00057FD401B642801D90320DAE7BD480838E0
:1012D0000068C0F340400028F1D1207800F00200FF
:1012E000022869D1B748006800F00C0058B1B54831
:1012F000006800F00C00082821D1B248001F0068E7
:1013000000F48000D8B9AF4808380068C0F3400046
:1013100020B1E068012801D00120B2E7A9480838CF
:10132000006820F0F800F82292FAA2F2B2FA82F2F3
:10133000216991400843A349083908603CE0E0680E
:1013400028B30120A0490860FFF712FD054606E01A
:10135000FFF70EFD401B022801D9032091E79948B1
:1013600008380068C0F340000028F1D095480838DC
:10137000006820F0F800F82292FAA2F2B2FA82F2A3
:101380002169914008438F490839086014E0002022
:101390008D490860FFF7ECFC054606E0FFF7E8FC26
:1013A000401B022801D903206BE7864808380068F3
:1013B000C0F340000028F1D1207800F00800082890
:1013C0002CD16069A8B1012080490860FFF7D0FCEA
:1013D000054606E0FFF7CCFC401B022801D903209C
:1013E0004FE778486C300068C0F340000028F1D027
:1013F00014E0002075490860FFF7BAFC054606E0D6
:10140000FFF7B6FC401B022801D9032039E76D48DD
:101410006C300068C0F340000028F1D1207800F063
:101420000400042857D100BF0020009065483830E0
:10143000006840F080506349383108600846006811
:1014400000F08050009000BF00BF6148006840F489
:1014500080705F490860FFF78BFC054606E0FFF7E8
:1014600087FC401B022801D903200AE7584800687E
:1014700000F480700028F2D0207A52496831087058
:10148000A068A0B1FFF774FC054608E0FFF770FC08
:10149000401B41F28831884201D90320F1E64948D6
:1014A00068300068C0F340000028EFD013E0FFF779
:1014B0005FFC054608E0FFF75BFC401B41F288310A
:1014C000884201D90320DCE63E4868300068C0F35A
:1014D00040000028EFD1A069F0B33A48006800F05E
:1014E0000C00082869D0A069022850D10020364994
:1014F0000866FFF73DFC054606E0FFF739FC401B98
:10150000022801D90320BCE62E4808380068C0F341
:1015100040600028F1D1D4E90701084347F6C072C2
:1015200092FAA2F2B2FA82F2616A91400843012271
:10153000A16AC2EB51014FF4403292FAA2F2B2FA20
:1015400082F2914008434FF0706292FAA2F2B2FA2E
:1015500082F2E16A914000E031E008431949091F35
:101560000860012018490866FFF702FC054606E0FE
:10157000FFF7FEFB401B022801D9032081E611483A
:1015800008380068C0F340600028F1D017E0002060
:101590000D490866FFF7ECFB054606E0FFF7E8FBA0
:1015A000401B022801D903206BE606480838006872
:1015B000C0F340600028F1D101E0012061E6002085
:1015C0005FE600000838024000004742800E4742B4
:1015D00000700040042808D14FF0E021096941F073
:1015E00004014FF0E022116107E04FF0E0210969AA
:1015F00021F004014FF0E0221161704770B50446FC
:101600002546681EB0F1807F01D301200FE0681EDF
:101610004FF0E02148610F214FF0FF3000F024FC33
:1016200000204FF0E021886107200861002070BD94
:101630007047704710B504460CB9012010BD94F8EE
:10164000390028B9002084F83800204600F00CF852
:10165000022084F83900211D206800F0EBFC0120F5
:1016600084F839000020E9E738B504462068B0F175
:10167000804F17D100BF002000902748006840F03D
:101680000100254908600846006800F0010000904C
:1016900000BF00BF032200211C20FFF7B5FB1C2068
:1016A000FFF7A5FB1D492068884217D100BF002025
:1016B00000901948006840F0020017490860084689
:1016C000006800F00200009000BF00BF022201216C
:1016D0001D20FFF799FB1D20FFF789FB10492068AB
:1016E000884217D100BF002000900B48006840F0EE
:1016F0000400094908600846006800F004000090F2
:1017000000BF00BF032201211E20FFF77DFB1E202A
:10171000FFF76DFB38BD0000403802400004004078
:101720000008004001460868C06840F001000A68EF
:10173000D0600868006840F001000A68106000206E
:101740007047704710B5044620680069C0F3400038
:10175000D8B12068C068C0F34000B0B16FF002009B
:1017600021680861012020762068806900F003006C
:1017700018B12046FFF7E5FF05E0204600F0ADF880
:10178000204600F0ABF80020207620680069C0F306
:101790008000D8B12068C068C0F38000B0B16FF09D
:1017A000040021680861022020762068806900F426
:1017B000407018B12046FFF7C4FF05E0204600F056
:1017C0008CF8204600F08AF8002020762068006916
:1017D000C0F3C000D8B12068C068C0F3C000B0B189
:1017E0006FF0080021680861042020762068C06935
:1017F00000F0030018B12046FFF7A3FF05E02046E4
:1018000000F06BF8204600F069F800202076206890
:101810000069C0F30010D8B12068C068C0F30010A0
:10182000B0B16FF0100021680861082020762068B0
:10183000C06900F4407018B12046FFF782FF05E050
:10184000204600F04AF8204600F048F800202076B4
:101850002068006900F0010058B12068C06800F0FD
:10186000010030B16FF0010021680861204600F0EE
:1018700036F820680069C0F3C01058B12068C0680D
:10188000C0F3C01030B16FF08000216808612046BD
:10189000FFF7CEFE20680069C0F3801058B12068C1
:1018A000C068C0F3801030B16FF04000216808615B
:1018B000204600F015F820680069C0F3401058B1C8
:1018C0002068C068C0F3401030B16FF0200021687C
:1018D00008612046FFF7ADFE10BD704770477047A6
:1018E0007047704701460022002391F8392091F893
:1018F0003A3042EA03007047F8B504460025002656
:101900002068006800F001052068C06800F4807657
:101910007DB176B100BF0020009020680068009083
:1019200020684068009000BF00BFE06B40F00100FD
:10193000E06320680068C0F340052068406900F05B
:1019400001067DB176B100BF0020009020680068DC
:10195000009020684068009000BF00BFE06B40F03E
:101960000400E06320680068C0F3800520684069D7
:1019700000F001067DB176B100BF00200090206824
:101980000068009020684068009000BF00BFE06BD6
:1019900040F00200E06320680068C0F3C0052068E2
:1019A000406900F001067DB176B100BF00200090D3
:1019B00020680068009020684068009000BF00BF69
:1019C000E06B40F00800E06320680068C0F3401559
:1019D0002068C06800F020061DB116B1204600F056
:1019E000ABFB20680068C0F3C0152068C06800F039
:1019F00080061DB116B1204600F0A6FD20680068E3
:101A0000C0F380152068C06800F040061DB116B113
:101A1000204600F081FBE06B38B1202084F83900CB
:101A200084F83A002046FFF75CFFF8BD10B5044685
:101A30000CB9012010BDA06900B100E000BF94F80E
:101A4000390028B9002084F83800204600F028F832
:101A5000242084F839002068C06820F400502168F0
:101A6000C860204600F0BCFB2068006920F490406C
:101A7000216808612068406920F02A0021684861D7
:101A80002068C06840F400502168C8600020E0630E
:101A9000202084F8390084F83A000020CAE70000CA
:101AA00010B586B004461F492068884238D100BF6F
:101AB000002000901C48006840F001001A490860AE
:101AC0000846006800F00100009000BF00BF00BFA2
:101AD0000020009014481430006840F010001249B3
:101AE000143108600846006800F01000009000BF44
:101AF00000BF4FF4C06001900220029001200390CB
:101B0000022004900720059001A90848FFF714F867
:101B10002520FFF76CF9032211462520FFF774F901
:101B200006B010BD001001403038024000000240F5
:101B300010B5034693F83A0020282FD101B10AB915
:101B4000012010BD00BF93F83800012801D1022008
:101B5000F7E7012083F8380000BF99629A85DA859B
:101B60000020D863222083F83A001868C06840F447
:101B700080701C68E0601868406940F001001C68D3
:101B8000606100BF002083F8380000BF1868C0689B
:101B900040F020001C68E0600020D2E70220D0E77F
:101BA00010B504460C492068884213D14FF47A736B
:101BB00001220A490A4800F015F800BF08480068E9
:101BC0000068C0F380100028F8D06FF0400004498E
:101BD0000968086010BD0000001001401D000020D1
:101BE0007C0100202DE9F04104460D46164698463A
:101BF00094F83900202855D105B116B90120BDE867
:101C0000F08100BF94F83800012801D10220F6E7E6
:101C1000012084F8380000BF0020E063212084F810
:101C20003900A684E68428E0E08C401EE084A068A9
:101C3000B0F5805F14D1434600228021204600F099
:101C4000B7FC08B10320DAE72F463888C0F3080054
:101C500021684860206908B9AD1C0EE06D1C0CE0DD
:101C6000434600228021204600F0A2FC08B1032058
:101C7000C5E715F8010B21684860E08C0028D3D136
:101C8000434600224021204600F092FC08B1032088
:101C9000B5E7202084F8390000BF002084F8380020
:101CA00000BFACE70220AAE7704700BFFEE70000D4
:101CB00010B50446012C01D12D4908702C4800783C
:101CC000002839D008212B48FFF744F880B10421BF
:101CD0002848FFF73FF858B14FF400512648FFF766
:101CE00039F828B101212548FFF734F8012823D11C
:101CF0000A2000F097FF00201D49087008211D48A8
:101D0000FFF728F808B9012010BD04211948FFF792
:101D100021F808B90220F7E74FF400511648FFF701
:101D200019F808B90320EFE701211448FFF712F86A
:101D300001281BD10420E7E708210E48FFF70AF825
:101D4000012813D104210B48FFF704F801280DD115
:101D500041030948FEF7FEFF012807D1012107488A
:101D6000FEF7F8FF10B90120014908700020CBE709
:101D70001C000020001C024000080240000002403D
:101D800000B587B000BF002001901048006840F007
:101D900002000E4908600846006800F00200019049
:101DA00000BF00BF03200290012003900490032095
:101DB000059002A90648FEF7BFFE0120054908600C
:101DC0000549C1F8800207B000BD0000303802406C
:101DD00000040240848240420080404210B586B038
:101DE00000BF002000901648006840F0020014492F
:101DF00008600846006800F00200009000BF00BFC5
:101E000040F6F870019001200290039003200490A6
:101E100001A90C48FEF790FE002408E00A4830F8BB
:101E2000240081B201220948FEF79CFF641C082CA3
:101E3000F4DB0122D1020548FEF794FF06B010BD85
:101E40003038024000040240404E0008000C0240BE
:101E500000BFFEE77047000002480068C0F30220A0
:101E6000704700000CED00E010B5002807DA0A0703
:101E7000140E054A00F00F031B1FD45403E00A0799
:101E8000130E024A135410BD18ED00E000E400E008
:101E90007047704710B5FEF771FF10BD2DE9F04196
:101EA00092B080460D4616461F46002400BF002013
:101EB00000902648006840F0805024490860084699
:101EC000006800F08050009000BF00BF00BF0020FD
:101ED00000901F48006840F440401D4908600846D3
:101EE000006800F44040009000BF00BF0120069051
:101EF000079002200C9041050D91CDF838800F9588
:101F00001096119706A8FFF797F904460CB100BF89
:101F1000FEE7FEF7CBFF04460CB100BFFEE70F2043
:101F2000019002200290002003904FF4A0500490F2
:101F30004FF480500590052101A8FFF709F80446E9
:101F40000CB100BFFEE712B0BDE8F081403802409E
:101F5000007000401448006840F4700012490860A6
:101F60001248006840F001001049086000200F4945
:101F7000083108600D4800680D4908400B490860A9
:101F80000C48091D0860081F006820F48020091F04
:101F90000860002005490C3108604FF000600249DC
:101FA000803908607047000088ED00E0003802408A
:101FB000FFFFF6FE1030002410B50248FFF7C2FB09
:101FC00010BD00007C00002010B50248FFF7BAFBEE
:101FD00010BD00004000002070B505460C460748C3
:101FE000074908600846446000218160C5600161BE
:101FF000FFF720FB0248FFF795FB70BD000400408F
:102000004000002010B50A480068006900F0010097
:1020100060B107480068C06800F0010030B16FF09F
:10202000010003490968086102F0B6F810BD00001C
:10203000B8000020002202682C4B98420ED0B0F16C
:10204000804F0BD02A4B984208D02A4B984205D09B
:10205000294B984202D0294B984201D1012300E03C
:1020600000231BB122F070024B681A431F4B9842A9
:1020700020D0B0F1804F1DD01D4B98421AD01D4B7F
:10208000984217D01C4B984214D01C4B984211D048
:102090001B4B98420ED01B4B98420BD01A4B9842C8
:1020A00008D01A4B984205D0194B984202D0194BD0
:1020B000984201D1012300E000231BB122F44072B9
:1020C000CB681A4302608B68C3620B688362074B5C
:1020D000984202D0094B984201D1012300E000232D
:1020E0000BB10B690363012343617047000001409A
:1020F0000004004000080040000C004000040140C3
:1021000000400140004401400048014000180040E8
:10211000001C00400020004010B504462068C06844
:1021200020F040002168C860202084F83900204653
:10213000FFF7BAFD002010BD70B5044694F83A00D0
:1021400022284AD1A068B0F5805F13D1A56A206922
:1021500040B920684068C0F308002880A06A801C4D
:10216000A06219E020684068C0B22880A06A401CC4
:10217000A06211E0206938B920684068C1B2A26A43
:10218000501CA062117007E02068406800F07F01D9
:10219000A26A501CA0621170E08D401E80B2E085E2
:1021A000C8B92068C06820F020002168C860206895
:1021B000C06820F480702168C8602068406920F001
:1021C000010021684861202084F83A002046FFF78A
:1021D000E7FC002070BD0020FCE70220FAE70000C9
:1021E0002DE9F041044600252068056925F4405595
:1021F000E0680543206805612068C56849F20C6005
:1022000085432169A068084361690843E16908437F
:1022100005432068C5602068456925F44075A069BC
:10222000054320684561E069B0F5004F7ED1C4499F
:102230002068884203D0C349206888425DD1FEF7F8
:102240008BFF00EBC00101EB001061684900B0FB9F
:10225000F1F06421B0FBF1F00601FEF77DFF00EB29
:10226000C00101EB001061684900B0FBF1F7FEF717
:1022700073FF00EBC00101EB001061684900B0FB87
:10228000F1F06421B0FBF1F000EBC00101EB0010B4
:10229000A7EB8000322101EBC0006421B0FBF1F01C
:1022A00000F0F80006EB4006FEF756FF00EBC00119
:1022B00001EB001061684900B0FBF1F7FEF74CFF3D
:1022C00000EBC00101EB001061684900B0FBF1F0C8
:1022D0006421B0FBF1F000EBC00101EB0010A7EBB3
:1022E0008000322101EBC0006421B0FBF1F000F06E
:1022F000070030442168886020E1FEF717FF00EBFB
:10230000C00101EB001061684900B0FBF1F06421ED
:10231000B0FBF1F00601FEF709FF00EBC00101EB95
:10232000001061684900B0FBF1F700E045E0FEF7FE
:10233000FDFE00EBC00101EB001061684900B0FB3D
:10234000F1F06421B0FBF1F000EBC00101EB0010F3
:10235000A7EB8000322101EBC0006421B0FBF1F05B
:1023600000F0F80006EB4006FEF7E0FE00EBC001CF
:1023700001EB001061684900B0FBF1F7FEF7D6FEF3
:1023800000EBC00101EB001061684900B0FBF1F007
:102390006421B0FBF1F000EBC00101EB0010A7EBF2
:1023A0008000322101EBC0006421B0FBF1F000F0AD
:1023B0000700304421688860C0E061492068884295
:1023C00003D06049206888425CD1FEF7C5FE00EB6F
:1023D000C00101EB001061688900B0FBF1F6FEF767
:1023E000BBFE00EBC00101EB001061688900B0FB8F
:1023F000F1F06421B0FBF1F000EBC00101EB001043
:10240000A6EB8000322101EB00106421B0FBF1F05B
:1024100000F0F006FEF7A0FE00EBC00101EB00109B
:1024200061688900B0FBF1F06421B0FBF1F006EBCC
:102430000016FEF791FE00EBC00101EB0010616891
:102440008900B0FBF1F7FEF787FE00EBC00101EB5E
:10245000001061688900B0FBF1F06421B0FBF1F07D
:1024600000EBC00101EB0010A7EB8000322101EB73
:1024700000106421B0FBF1F000F00F00304421683F
:1024800088605BE0FEF752FE00EBC00101EB00103C
:1024900061688900B0FBF1F6FEF748FE00EBC00171
:1024A00001EB001061688900B0FBF1F06421B0FB22
:1024B000F1F000EBC00101EB0010A6EB800032212F
:1024C00001EB00106421B0FBF1F000F0F006FEF724
:1024D0002DFE00EBC00101EB001061688900B0FB2C
:1024E000F1F06421B0FBF1F006EB0016FEF71EFEE2
:1024F00000EBC00101EB001061688900B0FBF1F74F
:10250000FEF714FE00EBC00101EB001061688900CA
:10251000B0FBF1F06421B0FBF1F000EBC00101EB86
:102520000010A7EB8000322101EB00106421B0FB0A
:10253000F1F000F00F00304421688860BDE8F081C0
:102540000010014000140140014691F83900212893
:102550002CD18868B0F5805F0FD10A6A1088C0F36B
:1025600008000B685860086918B9086A801C08627E
:1025700009E0086A401C086205E00B6A581C086202
:1025800018780B685860C88C401E80B2C88458B94F
:102590000868C06820F080000B68D8600868C068D0
:1025A00040F040000B68D860002070470220FCE734
:1025B0002DE9F04104460E4617461D464FF000082F
:1025C000FEF7D6FB804677BB2FE0681C60B32DB1C9
:1025D000FEF7CEFBA0EB0800A84226D92068C06811
:1025E00020F080002168C8602068C06820F02000CA
:1025F0002168C8602068C06820F480702168C860C5
:102600002068406920F0010021684861202084F89A
:10261000390084F83A0000BF002084F8380000BF79
:102620000320BDE8F0810BE0FFE720680068304040
:10263000B04201D1012000E000200028C5D037E0E1
:102640002CE0681C50B32DB1FEF792FBA0EB080004
:10265000A84223D92068C06820F080002168C860A3
:102660002068C06820F020002168C8602068C06829
:1026700020F480702168C8602068406920F0010063
:1026800021684861202084F8390084F83A0000BFAE
:10269000002084F8380000BF0320C2E720680068EB
:1026A0003040B04201D1012000E000200028C8D114
:1026B0000020B6E770B500240F4D1048FFF71CF955
:1026C00000BF03E0641CAC4200D904E00B48FFF7F4
:1026D00009F92028F6D100BF002403E0641CAC42B5
:1026E00000D906E0012206490448FFF721FA002834
:1026F000F4D100BF70BD0000FFFF01007C0100208D
:102700001D00002010B504460B480C49086008461F
:10271000446000218160C160016181610C214161DF
:10272000FFF784F905480068C06840F020000349BD
:102730000968C86010BD0000001001407C01002045
:1027400008B5084800680068C0F3401040B105486B
:1027500000684068C0B200900121684601F066FC44
:1027600008BD00003C01002000BFFEE70FB4054B90
:1027700010B503A9044A029800F018F810BC5DF8DF
:1027800014FB0000B92C00083800002002E008C843
:10279000121F08C1002AFAD170477047002001E0DB
:1027A00001C1121F002AFBD1704700002DE9FF4F25
:1027B0008DB00F460546002606E025280BD0DDE942
:1027C0000F1290476D1C761C28780028F5D111B0A7
:1027D0003046BDE8F08F0024A246A1460122EC4914
:1027E00000E0044315F8013F203B02FA03F00842E1
:1027F000F7D128782A2810D06FF02F022878A0F17E
:102800003001092914D80AEB8A0102EB410144F096
:10281000020400EB010A6D1CF0E701CF5FEA000A39
:1028200003D544F40054CAF1000A44F002046D1CBC
:1028300028782E2817D115F8010F44F004042A280F
:102840000ED06FF02F022878A0F1300109290AD8A4
:1028500009EB890102EB410100EB01096D1CF2E774
:1028600057F8049B6D1C28786C280FD006DC4C2888
:1028700017D068280DD06A2814D104E0742810D02D
:102880007A280FD10DE044F400140AE044F48014D7
:1028900001E044F440146978814202D104F58014C7
:1028A0006D1C6D1C2A786E2A1FD00CDC632A31D077
:1028B00004DC002A8BD0582A11D1A3E0642A68D006
:1028C000692A0CD165E0732A2ED004DC6F2A73D0FC
:1028D000702A04D19BE0752A6FD0782A6ED01046FA
:1028E000DDE90F129047761C50E1C4F30250022834
:1028F00006D0032809D0042801CF09D0066045E19D
:1029000001CFF117C0E9006140E101CF06803DE150
:1029100006703BE117F8040B8DF8000000208DF8DD
:102920000100EB46012003E057F804BB4FF0FF30F5
:1029300061074FF0000102D40DE008F10101884663
:1029400049450FDA8045F8DB1BF808100029F4D15F
:1029500008E008F1010188468142FADB1BF8081003
:102960000029F6D1DDE90F23AAEB080081462146B4
:1029700000F036F9304400EB080604E0DDE90F1200
:102980001BF8010B9047B8F10108F7D221464846E1
:10299000F7E00A21C4F302534FF0000B0891022B19
:1029A00004D001CFC117032B09D00AE0FF1D27F087
:1029B0000707F7E8020108E032E01FE020E000B27C
:1029C000C117042B01D140B2C117031E71F10003DE
:1029D00007DA4FF0000CD0EB0C006CEB01012D235B
:1029E00002E0230504D52B238DF82430012303E0D6
:1029F000E30701D02023F7E7984658E00A2110E0CA
:102A000010210EE010204FF0000B08900CE0102178
:102A10004FF0000B44F004044FF00809089103E064
:102A200008214FF0000B0891C4F30253022B04D08D
:102A300001CF0021032B06D006E0FF1D27F007077A
:102A4000F7E8020103E080B2042B00D1C0B24FF0DE
:102A5000000823072BD5702A07D0DDF820C08CF0A2
:102A6000100C5CEA0B0C05D00EE040238DF82430EE
:102A7000012308E050EA010306D030238DF824300A
:102A80008DF8252002239846DDF820C08CF0080C34
:102A90005CEA0B0C0BD150EA010301D1630706D5A8
:102AA00030238DF824304FF00108A9F10109582A8C
:102AB00004D038A20B9208AA0A920BE03AA2F9E7D6
:102AC0005B46089AFDF7B2FB0B9B9B5C0A9A521E71
:102AD0000A92137050EA0102F2D10A98ADEB00009D
:102AE00000F1200B600702D524F4803401E04FF0A0
:102AF0000109D94502DDA9EB0B0000E0002000EB45
:102B00000B0141440890AAEB010AE00306D4DDE979
:102B10000F232146504600F063F806444FF00009A9
:102B200008E009A911F80900DDE90F12904709F141
:102B30000109761CC145F4DBE0030CD5DDE90F2368
:102B40002146504600F04CF8064404E0DDE90F123F
:102B500030209047761C0899481E08900029F5DC23
:102B600008E00A980A990078491C0A91DDE90F12D9
:102B70009047761CBBF10001ABF1010BF1DC214663
:102B80005046DDE90F2300F019F806446D1C1BE6E2
:102B90000928010030313233343536373839616233
:102BA00063646566000000003031323334353637F7
:102BB0003839414243444546000000002DE9F041C8
:102BC000044600251E461746880404D405E039460D
:102BD0002020B0476D1C641EF9D52846BDE8F08161
:102BE0002DE9F041044600251E469046C80301D554
:102BF000302700E02027880404D505E04146384608
:102C0000B0476D1C641EF9D52846BDE8F081000070
:102C100010B504460420FEF7DDFC0148046010BD39
:102C20002000002030B50446002504E04FF47A70FF
:102C300000F004F86D1CA542F8D330BD70B5034612
:102C400000224FF0E02675690D4E366803FB06F44E
:102C50004FF0E026B16910E04FF0E026B0698842FD
:102C60000BD0884202D20E1A324402E02E1A0E44D1
:102C700032440146A24200D300E0EDE700BF70BD40
:102C80002000002001B581B000200090694601AA13
:102C90005078087010784870BDF800000CBD0146EF
:102CA000080601F47F4240EA022001F47F0240EA74
:102CB000122040EA1160704700BF054A126802F016
:102CC0004002002AF9D0C2B2014B5A60704700009E
:102CD0000010014010B5002821D0114B0022001F28
:102CE000196803E0814203D80A4649680029F9D1EE
:102CF00052B11368841A9C4204D1006818441060D1
:102D0000104602E0506000E0186039B102680B1A0A
:102D1000934203D10B681A4402604968416010BDB8
:102D20003C00002030B502460B460021002400255F
:102D30000AB9481E30BD002108E0545C581A401EF4
:102D4000155C5554581A401E1454491CB1EB530FCE
:102D5000F3D30020EEE700002DE9F04104460D46D4
:102D60000027002604B135B92DA0FFF7FFFC4FF076
:102D7000FF30BDE8F08100F0D1F90646A54213D03E
:102D800031480068301A41F2707188420CD32FA08C
:102D9000FFF7ECFC354890F8AE0020F00100401C35
:102DA000324981F8AE00012705F5007004F5007185
:102DB000884213D024480068301A41F2707188426A
:102DC0000CD32BA0FFF7D2FC284890F8AE0020F0DF
:102DD0000200801C254981F8AE00012705F5087026
:102DE00004F50871884213D017480068301A41F280
:102DF000707188420CD327A0FFF7B8FC1B4890F8ED
:102E0000AE0020F00400001D184981F8AE00012733
:102E1000012F03D100F082F90B4908603846A8E77A
:102E200067697A436865636B5265706F7274204599
:102E300072726F72202C20496C6C6567616C205037
:102E40006172616D0A0000002800002076616C75D7
:102E50006550726573737572655F7369676E616CD7
:102E6000204368616E6765640A000000FC0300206F
:102E700076616C756554656D7065726174757265A7
:102E80005F7369676E616C204368616E6765640A91
:102E90000000000076616C756548756D6964697441
:102EA00079204368616E6765640A00002DE9FF5F61
:102EB0000546884691464FF0000A0027002400206E
:102EC000009001904C4890F8AE008DF80000641C12
:102ED00015B1B8F1000F07D148A0FFF747FC4FF03C
:102EE000FF3004B0BDE8F09F17B94FF0000A08E0CA
:102EF00007F0070010B94FEAD70A02E0012000EB03
:102F0000D70ABAF1010F04D90DEB04005146FFF7BF
:102F100009FF544400265EE0374890F8AE0000F008
:102F20000100B8B105EB8600006801EE100ADFED84
:102F30003F0A9FED3F0A01F037F91FFA80FB584620
:102F4000FFF7A0FEADF808000DEB0400BDF8081077
:102F50000180A41C284890F8AE00C0F34000C8B11E
:102F600005F5007000EB8600006801EE100ADFED49
:102F7000310A9FED2F0A01F017F91FFA80FB58461E
:102F8000FFF780FEADF80A000DEB0400BDF80A1053
:102F90000180A41C184890F8AE00C0F38000C8B1AE
:102FA00005F5087000EB8600006801EE100ADFED01
:102FB0001F0A9FED1F0A01F0F7F81FFA80FB584621
:102FC000FFF760FEADF80C000DEB0400BDF80C102F
:102FD0000180A41C761C902E9EDB0748002180F8FF
:102FE000AE10C9F8004069464046D9F80020FDF708
:102FF000F9F8002075E70000FC03002067697A44B7
:10300000617461506F696E7473325265706F72745F
:1030100044617461204572726F72202C20496C6C7F
:103020006567616C20506172616D0A0000000000EC
:10303000CDCCCC3D00007AC370B5054600F06EF8EB
:103040000446002625492846FFF786FE012817D1A9
:1030500023A0FFF78BFB284AD11F2846FFF726FF46
:1030600040B92548B638D0F8B62000F1AF01142099
:1030700001F016F84FF4107229461848FDF7B2F81F
:103080001E48B4FBF0F100FB114018BB1C4800685F
:10309000A0421FD01BA0FFF769FBFF2201211648A9
:1030A0000838FDF7B1F8144AD11F2846FFF7FEFE95
:1030B00040B91148B638D0F8B62000F1AF0114205D
:1030C00000F0EEFF4FF4107229460448FDF78AF82D
:1030D0000B4804603046FFF7FDFD70BDF60600208A
:1030E0006368616E6765642C207265706F7274200E
:1030F000646174610A000000B2040020C027090066
:103100002C000020496E666F3A2036303053207212
:1031100065706F727420646174610A000148006810
:10312000704700002400002010B5174890F84400B4
:10313000012827D1144890F8430002281DDAFFF730
:10314000EDFF1149D1F86210401AC8281AD9FFF7CB
:10315000E5FF04460C4890F84330D0F86220214641
:103160000AA0FFF703FB00F0B9FE074890F8430000
:10317000401C054981F8430004E023210248433004
:10318000FDF749F810BD0000FC0300205761726E86
:10319000696E673A67697A50726F746F636F6C52C9
:1031A0006573656E64446174612025642025642024
:1031B00025640A003EB50446002524B913A0FFF794
:1031C000D5FA681E3EBD20680090606801909DF8A9
:1031D0000400401CC0B28DF804000520FFF752FD2A
:1031E000ADF802000921684600F0B6FE8DF808002F
:1031F0000921684601F09AFD0546002D03DA2946AB
:103200000DA0FFF7B3FA2846DCE700004552523A1A
:103210002067697A50726F746F636F6C436F6D6D66
:103220006F6E41636B206461746120697320656D0A
:10323000707479200A0000004552523A207561727C
:1032400074207772697465206572726F72202564CC
:10325000200A0000FEB504460E46002524B914A03D
:10326000FFF784FA681EFEBD684600F0D7F9122009
:103270008DF8040060798DF805000620FFF702FD47
:10328000ADF802008DF808600A21684600F064FE7F
:103290008DF809000A21684601F048FD0546002D19
:1032A00003DA29460DA0FFF761FA2846DBE70000A4
:1032B00067697A50726F746F636F6C4572726F7268
:1032C000436D64204572726F72202C20496C6C65CE
:1032D00067616C20506172616D0A00004552523A7C
:1032E0002075617274207772697465206572726FDF
:1032F00072202564200A000030B59DB004460025E8
:103300002CB92BA0FFF732FA681E1DB030BD6846FD
:1033100000F084F902208DF8040060798DF8050032
:103320002FA103C9CDE9020130A103C9CDE90401F0
:1033300031A103C9CDE9080132A103C9CDE90601D4
:10334000202233A10AA8FCF74DFF202239A10DF15C
:103350005200FCF747FF0020CDF84A00CDF84E00A0
:103360009DF851008DF851009DF8510040F0020188
:103370008DF851100020FFF785FCADF848006F2054
:10338000FFF780FCADF802007321684600F0E4FD11
:103390008DF872007321684601F0C8FC0546002DC7
:1033A00003DA29462CA0FFF7E1F92846ADE7000033
:1033B00067697A50726F746F636F6C4765744465A8
:1033C00076696365496E666F204572726F72202C54
:1033D00020496C6C6567616C20506172616D0A00F8
:1033E0003030303030303034000000003030303099
:1033F0003030303200000000303330333030303085
:103400000000000030333031303130300000000037
:1034100030643139303263326562646334643966F2
:103420006133303934643362636639373736376233
:10343000000000003035383166333435656361662D
:10344000346566613931333837306334366431334B
:1034500063316666000000004552523A2075617281
:1034600074207772697465206572726F72202564AA
:10347000200A00002DE9FE4F80460E4617464FF009
:10348000000B0020029081468246002534460090C1
:10349000B8F1000F01D006B137B950A0FFF766F9B7
:1034A0004FF0FF30BDE8FE8F404601F0E5FA00F036
:1034B000FF0ABAF1000F02D14FF0FF30F2E74FF0F0
:1034C00000095DE0012201A9404601F012FB83469C
:1034D000BBF1000F52D04D480078FF281FD19DF856
:1034E0000400FF281BD14A48007848B9FF2020700B
:1034F000607002204749088001204549087034E087
:1035000044480088042830DD42480088A8422CD076
:10351000FF202070607002203E49088025E03B4873
:103520000078FF2803D19DF8040055281DD03848A5
:103530000078012819D19DF80400364909886054A3
:1035400034480088401C3349088008460088042815
:103550000BDD0094009C6088FFF794FB001D85B292
:103560002C480088A84200D10CE09DF804002749AF
:10357000087029480078401C2749087009F10109A2
:10358000D1459FDB00BF23480088042823DD214864
:103590000088A8421FD11F480188204600F0DCFCAB
:1035A00002901C480088401E215C029881420FD185
:1035B0002A4621463046FCF715FE3D80002014497E
:1035C000087014490880144908701049087069E7A8
:1035D0006FF0010066E7012064E7000067697A5038
:1035E000726F746F636F6C4765744F6E6550616383
:1035F0006B6574204572726F72202C20496C6C656B
:1036000067616C20506172616D0A00003400002017
:1036100030000020320000203500002010B50446A4
:103620002CB907A0FFF7A2F84FF0FF3010BD002023
:1036300020606060FF20207060700020F6E70000CE
:103640004552523A2067697A50726F746F636F6C9B
:1036500048656164496E69742068656164206973B6
:1036600020656D707479200A000000002DE9F04F8C
:103670008FB006468B461746994600200E9082462C
:10368000804600256C46BBF1000F06D130A0FFF745
:103690006DF8681E0FB0BDE8F08FB9F1010F06D1CB
:1036A00096F8088008F10600384485B201E0781DDC
:1036B00085B22B46424639462BA0FFF757F8FF202C
:1036C00004F8010B04F8010B281204F8010B04F8AC
:1036D000015B3079401C04F8010B707904F8010B90
:1036E000002004F8010B04F8019B4FF0080AB9F11F
:1036F000010F0CD104F8018B0AF1010A0DEB0A004D
:10370000424606F10901FCF76DFDC24444442FB165
:103710000DEB0A003A465946FCF764FD291D684640
:1037200000F01AFC0146E81C0DF80010291D68463F
:1037300001F0FCFA0E900E98002806DA14A00E99FB
:10374000FFF714F86FF00100A4E70020A2E70000E3
:103750005B4552525D202064617461204973204EA4
:10376000756C6C200A0000006C656E203D2025649D
:10377000202C20734469644C656E203D2025642014
:103780002C646174615F6C656E203D2025640A00C5
:1037900075617274207772697465206572726F72D8
:1037A000202564200A0000002DE9F04780460C46E1
:1037B00017461D46089E94F800900CB105B136B925
:1037C00030A0FEF7D3FF4FF0FF30BDE8F087B8F12F
:1037D000000F55D112213748FCF71DFDB9F1050F37
:1037E0002CD0B9F1110F03D0B9F1120F46D103E07B
:1037F00000250020306042E02FA0FEF7B7FF2D48E3
:103800006638617880F8AE1000F1B602D11F00F280
:10381000FA20FFF74BFB68B926486638D0F8B62087
:1038200000F1AF01681CFCF7DDFC132028700820B4
:10383000306002E04FF0FF30C7E720E07A1E611CE5
:103840001C484A38FCF7CEFC781E1A496639C1F884
:10385000370010211748663890F866206730815489
:10386000673890F86600401C1249663981F8660096
:103870000320087000250020306000E000BF00BF7A
:103880000020A2E767697A50726F746F636F6C49AA
:10389000737375656450726F6365737320457272DC
:1038A0006F72202C20496C6C6567616C20506172CE
:1038B000616D0A0062040020414354494F4E5F4548
:1038C0004C4F4E474154455F524541445F44455635
:1038D0005F535441545553200A00000070B504460C
:1038E00025462CB90EA0FEF741FF4FF0FF3070BD0A
:1038F000412205F108010E48FCF774FC0F210D4828
:1039000090F89C209D3081549D3890F89C00401C7C
:10391000084981F89C00052008700020E7E70000B6
:103920004E545020697320656D707479200A000030
:1039300043090020FC03002010B504462CB9CAA09E
:10394000FEF714FF4FF0FF3010BD2089FFF79AF902
:103950002081D1480078C0F38000217AC1F3800132
:10396000884256D0207AC0F38000002829D0207ADF
:1039700000F0010078B10021C84890F87820793033
:103980008154793890F87800401CC44981F8780057
:10399000C3A0FEF7EBFE207AC0F34000002838D029
:1039A0000121BE4890F8782079308154793890F818
:1039B0007800401CB94981F87800C1A0FEF7D6FE16
:1039C00027E0207A00F0010078B10021B34890F898
:1039D000782079308154793890F87800401CAF49CC
:1039E00081F87800AEA0FEF7C1FE207AC0F3400057
:1039F00078B10221A94890F878207930815479383B
:103A000090F87800401CA54981F87800B3A0FEF733
:103A1000ADFEA1480078C0F3C000217AC1F3C00117
:103A200088422CD0207AC1089B48007861F3C300FB
:103A300099490870207AC0F3C00080B103219748EB
:103A400090F8782079308154793890F87800401CCB
:103A5000924981F87800A8A0FEF788FE0FE00421C3
:103A60008E4890F8782079308154793890F8780031
:103A7000401C8A4981F87800A7A0FEF777FE8648A7
:103A80000078C0F30010217AC1F3001188422CD0D5
:103A9000207A01098048007861F304107E4908709B
:103AA000207AC0F3001080B105217C4890F878207E
:103AB00079308154793890F87800401C774981F842
:103AC00078009DA0FEF752FE0FE00621734890F8A3
:103AD000782079308154793890F87800401C6F490B
:103AE00081F878009CA0FEF741FE6B480078C0F397
:103AF0004010217AC1F3401188422CD0207A41092C
:103B00006548007861F3451063490870207AC0F376
:103B1000401080B10721614890F8782079308154B5
:103B2000793890F87800401C5C4981F8780093A0BF
:103B3000FEF71CFE0FE00821584890F878207930F5
:103B40008154793890F87800401C544981F8780005
:103B500091A0FEF70BFE50484078C0F3C001607A98
:103B6000C0F3C00081422CD0607AC1084A48407836
:103B700061F3C30048494870607AC0F3C00080B167
:103B80000B21464890F8782079308154793890F8A4
:103B90007800401C414981F8780087A0FEF7E6FDD7
:103BA0000FE00C213D4890F8782079308154793825
:103BB00090F87800401C394981F8780085A0FEF71C
:103BC000D5FD35484078C0F30011607AC0F300108D
:103BD00081422CD0607A01092F48407861F30410AB
:103BE0002D494870607AC0F3001080B109212B483C
:103BF00090F8782079308154793890F87800401C1A
:103C0000264981F878007BA0FEF7B0FD0FE00A217D
:103C1000224890F8782079308154793890F87800EB
:103C2000401C1E4981F8780079A0FEF79FFD0D2108
:103C30001A4890F8782079308154793890F87800D3
:103C4000401C164981F87800607A00F0070081F87E
:103C50003A05084690F83A1574A0FEF787FD022051
:103C60000E49087000206FE667697A50726F746FB2
:103C7000636F6C4D6F64756C6553746174757320FC
:103C80004572726F72202C20496C6C6567616C20E4
:103C9000506172616D0A000036000020FC030020B4
:103CA0004F6E426F617264696E673A20536F66743B
:103CB0004150206F7220576562206D6F64650A0065
:103CC0004F6E426F617264696E673A204169724C4F
:103CD000696E6B206D6F64650A0000004F6E426F65
:103CE000617264696E673A2053746174696F6E2003
:103CF0006D6F64650A00000057694669207374613E
:103D00007475733A20696E2062696E64696E67200B
:103D10006D6F64650A00000057694669207374611D
:103D20007475733A206F75742062696E64696E678A
:103D3000206D6F64650A00005769466920737461DD
:103D40007475733A20636F6E6E6563746564207278
:103D50006F757465720A0000576946692073746153
:103D60007475733A20646973636F6E6E656374650E
:103D70006420726F757465720A00000057694669A5
:103D8000207374617475733A20636F6E6E6563742B
:103D90006564206D326D0A0057694669207374614D
:103DA0007475733A20646973636F6E6E65637465CE
:103DB00064206D326D0A0000576946692073746192
:103DC0007475733A2061707020636F6E6E656374F2
:103DD0000A00000057694669207374617475733A6C
:103DE000206E6F2061707020636F6E6E6563740A61
:103DF0000000000057694669207374617475733A56
:103E000020696E2074657374206D6F64650A00000C
:103E100057694669207374617475733A206F7574BD
:103E20002074657374206D6F64650A0052535349A2
:103E3000206973202564200A0000000070B5044644
:103E400025462CB917A0FEF791FC4FF0FF3070BD4E
:103E50001948A9680160E9684160298A0181A97C43
:103E60008172A0F23B51B1F83B05FEF70BFF1349FD
:103E7000A1F83B05D1F84305FEF711FF0F49C1F842
:103E800043050E210D4890F88A208B3081548B38E1
:103E900090F88A00401C094981F88A0004200870C3
:103EA0000020D4E74552523A204E545020697320E6
:103EB000656D707479200A0037090020FC0300202A
:103EC00010B5FFF72BF9044600BFFFF727F9001BD9
:103ED000B0F5167FF9D900F0A9FD10BD10B500248A
:103EE0000E4890F8440000B910BD0DA0FEF73EFC4E
:103EF0000A48B0F86010453000F018FF0446074843
:103F0000B0F86000A04202D00DA0FEF72FFCFFF732
:103F100005F90249C1F8620000BFE5E7FC03002093
:103F20005761726E696E673A2074696D656F75745A
:103F30002C20726573656E642064617461200A00D0
:103F40004552523A20726573656E642064617461F3
:103F5000206572726F720A0010B5024600240023B9
:103F600002B109B9002010BD022303E0D05C204457
:103F7000C4B25B1C481E9842F8D82046F3E7000004
:103F800070B504460D462CB90FA0FEF7EFFB4FF0BD
:103F9000FF3070BD23211248FCF73DF92A46214627
:103FA0000F48801CFCF71EF90D484338A0F86050FC
:103FB000012180F84410FFF7B1F809494339C1F8ED
:103FC00062000020E5E700004552523A2064617427
:103FD0006120697320656D707479200A000000000B
:103FE0003F04002070B50446094D2CB909A0FEF726
:103FF000BDFB4FF0FF3070BD2879401C217988420D
:1040000004D123210248801EFCF705F90020F2E7C5
:10401000410400204552523A206461746120697362
:1040200020656D707479200A0000000070B50446A8
:104030000D46002624B90AA0FEF798FB701E70BD3D
:104040002A4621460E4800F0A5FD0646AE4205D0A0
:104050000CA0FEF78BFB4FF0FF30F0E73046EEE7A9
:104060004552523A2067697A5075744461746120F0
:1040700062756620697320656D707479200A00008E
:10408000840900204552523A204661696C656420DB
:10409000746F2072625772697465200A0000000014
:1040A0002DE9F04387B006460F4690464FF00009D1
:1040B0006C4608F1060085B23FB925A0FEF756FB15
:1040C0004FF0FF3007B0BDE8F083FF2004F8010B8C
:1040D00004F8010B281204F8010B04F8015B052019
:1040E00004F8010B244890F83B10D0F83B00401C2A
:1040F000214AC2F83B0004F8011B002004F8010B20
:1041000004F8010B04F8016B424639460DF1090031
:10411000FCF768F8291D6846FFF71EFF0146E81CFA
:104120000DF80010291D684600F000FE8146B9F127
:10413000000F06DA494611A0FEF718FB6FF00100E8
:10414000C0E7291D6846FFF71BFF0020BAE7000003
:1041500067697A5265706F72744461746120457248
:10416000726F72202C20496C6C6567616C20506105
:1041700072616D0A00000000FC0300204552523AB3
:104180002075617274207772697465206572726F30
:1041900072202564200A000002480068401C014982
:1041A0000860704724000020002071EE601A81EE44
:1041B000802AFCEEC21A11EE900A70472DE9FF5FCB
:1041C00006460D4693460027A846A9462C46AA4611
:1041D00006B125B94FF0FF3004B0BDE8F09F0027CD
:1041E0003EE0701CC05D112836D2DFE800F0090AFD
:1041F0000B35350C0D0E0F35353535101A291600D7
:104200002BE02AE029E028E027E026E025E099F8E5
:10421000001016A0FEF7AAFA1FE017A0FEF7A6FAF4
:104220001BE0A17962792379A068CDE90032CDE95C
:104230000210E378A278218814A0FEF797FA0CE028
:104240001DA0FEF793FA21A0FEF790FA9AF800104D
:1042500022A0FEF78BFA00E000BF00BF781CC7B2B7
:104260003078B842BDDC0020B6E700005253534915
:104270002025640A000000005452414E5350415220
:10428000454E545F44415441200A00005749464975
:104290005F4E5450203A205B25642D25642D256403
:1042A00020253032643A253032643A253032645D5C
:1042B0005B25645D200A00004D4F44554C45204964
:1042C0004E464F202E2E2E0A000000005749462051
:1042D0004D4F44554C45202E2E2E0A006D6F6475AF
:1042E0006C6554797065203A205B25645D200A0076
:1042F0002DE9F04192B0054600260020039002907F
:1043000000248046002735B983A0FEF72FFA601EEF
:1043100012B0BDE8F081FEF707FF03AA884989487B
:10432000FFF7A8F80646002E71D187A0FEF71EFA07
:10433000834C20790F284FD00ADC0E2873D2DFE897
:1043400000F07216721A7272433872724472453CEF
:10435000182852D006DC112847D0142846D0162839
:1043600061D134E0222854D02A285CD130E02046A4
:10437000FEF7C2FF5FE0E279A17978A0FEF7F6F9D7
:1043800002A8009007F10900BDF80C301A1A6C4819
:104390000830C11904AB4046FFF706FA40B9E3798B
:1043A00004A92046029AFFF761F970A0FEF7DEF932
:1043B00041E02046FEF7FEFE3DE02046FEF7FAFE15
:1043C0002046FFF7B9FA36E000BF00BF00BF00BFCC
:1043D0002046FFF707FE2EE02046FEF7EBFE66A024
:1043E000FEF7C4F9FFF76CFD25E024E02046FFF757
:1043F000F9FD66A0FEF7BAF91DE02046FFF7F2FDD1
:104400002046FFF71BFD69A0FEF7B0F913E013E0AB
:1044100009E02046FFF7E6FD2046FFF75FFA69A0B6
:10442000FEF7A4F907E002212046FEF713FF6CA077
:10443000FEF79CF900BF0DE016F1020F0AD1404CC7
:1044400001212046FEF706FF6BA0FEF78FF96FF003
:1044500001005DE73A48401E0078062854D2DFE8A4
:1044600000F053031425314200203549491E0870DD
:104470004FF41072BA31A1F15400FFF79FFE1221E0
:104480002F486530FBF7C7FE3FE000202C49491E4E
:104490000870012201F23A51A1F2C240FFF78EFEEC
:1044A000122127487730FBF7B6FE2EE00020244982
:1044B000491E08700846D0F837201C316630FFF7D7
:1044C0007DFE22E000201E49491E08700C2201F2E8
:1044D0003B51A1F2B140FFF771FE1221184889301B
:1044E000FBF799FE11E000201549491E0870412292
:1044F00001F24751A1F2AB40FFF760FE41211048A5
:104500009B30FBF788FE00E000BF00BF2846FEF7A7
:1045100093FD0020FCE6000047697A7769747348D0
:10452000616E646C65204572726F72202C20496C3C
:104530006C6567616C20506172616D0A000000005B
:10454000FD03002084090020476574204F6E65201C
:104550005061636B6574210A00000000666C61673E
:10456000202578202578200A0000000041636B4454
:10457000617461203A200A007265706F72743A4D5E
:104580004355207265626F6F74210A0041636B208E
:1045900050524F44554354494F4E5F4D4F44452070
:1045A00073756363657373200A00000041636B20B9
:1045B0004745545F55545420737563636573732086
:1045C0000A00000041636B204745545F4D6F6475DE
:1045D0006C652073756363657373200A00000000C7
:1045E0004552523A20636D6420636F6465206572A2
:1045F000726F72210A0000004552523A20636865CA
:10460000636B2073756D206572726F72210A0000F2
:1046100010B536200A4908600A48C860084600F00C
:104620005DFA18B908A0FEF7A1F802E00BA0FEF7AA
:104630009DF84FF4B1610E48FBF7EDFD10BD000091
:1046400084090020940900207262437265617465D8
:104650002053756363657373200A000072624372AE
:1046600065617465204661696C64200A0000000081
:10467000FC03002030B587B005460024062D7CD20F
:10468000DFE805F003305F90BDEA01A8FEF7C6FF42
:104690000B208DF808008B4890F83B10D0F83B00B9
:1046A000401C884AC2F83B00C8B28DF809000520BA
:1046B000FEF7E8FAADF80600092101A8FFF74CFC67
:1046C0008DF80C00092101A800F030FB0446002CF5
:1046D00003DA21467CA0FEF749F8092101A8FFF77B
:1046E0004FFCEAE004A8FEF799FF09208DF81400BA
:1046F000744890F83B10D0F83B00401C714AC2F857
:104700003B00C8B28DF815008DF818500620FEF752
:10471000B9FAADF812000A2104A8FFF71DFC8DF8C4
:1047200019000A2104A800F001FB0446002C03DA5A
:10473000214665A0FEF71AF80A2104A8FFF720FC1D
:10474000BBE004A8FEF76AFF09208DF814005D485D
:1047500090F83B10D0F83B00401C5A4AC2F83B008E
:10476000C8B28DF815008DF818500620FEF78AFAA9
:10477000ADF812000A2104A800E09AE0FFF7ECFB74
:104780008DF819000A2104A800F0D0FA0446002C84
:1047900003DA21464CA0FDF7E9FF0A2104A8FFF740
:1047A000EFFB8AE001A8FEF739FF13208DF808001F
:1047B000444890F83B10D0F83B00401C414AC2F8F6
:1047C0003B00C8B28DF809000520FEF75BFAADF892
:1047D0000600092101A8FFF7BFFB8DF80C00092195
:1047E00001A800F0A3FA0446002C03DA214636A003
:1047F000FDF7BCFF092101A8FFF7C2FB5DE001A89E
:10480000FEF70CFF15208DF808002E4890F83B109D
:10481000D0F83B00401C2B4AC2F83B00C8B28DF8D0
:1048200009000520FEF72EFAADF80600092101A8BF
:10483000FFF792FB8DF80C00092101A800F076FA31
:104840000446002C03DA21461FA0FDF78FFF092143
:1048500001A8FFF795FB30E001A8FEF7DFFE292055
:104860008DF80800174890F83B10D0F83B00401C2A
:10487000144AC2F83B00C8B28DF809000520FEF7C3
:1048800001FAADF80600092101A8FFF765FB8DF8D4
:104890000C00092101A800F049FA0446002C03DAB3
:1048A000214609A0FDF762FF092101A8FFF768FB77
:1048B00003E00CA0FDF75AFF00BF00BF204607B081
:1048C00030BD0000FC0300204552523A2075617251
:1048D00074207772697465206572726F7220256426
:1048E000200A00004552523A204366674D6F6465C6
:1048F000206572726F72210A0000000000BF00BFC5
:1049000000BFFCF743FA082302224FF4B4711920C8
:10491000FDF7C4FAB420FEF77BF94FF4E130FDF760
:10492000F1FEFDF75BFAFDF72BFAFBF79FFD42F274
:10493000273140F2E730FDF74FFBFBF79DFE16A055
:10494000FDF714FF1FA0FDF711FF23E000F026FA8A
:104950002648FFF7CDFC0020FDF7AAF90446022CFB
:1049600005D123A0FDF702FF0220FFF783FE042CF0
:1049700005D126A0FDF7FAFE0020FFF77BFEC82038
:10498000FEF750F92848006808B9012000E000202F
:1049900025490860DAE700002D2D2D2D2D2D2D2D18
:1049A000BBFAD6C7D4C6494F542DCEC2B6C8B2C979
:1049B000BCAFCAB5D1E92D2D2D2D2D2D2D2D2D2D91
:1049C0000D0A00004B4559313A4169724C696E6BD2
:1049D000BDD3C8EBC4A3CABD09204B45595F555090
:1049E0003AB8B4CEBB0D0A0D0A000000BC0100208D
:1049F00057494649BDF8C8EB4169724C696E6BC1B5
:104A0000ACBDD3C4A3CABD0D0A0000005749464936
:104A1000B8B4CEBBA3ACC7EBD6D8D0C2C5E4D6C31E
:104A2000C1ACBDD30D0A000084824042012080F356
:104A3000138800BF00BF00BF00BF00BF00BFBFF3AF
:104A40004F8F00BF00BF00BF0948006800F4E0605E
:104A500008490843001D0649086000BF00BF00BFA9
:104A6000BFF34F8F00BF00BF00BF00BF00BFFDE717
:104A70000CED00E00000FA0500B5024612B94FF057
:104A8000FF3000BD50689168884201D10020F8E7EE
:104A900050689168884203D290685168401AF0E7E4
:104AA000104600F014F851689368C91A401AE8E7F4
:104AB00030B5044614B94FF0FF3030BD204600F049
:104AC00006F805462046FFF7D7FF281AF5E7014606
:104AD00011B94FF0FF3070470868FCE7014611B983
:104AE0004FF0FF307047C8684860C8688860002091
:104AF000F8E72DE9F04104460F461646002514B9A3
:104B0000681EBDE8F08117B94FF0FF30F9E7606823
:104B1000A168884214D22046FFF7AEFFB04201D907
:104B2000304602E02046FFF7A7FF054661682A46A7
:104B30003846FBF757FB6068284460602846E0E78A
:104B40002046FFF7C4FF6168E268891A401AB04244
:104B50000AD9354661682A463846FBF743FB606848
:104B6000284460602846CCE72046FFF7B0FF616824
:104B7000E268891A451A61682A463846FBF732FB13
:104B8000E0686060721B79192046FFF7B2FF0544A8
:104B90002846B6E72DE9F04104460F4615460026A3
:104BA00004B11FB94FF0FF30BDE8F0812046FFF798
:104BB0007FFFA84202D86FF00100F5E76068A168A6
:104BC00088422AD82046FFF782FFA168E268891A46
:104BD000461AB54213D8A0682A463946FBF702FBAD
:104BE000A0682844A0602046FFF771FFE1680844F0
:104BF000A168884201D1E068A0602846D4E7A06897
:104C000032463946FBF7EEFAE068A060AA1BB919F4
:104C10002046FFF7BFFF3044C6E7A0682A46394662
:104C2000FBF7E0FAA0682844A0602846BCE7000033
:104C300070B50546002415E00120A040284040B191
:104C40000A4830F8240081B201220948FCF78AF8AA
:104C500007E0064830F8240081B200220448FCF73F
:104C600081F8641C082CE7DB70BD0000404E000892
:104C7000000C024010B586B0044600BF0020009032
:104C80002648006840F00200244908600846006891
:104C900000F00200009000BF00BF00BF00200090A5
:104CA0001E481030006840F480201C491031086014
:104CB0000846006800F48020009000BF00BF18483C
:104CC000184908600846446000218160C1600161A4
:104CD00081610C214161FCF7A9FE4FF44060019015
:104CE00002200290012003900220049007200590EA
:104CF00001A90D48FBF720FF0A480068C06840F092
:104D0000200008490968C8602720FCF770F80322D2
:104D100002212720FCF778F806B010BD3038024099
:104D2000004800403C01002000040240F8B5054660
:104D30000E46002417A0006800900DB9601EF8BD53
:104D4000002423E029194FF47A7301221248FCF75A
:104D500049FF00BF104800680068C0F3C010002879
:104D6000F8D0022C11D3285DFF280ED14FF47A73AE
:104D7000012269460848FCF735FF00BF0648006875
:104D80000068C0F3C0100028F8D0641CB442D9D326
:104D90003046D4E7550000003C01002010B5214802
:104DA000007801283CD1002438E07F2C0FDC20461D
:104DB000FFF73EFF0020FBF77FFB00EE100AB8EE86
:104DC000400A10EE100A184901EB840108607F2C9C
:104DD00012DD872C10DC2046FFF72AFF0020FBF7AE
:104DE0006BFB00EE100AB8EE400A10EE100A0F49F5
:104DF00001EB8401086010E02046FFF719FF002056
:104E0000FBF75AFB00EE100AB8EE400A10EE100A4B
:104E10000649203101EB84010860641C8F2CC4DB3F
:104E200010BD000000000020BC010020BC030020D9
:104E30000000000001020304010203040607080940
:104E400008000000100000002000000040000000EA
:104E500080000000000100000002000000040000CB
:104E6000804E000800000020400000008C27000851
:104E7000C04E000840000020900D00009C27000854
:104E8000000000000024F40000000000000000000A
:104E900001020304060708090000000001000000E9
:104EA0000000000000000000000000000000000002
:104EB00000000000000000000000000000000000F2
:04000005080001AD41
:00000001FF
