:020000040800F2
:1000000060040020450100084D0100084F01000870
:1000100051010008530100085501000800000000CC
:100020000000000000000000000000005701000870
:1000300059010008000000005B0100085D01000894
:100040005F0100085F0100085F0100085F01000810
:100050005F0100085F0100085F0100085F01000800
:100060005F0100085F0100085F0100085F010008F0
:100070005F0100085F0100085F0100085F010008E0
:100080005F0100085F0100085F0100085F010008D0
:100090005F0100085F0100085F0100085F010008C0
:1000A0005F0100085F0100085F0100085F010008B0
:1000B0005F0100085F0100085F0100085F010008A0
:1000C0005F0100085F0100085F0100085F01000890
:1000D0005F0100085F0100085F0100085F01000880
:1000E0005F0100085F0100085F0100085F01000870
:1000F0005F0100085F0100085F0100085F01000860
:100100005F0100085F0100085F0100085F0100084F
:100110005F0100085F0100085F0100085F0100083F
:100120005F0100085F0100085F0100085F0100082F
:10013000DFF80CD000F0A8FB004800473927000882
:10014000600400200648804706480047FEE7FEE7B7
:10015000FEE7FEE7FEE7FEE7FEE7FEE7FEE7FEE777
:10016000D51D000831010008F0B480EA0102D40F67
:100170004200B2EB410F02D20246084611464A0045
:1001800042D0C30DDDB2C1F3C752AD1A202D35DA0E
:10019000C1F3160141F4000204B15242C5F1200638
:1001A00002FA06F12A411044B3EBD05F23D0C4B168
:1001B000012DA0EBC35009DCF0BC4FF0004202EA75
:1001C000C352DBB200F5000000F089B9400000F135
:1001D000807000EBC350A0F1807040EAD1704900FC
:1001E00009E0490841EAC071A0EBC35000F50000E6
:1001F000400800EBC350F0BC00F068B96142012236
:1002000002EB4101001BF6E7F0BC704781F00041B2
:10021000AAE780F00040A7E780EA010210B502F0EB
:100220000043400022D04A001FD0010E01EB1261B2
:10023000C0F35600C2F3560240F4000042F400023C
:10024000A0FB022000047F39140400D0401C50EAB7
:10025000124001D44000491EC2B20C0604EBD0107B
:10026000401C4008802A02D003E0002010BD20F08E
:100270000100002900DA0020184310BD30B480EAE4
:10028000010202F0004530F0004221F0004013D09E
:1002900090B1C30DD40DC2F31601C0F31600E41AD9
:1002A00041F4000140F400027D34914201D3641C0A
:1002B00000E04900002C02DA30BC002070474FF407
:1002C00000000023914201D3891A034340084FEAFA
:1002D0004101F7D151B1914202D14FF0004105E007
:1002E00002D24FF0010101E06FF0010103EBC450B5
:1002F000284430BC00F0EAB82DE9F04D81EA03044F
:1003000004F0004B21F0004514464FF0000A23F0A2
:10031000004150EA050220D054EA01021DD0C5F385
:100320000A570246C5F31303C1F31300C1F30A567B
:1003300040F4801543F48013A7EB0608101BD64643
:1003400008F2FD3873EB050002D308F1010801E063
:1003500092185B41B8F1000F03DA00200146BDE8B6
:10036000F08D00204FF48011064684460EE0171BE6
:1003700073EB050705D3121B63EB050306434CEA39
:10038000010C49084FEA300092185B4150EA01071E
:10039000EDD152EA030012D082EA040083EA05019B
:1003A000084305D0101BAB4106D20122002306E012
:1003B00000224FF0004302E06FF0010253101AEBED
:1003C00006004CEB085110EB0A0041EB0B01BDE8B5
:1003D000F04D00F0B2B896230022114600F07FB82D
:1003E00000F0004230F000400AD0C10D01F560710C
:1003F000C0F3160042EA0151C2084007114370479A
:1004000000200146704701F0004330B421F0004164
:1004100050EA010206D00A0DA2F56072C1F3130181
:10042000002A02DC30BC00207047440F44EAC104BB
:10043000C100E01830BC00EBC25000F047B830B546
:100440000B46014600202022012409E021FA02F592
:100450009D4205D303FA02F5491B04FA02F528442C
:10046000151EA2F10102F1DC30BD2DE9F05F054659
:10047000002092469B4688460646814640241BE063
:10048000284641464746224600F01FFA53465A4640
:10049000C01A914110D311461846224600F006FAC0
:1004A0002D1A67EB01084F4622460120002100F07B
:1004B000FDF917EB00094E41201EA4F10104DFDC19
:1004C000484631462A464346BDE8F09F0029A8BF6A
:1004D0007047401C490008BF20F00100704710B46D
:1004E000B0FA80FC00FA0CF050EA010404BF10BC22
:1004F000704749B1CCF1200421FA04F411FA0CF14F
:1005000018BF012121430843A3EB0C01CB1D4FEA87
:1005100000614FEA102042BF002010BC704700EB82
:10052000C35010440029A4BF10BC7047401C4900B0
:1005300008BF20F0010010BC704710B5141E73F105
:10054000000408DA401C41F1000192185B411A4393
:1005500001D120F0010010BD2DE9F04D92469B46DF
:1005600011B1B1FA81F202E0B0FA80F22032904685
:1005700000F09CF904460F4640EA0A0041EA0B01EC
:1005800053465A46084313D0114653EA010019D086
:10059000C8F14002504600F098F905460E46504614
:1005A0005946424600F082F9084305D0012004E094
:1005B00020463946BDE8F08D0020054346EAE07646
:1005C0002C4337430A986305E40AA0EB0800002295
:1005D000FD0A44EA47540A3002D500200146E9E703
:1005E000010510196941DDE9084500196941BDE8B7
:1005F000F04DA2E72DE9FE4F804681EA0300C00FCF
:100600000C46009021F0004123F00045B8EB0200B9
:10061000A94105D24046214690461C460B4602465B
:1006200023F00040104347D0270DC7F30A00C3F35F
:100630000A510290401A019040286BDAC3F313006C
:1006400040F4801B0098924620B10023D2EB030AAD
:1006500063EB0B0B01985946C0F14002504600F085
:1006600025F906460D4650465946019A00F03DF9D7
:1006700010EB08006141002487EA115284EAE77315
:100680001A4340D0009A62B3019A012A4FEA0752F6
:1006900015DC001B61EB02014FF0004202EA075239
:1006A000CDE90042001C41F5801132462B46FFF790
:1006B00053FF03B0BDE8F08F40462146F9E7001B29
:1006C00061EB0201001C41F5801300185B4120180A
:1006D000A2F5001747EB030140EAD570B6196D414A
:1006E00011E06D084FEA360645EAC0754FEA075239
:1006F000001B61EB0201001C41F5801149084FEA23
:1007000030000019514132462B4603B0BDE8F04F8E
:10071000FFF713BF0098012240000023D0EB020234
:1007200063EBE073009821464FEAE074B8EB0000F9
:1007300061EB0401E9E783F000435BE781F00041EE
:1007400058E72DE9FE4F81EA030404F0004421F04C
:10075000004100944FF0000B23F0004350EA0104E5
:100760005ED052EA03045BD0C3F30A54C1F30A55C6
:100770002C44A4F2F3340194A0FB0254C1F31301FE
:1007800041F48011C3F3130343F4801301FB0244CB
:1007900000FB034E840A970A44EA815447EA8357D0
:1007A000A4FB076802958D0A05FB07854FEA932C89
:1007B00004FB0C542705029D4FEA065847EA1637FA
:1007C000B5EB08056EEB070C870E920E47EA811712
:1007D00042EA8312A7FB0201B6EB0B0164EB0004B3
:1007E0002B0D43EA0C335E1844EB1C50DA4651469D
:1007F000E7FB0201C5F313044FEA0B3343EA14533A
:100800004FEA0432019C43EA0603A4F10C0402946B
:10081000009CCDE900B4FFF79FFE03B0BDE8F08F68
:1008200000200146F9E7C1F30A52C1F3130140F277
:10083000FF3341F480119A4202DA002001467047EA
:1008400040F233439A42A2F2334202DC524200F0B9
:100850003CB800F02BB8000030B5041E71F1000464
:1008600004DB4FF00044404264EB0101141E73F1BD
:10087000000405DB1C464FF00043524263EB0403C7
:10088000994208BF904230BD064C074D06E0E06833
:1008900040F0010394E8070098471034AC42F6D3C7
:1008A000FFF74AFCD0680008F0680008202A04DB43
:1008B000203A00FA02F1002070479140C2F1200373
:1008C00020FA03F3194390407047202A04DB203AB2
:1008D00021FA02F00021704721FA02F3D040C2F160
:1008E00020029140084319467047202A06DBCB17A7
:1008F000203A41FA02F043EAE07306E041FA02F3DB
:10090000D040C2F12002914008431946704710B50B
:100910000446204600F002F900BF204600F02CF803
:100920000028FAD1204600F009F900BF204600F067
:1009300019F80028FAD110BD21B1826842F00102F5
:10094000826003E0826822F001028260704721B178
:10095000826842F48072826003E0826822F48072CE
:1009600082607047014600208A6802F004020AB1E2
:10097000012000E000207047014600208A6802F054
:1009800008020AB1012000E00020704730B502469D
:100990000020002350680F4C20400D790C6844EA79
:1009A00005242043506090680B4C2040D1E902544C
:1009B0002C434D7944EA450420439060D06A20F4EA
:1009C00070000C7C641EE4B2234340EA0350D06202
:1009D00030BD0000FFFEF0FFFDF7F1FF10B586B05F
:1009E0000446002001908DF8080001208DF80900D0
:1009F0004FF4602003900020049001208DF8140033
:100A000001A92046FFF7C2FF06B010BDF0B50446AD
:100A10000D4600200021092D11DDE068A5F10A0630
:100A200006EB4607072606FA07F18843A5F10A06F2
:100A300006EB460603FA06F10843E0600CE0206985
:100A400005EB4507072606FA07F1884305EB45063F
:100A500003FA06F108432061072A0FDA606B561E7D
:100A600006EB86071F2606FA07F18843561E06EB9B
:100A7000860605FA06F10843606322E00D2A0FDAC4
:100A8000206BD61F06EB86071F2606FA07F1884360
:100A9000D61F06EB860605FA06F10843206310E030
:100AA000E06AA2F10D0606EB86071F2606FA07F19B
:100AB0008843A2F10D0606EB860605FA06F1084307
:100AC000E062F0BD10B5044601214FF4C06001F0B2
:100AD000FDF84FF4404001F0DDF8204600F00CFA3C
:100AE00000F044F82046FFF779FF072301220E218A
:100AF0002046FFF78BFF01212046FFF728FF01204A
:100B000000F022F801212046FFF716FF2046FFF7EC
:100B1000FEFE0121204600F006F810BD816841F07C
:100B200008018160704721B1826842F4A0028260AE
:100B300003E0826822F4A00282607047816841F07D
:100B4000040181607047000030B10749096841F431
:100B50000001054A116005E00349096821F400011C
:100B6000014A1160704700000824014000B58BB0B5
:100B70000121084601F09AF8114800F033F81148B5
:100B80000090114801900020029001200390002065
:100B9000049080200590400006908000079020205F
:100BA00008900002099000200A906946044800F06D
:100BB000BFF80121024800F009F80BB000BD0000A9
:100BC000080002404C2401400000002021B10268CE
:100BD00042F00102026004E002684FF6FE731A4020
:100BE0000260704701684FF6FE72114001600021FB
:100BF000016041608160C1604B49884208D14A4927
:100C00000839496841F00F01474A083A51608AE0C3
:100C100045491431884208D143490839496841F0AF
:100C2000F001414A083A51607DE03F49283188424D
:100C300008D13D490839496841F470613A4A083A97
:100C4000516070E038493C31884208D13649083952
:100C5000496841F47041344A083A516063E03249CE
:100C60005031884208D130490839496841F470212F
:100C70002D4A083A516056E02B496431884208D128
:100C800029490839496841F47001274A083A5160F6
:100C900049E025497831884208D123490839496813
:100CA00041F07061204A083A51603CE01F49884297
:100CB00006D1011F096841F00F01021F116032E0E7
:100CC0001A491431884208D11849091F096841F0AE
:100CD000F001164A121F116025E01449283188429C
:100CE00008D11249091F096841F470610F4A121FA7
:100CF000116018E00D493C31884208D10B49091FA9
:100D0000096841F47041094A121F11600BE007495C
:100D10005031884207D10549091F096841F4702103
:100D2000024A121F11607047080002400804024086
:100D300010B50022026847F6F0739A430C6A8B687C
:100D400023430C6923434C6923438C692343CC69B7
:100D500023434C6A23438C6A23431A430260CB68C3
:100D600043600B6883604B68C36010BD00BF772190
:100D700000BF432200BF531E9BB21A1EFBD14B1E65
:100D80009BB2191EF5D1431EDBB2181EEFD170477E
:100D900000BF422100BF1E2200BF531EDBB21A1E3D
:100DA000FBD14B1EDBB2191EF5D1431EDBB2181E60
:100DB000EFD1704700BF4FF47A7100BF40F20122BB
:100DC00000BF531E9BB21A1EFBD14B1E9BB2191EB5
:100DD000F4D1431EDBB2181EEDD1704751B1820031
:100DE000A2F1C042126842F001038200A2F1C042A7
:100DF000136009E08200A2F1C0421268034B1A405E
:100E00008300A3F1C0431A6070470000FEFF0F008B
:100E1000D0E901121143C2681143026911434269CA
:100E2000114382691143C2691143026A1143426A44
:100E30001143826A1143C26A1143026B1143026873
:100E40009200A2F1C0421160816808290BD10168AB
:100E50008900A1F1C041096841F0400201688900A0
:100E6000A1F1C0410A60416B0968426B526841EAD6
:100E70000211426B926841EA0221426B928941EA77
:100E80000241426B128A41EA0251426B127D41EAF1
:100E90000261426B926911430268521C9200A2F1F6
:100EA000C0421160C16AB1F5804F1BD1816B0968E6
:100EB000826B526841EA0211826B926841EA022118
:100EC000826B128A41EA0251826B127D41EA026111
:100ED000826B9269114302689200A2F1C042C2F88B
:100EE000041107E06FF0704201688900A1F1C04170
:100EF000C1F804217047000038B5044601211020D4
:100F000000F0E4FE1020ADF8000000208DF8030092
:100F10006946024800F004F838BD000000100140A6
:100F20002DE9F04102460025002600200023002480
:100F3000002791F803C00CF00F0591F803C00CF0E6
:100F4000100CBCF1000F03D091F802C04CEA05056B
:100F500091F800C0BCF1000F31D0146800202BE0E4
:100F60004FF0010C0CFA00F3B1F800C00CEA0306D4
:100F70009E4220D183004FF00F0C0CFA03F7BC43C4
:100F800005FA03FC4CEA040491F803C0BCF1280FF5
:100F900006D14FF0010C0CFA00FCC2F814C00AE0B4
:100FA00091F803C0BCF1480F05D14FF0010C0CFAC9
:100FB00000FCC2F810C0401C0828D1D31460B1F85E
:100FC00000C0BCF1FF0F34DD546800202EE000F1BA
:100FD000080C4FF0010808FA0CF3B1F800C00CEA55
:100FE00003069E4221D183004FF00F0C0CFA03F749
:100FF000BC4305FA03FC4CEA040491F803C0BCF1BD
:10100000280F05D100F1080C08FA0CF8C2F814807A
:1010100091F803C0BCF1480F07D100F1080C4FF064
:10102000010808FA0CF8C2F81080401C0828CED33A
:101030005460BDE8F0814161704701617047000074
:1010400030B50246144800680489002120E01248A7
:101050000068006801EB811510F815001578A842AA
:1010600014D10D480068006801EB811500EB4500C4
:1010700040785578A84209D107480068006801EB1C
:10108000811500EB4500831C184630BD481C81B219
:10109000A142DCDB0020F8E74800002070B50446E0
:1010A00000250B48038842880021084600F0DEFC3A
:1010B00000F0C0FD00BF02E0064804806D1C04483B
:1010C0000088034949884843A842F5D870BD00000C
:1010D000500000200000026008B50121602000F0EF
:1010E000F5FD4CF6B370ADF8000003208DF802005A
:1010F00018208DF8030069461248FFF711FF4FF6DC
:101100008070ADF8000003208DF8020018208DF8E3
:10111000030069460C48FFF703FF4FF44050ADF859
:10112000000003208DF8020010208DF803006946AE
:101130000448FFF7F5FE4FF400510248FFF77DFF2A
:1011400008BD000000140140001801402DE9F041E5
:1011500005460E461446A4F120010C4A1268D288B6
:1011600051430A4A12689288D01DC21700EB52728E
:10117000D210064B1B681B6801FB02373A4631460A
:10118000284600F0FBF8BDE8F08100004400002094
:101190002DE9F04105460E46144600272046FFF78C
:1011A0004FFF07463A463146284600F035F9BDE87C
:1011B000F08100002DE9F04106460F461446354601
:1011C000B84629E017480088174909688988401AF5
:1011D000A8421ADB207880280BDA2278414628467C
:1011E000FFF7B4FF104800688088284485B2641C6B
:1011F00012E0224641462846FFF7CAFF0B48006826
:101200008088284485B2A41C06E0002506480068B2
:10121000C08840441FFA80F820780028D2D1BDE869
:10122000F081000050000020440000204800002011
:1012300051490871032826D14FF4A0714E4A1180FC
:10124000F02151801146098948F25252914209D148
:101250002C21494A51812A2191812B21D181602160
:10126000D18088E04449098945F208429142F8D189
:101270002221414A5181202191812121D18141F2B4
:101280000801D18077E0042826D14FF4A0713A4AB2
:101290001180F02151801146098948F25252914241
:1012A00009D12C21344A51812A2191812B21D181CC
:1012B000A021D1805FE03049098945F2084291427E
:1012C00059D122212C4A5181202191812121D18182
:1012D00041F23801D1804EE0012826D1F021264A82
:1012E00011804FF4A07151801146098948F2525281
:1012F000914209D12C21204A51812A2191812B210F
:10130000D181C021D18036E01B49098945F20842CC
:10131000914230D12221184A5181202191812121ED
:10132000D1814FF48151D18025E0F021124A118002
:101330004FF4A07151801146098948F252529142EE
:1013400009D12C210C4A51812A2191812B21D18153
:101350000021D1800FE00849098945F208429142F5
:1013600009D12221044A5181202191812121D18159
:1013700041F21001D1807047500000202DE9F04764
:10138000074688461646002500241F4800688088C6
:10139000C01DC0F3C7091C48006883881A4800684C
:1013A000C2884146384600F061FB00F043FC00BFB4
:1013B0001CE0002414E005FB09F000EBD400305CD5
:1013C00004F0070280211141084020B90F4800882D
:1013D00000F02AFC03E00E48008800F025FC641CA5
:1013E000094800688088A042E5D86D1C064800685E
:1013F000C088A842DDD807480388428800210846F3
:1014000000F034FBBDE8F087440000204E000020CF
:101410004C000020500000202DE9F0470746884688
:10142000154600260024254800688088C01DC0F3AA
:10143000C70922480068838820480068C28841465E
:10144000384600F013FB00F0F5FB00BF28E0002455
:101450001FE0C5B106FB09F101EBE401695CE2178D
:1014600004EB5272D210A4EBC20380221A41114045
:1014700021B91348008800F0D7FB08E01148008824
:1014800000F0D2FB03E00E48008800F0CDFB601CAA
:1014900084B20A4800688088A042DADC701C86B2F8
:1014A00006480068C088B042D1DC074803884288FB
:1014B0000021084600F0DAFABDE8F0874800002075
:1014C0004E0000204C0000205000002000B597B0D6
:1014D0000121080200F0EAFB0121084600F0F6FBBA
:1014E000022001900020029005200390002004902B
:1014F000059006904FF080500790002008900990CA
:1015000008200A9010200B9000200C900E900F9055
:1015100010904FF48050119000201290139014906E
:1015200001A81590169008A8FFF772FC0121002071
:10153000FFF754FC17B000BD10B5FFF7CDFDFFF766
:10154000C5FF0A20FFF712FC4FF48051FE48FFF759
:1015500072FD0A20FFF70AFC4FF48051FA48FFF7AA
:101560006CFD0A20FFF702FC042000F035FA00F0C1
:101570002DFAF649088100F029FAF4490881084655
:1015800000894FF6FF7101EA0020F049088100F060
:101590001DFAEE4909890843EC490881084600898B
:1015A00048F25251884204D0002000F015FAE74971
:1015B0000881E648008948F2525188427ED11120C4
:1015C00000F02CFB7820FFF7D1FB362000F026FB43
:1015D000002000F01DFB3A2000F020FB052000F069
:1015E00017FBB22000F01AFB0C2000F011FB0C20BE
:1015F00000F00EFB002000F00BFB332000F008FB96
:10160000332000F005FBB72000F008FB352000F088
:10161000FFFABB2000F002FB282000F0F9FAC020FE
:1016200000F0FCFA2C2000F0F3FAC22000F0F6FAE9
:10163000012000F0EDFAC32000F0F0FA0B2000F0DA
:10164000E7FAC42000F0EAFA202000F0E1FAC62010
:1016500000F0E4FA0F2000F0DBFAD02000F0DEFA10
:10166000A42000F0D5FAA12000F0D2FAE02000F08A
:10167000D5FAD02000F0CCFA012000F0C9FA0820F9
:1016800000F0C6FA0F2000F0C3FA112000F0C0FAF3
:101690002A2000F0BDFA362000F0BAFA552000F0FA
:1016A000B7FA442000F0B4FA3A2000F0B1FA0B2067
:1016B00000F0AEFA062000F0ABFA00E04AE011209C
:1016C00000F0A6FA202000F0A3FAE12000F0A6FA2C
:1016D000D02000F09DFA022000F09AFA072000F0D6
:1016E00097FA0A2000F094FA0B2000F091FA1820E3
:1016F00000F08EFA342000F08BFA432000F088FAD4
:101700004A2000F085FA2B2000F082FA1B2000F01E
:101710007FFA1C2000F07CFA222000F079FA1F20CA
:1017200000F076FA292000F079FA2C2000F076FA01
:101730000320FFF77DFD362000F070FA8349C8884A
:1017400000F066FA8148038842880021084600F0CC
:101750008DF928E17D48008945F208418842F8D199
:101760004FF48071012000F06FFA4FF4E061022025
:1017700000F06AFA41F23001032000F065FA00211E
:10178000042000F061FA40F20221082000F05CFA27
:101790000021092000F058FA00210A2000F054FA34
:1017A00000210C2000F050FA00210D2000F04CFA2E
:1017B00000210F2000F048FA0021102000F044FA28
:1017C0000021112000F040FA0021122000F03CFA24
:1017D0000021132000F038FAC820FFF7C7FA0721CC
:1017E000112000F031FA3220FFF7C0FA41F2B021A7
:1017F000102000F029FA3220FFF7B8FA40F2BD11AC
:10180000122000F021FA3220FFF7B0FA4FF4A05175
:10181000132000F019FA0E21292000F015FA3220C9
:10182000FFF7A4FA0021202000F00EFA40F23F1149
:10183000212000F009FA40F60D31302000F004FAC2
:1018400041F62311312000F0FFF941F62641322004
:1018500000F0FAF942F21C61332000F0F5F942F28F
:101860001941342000F0F0F940F60B51352000F01A
:10187000EBF941F20601362000F0E6F94FF4C261BF
:10188000372000F0E1F940F20671382000F0DCF971
:101890004FF44171392000F0D7F940F605613A2044
:1018A00000F0D2F940F601613B2000F0CDF94FF491
:1018B00087713C2000F0C8F940F20E513D2000F045
:1018C000C3F940F203413E2000F0BEF940F2076147
:1018D0003F2000F0B9F90021502000F0B5F9EF21C8
:1018E000512000F0B1F90021522000F0ADF940F292
:1018F0003F11532000F0A8F94FF42741602000F079
:10190000A3F90121612000F09FF900216A2000F075
:101910009BF90021802000F097F90021812000F040
:1019200093F90021822000F08FF90021832000F03C
:101930008BF90021842000F087F90021852000F038
:1019400083F91021902003E0001401405000002092
:1019500000F07AF90021922000F076F9032193201B
:1019600000F072F94FF48871952000F06DF90021B4
:10197000972000F069F90021982000F065F9032014
:10198000FFF756FC0D48C188032000F05DF94FF4C5
:101990008971072000F058F908480388428800211F
:1019A000084600F063F80649064800F027F94FF4AE
:1019B00000510548FFF73FFB10BD0000500000201C
:1019C0002C00002014000020001401400148008871
:1019D0007047000000000260014602480180801C40
:1019E00000887047FEFF016003B5BDF800000349A1
:1019F0000880BDF80400024908800CBD4C0000209E
:101A00004E00002010B503460C461748008948F2E6
:101A10005251884215D114498989C8B200F0FEF8A4
:101A2000181200F0F5F8D8B200F0F2F80E49C989A2
:101A3000C8B200F0F3F8201200F0EAF8E0B200F0CB
:101A4000E7F80948008945F2084188420BD1064968
:101A50008989C8B2194600F0F7F80349C989C8B2A4
:101A6000214600F0F1F810BD500000202DE9FC5F88
:101A700004460D46904699460026B2460027B346D6
:101A80000020019000905C48008948F25251884241
:101A900034D1264604EB0900401E1FFA80FA2F4677
:101AA00005EB0800401E1FFA80FB01960097524983
:101AB0008989C8B200F0B2F8301200F0A9F8F0B28B
:101AC00000F0A6F84FEA2A2000F0A2F80AF0FF0082
:101AD00000F09EF84849C989C8B200F09FF8381252
:101AE00000F096F8F8B200F093F84FEA2B2000F0DF
:101AF0008FF80BF0FF0000F08BF877E03E4800898C
:101B000045F20841884271D13B48007903281CD135
:101B100039484088401BA0EB080086B23648408810
:101B2000401B401E1FFA80FA33480088001BA0EBC0
:101B3000090087B230480088001B401E1FFA80FB56
:101B4000CDF804A0CDF800B040E02B48007904287F
:101B50000ED12E4605EB0800401E1FFA80FA2746DC
:101B600004EB0900401E1FFA80FB019600972DE050
:101B700021480079012814D11F480088001BA0EBE0
:101B8000090086B21C480088001B401E1FFA80FA1C
:101B90002F4605EB08001FFA80FBCDF804A0009744
:101BA00014E0264604EB0900401E1FFA80FA124892
:101BB0004088401BA0EB080087B20F484088401BBC
:101BC000401E1FFA80FB0196CDF800B03146502030
:101BD00000F03AF85146512000F036F839465220CC
:101BE00000F032F85946532000F02EF8DDE90010DD
:101BF000FFF708FFBDE8FC9F50000020024A10607C
:101C0000024A116070470000440000204800002094
:101C10000149088070470000000002600149088007
:101C200070470000FEFF0160014908807047000016
:101C300000000260024840890249088070470000A5
:101C400050000020FEFF0160024A1080921C1180AB
:101C500070470000FEFF01602DE9F04106460F4687
:101C600014461D46DDF8188029462046FFF7BCFEC5
:101C7000424639463046FFF79DFABDE8F081000044
:101C800010B5FFF759FC0248FEF71CFF10BD00001D
:101C90000024014001460020034A506820F44040DF
:101CA00008435060704700000010024029B1064A06
:101CB00052690243044B5A6104E0034A5269824369
:101CC000014B5A61704700000010024029B1064ADA
:101CD00092690243044B9A6104E0034A9269824389
:101CE000014B9A61704700000010024010B500F0EF
:101CF00001F810BD0CB50020019000903348006839
:101D000040F480303149086000BF3048006800F47A
:101D1000003000900198401C0190009818B901987B
:101D2000B0F5A06FF1D12948006800F4003010B17F
:101D30000120009001E0002000900098012843D18C
:101D40002348006840F010002149086008460068F8
:101D500020F0030008600846006840F002000860B8
:101D60001A48406819494860084640684860084673
:101D7000406840F4806048600846406820F47C1069
:101D800048600846406840F4E8104860084600682B
:101D900040F08070086000BF0C48006800F00070E0
:101DA0000028F9D00948406820F00300074948603E
:101DB0000846406840F00200486000BF03484068A1
:101DC00000F00C000828F9D10CBD00000010024002
:101DD0000020024010B51348006840F0010011498E
:101DE000086008464068104908400E4948600846A7
:101DF00000680E4908400B4908600846006820F456
:101E0000802008600846406820F4FE0048604FF4D7
:101E10001F008860FFF76AFF4FF000600449086008
:101E200010BD0000001002400000FFF8FFFFF6FEAA
:101E300008ED00E00FB4084B10B504A902AA0398FE
:101E400000F0DEF8044602A9002000F070FC2046F5
:101E500010BC5DF814FB00002F27000802E008C842
:101E6000121F08C1002AFAD170477047002001E014
:101E700001C1121F002AFBD1704700002DE9FF5F4E
:101E800082B00021DDE90430020DDDF840B00343EB
:101E900018D044F61050A2F2FF32424315141198A4
:101EA00001281FD0A5EB0B00401C5FEA000A4FF091
:101EB00000064E4FDFF83891B046504615D5CAF1AE
:101EC000000413E0119801244AA3012801D16FEA0C
:101ED0000B010298119AC0E90031C0E9024206B034
:101EE000BDE8F09FCBF10000DFE704460021404A47
:101EF000491842EB0450CDE9001012E0E00707D08A
:101F000032463B4640464946FEF71BFC8046894622
:101F100032463B4610461946FEF713FC06460F466E
:101F20006410002CEAD1DDE90401DDE90023BAF1F7
:101F3000000F06DAFEF705FC42464B46FEF701FCB1
:101F400005E0FEF7D9F942464B46FEF7D5F90446BF
:101F50000E460022284BFEF77FFC03D84FF0FF30DF
:101F6000014607E00022254B20463146FEF742FBA2
:101F7000FEF759FC102409E0002C0ADB0A2200239A
:101F8000FEF773FA039B30321A55641E50EA0102C1
:101F9000F2D1641C039AC4F111031444119A012A6A
:101FA00003D0012208430DD10AE0084304D00020E9
:101FB0004FF0110B119072E7A3EB0B056D1E0DE0B6
:101FC0005B4504DD4FF0000205F1010504E003DA92
:101FD0004FF00002A5F10105002AECD002981199FA
:101FE000C0E90231C0E9004579E700000000144073
:101FF0000000F03F300000000000F0430000E03F30
:102000002DE9FF4F95B09B468946064600250FE215
:10201000252877D100242746F84A0121059400E0BD
:10202000044316F8013F203B01FA03F01042F7D1B8
:1020300030782A2811D06FF02F033078A0F13002C9
:10204000092A16D8059A44F0020402EB820203EB37
:1020500042021044761C0590EFE759F8042B0592D4
:10206000002A03DA504244F40054059044F002047C
:10207000761C30782E2816D116F8010F44F004048F
:102080002A280DD06FF02F023078A0F13003092BF1
:1020900009D807EB870302EB4303C718761CF3E765
:1020A00059F8047B761C30786C280FD006DC4C285D
:1020B00017D068280DD06A2814D104E0742810D0F5
:1020C0007A280FD10DE044F400140AE044F480149F
:1020D00001E044F440147278824202D104F5801485
:1020E000761C761C307866280BD013DC582877D005
:1020F00009DC002875D04528F6D04628F4D04728BA
:102100001AD19DE118E0632835D0642879D065287C
:1021100012D195E1702873D008DC6728F1D06928C6
:102120006FD06E280DD06F2806D1B5E073282CD063
:10213000752875D0782874D05A46179990476D1C29
:1021400075E1C4F30250022809D003280DD0D9F854
:10215000001004280DD00D6009F1040967E1D9F8D9
:102160000010EA17C1E90052F6E7D9F800100D8017
:10217000F2E70D70F0E719F8041B8DF8001000204D
:102180008DF80100EA46012003E059F804AB4FF056
:10219000FF3061074FF0000102D40DE008F10101AA
:1021A0008846B9420FDA8045F8DB1AF80810002992
:1021B000F4D108E008F1010188468142FADB1AF8FF
:1021C00008100029F6D105985B46A0EB08072146C8
:1021D0003846179A00F094FA284400EB080507E007
:1021E0004DE029E10DE01AF8010B5A461799904786
:1021F000B8F10108F7D25B4621463846179A13E139
:1022000042E00A220092C4F302524FF0000A022A6E
:1022100008D059F804CB032A4FEAEC710AD00DE03C
:1022200029E02AE009F1070121F00702F2E802C1E2
:10223000914609E00FFA8CFC4FEAEC71042A03D1B5
:102240004FFA8CFC4FEAEC71002907DA0A460021AC
:10225000DCF1000C61EB02012D2202E0220504D525
:102260002B228DF80420012203E0E20701D0202276
:10227000F7E7904659E00A2102E010220DE0102114
:102280004FF0000A00910BE010224FF0000A44F0DA
:1022900004040827009203E008224FF0000A00928D
:1022A000C4F30252022A05D059F804CB0021032AB4
:1022B00008D009E009F1070121F00702F2E802C1A4
:1022C000914605E01FFA8CFC042A01D10CF0FF0CAA
:1022D0004FF00008220728D5702806D0009B83F015
:1022E000100353EA0A0305D00EE040228DF80420C3
:1022F000012208E05CEA010206D030228DF80420B9
:102300008DF8050002229046009B83F0080353EAF3
:102310000A030AD15CEA010201D1620705D5302225
:102320008DF804204FF001087F1E582804D034A0F7
:1023300003900EA802900DE036A0F9E753466046E0
:10234000009AFEF792F884460398825C0298401E39
:10235000029002705CEA0100F0D1029806A9081A06
:1023600000F1200A600702D524F4803400E0012740
:10237000574502DDA7EB0A0000E0002000EB0A0150
:10238000009005984144401A0590E00306D45B464E
:102390002146179A059800F0B3F90544002706E096
:1023A00001A85A46C05D179990476D1C7F1C474590
:1023B000F6DBE0030CD55B462146179A059800F042
:1023C0009FF9054404E030205A46179990476D1C48
:1023D0000099481E00900029F5DC08E00298029957
:1023E0005A460078491C0291179990476D1CBAF122
:1023F0000001AAF1010AF1DC65E1000009280100F1
:10240000303132333435363738396162636465666A
:10241000000000003031323334353637383941422C
:10242000434445460000000000F058F90544761C7E
:10243000307800287FF4ECAD19B02846BDE8F08F65
:10244000620700D4062709F1070222F0070CFCE816
:102450000223E14603F000485FEA080C02D00FF2C5
:10246000702C0DE05FEA045C02D50FF2682C07E0E7
:102470005FEAC47C02D00FF2602C01E0AFF2700C76
:102480004FF0FF3823F00043CDF850C065280CD042
:1024900006DC452809D046281DD047283DD13DE01F
:1024A000662818D067287ED138E00021112F01DB83
:1024B000112000E0781CCDE9000106A90EA8FFF765
:1024C000DDFCDDE90F010E9A03910021009207F176
:1024D000010A04914DE04FF000400097CDE9011052
:1024E00006A90EA8FFF7CAFCDDE90F0203920E9BB6
:1024F00011990022DDF80CA00093049211B9791C07
:1025000000EB010AB7EB0A0004D4C0F1FF3007F179
:10251000010A0490AAEB0700019044E0012F00DAC1
:1025200001270021112F01DD112000E03846CDE9FF
:10253000000106A90EA8FFF7A1FCDDE90F010E9A24
:102540000391002104910092BA4621070CD403990B
:10255000514500DA8A46BAF1010F05DD009AAAF169
:102560000101515C302908D0B84202DA10F1040FA1
:1025700006DA0121CDE9011015E0AAF10101E9E730
:10258000002805DC049901440491AAEB000102E053
:10259000411C514500DD8A460499401A401C0190B7
:1025A0004FF000400290200704D40198504501DB11
:1025B000CDF8048000208DF84F0002980DF14F07F0
:1025C000B0F1004F25D02B200E9002984FF002085A
:1025D00000280CDA404202902D200E9007E00A21DC
:1025E0000298FDF72CFF3031029007F8011DB8F179
:1025F0000001A8F10108F2DC02980028EFD1791E51
:102600000E980870307800F0200040F0450007F880
:10261000020D12A8C01B00F107081498007800B141
:10262000012000EB0A01019801EBE071059841449B
:10263000401A401E0590E00306D45B462146179AD7
:10264000059800F05DF805441498007818B15A46D2
:10265000179990476D1CE00324D55B462146179AD5
:10266000059800F04DF805441CE00498002807DBAD
:10267000DDE90301884203DD0098405C179901E021
:10268000179930205A469047049805F10105401CDF
:1026900004900198401E019004D12E205A461799AB
:1026A00090476D1CBAF10001AAF1010ADDDC05E0DA
:1026B00017F8010B5A46179990476D1CB8F10001A5
:1026C000A8F10108F4DC5B462146179A0598ABE6B1
:1026D0002D0000002B000000200000002DE9F0413B
:1026E000044600251E461746880404D405E03946F2
:1026F0002020B0476D1C641EF9D52846BDE8F08146
:102700002DE9F041044600251E469046C80301D538
:10271000302700E02027880404D505E041463846EC
:10272000B0476D1C641EF9D52846BDE8F0810A68E3
:10273000531C0B601070704790B060480B9060485D
:102740000A906048099060480890FFF799FA0020C5
:10275000FEF7A4FC5DA000234FF6E072194600903E
:102760000A20FFF779FA5FA000231F2214210090AE
:102770000A20FFF771FA63A000231F22282100908E
:102780002D20FFF769FA98E000240025A0464FF6B7
:10279000FF79A246002615E06148008840F6E44132
:1027A000484340F6FF7190FBF1F084B22544444564
:1027B00000DDA0464C4500DAA1460120FEF7E8FA0C
:1027C000701CC6B2642EE7DBA5EB0805A5EB090576
:1027D0002846FDF700FE8346FDF702FE0022514B1E
:1027E000CDE90401FDF788FDCDE90601FDF70BFEFB
:1027F00082464D490898FDF70FFD5146079009980C
:10280000FDF70AFD83464949FDF738FD514605901D
:102810000A98FDF701FD51460190FDF7FDFC834646
:102820004349FDF72BFD514603900B98FDF7F4FC4F
:1028300051460090FDF7F0FC83465146FDF7ECFC55
:102840003C490190FDF71AFD02900399FDF78CFCBD
:1028500004900599FDF788FC06900799FDF784FC24
:1028600007465046FDF7BCFD02460B46CDE9060182
:1028700031A10CA8FFF7DEFA0CA800234FF4784230
:10288000142100909620FFF7E7F93846FDF7A8FDE0
:1028900002460B46CDE9060127A10CA8FFF7CAFAAC
:1028A0000CA800234FF47842282100909620FFF7CF
:1028B000D3F90420FEF77EFA00BF65E7E4A1E7BF85
:1028C00046D354C08734E8BFC493034053544D33B8
:1028D00032204C4D5437302054656D7065726174F0
:1028E00075726500414443204368302020566F6C68
:1028F000746167653A2020202020202020206D561A
:102900000000000054656D70657261747572653AFF
:10291000202020202020202020202743000000000D
:1029200000000020008058400000C8420000204104
:1029300000247449286B6E4E252E3366000000007B
:1029400000000000000000002020202000200000E7
:1029500050500000000000002850F850F850A0002F
:10296000203060301060200020201860101000001F
:102970000038206050780000202020000000000077
:102980001020202020201000402020202020400067
:102990002070205000000000002020F820200000BF
:1029A0000000000010202000000000700000000067
:1029B0000000000000200000102020204040800087
:1029C00020505050502000006020202020F80000AF
:1029D0002050202040700000205010201060000087
:1029E0001030507810380000704060105020000007
:1029F00030406050506000007050102020200000D7
:102A00002050205050200000305050301060000006
:102A10000000200000200000000010001020000036
:102A2000001020C0201000000070007000000000A6
:102A300000402018204000002050102000200000FE
:102A400030484858484038006020507088D800000E
:102A5000F048704848F0000070504040403000009E
:102A6000F048484848F00000F848604048F8000046
:102A7000F848604040E0000070404058503000008E
:102A8000E848784848E800007020202020700000C6
:102A90003810105050200000D850607050D80000FE
:102AA000E040404048F80000D8D8D8A888D80000B6
:102AB000D868685858E80000304848484830000056
:102AC000F048487040E0000030484848483018005E
:102AD000F048487048E80000705020105070000026
:102AE000F8A8202020700000D8484848483000004E
:102AF000D888485050300000D888A8A8A8500000B6
:102B0000D850202050D80000D888502020700000D5
:102B10007848102048780000302020202020300005
:102B200080404020202010006020202020206000D5
:102B3000202050000000000000000000000000F80D
:102B4000201000000000000000003010707800002D
:102B5000C040704848F00000000070404070000025
:102B600018083848483800000000707040300000F5
:102B700010207020207000000000384848380830CD
:102B8000C040704848E8000020006020207000002D
:102B90002000701010101070C040587050D8000005
:102BA00060202020207000000000D0A8A8A800000D
:102BB0000000F04848C800000000304848300000DD
:102BC0000000F048487040E00000384848380818D5
:102BD000000078202070000000003020106000000D
:102BE0000040F040483000000000D848483800005D
:102BF0000000C848303000000000D8A8A8500000ED
:102C000000004830304800000000D85050202060BC
:102C1000000078502878000010202060202010004C
:102C20002020202020202000402020302020400094
:102C3000000000285000000000000000000000001C
:102C40000000000000101010101000001000000024
:102C5000006C484800000000000000000014142828
:102C60007C287C28505000000010384040384870C4
:102C700010100000002050200C7008140800000004
:102C800000000018202054483400000000101010EC
:102C900010000000000000000008081010101010C4
:102CA0001008080000202010101010101020200024
:102CB00000107C1028280000000000000000101008
:102CC00010FE1010100000000000000000000018AE
:102CD0001030200000000000007C00000000000018
:102CE0000000000000000030300000000004040874
:102CF000081010202040000000384444444444445C
:102D00003800000000301010101010107C0000007F
:102D100000384404081020447C00000000384404BB
:102D20001804044438000000000C141424447E04E9
:102D30000E000000003C202038040444380000004D
:102D4000001C20407844444438000000007C4404C7
:102D50000808081010000000003844443844444477
:102D60003800000000384444443C0408700000006F
:102D7000000000303000003030000000000000187B
:102D8000180000183020000000000C106080601057
:102D90000C000000000000007C007C00000000002F
:102DA0000000C02018041820C000000000001824F3
:102DB00004081000300000003844444C54544C4087
:102DC000443800000030102828287C44EE00000021
:102DD00000F8444478444444F8000000003C444077
:102DE000404040443800000000F048444444444817
:102DF000F000000000FC445070504044FC00000013
:102E0000007E22283828202070000000003C44402A
:102E1000404E44443800000000EE44447C444444A6
:102E2000EE000000007C1010101010107C0000005C
:102E3000003C0808084848483000000000EE4448BC
:102E400050704844E6000000007020202020242418
:102E50007C00000000EE6C6C54544444EE00000012
:102E600000EE64645454544CEC00000000384444B8
:102E700044444444380000000078242424382020AE
:102E8000700000000038444444444444381C0000AE
:102E900000F8444444784844E200000000344C40C8
:102EA000380404645800000000FE92101010101046
:102EB0003800000000EE444444444444380000001C
:102EC00000EE4444282828101000000000EE44447E
:102ED000545454542800000000C6442810102844BC
:102EE000C600000000EE4428281010103800000032
:102EF000007C4408101020447C0000000038202092
:102F00002020202020203800004020202010100801
:102F100008080000003808080808080808083800F1
:102F20000010102844000000000000000000000015
:102F300000000000000000FE00100800000000007B
:102F40000000000000000038443C44443E00000003
:102F500000C0405864444444F80000000000003CB5
:102F60004440404438000000000C04344C444444C5
:102F70003E00000000000038447C40403C0000005F
:102F8000001C207C202020207C0000000000003657
:102F90004C4444443C04380000C040586444444419
:102FA000EE00000000100070101010107C000000F7
:102FB00000100078080808080808700000C0405C8D
:102FC00048705048DC000000003010101010101045
:102FD0007C000000000000E854545454FE0000003F
:102FE000000000D864444444EE00000000000038B3
:102FF0004444444438000000000000D86444444481
:103000007840E000000000364C4444443C040E008C
:103010000000006C302020207C0000000000003CFC
:1030200044380444780000000000207C2020202246
:103030001C000000000000CC4444444C360000005A
:10304000000000EE4444282810000000000000EEBC
:103050004454545428000000000000CC483030484C
:10306000CC000000000000EE442428181010780066
:103070000000007C481020447C0000000008101074
:103080001010201010100800001010101010101058
:103090001010000000201010101008101010200058
:1030A00000000000002458000000000000000000A4
:1030B0000000000000000000000000000000001000
:1030C0001010101010100000181800000012362404
:1030D0004800000000000000000000000000002484
:1030E0002424FE484848FE484848000000001038A4
:1030F0005454503018141454543810100000004424
:10310000A4A8A8A8541A2A2A2A44000000000030C3
:10311000484848506EA4948889760000006060207A
:10312000C0000000000000000000000000020408D1
:1031300008101010101010080804020000402010A1
:1031400010080808080808101020400000000000BF
:103150001010D63838D61010000000000000000013
:1031600010101010FE1010101000000000000000E1
:103170000000000000000000606020C000000000AF
:10318000000000007F0000000000000000000000C0
:10319000000000000000000060600000000001026C
:1031A000020404080810102020404000000000180D
:1031B00024424242424242422418000000000010D1
:1031C0007010101010101010107C00000000003C57
:1031D0004242420404081020427E00000000003CED
:1031E0004242041804020242443800000000000475
:1031F0000C14242444447E04041E00000000007EBD
:103200004040405864020242443800000000001C64
:103210002440405864424242241800000000007ECE
:103220004444080810101010101000000000003C6A
:103230004242422418244242423C0000000000184E
:1032400024424242261A02022438000000000000F4
:10325000000018180000000018180000000000000E
:10326000000000100000000000101020000000020C
:103270000408102040201008040200000000000094
:103280000000FE000000FE00000000000000004002
:103290002010080402040810204000000000003C38
:1032A00042426202040808001818000000000038BA
:1032B000445AAAAAAAAAB442443800000000001046
:1032C00010182828243C444242E70000000000F87F
:1032D000444444784442424244F800000000003E26
:1032E000424280808080804244380000000000F824
:1032F000444242424242424244F80000000000FC84
:10330000424848784848404242FC0000000000FC27
:10331000424848784848404040E000000000003CF7
:1033200044448080808E844444380000000000E7DC
:10333000424242427E42424242E700000000007C9C
:103340001010101010101010107C00000000003E33
:103350000808080808080808080888F0000000EEB7
:10336000444850705048484444EE0000000000E0DB
:10337000404040404040404042FE0000000000EE1F
:103380006C6C6C6C5454545454D60000000000C74C
:10339000626252524A4A4A4646E200000000003841
:1033A000448282828282828244380000000000FCD3
:1033B000424242427C40404040E000000000003871
:1033C000448282828282B2CA4C380600000000FC2D
:1033D0004242427C4848444442E300000000003E30
:1033E0004242402018040242427C0000000000FEDD
:1033F000921010101010101010380000000000E79C
:103400004242424242424242423C0000000000E747
:10341000424244242428281810100000000000D63E
:1034200092929292AAAA6C4444440000000000E7E1
:10343000422424181818242442E70000000000EE5B
:103440004444282810101010103800000000007E9E
:10345000840408081020204242FC0000001E1010C6
:10346000101010101010101010101E00000040401E
:103470002020101010080804040402020078080834
:10348000080808080808080808087800001C220036
:10349000000000000000000000000000000000002C
:1034A0000000000000000000000000FF006060203D
:1034B000C00000000000000000000000000000004C
:1034C0000000003C421E2242423F0000000000C0BB
:1034D00040404058644242426458000000000000EE
:1034E0000000001C22404040221C0000000000069A
:1034F0000202021E22424242261B0000000000007F
:103500000000003C427E4040423C00000000000FB2
:103510001110107E10101010107C00000000000030
:103520000000003E444438403C42423C000000C0A1
:103530004040405C6242424242E7000000000030EE
:103540003000007010101010107C00000000000C03
:103550000C00001C0404040404044478000000C0AF
:103560004040404E4850684844EE00000000007063
:103570001010101010101010107C0000000000003F
:10358000000000FE4949494949ED000000000000E3
:10359000000000DC6242424242E7000000000000FE
:1035A0000000003C42424242423C00000000000059
:1035B000000000D864424242447840E0000000002D
:1035C0000000001E22424242221E020700000000AC
:1035D000000000EE3220202020F800000000000053
:1035E0000000003E42403C02427C0000000000001F
:1035F0000010107C10101010100C000000000000D3
:10360000000000C642424242463B0000000000006B
:10361000000000E7422424281010000000000000F1
:10362000000000D79292AAAA4444000000000000C3
:103630000000006E24181818247600000000000016
:10364000000000E742242428181010E000000000C9
:103650000000007E44081010227E000000030404D5
:10366000040404080404040404040300080808080B
:10367000080808080808080808080808006010106A
:10368000101010081010101010106000304C430083
:10369000000000000000000000000000000000002A
:1036A000000000000000000000000000000000001A
:1036B000000000000000000000000000000000000A
:1036C00000000000000007000700070007000700D7
:1036D00007000700020002000000000007000700CA
:1036E00000000000000000000000000000000000DA
:1036F0001CE01CE01CE008400840084000000000FE
:1037000000000000000000000000000000000000B9
:10371000000000000CC00CC00CC00CC00CC03FF07E
:103720003FF00CC00CC03FF03FF00CC00CC00CC010
:103730000CC00CC0000000000000000003000300EB
:1037400007E00FE0186018001F000FC000E01860CD
:1037500018601FC01F80030003000300000000006A
:103760000000000000001C002200220022001C605B
:1037700001E00F803C0031C002200220022001C085
:103780000000000000000000000000000000000039
:10379000000003E00FE00C000C0006000F301FF0EB
:1037A00019E018C01FF007B0000000000000000082
:1037B000000000000000000003800380038001007F
:1037C00001000100000000000000000000000000F7
:1037D000000000000000000000000000000000C029
:1037E00000C001800180018003000300030003008A
:1037F0000300030001800180018000C000C00000C0
:103800000000000000000C000C000600060006008E
:10381000030003000300030003000300060006008A
:1038200006000C000C000000000000000000030077
:10383000030003001B601FE0078007800FC00CC05F
:103840000000000000000000000000000000000078
:10385000000000000000000000000300030003005F
:1038600003003FF03FF003000300030003000000EB
:103870000000000000000000000000000000000048
:103880000000000000000000000000000000000038
:10389000000003800300030006000600040000008F
:1038A0000000000000000000000000000000000018
:1038B00000003FE03FE000000000000000000000CA
:1038C00000000000000000000000000000000000F8
:1038D00000000000000000000000000000000000E8
:1038E000000003800380038000000000000000004F
:1038F000000000000060006000C000C000C0018047
:10390000018003000300060006000C000C000C0000
:1039100018001800000000000000000000000F80E8
:103920001FC018C030603060306030603060306080
:10393000306018C01FC00F800000000000000000B1
:1039400000000000000003001F001F000300030030
:103950000300030003000300030003001FE01FE057
:1039600000000000000000000000000000000F80C8
:103970001FC038E03060006000C001800300060016
:103980000C0018003FE03FE00000000000000000D5
:103990000000000000000F803FC030E0006000E049
:1039A00007C007C000E00060006060E07FC03F80AB
:1039B000000000000000000000000000000001C046
:1039C00003C003C006C00CC00CC018C030C03FE02C
:1039D0003FE000C003E003E0000000000000000042
:1039E0000000000000001FC01FC0180018001F804A
:1039F0001FC018E000600060006030E03FC01F8022
:103A0000000000000000000000000000000003E0D3
:103A10000FE01E001800380037803FC038E03060EB
:103A2000306018E01FC007800000000000000000A8
:103A30000000000000003FE03FE03060006000C098
:103A400000C000C00180018001800300030003006A
:103A500000000000000000000000000000000F80D7
:103A60001FC038E0306038E01FC01FC038E0306051
:103A7000306038E01FC00F80000000000000000030
:103A80000000000000000F001FC038C03060306030
:103A900038E01FE00F6000E000C003C03F803E0040
:103AA0000000000000000000000000000000000016
:103AB000000000000000038003800380000000007D
:103AC000000003800380038000000000000000006D
:103AD000000000000000000000000000000001C025
:103AE00001C001C0000000000000038003000600C8
:103AF00006000400000000000000000000000000BC
:103B00000000003000F003C007001C0078001C001B
:103B1000070003C000F000300000000000000000BB
:103B200000000000000000000000000000007FF026
:103B30007FF0000000007FF07FF000000000000038
:103B40000000000000000000000000000000000075
:103B5000000030003C000F00038000E0007800E02F
:103B600003800F003C003000000000000000000057
:103B700000000000000000000F801FC018601860E7
:103B8000006001C003800300000000000700070080
:103B900000000000000000000000000000000380A2
:103BA0000C8008401040104011C0124012401240DA
:103BB00011C010000800084007800000000000004D
:103BC00000000000000000001F801F80038006C06E
:103BD00006C00CC00C601FE01FE0303078787878A9
:103BE00000000000000000000000000000000000D5
:103BF0003F803FC01860186018E01FC01FE01870B9
:103C0000183018303FF03FE00000000000000000D6
:103C1000000000000000000007B00FF01C703830FA
:103C2000300030003000300038301C700FE007C02A
:103C30000000000000000000000000000000000084
:103C40007F807FC030E03070303030303030303006
:103C5000307030E07FC07F80000000000000000076
:103C600000000000000000003FF03FF01830183066
:103C700019801F801F801980183018303FF03FF0E6
:103C80000000000000000000000000000000000034
:103C90003FF03FF01830183019801F801F801980C6
:103CA000180018003F003F00000000000000000066
:103CB000000000000000000007B01FF01870303056
:103CC0003000300031F831F8303018301FF007C0C4
:103CD00000000000000000000000000000000000E4
:103CE0003CF03CF01860186018601FE01FE018609E
:103CF000186018603CF03CF000000000000000007C
:103D000000000000000000001FE01FE003000300AF
:103D10000300030003000300030003001FE01FE093
:103D20000000000000000000000000000000000093
:103D300003F803F8006000600060006030603060ED
:103D4000306030E03FC00F80000000000000000045
:103D500000000000000000003EF83EF818E0198066
:103D60001B001F001D8018C018C018603E783E3828
:103D70000000000000000000000000000000000043
:103D80003F003F000C000C000C000C000C000C303D
:103D90000C300C303FF03FF000000000000000004D
:103DA00000000000000000007878787838703CF05F
:103DB00034B037B037B03330333030307CF87CF843
:103DC00000000000000000000000000000000000F3
:103DD00039F03DF01C601E601E601B601B6019E026
:103DE00019E018E03EE03E60000000000000000026
:103DF000000000000000000007800FC01CE03870C9
:103E0000303030303030303038701CE00FC0078038
:103E100000000000000000000000000000000000A2
:103E20003FC03FE018701830183018701FE01FC0F6
:103E3000180018003F003F000000000000000000D4
:103E4000000000000000000007800FC01CE0387078
:103E5000303030303030303038701CE00FC00780E8
:103E600007B00FF00CE000000000000000000000B0
:103E70003FC03FE01870183018701FE01FC018E0F6
:103E8000186018703E383E18000000000000000066
:103E900000000000000000000FB01FF0387030304C
:103EA00038001F8007E00070303038703FE037C0C6
:103EB0000000000000000000000000000000000002
:103EC0003FF03FF033303330333003000300030062
:103ED000030003000FC00FC000000000000000003E
:103EE00000000000000000003CF03CF0186018608A
:103EF000186018601860186018601CE00FC0078018
:103F000000000000000000000000000000000000B1
:103F100078F078F03060306018C018C00D800D80E7
:103F20000D800700070007000000000000000000EF
:103F300000000000000000007C7C7C7C301833987E
:103F40003398339836D816D01C701C701C701830FB
:103F50000000000000000000000000000000000061
:103F600078F078F0306018C00D80070007000D80F1
:103F700018C0306078F078F0000000000000000009
:103F800000000000000000003CF03CF018600CC095
:103F90000780078003000300030003000FC00FC069
:103FA0000000000000000000000000000000000011
:103FB0001FE01FE0186018C0018003000300060026
:103FC0000C6018601FE01FE000000000000000000F
:103FD00000000000000003C003C003000300030052
:103FE00003000300030003000300030003000300B9
:103FF000030003C003C00000000000001800180008
:104000000C000C000C0006000600030003000180F9
:10401000018000C000C000C000600060000000001F
:104020000000000000000F000F0003000300030069
:104030000300030003000300030003000300030068
:1040400003000F000F00000000000000000002004D
:1040500007000D8018C03060202000000000000024
:104060000000000000000000000000000000000050
:104070000000000000000000000000000000000040
:104080000000000000000000000000000000000030
:104090000000000000000000FFFCFFFC0000040026
:1040A000030000800000000000000000000000008D
:1040B0000000000000000000000000000000000000
:1040C00000000000000000000000000000000FC021
:1040D0001FE000600FE01FE0386030E03FF01F702D
:1040E0000000000000000000000000000000700060
:1040F00070003000300037803FE0386030303030C2
:10410000303038607FE07780000000000000000061
:10411000000000000000000000000000000007B0E8
:104120001FF0183030303000300038301FF00FC032
:10413000000000000000000000000000000000700F
:1041400000700030003007B01FF018703030303091
:10415000303038701FF807B8000000000000000081
:1041600000000000000000000000000000000780C8
:104170001FE018603FF03FF0300018301FF007C01C
:10418000000000000000000000000000000003F03C
:1041900007F0060006001FE01FE00600060006000C
:1041A000060006001FE01FE0000000000000000005
:1041B000000000000000000000000000000007B840
:1041C0001FF8187030303030303018701FF007B0E2
:1041D000003000700FE00FC0000000000000380049
:1041E0003800180018001BC01FE01C601860186021
:1041F000186018603CF03CF0000000000000000077
:1042000000000000000003000300000000001F0089
:104210001F00030003000300030003001FE01FE072
:10422000000000000000000000000000000003008B
:104230000300000000001FC01FC000C000C000C07D
:1042400000C000C000C000C000C001C03F803F00EF
:1042500000000000000038003800180018001BE0C3
:104260001BE01B001E001E001B00198039F039F0F6
:1042700000000000000000000000000000001F001F
:104280001F000300030003000300030003000300FA
:10429000030003001FE01FE000000000000000001A
:1042A00000000000000000000000000000007EE0B0
:1042B0007FF0333033303330333033307BB87BB83A
:1042C00000000000000000000000000000000000EE
:1042D0000000000000003BC03FE01C601860186058
:1042E000186018603CF03CF0000000000000000086
:1042F0000000000000000000000000000000078037
:104300001FE0186030303030303018601FE0078018
:10431000000000000000000000000000000000009D
:1043200000000000000077807FE0386030303030DF
:10433000303038603FE03780300030007C007C0057
:10434000000000000000000000000000000007B8AE
:104350001FF8187030303030303018701FF007B050
:104360000030003000F800F80000000000000000FD
:104370000000000000003CE03DF00F300E000C009B
:104380000C000C003FC03FC0000000000000000017
:10439000000000000000000000000000000007E036
:1043A0001FE018601E000FC001E018601FE01F80B2
:1043B00000000000000000000000000000000000FD
:1043C0000C000C000C003FE03FE00C000C000C0067
:1043D0000C000C300FF007C00000000000000000CF
:1043E000000000000000000000000000000038E0B5
:1043F00038E0186018601860186018E01FF00F703F
:1044000000000000000000000000000000000000AC
:1044100000000000000078F078F0306018C018C08C
:104420000D800D8007000700000000000000000064
:10443000000000000000000000000000000078F014
:1044400078F03260326037E01DC01DC018C018C05F
:10445000000000000000000000000000000000005C
:104460000000000000003CF03CF00CC0078003009E
:1044700007800CC03CF03CF0000000000000000091
:10448000000000000000000000000000000078F0C4
:1044900078F0306018C018C00D800F80070006004B
:1044A00006000C007F007F000000000000000000FC
:1044B0000000000000001FE01FE018C001800300A2
:1044C00006000C601FE01FE000000000000000007C
:1044D00000000000000001C003C00300030003004F
:1044E0000300030007000E000700030003000300A1
:1044F000030003C001C00000000000000000030032
:104500000300030003000300030003000300030093
:104510000300030003000300030003000300000086
:104520000000000000001C001E000600060006003F
:1045300006000600070003800700060006000600CC
:1045400006001E001C00000000000000000000002B
:1045500000000000000000000E003F3033F001E0DA
:10456000000000000000000000000000000000004B
:10457000000000000000000000000000000000003B
:10458000000000000000000000000000000000002B
:10459000000000000000000000000000000000001B
:1045A000000000000000000000000000000000000B
:1045B00000000000000000000000000000000000FB
:1045C000000003800003800003800003800003805C
:1045D00000038000038000038000038000010000CE
:1045E00001000000000000000003800003800000C4
:1045F00000000000000000000000000000000000BB
:10460000000000000000000000000000000E70002C
:104610000E70000E7000042000042000042000042E
:10462000200000000000000000000000000000006A
:10463000000000000000000000000000000000007A
:10464000000000000000000000000000000000006A
:10465000000006600006600006600006600006605C
:10466000003FF8003FF8000660000CC0003FF80073
:104670003FF8000CC0000CC0000CC0000CC0000CC7
:10468000C00000000000000000000000000000006A
:104690000000000000000001800001800007B00061
:1046A0000FF0001870001870001C00000F80000749
:1046B000E00000F0001830001C30001C70001FE00B
:1046C000001BC0000180000180000180000180000B
:1046D00000000000000000000000000000000000DA
:1046E00000000780000FC0001CE000186000186088
:1046F000001CE0000FF80007E0001FF00007380082
:1047000006180006180007380003F00001E000005A
:104710000000000000000000000000000000000099
:104720000000000000000000000000000000000089
:1047300003F00007F0000C60000C00000C00000605
:1047400000000700000F9C001DFC0018F00018700E
:10475000000FFC0007DC000000000000000000006B
:104760000000000000000000000000000000000049
:1047700000000000000380000380000380000100AF
:104780000001000001000001000000000000000026
:104790000000000000000000000000000000000019
:1047A0000000000000000000000000000000000009
:1047B00000000000000000000000001800003800A9
:1047C00000700000F00000E00000E00001C0000107
:1047D000C00001C00001C00001C00001C00000E035
:1047E0000000E000007000007000003800001800B9
:1047F00000000000000000000000000000000000B9
:1048000000001800001C00000E00000E0000070051
:104810000007000003800003800003800003800085
:104820000380000380000700000700000F00000E57
:1048300000001C0000180000000000000000000044
:104840000000000000000000000001800001800066
:104850000180001DB8001FF80007E00003C000033E
:10486000C0000660000660000000000000000000BC
:104870000000000000000000000000000000000038
:104880000000000000000000000000000000000028
:104890000000000000000000018000018000018095
:1048A000000180000180003FFC003FFC000180000F
:1048B00001800001800001800001800000000000F4
:1048C00000000000000000000000000000000000E8
:1048D00000000000000000000000000000000000D8
:1048E00000000000000000000000000000000000C8
:1048F000000000000000000000000000000000E0D8
:104900000000C00001C00001800001800003000021
:104910000300000000000000000000000000000094
:104920000000000000000000000000000000000087
:10493000000000000000001FF8001FF80000000049
:104940000000000000000000000000000000000067
:104950000000000000000000000000000000000057
:104960000000000000000000000000000000000047
:104970000000000000000000000000000000000037
:10498000000000000000000000000000000003C064
:104990000003C00003C00000000000000000000091
:1049A00000000000000000000000000000180000EF
:1049B0001800003800003000007000006000006047
:1049C0000000C00000C00001800001800003000062
:1049D0000300000600000600000E00000C00001C92
:1049E0000000180000180000000000000000000097
:1049F0000000000000000000000003C00007E0000D
:104A00000C30000C30001818001818001818001886
:104A100018001818001818001818000C30000C3076
:104A20000007E00003C000000000000000000000DC
:104A30000000000000000000000000000000000076
:104A400000000080000780001F80001D80000180A2
:104A500000018000018000018000018000018000D1
:104A60000180000180000180001FF8001FF8000095
:104A70000000000000000000000000000000000036
:104A80000000000000000000000007C0001FF00050
:104A900038300030180030180000180000300000D6
:104AA000600001C0000380000600000C0000180038
:104AB000003FF8003FF80000000000000000000088
:104AC00000000000000000000000000000000000E6
:104AD000000003C0000FE0000C7000003000003048
:104AE0000000600003C00003E00000700000180038
:104AF0000018000018001838001FF0000FC0000058
:104B000000000000000000000000000000000000A5
:104B10000000000000000000000000E00001E000D4
:104B200001E0000360000660000660000C60000CFD
:104B300060001860003060003FF8003FF80000603F
:104B40000003F80003F8000000000000000000006F
:104B50000000000000000000000000000000000055
:104B600000001FF0001FF0001800001800001800DF
:104B7000001BC0001FF0001C3000001800001800CF
:104B80000018000018003030003FF0000FC0000097
:104B90000000000000000000000000000000000015
:104BA0000000000000000000000000F80003F80012
:104BB0000700000E00000C00001800001BC0001FC2
:104BC000F0001C30001818001818001818000C38D5
:104BD000000FF00003E000000000000000000000F3
:104BE00000000000000000000000000000000000C5
:104BF00000001FF8001FF8001818001838000030D7
:104C00000000300000700000600000600000E00064
:104C100000C00000C00001C0000180000180000051
:104C20000000000000000000000000000000000084
:104C30000000000000000000000007E0000FF0008E
:104C40001C38001818001818000C300007E0000786
:104C5000E0000C30001818001818001818001C3854
:104C6000000FF00007E0000000000000000000005E
:104C70000000000000000000000000000000000034
:104C8000000007C0000FF0001C30001818001818B2
:104C9000001818000C38000FF80003D800001800A6
:104CA00000300000700000E0001FC0001F00000086
:104CB00000000000000000000000000000000000F4
:104CC00000000000000000000000000000000000E4
:104CD00000000000000003C00003C00003C000008B
:104CE000000000000000000000000000000003C001
:104CF0000003C00003C0000000000000000000002E
:104D000000000000000000000000000000000000A3
:104D1000000000000000000000000000000000F0A3
:104D20000000F00000F000000000000000000000A3
:104D300000000000E00001C00001800001800003CD
:104D40000000020000000000000000000000000061
:104D50000000000000000000000000000000000053
:104D6000001C00003C0000F00003C0000F00003CED
:104D70000000F000003C00000F000003C00000F045
:104D800000003C00001C00000000000000000000CB
:104D90000000000000000000000000000000000013
:104DA0000000000000000000000000000000000003
:104DB000007FFC007FFC000000000000007FFC0082
:104DC0007FFC000000000000000000000000000068
:104DD00000000000000000000000000000000000D3
:104DE00000000000000000000000000000000000C3
:104DF0007000007800001E000007800001E0000045
:104E00007800001E0000780001E0000780001E000E
:104E100000780000700000000000000000000000AA
:104E20000000000000000000000000000000000082
:104E3000000000000007C0000FE0001870001830EC
:104E40000018300000700000E00003C00003800084
:104E50000300000000000000000700000700000041
:104E60000000000000000000000000000000000042
:104E70000000000000000000000003E00007F00058
:104E80000E38000C180018780018F80019D800190E
:104E9000980019980019980018F800187800180060
:104EA000000C00000E180007F80003E000000000EE
:104EB00000000000000000000000000000000000F2
:104EC00000000000001F80001FC00001C000036040
:104ED000000360000630000630000C30000FF800C0
:104EE0001FF800180C00300C00FC7F00FC7F000055
:104EF00000000000000000000000000000000000B2
:104F0000000000000000000000000000007FE00042
:104F10007FF0001838001818001818001838001F03
:104F2000F0001FF800181C00180C00180C00180CDA
:104F3000007FF8007FF0000000000000000000008B
:104F40000000000000000000000000000000000061
:104F5000000000000003EC000FFC001C1C00180CFB
:104F600000300C0030000030000030000030000045
:104F7000300000180C001C1C000FF80003F00000AB
:104F80000000000000000000000000000000000021
:104F9000000000000000000000000000007FC000D2
:104FA0007FF000183800181800180C00180C0018B2
:104FB0000C00180C00180C00180C001818001838F9
:104FC000007FF0007FE00000000000000000000013
:104FD00000000000000000000000000000000000D1
:104FE00000000000007FF8007FF800181800181873
:104FF000001998001980001F80001F800019800090
:105000001998001818001818007FF8007FF80000A1
:105010000000000000000000000000000000000090
:10502000000000000000000000000000003FFC0045
:105030003FFC000C0C000C0C000CCC000CC0000F52
:10504000C0000FC0000CC0000CC0000C00000C0021
:10505000003FC0003FC00000000000000000000052
:105060000000000000000000000000000000000040
:10507000000000000003EC000FFC001C1C00180CDA
:1050800000300C0030000030000030FE0030FE0028
:10509000300C00380C001C1C000FFC0003F000005A
:1050A0000000000000000000000000000000000000
:1050B000000000000000000000000000007E7E00F4
:1050C0007E7E001818001818001818001818001F05
:1050D000F8001FF800181800181800181800181801
:1050E000007E7E007E7E00000000000000000000C8
:1050F00000000000000000000000000000000000B0
:1051000000000000001FF8001FF80001800001806F
:10511000000180000180000180000180000180000A
:105120000180000180000180001FF8001FF80000CE
:10513000000000000000000000000000000000006F
:105140000000000000000000000000000007FE005A
:1051500007FE00003000003000003000003000008A
:1051600030003030003030003030003030003060FF
:10517000003FE0000F800000000000000000000081
:10518000000000000000000000000000000000001F
:1051900000000000007F3E007F3E001830001860D5
:1051A0000018C0001980001B80001FC0001CE00018
:1051B0001870001830001838007F1F007F1F000093
:1051C00000000000000000000000000000000000DF
:1051D000000000000000000000000000007F8000D0
:1051E0007F80000C00000C00000C00000C00000C84
:1051F00000000C00000C0C000C0C000C0C000C0C43
:10520000007FFC007FFC00000000000000000000A8
:10521000000000000000000000000000000000008E
:105220000000000000F00F00F81F00381C003C3C9C
:10523000003C3C00366C00366C0033CC0033CC00B4
:10524000318C00300C00300C00FE7F00FE7F00002F
:10525000000000000000000000000000000000004E
:105260000000000000000000000000000078FE00C8
:1052700078FE001C18001E18001F18001B18001BC9
:10528000980019D80018D80018F8001878001838B5
:10529000007F18007F1800000000000000000000E0
:1052A00000000000000000000000000000000000FE
:1052B000000000000003C0000FF0001C38001818A8
:1052C00000381C00300C00300C00300C00300C009A
:1052D000381C001818001C38000FF00003C0000034
:1052E00000000000000000000000000000000000BE
:1052F000000000000000000000000000003FF0007F
:105300003FF8000C1C000C0C000C0C000C0C000CEA
:1053100018000FF8000FE0000C00000C00000C005B
:10532000003FC0003FC0000000000000000000007F
:10533000000000000000000000000000000000006D
:10534000000000000003C0000FF0001C3800181817
:1053500000381C00300C00300C00300C00300C0009
:10536000381C001818001C38000FF00007C0000798
:10537000CC000FFC000C3800000000000000000012
:10538000000000000000000000000000007FE000BE
:105390007FF0001838001818001818001838001F7F
:1053A000F0001FC00018E000187000183000183816
:1053B000007F1E007F0E00000000000000000000C3
:1053C00000000000000000000000000000000000DD
:1053D000000000000007D8000FF8001C3800181863
:1053E000001818001E00000FC00003F00000780035
:1053F0001818001818001C38001FF0001BE00000EF
:10540000000000000000000000000000000000009C
:10541000000000000000000000000000003FFC0051
:105420003FFC00318C00318C00318C00318C00014C
:105430008000018000018000018000018000018067
:10544000000FF0000FF0000000000000000000005E
:10545000000000000000000000000000000000004C
:1054600000000000007E7E007E7E001818001818E4
:10547000001818001818001818001818001818003C
:105480001818001818000C30000FF00003C00000BE
:10549000000000000000000000000000000000000C
:1054A000000000000000000000000000007F7F00FE
:1054B0007F7F00180C000C18000C18000C18000658
:1054C000300006300003600003600003600001C08C
:1054D0000001C0000080000000000000000000008B
:1054E00000000000000000000000000000000000BC
:1054F0000000000000FE3F80FE3F803006003006C6
:105500000030860019CC0019CC001B6C001B6C000D
:105510001E7C000E38000E38000C18000C1800001D
:10552000000000000000000000000000000000007B
:10553000000000000000000000000000007E7E006F
:105540007E7E001818000C300006600003C00001C9
:10555000800001800003C0000660000C30001818B5
:10556000007E7E007E7E0000000000000000000043
:10557000000000000000000000000000000000002B
:1055800000000000007C7E007C7E001818000C30BB
:105590000006600006600003C0000180000180007A
:1055A0000180000180000180000FF0000FF000007A
:1055B00000000000000000000000000000000000EB
:1055C000000000000000000000000000001FF800C4
:1055D0001FF80018180018300018600018C00001EB
:1055E00080000300000618000C180018180030187E
:1055F000003FF8003FF8000000000000000000003D
:10560000000000000000000000000000000000009A
:10561000000001F00001F000018000018000018025
:1056200000018000018000018000018000018000F5
:1056300001800001800001800001800001800001E4
:10564000800001F00001F0000000000000000000F8
:10565000000000001800001800001C00000C0000F2
:105660000E00000600000600000300000300000119
:10567000800001800000C00000C0000060000060E9
:105680000000700000300000380000180000180012
:10569000000000000000000000000000000000000A
:1056A00000000F80000F8000018000018000018059
:1056B0000001800001800001800001800001800065
:1056C0000180000180000180000180000180000154
:1056D00080000F80000F800000000000000000002C
:1056E0000000000000000000800001C00003E00096
:1056F0000770000630000C1800180C0010040000A1
:105700000000000000000000000000000000000099
:105710000000000000000000000000000000000089
:105720000000000000000000000000000000000079
:105730000000000000000000000000000000000069
:105740000000000000000000000000000000000059
:105750000000000000000000000000000000000049
:105760000000000000000000000000000000FFFF3B
:1057700000FFFF0000000003000003800000E000C5
:1057800000600000000000000000000000000000B9
:105790000000000000000000000000000000000009
:1057A00000000000000000000000000000000000F9
:1057B00000000000000000000000000000000000E9
:1057C00000000000000000000000000000000FC00A
:1057D000001FE00000300000300007F0001FF00064
:1057E0003830003030003070001FFC000FBC00006B
:1057F00000000000000000000000000000000000A9
:1058000000000000000000000000780000780000A8
:105810001800001800001BE0001FF8001C180018FA
:105820000C00180C00180C00180C00180C001C18A8
:10583000007FF8007BE00000000000000000000096
:105840000000000000000000000000000000000058
:10585000000000000000000000000000000003EC59
:10586000000FFC001C1C00380C00300C0030000045
:10587000300000380C001C1C000FF80003F0000082
:105880000000000000000000000000000000000018
:105890000000000000000000000000780000780018
:1058A00000180000180007D8001FF8001838003052
:1058B0001800301800301800301800301800183860
:1058C000001FFE0007DE00000000000000000000D6
:1058D00000000000000000000000000000000000C8
:1058E000000000000000000000000000000007E0D1
:1058F000001FF800181800300C003FFC003FFC00AF
:10590000300000300000180C001FFC0007F0000001
:105910000000000000000000000000000000000087
:105920000000000000000000000001FC0003FC007B
:105930000600000600003FF8003FF80006000006E1
:105940000000060000060000060000060000060039
:10595000003FF0003FF000000000000000000000E9
:105960000000000000000000000000000000000037
:10597000000000000000000000000000000007DE42
:10598000001FFE00183800301800301800301800D2
:105990003018003018001838001FF80007D8000031
:1059A00018000018000038000FF0000FC0000000C1
:1059B00000000000000000000000780000780000F7
:1059C0001800001800001BE0001FF0001C38001831
:1059D00018001818001818001818001818001818BF
:1059E000007E7E007E7E00000000000000000000BF
:1059F00000000000000000000000000000000000A7
:105A000000000180000180000000000000001F80F5
:105A1000001F8000018000018000018000018000E3
:105A20000180000180000180003FFC003FFC00007D
:105A30000000000000000000000000000000000066
:105A40000000000000000000000000C00000C000D6
:105A50000000000000001FF0001FF00000300000F8
:105A60003000003000003000003000003000003016
:105A700000003000003000003000003000007000F6
:105A80001FE0001F80000000000000000000000078
:105A900000003C00003C00000C00000C00000CF872
:105AA000000CF8000CC0000D80000F80000F0000FB
:105AB0000F80000DC0000CE0003C7C003C7C00002E
:105AC00000000000000000000000000000000000D6
:105AD000000000000000000000001F80001F800088
